{
  "contractName": "Deposit",
  "abi": [
    {
      "inputs": [],
      "payable": false,
      "stateMutability": "nonpayable",
      "type": "constructor"
    },
    {
      "payable": true,
      "stateMutability": "payable",
      "type": "fallback"
    },
    {
      "constant": false,
      "inputs": [
        {
          "internalType": "address",
          "name": "_factory",
          "type": "address"
        }
      ],
      "name": "initialize",
      "outputs": [],
      "payable": false,
      "stateMutability": "nonpayable",
      "type": "function"
    },
    {
      "constant": true,
      "inputs": [],
      "name": "lotSizeSatoshis",
      "outputs": [
        {
          "internalType": "uint64",
          "name": "",
          "type": "uint64"
        }
      ],
      "payable": false,
      "stateMutability": "view",
      "type": "function"
    },
    {
      "constant": true,
      "inputs": [],
      "name": "lotSizeTbtc",
      "outputs": [
        {
          "internalType": "uint256",
          "name": "",
          "type": "uint256"
        }
      ],
      "payable": false,
      "stateMutability": "view",
      "type": "function"
    },
    {
      "constant": true,
      "inputs": [],
      "name": "signerFeeTbtc",
      "outputs": [
        {
          "internalType": "uint256",
          "name": "",
          "type": "uint256"
        }
      ],
      "payable": false,
      "stateMutability": "view",
      "type": "function"
    },
    {
      "constant": true,
      "inputs": [],
      "name": "currentState",
      "outputs": [
        {
          "internalType": "uint256",
          "name": "",
          "type": "uint256"
        }
      ],
      "payable": false,
      "stateMutability": "view",
      "type": "function"
    },
    {
      "constant": true,
      "inputs": [],
      "name": "inActive",
      "outputs": [
        {
          "internalType": "bool",
          "name": "",
          "type": "bool"
        }
      ],
      "payable": false,
      "stateMutability": "view",
      "type": "function"
    },
    {
      "constant": true,
      "inputs": [],
      "name": "keepAddress",
      "outputs": [
        {
          "internalType": "address",
          "name": "",
          "type": "address"
        }
      ],
      "payable": false,
      "stateMutability": "view",
      "type": "function"
    },
    {
      "constant": true,
      "inputs": [],
      "name": "remainingTerm",
      "outputs": [
        {
          "internalType": "uint256",
          "name": "",
          "type": "uint256"
        }
      ],
      "payable": false,
      "stateMutability": "view",
      "type": "function"
    },
    {
      "constant": true,
      "inputs": [],
      "name": "collateralizationPercentage",
      "outputs": [
        {
          "internalType": "uint256",
          "name": "",
          "type": "uint256"
        }
      ],
      "payable": false,
      "stateMutability": "view",
      "type": "function"
    },
    {
      "constant": true,
      "inputs": [],
      "name": "initialCollateralizedPercent",
      "outputs": [
        {
          "internalType": "uint16",
          "name": "",
          "type": "uint16"
        }
      ],
      "payable": false,
      "stateMutability": "view",
      "type": "function"
    },
    {
      "constant": true,
      "inputs": [],
      "name": "undercollateralizedThresholdPercent",
      "outputs": [
        {
          "internalType": "uint16",
          "name": "",
          "type": "uint16"
        }
      ],
      "payable": false,
      "stateMutability": "view",
      "type": "function"
    },
    {
      "constant": true,
      "inputs": [],
      "name": "severelyUndercollateralizedThresholdPercent",
      "outputs": [
        {
          "internalType": "uint16",
          "name": "",
          "type": "uint16"
        }
      ],
      "payable": false,
      "stateMutability": "view",
      "type": "function"
    },
    {
      "constant": true,
      "inputs": [],
      "name": "utxoValue",
      "outputs": [
        {
          "internalType": "uint256",
          "name": "",
          "type": "uint256"
        }
      ],
      "payable": false,
      "stateMutability": "view",
      "type": "function"
    },
    {
      "constant": true,
      "inputs": [],
      "name": "fundingInfo",
      "outputs": [
        {
          "internalType": "bytes8",
          "name": "utxoValueBytes",
          "type": "bytes8"
        },
        {
          "internalType": "uint256",
          "name": "fundedAt",
          "type": "uint256"
        },
        {
          "internalType": "bytes",
          "name": "utxoOutpoint",
          "type": "bytes"
        }
      ],
      "payable": false,
      "stateMutability": "view",
      "type": "function"
    },
    {
      "constant": true,
      "inputs": [],
      "name": "auctionValue",
      "outputs": [
        {
          "internalType": "uint256",
          "name": "",
          "type": "uint256"
        }
      ],
      "payable": false,
      "stateMutability": "view",
      "type": "function"
    },
    {
      "constant": true,
      "inputs": [],
      "name": "withdrawableAmount",
      "outputs": [
        {
          "internalType": "uint256",
          "name": "",
          "type": "uint256"
        }
      ],
      "payable": false,
      "stateMutability": "view",
      "type": "function"
    },
    {
      "constant": false,
      "inputs": [],
      "name": "notifySignerSetupFailed",
      "outputs": [],
      "payable": false,
      "stateMutability": "nonpayable",
      "type": "function"
    },
    {
      "constant": false,
      "inputs": [],
      "name": "retrieveSignerPubkey",
      "outputs": [],
      "payable": false,
      "stateMutability": "nonpayable",
      "type": "function"
    },
    {
      "constant": false,
      "inputs": [],
      "name": "notifyFundingTimedOut",
      "outputs": [],
      "payable": false,
      "stateMutability": "nonpayable",
      "type": "function"
    },
    {
      "constant": false,
      "inputs": [
        {
          "internalType": "bytes",
          "name": "_abortOutputScript",
          "type": "bytes"
        }
      ],
      "name": "requestFunderAbort",
      "outputs": [],
      "payable": false,
      "stateMutability": "nonpayable",
      "type": "function"
    },
    {
      "constant": false,
      "inputs": [
        {
          "internalType": "uint8",
          "name": "_v",
          "type": "uint8"
        },
        {
          "internalType": "bytes32",
          "name": "_r",
          "type": "bytes32"
        },
        {
          "internalType": "bytes32",
          "name": "_s",
          "type": "bytes32"
        },
        {
          "internalType": "bytes32",
          "name": "_signedDigest",
          "type": "bytes32"
        },
        {
          "internalType": "bytes",
          "name": "_preimage",
          "type": "bytes"
        }
      ],
      "name": "provideFundingECDSAFraudProof",
      "outputs": [],
      "payable": false,
      "stateMutability": "nonpayable",
      "type": "function"
    },
    {
      "constant": false,
      "inputs": [
        {
          "internalType": "bytes4",
          "name": "_txVersion",
          "type": "bytes4"
        },
        {
          "internalType": "bytes",
          "name": "_txInputVector",
          "type": "bytes"
        },
        {
          "internalType": "bytes",
          "name": "_txOutputVector",
          "type": "bytes"
        },
        {
          "internalType": "bytes4",
          "name": "_txLocktime",
          "type": "bytes4"
        },
        {
          "internalType": "uint8",
          "name": "_fundingOutputIndex",
          "type": "uint8"
        },
        {
          "internalType": "bytes",
          "name": "_merkleProof",
          "type": "bytes"
        },
        {
          "internalType": "uint256",
          "name": "_txIndexInBlock",
          "type": "uint256"
        },
        {
          "internalType": "bytes",
          "name": "_bitcoinHeaders",
          "type": "bytes"
        }
      ],
      "name": "provideBTCFundingProof",
      "outputs": [],
      "payable": false,
      "stateMutability": "nonpayable",
      "type": "function"
    },
    {
      "constant": false,
      "inputs": [],
      "name": "notifyCourtesyCall",
      "outputs": [],
      "payable": false,
      "stateMutability": "nonpayable",
      "type": "function"
    },
    {
      "constant": false,
      "inputs": [],
      "name": "exitCourtesyCall",
      "outputs": [],
      "payable": false,
      "stateMutability": "nonpayable",
      "type": "function"
    },
    {
      "constant": false,
      "inputs": [],
      "name": "notifyCourtesyCallExpired",
      "outputs": [],
      "payable": false,
      "stateMutability": "nonpayable",
      "type": "function"
    },
    {
      "constant": false,
      "inputs": [],
      "name": "notifyUndercollateralizedLiquidation",
      "outputs": [],
      "payable": false,
      "stateMutability": "nonpayable",
      "type": "function"
    },
    {
      "constant": false,
      "inputs": [
        {
          "internalType": "uint8",
          "name": "_v",
          "type": "uint8"
        },
        {
          "internalType": "bytes32",
          "name": "_r",
          "type": "bytes32"
        },
        {
          "internalType": "bytes32",
          "name": "_s",
          "type": "bytes32"
        },
        {
          "internalType": "bytes32",
          "name": "_signedDigest",
          "type": "bytes32"
        },
        {
          "internalType": "bytes",
          "name": "_preimage",
          "type": "bytes"
        }
      ],
      "name": "provideECDSAFraudProof",
      "outputs": [],
      "payable": false,
      "stateMutability": "nonpayable",
      "type": "function"
    },
    {
      "constant": false,
      "inputs": [],
      "name": "notifyRedemptionSignatureTimedOut",
      "outputs": [],
      "payable": false,
      "stateMutability": "nonpayable",
      "type": "function"
    },
    {
      "constant": false,
      "inputs": [],
      "name": "notifyRedemptionProofTimedOut",
      "outputs": [],
      "payable": false,
      "stateMutability": "nonpayable",
      "type": "function"
    },
    {
      "constant": false,
      "inputs": [],
      "name": "purchaseSignerBondsAtAuction",
      "outputs": [],
      "payable": false,
      "stateMutability": "nonpayable",
      "type": "function"
    },
    {
      "constant": true,
      "inputs": [
        {
          "internalType": "address",
          "name": "_redeemer",
          "type": "address"
        }
      ],
      "name": "getRedemptionTbtcRequirement",
      "outputs": [
        {
          "internalType": "uint256",
          "name": "",
          "type": "uint256"
        }
      ],
      "payable": false,
      "stateMutability": "view",
      "type": "function"
    },
    {
      "constant": true,
      "inputs": [
        {
          "internalType": "address",
          "name": "_redeemer",
          "type": "address"
        }
      ],
      "name": "getOwnerRedemptionTbtcRequirement",
      "outputs": [
        {
          "internalType": "uint256",
          "name": "",
          "type": "uint256"
        }
      ],
      "payable": false,
      "stateMutability": "view",
      "type": "function"
    },
    {
      "constant": false,
      "inputs": [
        {
          "internalType": "bytes8",
          "name": "_outputValueBytes",
          "type": "bytes8"
        },
        {
          "internalType": "bytes",
          "name": "_redeemerOutputScript",
          "type": "bytes"
        }
      ],
      "name": "requestRedemption",
      "outputs": [],
      "payable": false,
      "stateMutability": "nonpayable",
      "type": "function"
    },
    {
      "constant": false,
      "inputs": [
        {
          "internalType": "uint8",
          "name": "_v",
          "type": "uint8"
        },
        {
          "internalType": "bytes32",
          "name": "_r",
          "type": "bytes32"
        },
        {
          "internalType": "bytes32",
          "name": "_s",
          "type": "bytes32"
        }
      ],
      "name": "provideRedemptionSignature",
      "outputs": [],
      "payable": false,
      "stateMutability": "nonpayable",
      "type": "function"
    },
    {
      "constant": false,
      "inputs": [
        {
          "internalType": "bytes8",
          "name": "_previousOutputValueBytes",
          "type": "bytes8"
        },
        {
          "internalType": "bytes8",
          "name": "_newOutputValueBytes",
          "type": "bytes8"
        }
      ],
      "name": "increaseRedemptionFee",
      "outputs": [],
      "payable": false,
      "stateMutability": "nonpayable",
      "type": "function"
    },
    {
      "constant": false,
      "inputs": [
        {
          "internalType": "bytes4",
          "name": "_txVersion",
          "type": "bytes4"
        },
        {
          "internalType": "bytes",
          "name": "_txInputVector",
          "type": "bytes"
        },
        {
          "internalType": "bytes",
          "name": "_txOutputVector",
          "type": "bytes"
        },
        {
          "internalType": "bytes4",
          "name": "_txLocktime",
          "type": "bytes4"
        },
        {
          "internalType": "bytes",
          "name": "_merkleProof",
          "type": "bytes"
        },
        {
          "internalType": "uint256",
          "name": "_txIndexInBlock",
          "type": "uint256"
        },
        {
          "internalType": "bytes",
          "name": "_bitcoinHeaders",
          "type": "bytes"
        }
      ],
      "name": "provideRedemptionProof",
      "outputs": [],
      "payable": false,
      "stateMutability": "nonpayable",
      "type": "function"
    },
    {
      "constant": false,
      "inputs": [
        {
          "internalType": "contract ITBTCSystem",
          "name": "_tbtcSystem",
          "type": "address"
        },
        {
          "internalType": "contract TBTCToken",
          "name": "_tbtcToken",
          "type": "address"
        },
        {
          "internalType": "contract IERC721",
          "name": "_tbtcDepositToken",
          "type": "address"
        },
        {
          "internalType": "contract FeeRebateToken",
          "name": "_feeRebateToken",
          "type": "address"
        },
        {
          "internalType": "address",
          "name": "_vendingMachineAddress",
          "type": "address"
        },
        {
          "internalType": "uint64",
          "name": "_lotSizeSatoshis",
          "type": "uint64"
        }
      ],
      "name": "initializeDeposit",
      "outputs": [],
      "payable": true,
      "stateMutability": "payable",
      "type": "function"
    },
    {
      "constant": false,
      "inputs": [
        {
          "internalType": "bytes8",
          "name": "_outputValueBytes",
          "type": "bytes8"
        },
        {
          "internalType": "bytes",
          "name": "_redeemerOutputScript",
          "type": "bytes"
        },
        {
          "internalType": "address payable",
          "name": "_finalRecipient",
          "type": "address"
        }
      ],
      "name": "transferAndRequestRedemption",
      "outputs": [],
      "payable": false,
      "stateMutability": "nonpayable",
      "type": "function"
    },
    {
      "constant": false,
      "inputs": [],
      "name": "withdrawFunds",
      "outputs": [],
      "payable": false,
      "stateMutability": "nonpayable",
      "type": "function"
    }
  ],
  "bytecode": "0x60806040526000805460ff191690553480156200001b57600080fd5b506200003463deadbeef6001600160e01b036200003a16565b620000f4565b6001600160a01b038116620000815760405162461bcd60e51b8152600401808060200182810382526023815260200180620032ed6023913960400191505060405180910390fd5b60005460ff1615620000c55760405162461bcd60e51b8152600401808060200182810382526025815260200180620033106025913960400191505060405180910390fd5b6000805460ff196001600160a01b0390931661010002610100600160a81b031990911617919091166001179055565b6131e980620001046000396000f3fe60806040526004361061022f5760003560e01c806391d165e31161012e578063c4d66de8116100ab578063d9f74b0e1161006f578063d9f74b0e14610b8e578063dba4915314610e01578063ea3db25014610eb0578063f97a02fa14610ec5578063fb7c592a14610eee5761022f565b8063c4d66de8146107be578063d02fd958146107f1578063d459c41614610824578063d5eef97114610a8f578063d8d0233014610b5b5761022f565b8063994aa931116100f2578063994aa93114610642578063a81e63f714610704578063b4bd2e7a1461075b578063ba34683914610770578063c4159559146107855761022f565b806391d165e3146105b2578063946fbf4c146105c7578063951303f5146105dc57806396aab311146105f15780639894d734146106065761022f565b80632c735daa116101bc5780636e4668be116101805780636e4668be1461052c57806376ef55101461054157806385df153d1461055657806387a90d801461056b57806390a2f687146105805761022f565b80632c735daa146103f05780632d0994421461040557806335bc0ebe146104d15780634f706e44146104e65780636c3b0114146104fb5761022f565b806313f654df1161020357806313f654df1461038757806324600fc31461039c578063259b1ea3146103b1578063287b32e5146103c65780632b0bc981146103db5761022f565b806249ce751461026e578063058d37031461031f5780630c3f6acf146103465780630d5889f41461035b575b361561026c5760405162461bcd60e51b815260040180806020018281038252603b81526020018061300a603b913960400191505060405180910390fd5b005b34801561027a57600080fd5b5061026c6004803603602081101561029157600080fd5b810190602081018135600160201b8111156102ab57600080fd5b8201836020820111156102bd57600080fd5b803590602001918460018302840111600160201b831117156102de57600080fd5b91908080601f016020809104026020016040519081016040528093929190818152602001838380828437600092019190915250929550610fbb945050505050565b34801561032b57600080fd5b50610334611156565b60408051918252519081900360200190f35b34801561035257600080fd5b506103346111db565b34801561036757600080fd5b506103706111eb565b6040805161ffff9092168252519081900360200190f35b34801561039357600080fd5b506103346111fc565b3480156103a857600080fd5b5061026c611309565b3480156103bd57600080fd5b5061026c611315565b3480156103d257600080fd5b5061026c611381565b3480156103e757600080fd5b5061026c6113d3565b3480156103fc57600080fd5b5061026c611425565b34801561041157600080fd5b5061026c600480360360a081101561042857600080fd5b60ff8235169160208101359160408201359160608101359181019060a081016080820135600160201b81111561045d57600080fd5b82018360208201111561046f57600080fd5b803590602001918460018302840111600160201b8311171561049057600080fd5b91908080601f016020809104026020016040519081016040528093929190818152602001838380828437600092019190915250929550611477945050505050565b3480156104dd57600080fd5b50610334611578565b3480156104f257600080fd5b5061026c6115cc565b34801561050757600080fd5b5061051061161e565b604080516001600160a01b039092168252519081900360200190f35b34801561053857600080fd5b5061033461162d565b34801561054d57600080fd5b50610370611681565b34801561056257600080fd5b5061037061168b565b34801561057757600080fd5b5061033461169b565b34801561058c57600080fd5b506105956117a9565b6040805167ffffffffffffffff9092168252519081900360200190f35b3480156105be57600080fd5b5061026c6117c0565b3480156105d357600080fd5b50610334611812565b3480156105e857600080fd5b50610334611866565b3480156105fd57600080fd5b5061026c611877565b34801561061257600080fd5b5061026c6004803603604081101561062957600080fd5b506001600160c01b0319813581169160200135166118c9565b34801561064e57600080fd5b5061026c6004803603604081101561066557600080fd5b6001600160c01b03198235169190810190604081016020820135600160201b81111561069057600080fd5b8201836020820111156106a257600080fd5b803590602001918460018302840111600160201b831117156106c357600080fd5b91908080601f01602080910402602001604051908101604052809392919081815260200183838082843760009201919091525092955061194f945050505050565b61026c600480360360c081101561071a57600080fd5b5080356001600160a01b03908116916020810135821691604082013581169160608101358216916080820135169060a0013567ffffffffffffffff16611a21565b34801561076757600080fd5b5061026c611b88565b34801561077c57600080fd5b5061026c611bda565b34801561079157600080fd5b5061026c600480360360608110156107a857600080fd5b5060ff8135169060208101359060400135611c2c565b3480156107ca57600080fd5b5061026c600480360360208110156107e157600080fd5b50356001600160a01b0316611cb2565b3480156107fd57600080fd5b506103346004803603602081101561081457600080fd5b50356001600160a01b0316611d68565b34801561083057600080fd5b5061026c600480360360e081101561084757600080fd5b6001600160e01b03198235169190810190604081016020820135600160201b81111561087257600080fd5b82018360208201111561088457600080fd5b803590602001918460018302840111600160201b831117156108a557600080fd5b91908080601f0160208091040260200160405190810160405280939291908181526020018383808284376000920191909152509295949360208101935035915050600160201b8111156108f757600080fd5b82018360208201111561090957600080fd5b803590602001918460018302840111600160201b8311171561092a57600080fd5b91908080601f01602080910402602001604051908101604052809392919081815260200183838082843760009201919091525092956001600160e01b0319853516959094909350604081019250602001359050600160201b81111561098e57600080fd5b8201836020820111156109a057600080fd5b803590602001918460018302840111600160201b831117156109c157600080fd5b91908080601f01602080910402602001604051908101604052809392919081815260200183838082843760009201919091525092958435959094909350604081019250602001359050600160201b811115610a1b57600080fd5b820183602082011115610a2d57600080fd5b803590602001918460018302840111600160201b83111715610a4e57600080fd5b91908080601f016020809104026020016040519081016040528093929190818152602001838380828437600092019190915250929550611d89945050505050565b348015610a9b57600080fd5b5061026c600480360360a0811015610ab257600080fd5b60ff8235169160208101359160408201359160608101359181019060a081016080820135600160201b811115610ae757600080fd5b820183602082011115610af957600080fd5b803590602001918460018302840111600160201b83111715610b1a57600080fd5b91908080601f016020809104026020016040519081016040528093929190818152602001838380828437600092019190915250929550611fcb945050505050565b348015610b6757600080fd5b5061033460048036036020811015610b7e57600080fd5b50356001600160a01b031661205d565b348015610b9a57600080fd5b5061026c6004803603610100811015610bb257600080fd5b6001600160e01b03198235169190810190604081016020820135600160201b811115610bdd57600080fd5b820183602082011115610bef57600080fd5b803590602001918460018302840111600160201b83111715610c1057600080fd5b91908080601f0160208091040260200160405190810160405280939291908181526020018383808284376000920191909152509295949360208101935035915050600160201b811115610c6257600080fd5b820183602082011115610c7457600080fd5b803590602001918460018302840111600160201b83111715610c9557600080fd5b91908080601f01602080910402602001604051908101604052809392919081815260200183838082843760009201919091525092956001600160e01b03198535169560ff60208701351695919450925060608101915060400135600160201b811115610d0057600080fd5b820183602082011115610d1257600080fd5b803590602001918460018302840111600160201b83111715610d3357600080fd5b91908080601f01602080910402602001604051908101604052809392919081815260200183838082843760009201919091525092958435959094909350604081019250602001359050600160201b811115610d8d57600080fd5b820183602082011115610d9f57600080fd5b803590602001918460018302840111600160201b83111715610dc057600080fd5b91908080601f016020809104026020016040519081016040528093929190818152602001838380828437600092019190915250929550612072945050505050565b348015610e0d57600080fd5b50610e166122c2565b60405180846001600160c01b0319166001600160c01b031916815260200183815260200180602001828103825283818151815260200191508051906020019080838360005b83811015610e73578181015183820152602001610e5b565b50505050905090810190601f168015610ea05780820380516001836020036101000a031916815260200191505b5094505050505060405180910390f35b348015610ebc57600080fd5b5061026c612428565b348015610ed157600080fd5b50610eda61247a565b604080519115158252519081900360200190f35b348015610efa57600080fd5b5061026c60048036036060811015610f1157600080fd5b6001600160c01b03198235169190810190604081016020820135600160201b811115610f3c57600080fd5b820183602082011115610f4e57600080fd5b803590602001918460018302840111600160201b83111715610f6f57600080fd5b91908080601f016020809104026020016040519081016040528093929190818152602001838380828437600092019190915250929550505090356001600160a01b031691506124ce9050565b6040805163ad91ce1f60e01b8152600160048201529051339173__DepositUtils__________________________9163ad91ce1f91602480820192602092909190829003018186803b15801561101057600080fd5b505af4158015611024573d6000803e3d6000fd5b505050506040513d602081101561103a57600080fd5b50516001600160a01b0316146110815760405162461bcd60e51b81526004018080602001828103825260288152602001806130456028913960400191505060405180910390fd5b60408051635f3c5d8960e01b81526001600482018181526024830193845284516044840152845173__DepositFunding________________________94635f3c5d8994879392606490910190602085019080838360005b838110156110f05781810151838201526020016110d8565b50505050905090810190601f16801561111d5780820380516001836020036101000a031916815260200191505b50935050505060006040518083038186803b15801561113b57600080fd5b505af415801561114f573d6000803e3d6000fd5b5050505050565b6000600173__DepositUtils__________________________63a880784890916040518263ffffffff1660e01b81526004018082815260200191505060206040518083038186803b1580156111aa57600080fd5b505af41580156111be573d6000803e3d6000fd5b505050506040513d60208110156111d457600080fd5b5051905090565b600554600160e01b900460ff1690565b600654600160201b900461ffff1690565b6000600173__DepositStates_________________________63fb0611ff90916040518263ffffffff1660e01b81526004018082815260200191505060206040518083038186803b15801561125057600080fd5b505af4158015611264573d6000803e3d6000fd5b505050506040513d602081101561127a57600080fd5b50516112b75760405162461bcd60e51b815260040180806020018281038252602981526020018061315f6029913960400191505060405180910390fd5b604080516350ef3aa160e01b815260016004820152905173__DepositUtils__________________________916350ef3aa1916024808301926020929190829003018186803b1580156111aa57600080fd5b61131360016125f5565b565b6040805163426e16c160e01b815260016004820152905173__DepositFunding________________________9163426e16c1916024808301926000929190829003018186803b15801561136757600080fd5b505af415801561137b573d6000803e3d6000fd5b50505050565b6040805163077aceb960e31b815260016004820152905173__DepositLiquidation____________________91633bd675c8916024808301926000929190829003018186803b15801561136757600080fd5b6040805163439b7be160e11b815260016004820152905173__DepositRedemption_____________________91638736f7c2916024808301926000929190829003018186803b15801561136757600080fd5b60408051631754228360e11b815260016004820152905173__DepositLiquidation____________________91632ea84506916024808301926000929190829003018186803b15801561136757600080fd5b600173__DepositFunding________________________63fb12d9df909187878787876040518763ffffffff1660e01b8152600401808781526020018660ff1660ff16815260200185815260200184815260200183815260200180602001828103825283818151815260200191508051906020019080838360005b8381101561150a5781810151838201526020016114f2565b50505050905090810190601f1680156115375780820380516001836020036101000a031916815260200191505b5097505050505050505060006040518083038186803b15801561155957600080fd5b505af415801561156d573d6000803e3d6000fd5b505050505050505050565b6000600173__DepositUtils__________________________6391f88c8590916040518263ffffffff1660e01b81526004018082815260200191505060206040518083038186803b1580156111aa57600080fd5b604080516361f036d360e01b815260016004820152905173__DepositFunding________________________916361f036d3916024808301926000929190829003018186803b15801561136757600080fd5b600b546001600160a01b031690565b6000600173__DepositLiquidation____________________63e86e97b690916040518263ffffffff1660e01b81526004018082815260200191505060206040518083038186803b1580156111aa57600080fd5b60065461ffff1690565b60065462010000900461ffff1690565b6000600173__DepositStates_________________________6348312fa390916040518263ffffffff1660e01b81526004018082815260200191505060206040518083038186803b1580156116ef57600080fd5b505af4158015611703573d6000803e3d6000fd5b505050506040513d602081101561171957600080fd5b5051156117575760405162461bcd60e51b8152600401808060200182810382526041815260200180612f7a6041913960600191505060405180910390fd5b60408051631ec664f560e21b815260016004820152905173__DepositUtils__________________________91637b1993d4916024808301926020929190829003018186803b1580156111aa57600080fd5b600554600160a01b900467ffffffffffffffff1690565b60408051634e40547560e11b815260016004820152905173__DepositLiquidation____________________91639c80a8ea916024808301926000929190829003018186803b15801561136757600080fd5b6000600173__DepositUtils__________________________637949c2d290916040518263ffffffff1660e01b81526004018082815260200191505060206040518083038186803b1580156111aa57600080fd5b60006118726001612812565b905090565b6040805163a221542160e01b815260016004820152905173__DepositLiquidation____________________9163a2215421916024808301926000929190829003018186803b15801561136757600080fd5b60408051632d0c21bf60e01b8152600160048201526001600160c01b0319808516602483015283166044820152905173__DepositRedemption_____________________91632d0c21bf916064808301926000929190829003018186803b15801561193357600080fd5b505af4158015611947573d6000803e3d6000fd5b505050505050565b604051632cac94ef60e01b81526001600482018181526001600160c01b03198516602484015260606044840190815284516064850152845173__DepositRedemption_____________________94632cac94ef94938893889391929091608490910190602085019080838360005b838110156119d55781810151838201526020016119bd565b50505050905090810190601f168015611a025780820380516001836020036101000a031916815260200191505b5094505050505060006040518083038186803b15801561193357600080fd5b60005460ff16611a625760405162461bcd60e51b815260040180806020018281038252602d815260200180613188602d913960400191505060405180910390fd5b60005461010090046001600160a01b03163314611ab05760405162461bcd60e51b81526004018080602001828103825260268152602001806131396026913960400191505060405180910390fd5b600180546001600160a01b03199081166001600160a01b03898116919091178355600280548316898316179055600380548316888316179055600480548316878316178155600580549093169186169190911790915560408051632851e9dd60e01b81529182019290925267ffffffffffffffff83166024820152905173__DepositFunding________________________91632851e9dd916044808301926000929190829003018186803b158015611b6857600080fd5b505af4158015611b7c573d6000803e3d6000fd5b50505050505050505050565b604080516324e8e19960e21b815260016004820152905173__DepositLiquidation____________________916393a38664916024808301926000929190829003018186803b15801561136757600080fd5b604080516304bfa27760e01b815260016004820152905173__DepositRedemption_____________________916304bfa277916024808301926000929190829003018186803b15801561136757600080fd5b60408051631e3435d560e11b81526001600482015260ff851660248201526044810184905260648101839052905173__DepositRedemption_____________________91633c686baa916084808301926000929190829003018186803b158015611c9557600080fd5b505af4158015611ca9573d6000803e3d6000fd5b50505050505050565b6001600160a01b038116611cf75760405162461bcd60e51b8152600401808060200182810382526023815260200180612fbb6023913960400191505060405180910390fd5b60005460ff1615611d395760405162461bcd60e51b81526004018080602001828103825260258152602001806131146025913960400191505060405180910390fd5b6000805460ff196001600160a01b0390931661010002610100600160a81b031990911617919091166001179055565b600080611d7d6001848363ffffffff61282916565b5090925050505b919050565b604051636c7e2b9d60e01b81526001600482018181526001600160e01b0319808b1660248501528716608484015260c48301859052610100604484019081528951610104850152895173__DepositRedemption_____________________94636c7e2b9d94938d938d938d938d938d938d938d93606481019160a482019160e48101916101249091019060208d019080838360005b83811015611e36578181015183820152602001611e1e565b50505050905090810190601f168015611e635780820380516001836020036101000a031916815260200191505b5085810384528a5181528a516020918201918c019080838360005b83811015611e96578181015183820152602001611e7e565b50505050905090810190601f168015611ec35780820380516001836020036101000a031916815260200191505b5085810383528851815288516020918201918a019080838360005b83811015611ef6578181015183820152602001611ede565b50505050905090810190601f168015611f235780820380516001836020036101000a031916815260200191505b50858103825286518152865160209182019188019080838360005b83811015611f56578181015183820152602001611f3e565b50505050905090810190601f168015611f835780820380516001836020036101000a031916815260200191505b509c5050505050505050505050505060006040518083038186803b158015611faa57600080fd5b505af4158015611fbe573d6000803e3d6000fd5b5050505050505050505050565b600173__DepositLiquidation____________________634941676c909187878787876040518763ffffffff1660e01b8152600401808781526020018660ff1660ff16815260200185815260200184815260200183815260200180602001828103825283818151815260200191508051906020019080838360008381101561150a5781810151838201526020016114f2565b600080611d7d6001848163ffffffff61282916565b60405163d745519360e01b81526001600482018181526001600160e01b0319808c1660248501528816608484015260ff871660a484015260e48301859052610120604484019081528a516101248501528a5173__DepositFunding________________________9463d745519394938e938e938e938e938e938e938e938e939291606482019160c4810191610104820191610144019060208e019080838360005b8381101561212b578181015183820152602001612113565b50505050905090810190601f1680156121585780820380516001836020036101000a031916815260200191505b5085810384528b5181528b516020918201918d019080838360005b8381101561218b578181015183820152602001612173565b50505050905090810190601f1680156121b85780820380516001836020036101000a031916815260200191505b5085810383528851815288516020918201918a019080838360005b838110156121eb5781810151838201526020016121d3565b50505050905090810190601f1680156122185780820380516001836020036101000a031916815260200191505b50858103825286518152865160209182019188019080838360005b8381101561224b578181015183820152602001612233565b50505050905090810190601f1680156122785780820380516001836020036101000a031916815260200191505b509d505050505050505050505050505060006040518083038186803b1580156122a057600080fd5b505af41580156122b4573d6000803e3d6000fd5b505050505050505050505050565b6000806060600173__DepositStates_________________________6348312fa390916040518263ffffffff1660e01b81526004018082815260200191505060206040518083038186803b15801561231957600080fd5b505af415801561232d573d6000803e3d6000fd5b505050506040513d602081101561234357600080fd5b5051156123815760405162461bcd60e51b8152600401808060200182810382526041815260200180612f7a6041913960600191505060405180910390fd5b60165460175460188054604080516020601f6002600019600187161561010002019095169490940493840181900481028201810190925282815260c09590951b949183918301828280156124165780601f106123eb57610100808354040283529160200191612416565b820191906000526020600020905b8154815290600101906020018083116123f957829003601f168201915b50505050509050925092509250909192565b60408051632ec8740960e21b815260016004820152905173__DepositFunding________________________9163bb21d024916024808301926000929190829003018186803b15801561136757600080fd5b6000600173__DepositStates_________________________630f2c635590916040518263ffffffff1660e01b81526004018082815260200191505060206040518083038186803b1580156111aa57600080fd5b6005546001600160a01b031633146125175760405162461bcd60e51b815260040180806020018281038252603e8152602001806130d6603e913960400191505060405180910390fd5b604051630d806ee760e41b81526001600482018181526001600160c01b0319861660248401526001600160a01b038416606484015260806044840190815285516084850152855173__DepositRedemption_____________________9463d806ee70949389938993899360a40190602086019080838360005b838110156125a8578181015183820152602001612590565b50505050905090810190601f1680156125d55780820380516001836020036101000a031916815260200191505b509550505050505060006040518083038186803b158015611c9557600080fd5b336000908152601882016020908152604091829020548251635a33257560e01b8152600481018590529251909273__DepositStates_________________________92635a33257592602480840193829003018186803b15801561265857600080fd5b505af415801561266c573d6000803e3d6000fd5b505050506040513d602081101561268257600080fd5b50516126d5576040805162461bcd60e51b815260206004820152601b60248201527f436f6e7472616374206e6f7420796574207465726d696e617465640000000000604482015290519081900360640190fd5b60008111612720576040805162461bcd60e51b81526020600482015260136024820152724e6f7468696e6720746f20776974686472617760681b604482015290519081900360640190fd5b80471015612775576040805162461bcd60e51b815260206004820152601d60248201527f496e73756666696369656e7420636f6e74726163742062616c616e6365000000604482015290519081900360640190fd5b3360008181526018840160205260408082208290555190919083908381818185875af1925050503d80600081146127c8576040519150601f19603f3d011682016040523d82523d6000602084013e6127cd565b606091505b505090508061280d5760405162461bcd60e51b815260040180806020018281038252602c815260200180612fde602c913960400191505060405180910390fd5b505050565b336000908152601882016020526040902054919050565b60008060008084806128545750856001600160a01b031661284988612aa0565b6001600160a01b0316145b905060008061286289612b1f565b1180156128e957508773__DepositStates_________________________63761275bf90916040518263ffffffff1660e01b81526004018082815260200191505060206040518083038186803b1580156128bb57600080fd5b505af41580156128cf573d6000803e3d6000fd5b505050506040513d60208110156128e557600080fd5b5051155b905081806128f5575080155b6129305760405162461bcd60e51b815260040180806020018281038252604881526020018061306d6048913960600191505060405180910390fd5b60008061293c8a612bd1565b6001600160a01b0316141590506000886001600160a01b031661295e8b612bd1565b6001600160a01b031614905060006129758b612cd6565b905060006129868286868987612d02565b90506129aa8161299e6129988f612d50565b89612de1565b9063ffffffff612df816565b60018d0154604080516370a0823160e01b81523060048201529051929b506000926001600160a01b03909216916370a0823191602480820192602092909190829003018186803b1580156129fd57600080fd5b505afa158015612a11573d6000803e3d6000fd5b505050506040513d6020811015612a2757600080fd5b50519050808a1115612a4a57612a438a8263ffffffff612e5916565b9950612a4f565b600099505b858015612a595750845b8015612a63575083155b15612a6c578297505b612a8e88612a828581858f63ffffffff612df816565b9063ffffffff612e5916565b98505050505050505093509350939050565b6002810154604080516331a9108f60e11b815230600482015290516000926001600160a01b031691636352211e916024808301926020929190829003018186803b158015612aed57600080fd5b505afa158015612b01573d6000803e3d6000fd5b505050506040513d6020811015612b1757600080fd5b505192915050565b600080612ba673__TBTCConstants_________________________63d565d1f16040518163ffffffff1660e01b815260040160206040518083038186803b158015612b6957600080fd5b505af4158015612b7d573d6000803e3d6000fd5b505050506040513d6020811015612b9357600080fd5b505160168501549063ffffffff612df816565b905080421015612bc857612bc0814263ffffffff612e5916565b915050611d84565b50600092915050565b600381015460408051634f558e7960e01b8152306004820152905160009283926001600160a01b0390911691634f558e7991602480820192602092909190829003018186803b158015612c2357600080fd5b505afa158015612c37573d6000803e3d6000fd5b505050506040513d6020811015612c4d57600080fd5b505115612cd0576003830154604080516331a9108f60e11b815230600482015290516001600160a01b0390921691636352211e91602480820192602092909190829003018186803b158015612ca157600080fd5b505afa158015612cb5573d6000803e3d6000fd5b505050506040513d6020811015612ccb57600080fd5b505190505b92915050565b6004810154600090612cd090600160e81b900461ffff16612cf684612d50565b9063ffffffff612eb616565b600080858015612d0f5750845b8015612d19575082155b905060008680612d265750855b80612d2e5750845b905060008115612d3b5788015b8215612d445788015b98975050505050505050565b6000612cd073__TBTCConstants_________________________63ae9eb1276040518163ffffffff1660e01b815260040160206040518083038186803b158015612d9957600080fd5b505af4158015612dad573d6000803e3d6000fd5b505050506040513d6020811015612dc357600080fd5b50516004840154600160a01b900467ffffffffffffffff1690612f20565b60008115612df157506000612cd0565b5090919050565b600082820183811015612e52576040805162461bcd60e51b815260206004820152601b60248201527f536166654d6174683a206164646974696f6e206f766572666c6f770000000000604482015290519081900360640190fd5b9392505050565b600082821115612eb0576040805162461bcd60e51b815260206004820152601e60248201527f536166654d6174683a207375627472616374696f6e206f766572666c6f770000604482015290519081900360640190fd5b50900390565b6000808211612f0c576040805162461bcd60e51b815260206004820152601a60248201527f536166654d6174683a206469766973696f6e206279207a65726f000000000000604482015290519081900360640190fd5b6000828481612f1757fe5b04949350505050565b600082612f2f57506000612cd0565b82820282848281612f3c57fe5b0414612e525760405162461bcd60e51b81526004018080602001828103825260218152602001806130b56021913960400191505060405180910390fdfe4465706f73697420686173206e6f7420796574206265656e2066756e64656420616e6420686173206e6f20617661696c61626c652066756e64696e6720696e666f466163746f72792063616e6e6f7420626520746865207a65726f20616464726573732e4661696c656420746f2073656e6420776974686472617761626c6520616d6f756e7420746f2073656e6465724465706f73697420636f6e7472616374207761732063616c6c6564207769746820756e6b6e6f776e2066756e6374696f6e2073656c6563746f722e4f6e6c792054445420686f6c6465722063616e20726571756573742066756e6465722061626f72744f6e6c792054445420686f6c6465722063616e2072656465656d20756e6c657373206465706f7369742069732061742d7465726d206f7220696e20434f5552544553595f43414c4c536166654d6174683a206d756c7469706c69636174696f6e206f766572666c6f774f6e6c79207468652076656e64696e67206d616368696e652063616e2063616c6c207472616e73666572416e6452657175657374526564656d7074696f6e466163746f72792063616e206f6e6c7920626520696e697469616c697a6564206f6e63652e43616c6c6572206d757374206265206465706f736974466163746f727920636f6e74726163744465706f73697420686173206e6f2066756e64732063757272656e746c792061742061756374696f6e466163746f727920696e697469616c697a6174696f6e206d7573742068617665206265656e2063616c6c65642ea265627a7a72315820a6a8b957dce93aada11487189af57db87565247a1336a921379a2d47e39ae0ae64736f6c63430005110032466163746f72792063616e6e6f7420626520746865207a65726f20616464726573732e466163746f72792063616e206f6e6c7920626520696e697469616c697a6564206f6e63652e",
  "source": "pragma solidity 0.5.17;\n\nimport {DepositLiquidation} from \"./DepositLiquidation.sol\";\nimport {DepositUtils} from \"./DepositUtils.sol\";\nimport {DepositFunding} from \"./DepositFunding.sol\";\nimport {DepositRedemption} from \"./DepositRedemption.sol\";\nimport {DepositStates} from \"./DepositStates.sol\";\nimport {ITBTCSystem} from \"../interfaces/ITBTCSystem.sol\";\nimport {IERC721} from \"openzeppelin-solidity/contracts/token/ERC721/IERC721.sol\";\nimport {TBTCToken} from \"../system/TBTCToken.sol\";\nimport {FeeRebateToken} from \"../system/FeeRebateToken.sol\";\n\nimport \"../system/DepositFactoryAuthority.sol\";\n\n// solium-disable function-order\n// Below, a few functions must be public to allow bytes memory parameters, but\n// their being so triggers errors because public functions should be grouped\n// below external functions. Since these would be external if it were possible,\n// we ignore the issue.\n\n/// @title  tBTC Deposit\n/// @notice This is the main contract for tBTC. It is the state machine that\n///         (through various libraries) handles bitcoin funding, bitcoin-spv\n///         proofs, redemption, liquidation, and fraud logic.\n/// @dev This contract presents a public API that exposes the following\n///      libraries:\n///\n///       - `DepositFunding`\n///       - `DepositLiquidaton`\n///       - `DepositRedemption`,\n///       - `DepositStates`\n///       - `DepositUtils`\n///       - `OutsourceDepositLogging`\n///       - `TBTCConstants`\n///\n///      Where these libraries require deposit state, this contract's state\n///      variable `self` is used. `self` is a struct of type\n///      `DepositUtils.Deposit` that contains all aspects of the deposit state\n///      itself.\ncontract Deposit is DepositFactoryAuthority {\n\n    using DepositRedemption for DepositUtils.Deposit;\n    using DepositFunding for DepositUtils.Deposit;\n    using DepositLiquidation for DepositUtils.Deposit;\n    using DepositUtils for DepositUtils.Deposit;\n    using DepositStates for DepositUtils.Deposit;\n\n    DepositUtils.Deposit self;\n\n    /// @dev Deposit should only be _constructed_ once. New deposits are created\n    ///      using the `DepositFactory.createDeposit` method, and are clones of\n    ///      the constructed deposit. The factory will set the initial values\n    ///      for a new clone using `initializeDeposit`.\n    constructor () public {\n        // The constructed Deposit will never be used, so the deposit factory\n        // address can be anything. Clones are updated as per above.\n        initialize(address(0xdeadbeef));\n    }\n\n    /// @notice Deposits do not accept arbitrary ETH.\n    function () external payable {\n        require(msg.data.length == 0, \"Deposit contract was called with unknown function selector.\");\n    }\n\n//----------------------------- METADATA LOOKUP ------------------------------//\n\n    /// @notice Get this deposit's BTC lot size in satoshis.\n    /// @return uint64 lot size in satoshis.\n    function lotSizeSatoshis() external view returns (uint64){\n        return self.lotSizeSatoshis;\n    }\n\n    /// @notice Get this deposit's lot size in TBTC.\n    /// @dev This is the same as lotSizeSatoshis(), but is multiplied to scale\n    ///      to 18 decimal places.\n    /// @return uint256 lot size in TBTC precision (max 18 decimal places).\n    function lotSizeTbtc() external view returns (uint256){\n        return self.lotSizeTbtc();\n    }\n\n    /// @notice Get the signer fee for this deposit, in TBTC.\n    /// @dev This is the one-time fee required by the signers to perform the\n    ///      tasks needed to maintain a decentralized and trustless model for\n    ///      tBTC. It is a percentage of the deposit's lot size.\n    /// @return Fee amount in TBTC.\n    function signerFeeTbtc() external view returns (uint256) {\n        return self.signerFeeTbtc();\n    }\n\n    /// @notice Get the integer representing the current state.\n    /// @dev We implement this because contracts don't handle foreign enums\n    ///      well. See `DepositStates` for more info on states.\n    /// @return The 0-indexed state from the DepositStates enum.\n    function currentState() external view returns (uint256) {\n        return uint256(self.currentState);\n    }\n\n    /// @notice Check if the Deposit is in ACTIVE state.\n    /// @return True if state is ACTIVE, false otherwise.\n    function inActive() external view returns (bool) {\n        return self.inActive();\n    }\n\n    /// @notice Get the contract address of the BondedECDSAKeep associated with\n    ///         this Deposit.\n    /// @dev The keep contract address is saved on Deposit initialization.\n    /// @return Address of the Keep contract.\n    function keepAddress() external view returns (address) {\n        return self.keepAddress;\n    }\n\n    /// @notice Retrieve the remaining term of the deposit in seconds.\n    /// @dev The value accuracy is not guaranteed since block.timestmap can be\n    ///      lightly manipulated by miners.\n    /// @return The remaining term of the deposit in seconds. 0 if already at\n    ///         term.\n    function remainingTerm() external view returns(uint256){\n        return self.remainingTerm();\n    }\n\n    /// @notice Get the current collateralization level for this Deposit.\n    /// @dev This value represents the percentage of the backing BTC value the\n    ///      signers currently must hold as bond.\n    /// @return The current collateralization level for this deposit.\n    function collateralizationPercentage() external view returns (uint256) {\n        return self.collateralizationPercentage();\n    }\n\n    /// @notice Get the initial collateralization level for this Deposit.\n    /// @dev This value represents the percentage of the backing BTC value\n    ///      the signers hold initially. It is set at creation time.\n    /// @return The initial collateralization level for this deposit.\n    function initialCollateralizedPercent() external view returns (uint16) {\n        return self.initialCollateralizedPercent;\n    }\n\n    /// @notice Get the undercollateralization level for this Deposit.\n    /// @dev This collateralization level is semi-critical. If the\n    ///      collateralization level falls below this percentage the Deposit can\n    ///      be courtesy-called by calling `notifyCourtesyCall`. This value\n    ///      represents the percentage of the backing BTC value the signers must\n    ///      hold as bond in order to not be undercollateralized. It is set at\n    ///      creation time. Note that the value for new deposits in TBTCSystem\n    ///      can be changed by governance, but the value for a particular\n    ///      deposit is static once the deposit is created.\n    /// @return The undercollateralized level for this deposit.\n    function undercollateralizedThresholdPercent() external view returns (uint16) {\n        return self.undercollateralizedThresholdPercent;\n    }\n\n    /// @notice Get the severe undercollateralization level for this Deposit.\n    /// @dev This collateralization level is critical. If the collateralization\n    ///      level falls below this percentage the Deposit can get liquidated.\n    ///      This value represents the percentage of the backing BTC value the\n    ///      signers must hold as bond in order to not be severely\n    ///      undercollateralized. It is set at creation time. Note that the\n    ///      value for new deposits in TBTCSystem can be changed by governance,\n    ///      but the value for a particular deposit is static once the deposit\n    ///      is created.\n    /// @return The severely undercollateralized level for this deposit.\n    function severelyUndercollateralizedThresholdPercent() external view returns (uint16) {\n        return self.severelyUndercollateralizedThresholdPercent;\n    }\n\n    /// @notice Get the value of the funding UTXO.\n    /// @dev This call will revert if the deposit is not in a state where the\n    ///      UTXO info should be valid. In particular, before funding proof is\n    ///      successfully submitted (i.e. in states START,\n    ///      AWAITING_SIGNER_SETUP, and AWAITING_BTC_FUNDING_PROOF), this value\n    ///      would not be valid.\n    /// @return The value of the funding UTXO in satoshis.\n    function utxoValue() external view returns (uint256){\n        require(\n            ! self.inFunding(),\n            \"Deposit has not yet been funded and has no available funding info\"\n        );\n\n        return self.utxoValue();\n    }\n\n    /// @notice Returns information associated with the funding UXTO.\n    /// @dev This call will revert if the deposit is not in a state where the\n    ///      funding info should be valid. In particular, before funding proof\n    ///      is successfully submitted (i.e. in states START,\n    ///      AWAITING_SIGNER_SETUP, and AWAITING_BTC_FUNDING_PROOF), none of\n    ///      these values are set or valid.\n    /// @return A tuple of (uxtoValueBytes, fundedAt, uxtoOutpoint).\n    function fundingInfo() external view returns (bytes8 utxoValueBytes, uint256 fundedAt, bytes memory utxoOutpoint) {\n        require(\n            ! self.inFunding(),\n            \"Deposit has not yet been funded and has no available funding info\"\n        );\n\n        return (self.utxoValueBytes, self.fundedAt, self.utxoOutpoint);\n    }\n\n    /// @notice Calculates the amount of value at auction right now.\n    /// @dev This call will revert if the deposit is not in a state where an\n    ///      auction is currently in progress.\n    /// @return The value in wei that would be received in exchange for the\n    ///         deposit's lot size in TBTC if `purchaseSignerBondsAtAuction`\n    ///         were called at the time this function is called.\n    function auctionValue() external view returns (uint256) {\n        require(\n            self.inSignerLiquidation(),\n            \"Deposit has no funds currently at auction\"\n        );\n\n        return self.auctionValue();\n    }\n\n    /// @notice Get caller's ETH withdraw allowance.\n    /// @dev Generally ETH is only available to withdraw after the deposit\n    ///      reaches a closed state. The amount reported is for the sender, and\n    ///      can be withdrawn using `withdrawFunds` if the deposit is in an end\n    ///      state.\n    /// @return The withdraw allowance in wei.\n    function withdrawableAmount() external view returns (uint256) {\n        return self.getWithdrawableAmount();\n    }\n\n//------------------------------ FUNDING FLOW --------------------------------//\n\n    /// @notice Notify the contract that signing group setup has timed out if\n    ///         retrieveSignerPubkey is not successfully called within the\n    ///         allotted time.\n    /// @dev This is considered a signer fault, and the signers' bonds are used\n    ///      to make the deposit setup fee available for withdrawal by the TDT\n    ///      holder as a refund. The remainder of the signers' bonds are\n    ///      returned to the bonding pool and the signers are released from any\n    ///      further responsibilities. Reverts if the deposit is not awaiting\n    ///      signer setup or if the signing group formation timeout has not\n    ///      elapsed.\n    function notifySignerSetupFailed() external {\n        self.notifySignerSetupFailed();\n    }\n\n    /// @notice Notify the contract that the ECDSA keep has generated a public\n    ///         key so the deposit contract can pull it in.\n    /// @dev Stores the pubkey as 2 bytestrings, X and Y. Emits a\n    ///      RegisteredPubkey event with the two components. Reverts if the\n    ///      deposit is not awaiting signer setup, if the generated public key\n    ///      is unset or has incorrect length, or if the public key has a 0\n    ///      X or Y value.\n    function retrieveSignerPubkey() external {\n        self.retrieveSignerPubkey();\n    }\n\n    /// @notice Notify the contract that the funding phase of the deposit has\n    ///         timed out if `provideBTCFundingProof` is not successfully called\n    ///         within the allotted time. Any sent BTC is left under control of\n    ///         the signer group, and the funder can use `requestFunderAbort` to\n    ///         request an at-signer-discretion return of any BTC sent to a\n    ///         deposit that has been notified of a funding timeout.\n    /// @dev This is considered a funder fault, and the funder's payment for\n    ///      opening the deposit is not refunded. Emits a SetupFailed event.\n    ///      Reverts if the funding timeout has not yet elapsed, or if the\n    ///      deposit is not currently awaiting funding proof.\n    function notifyFundingTimedOut() external {\n        self.notifyFundingTimedOut();\n    }\n\n    /// @notice Requests a funder abort for a failed-funding deposit; that is,\n    ///         requests the return of a sent UTXO to _abortOutputScript. It\n    ///         imposes no requirements on the signing group. Signers should\n    ///         send their UTXO to the requested output script, but do so at\n    ///         their discretion and with no penalty for failing to do so. This\n    ///         can be used for example when a UTXO is sent that is the wrong\n    ///         size for the lot.\n    /// @dev This is a self-admitted funder fault, and is only be callable by\n    ///      the TDT holder. This function emits the FunderAbortRequested event,\n    ///      but stores no additional state.\n    /// @param _abortOutputScript The output script the funder wishes to request\n    ///        a return of their UTXO to.\n    function requestFunderAbort(bytes memory _abortOutputScript) public { // not external to allow bytes memory parameters\n        require(\n            self.depositOwner() == msg.sender,\n            \"Only TDT holder can request funder abort\"\n        );\n\n        self.requestFunderAbort(_abortOutputScript);\n    }\n\n    /// @notice Anyone can provide a signature corresponding to the signers'\n    ///         public key to prove fraud during funding. Note that during\n    ///         funding no signature has been requested from the signers, so\n    ///         any signature is effectively fraud.\n    /// @dev Calls out to the keep to verify if there was fraud.\n    /// @param _v Signature recovery value.\n    /// @param _r Signature R value.\n    /// @param _s Signature S value.\n    /// @param _signedDigest The digest signed by the signature (v,r,s) tuple.\n    /// @param _preimage The sha256 preimage of the digest.\n    function provideFundingECDSAFraudProof(\n        uint8 _v,\n        bytes32 _r,\n        bytes32 _s,\n        bytes32 _signedDigest,\n        bytes memory _preimage\n    ) public { // not external to allow bytes memory parameters\n        self.provideFundingECDSAFraudProof(_v, _r, _s, _signedDigest, _preimage);\n    }\n\n    /// @notice Anyone may submit a funding proof to the deposit showing that\n    ///         a transaction was submitted and sufficiently confirmed on the\n    ///         Bitcoin chain transferring the deposit lot size's amount of BTC\n    ///         to the signer-controlled private key corresopnding to this\n    ///         deposit. This will move the deposit into an active state.\n    /// @dev Takes a pre-parsed transaction and calculates values needed to\n    ///      verify funding.\n    /// @param _txVersion Transaction version number (4-byte little-endian).\n    /// @param _txInputVector All transaction inputs prepended by the number of\n    ///        inputs encoded as a VarInt, max 0xFC(252) inputs.\n    /// @param _txOutputVector All transaction outputs prepended by the number\n    ///         of outputs encoded as a VarInt, max 0xFC(252) outputs.\n    /// @param _txLocktime Final 4 bytes of the transaction.\n    /// @param _fundingOutputIndex Index of funding output in _txOutputVector\n    ///        (0-indexed).\n    /// @param _merkleProof The merkle proof of transaction inclusion in a\n    ///        block.\n    /// @param _txIndexInBlock Transaction index in the block (0-indexed).\n    /// @param _bitcoinHeaders Single bytestring of 80-byte bitcoin headers,\n    ///        lowest height first.\n    function provideBTCFundingProof(\n        bytes4 _txVersion,\n        bytes memory _txInputVector,\n        bytes memory _txOutputVector,\n        bytes4 _txLocktime,\n        uint8 _fundingOutputIndex,\n        bytes memory _merkleProof,\n        uint256 _txIndexInBlock,\n        bytes memory _bitcoinHeaders\n    ) public { // not external to allow bytes memory parameters\n        self.provideBTCFundingProof(\n            _txVersion,\n            _txInputVector,\n            _txOutputVector,\n            _txLocktime,\n            _fundingOutputIndex,\n            _merkleProof,\n            _txIndexInBlock,\n            _bitcoinHeaders\n        );\n    }\n\n//---------------------------- LIQUIDATION FLOW ------------------------------//\n\n    /// @notice Notify the contract that the signers are undercollateralized.\n    /// @dev This call will revert if the signers are not in fact\n    ///      undercollateralized according to the price feed. After\n    ///      TBTCConstants.COURTESY_CALL_DURATION, courtesy call times out and\n    ///      regular abort liquidation occurs; see\n    ///      `notifyCourtesyTimedOut`.\n    function notifyCourtesyCall() external {\n        self.notifyCourtesyCall();\n    }\n\n    /// @notice Notify the contract that the signers' bond value has recovered\n    ///         enough to be considered sufficiently collateralized.\n    /// @dev This call will revert if collateral is still below the\n    ///      undercollateralized threshold according to the price feed.\n    function exitCourtesyCall() external {\n        self.exitCourtesyCall();\n    }\n\n    /// @notice Notify the contract that the courtesy period has expired and the\n    ///         deposit should move into liquidation.\n    /// @dev This call will revert if the courtesy call period has not in fact\n    ///      expired or is not in the courtesy call state. Courtesy call\n    ///      expiration is treated as an abort, and is handled by seizing signer\n    ///      bonds and putting them up for auction for the lot size amount in\n    ///      TBTC (see `purchaseSignerBondsAtAuction`). Emits a\n    ///      LiquidationStarted event. The caller is captured as the liquidation\n    ///      initiator, and is eligible for 50% of any bond left after the\n    ///      auction is completed.\n    function notifyCourtesyCallExpired() external {\n        self.notifyCourtesyCallExpired();\n    }\n\n    /// @notice Notify the contract that the signers are undercollateralized.\n    /// @dev Calls out to the system for oracle info.\n    /// @dev This call will revert if the signers are not in fact severely\n    ///      undercollateralized according to the price feed. Severe\n    ///      undercollateralization is treated as an abort, and is handled by\n    ///      seizing signer bonds and putting them up for auction in exchange\n    ///      for the lot size amount in TBTC (see\n    ///      `purchaseSignerBondsAtAuction`). Emits a LiquidationStarted event.\n    ///      The caller is captured as the liquidation initiator, and is\n    ///      eligible for 50% of any bond left after the auction is completed.\n    function notifyUndercollateralizedLiquidation() external {\n        self.notifyUndercollateralizedLiquidation();\n    }\n\n    /// @notice Anyone can provide a signature corresponding to the signers'\n    ///         public key that was not requested to prove fraud. A redemption\n    ///         request and a redemption fee increase are the only ways to\n    ///         request a signature from the signers.\n    /// @dev This call will revert if the underlying keep cannot verify that\n    ///      there was fraud. Fraud is handled by seizing signer bonds and\n    ///      putting them up for auction in exchange for the lot size amount in\n    ///      TBTC (see `purchaseSignerBondsAtAuction`). Emits a\n    ///      LiquidationStarted event. The caller is captured as the liquidation\n    ///      initiator, and is eligible for any bond left after the auction is\n    ///      completed.\n    /// @param  _v Signature recovery value.\n    /// @param  _r Signature R value.\n    /// @param  _s Signature S value.\n    /// @param _signedDigest The digest signed by the signature (v,r,s) tuple.\n    /// @param _preimage The sha256 preimage of the digest.\n    function provideECDSAFraudProof(\n        uint8 _v,\n        bytes32 _r,\n        bytes32 _s,\n        bytes32 _signedDigest,\n        bytes memory _preimage\n    ) public { // not external to allow bytes memory parameters\n        self.provideECDSAFraudProof(_v, _r, _s, _signedDigest, _preimage);\n    }\n\n    /// @notice Notify the contract that the signers have failed to produce a\n    ///         signature for a redemption request in the allotted time.\n    /// @dev This is considered an abort, and is punished by seizing signer\n    ///      bonds and putting them up for auction. Emits a LiquidationStarted\n    ///      event and a Liquidated event and sends the full signer bond to the\n    ///      redeemer. Reverts if the deposit is not currently awaiting a\n    ///      signature or if the allotted time has not yet elapsed. The caller\n    ///      is captured as the liquidation initiator, and is eligible for 50%\n    ///      of any bond left after the auction is completed.\n    function notifyRedemptionSignatureTimedOut() external {\n        self.notifyRedemptionSignatureTimedOut();\n    }\n\n    /// @notice Notify the contract that the deposit has failed to receive a\n    ///         redemption proof in the allotted time.\n    /// @dev This call will revert if the deposit is not currently awaiting a\n    ///      signature or if the allotted time has not yet elapsed. This is\n    ///      considered an abort, and is punished by seizing signer bonds and\n    ///      putting them up for auction for the lot size amount in TBTC (see\n    ///      `purchaseSignerBondsAtAuction`). Emits a LiquidationStarted event.\n    ///      The caller is captured as the liquidation initiator, and\n    ///      is eligible for 50% of any bond left after the auction is\n    ///     completed.\n    function notifyRedemptionProofTimedOut() external {\n        self.notifyRedemptionProofTimedOut();\n    }\n\n    /// @notice Closes an auction and purchases the signer bonds by transferring\n    ///         the lot size in TBTC to the redeemer, if there is one, or to the\n    ///         TDT holder if not. Any bond amount that is not currently up for\n    ///         auction is either made available for the liquidation initiator\n    ///         to withdraw (for fraud) or split 50-50 between the initiator and\n    ///         the signers (for abort or collateralization issues).\n    /// @dev The amount of ETH given for the transferred TBTC can be read using\n    ///      the `auctionValue` function; note, however, that the function's\n    ///      value is only static during the specific block it is queried, as it\n    ///      varies by block timestamp.\n    function purchaseSignerBondsAtAuction() external {\n        self.purchaseSignerBondsAtAuction();\n    }\n\n//---------------------------- REDEMPTION FLOW -------------------------------//\n\n    /// @notice Get TBTC amount required for redemption by a specified\n    ///         _redeemer.\n    /// @dev This call will revert if redemption is not possible by _redeemer.\n    /// @param _redeemer The deposit redeemer whose TBTC requirement is being\n    ///        requested.\n    /// @return The amount in TBTC needed by the `_redeemer` to redeem the\n    ///         deposit.\n    function getRedemptionTbtcRequirement(address _redeemer) external view returns (uint256){\n        (uint256 tbtcPayment,,) = self.calculateRedemptionTbtcAmounts(_redeemer, false);\n        return tbtcPayment;\n    }\n\n    /// @notice Get TBTC amount required for redemption assuming _redeemer\n    ///         is this deposit's owner (TDT holder).\n    /// @param _redeemer The assumed owner of the deposit's TDT .\n    /// @return The amount in TBTC needed to redeem the deposit.\n    function getOwnerRedemptionTbtcRequirement(address _redeemer) external view returns (uint256){\n        (uint256 tbtcPayment,,) = self.calculateRedemptionTbtcAmounts(_redeemer, true);\n        return tbtcPayment;\n    }\n\n    /// @notice Requests redemption of this deposit, meaning the transmission,\n    ///         by the signers, of the deposit's UTXO to the specified Bitocin\n    ///         output script. Requires approving the deposit to spend the\n    ///         amount of TBTC needed to redeem.\n    /// @dev The amount of TBTC needed to redeem can be looked up using the\n    ///      `getRedemptionTbtcRequirement` or `getOwnerRedemptionTbtcRequirement`\n    ///      functions.\n    /// @param  _outputValueBytes The 8-byte little-endian output size. The\n    ///         difference between this value and the lot size of the deposit\n    ///         will be paid as a fee to the Bitcoin miners when the signed\n    ///         transaction is broadcast.\n    /// @param  _redeemerOutputScript The redeemer's length-prefixed output\n    ///         script.\n    function requestRedemption(\n        bytes8 _outputValueBytes,\n        bytes memory _redeemerOutputScript\n    ) public { // not external to allow bytes memory parameters\n        self.requestRedemption(_outputValueBytes, _redeemerOutputScript);\n    }\n\n    /// @notice Anyone may provide a withdrawal signature if it was requested.\n    /// @dev The signers will be penalized if this function is not called\n    ///      correctly within `TBTCConstants.REDEMPTION_SIGNATURE_TIMEOUT`\n    ///      seconds of a redemption request or fee increase being received.\n    /// @param _v Signature recovery value.\n    /// @param _r Signature R value.\n    /// @param _s Signature S value. Should be in the low half of secp256k1\n    ///        curve's order.\n    function provideRedemptionSignature(\n        uint8 _v,\n        bytes32 _r,\n        bytes32 _s\n    ) external {\n        self.provideRedemptionSignature(_v, _r, _s);\n    }\n\n    /// @notice Anyone may request a signature for a transaction with an\n    ///         increased Bitcoin transaction fee.\n    /// @dev This call will revert if the fee is already at its maximum, or if\n    ///      the new requested fee is not a multiple of the initial requested\n    ///      fee. Transaction fees can only be bumped by the amount of the\n    ///      initial requested fee. Calling this sends the deposit back to\n    ///      the `AWAITING_WITHDRAWAL_SIGNATURE` state and requires the signers\n    ///      to `provideRedemptionSignature` for the new output value in a\n    ///      timely fashion.\n    /// @param _previousOutputValueBytes The previous output's value.\n    /// @param _newOutputValueBytes The new output's value.\n    function increaseRedemptionFee(\n        bytes8 _previousOutputValueBytes,\n        bytes8 _newOutputValueBytes\n    ) external {\n        self.increaseRedemptionFee(_previousOutputValueBytes, _newOutputValueBytes);\n    }\n\n    /// @notice Anyone may submit a redemption proof to the deposit showing that\n    ///         a transaction was submitted and sufficiently confirmed on the\n    ///         Bitcoin chain transferring the deposit lot size's amount of BTC\n    ///         from the signer-controlled private key corresponding to this\n    ///         deposit to the requested redemption output script. This will\n    ///         move the deposit into a redeemed state.\n    /// @dev Takes a pre-parsed transaction and calculates values needed to\n    ///      verify funding. Signers can have their bonds seized if this is not\n    ///      called within `TBTCConstants.REDEMPTION_PROOF_TIMEOUT` seconds of\n    ///      a redemption signature being provided.\n    /// @param _txVersion Transaction version number (4-byte little-endian).\n    /// @param _txInputVector All transaction inputs prepended by the number of\n    ///        inputs encoded as a VarInt, max 0xFC(252) inputs.\n    /// @param _txOutputVector All transaction outputs prepended by the number\n    ///         of outputs encoded as a VarInt, max 0xFC(252) outputs.\n    /// @param _txLocktime Final 4 bytes of the transaction.\n    /// @param _merkleProof The merkle proof of transaction inclusion in a\n    ///        block.\n    /// @param _txIndexInBlock Transaction index in the block (0-indexed).\n    /// @param _bitcoinHeaders Single bytestring of 80-byte bitcoin headers,\n    ///        lowest height first.\n    function provideRedemptionProof(\n        bytes4 _txVersion,\n        bytes memory _txInputVector,\n        bytes memory _txOutputVector,\n        bytes4 _txLocktime,\n        bytes memory _merkleProof,\n        uint256 _txIndexInBlock,\n        bytes memory _bitcoinHeaders\n    ) public { // not external to allow bytes memory parameters\n        self.provideRedemptionProof(\n            _txVersion,\n            _txInputVector,\n            _txOutputVector,\n            _txLocktime,\n            _merkleProof,\n            _txIndexInBlock,\n            _bitcoinHeaders\n        );\n    }\n\n//--------------------------- MUTATING HELPERS -------------------------------//\n\n    /// @notice This function can only be called by the deposit factory; use\n    ///         `DepositFactory.createDeposit` to create a new deposit.\n    /// @dev Initializes a new deposit clone with the base state for the\n    ///      deposit.\n    /// @param _tbtcSystem `TBTCSystem` contract. More info in `TBTCSystem`.\n    /// @param _tbtcToken `TBTCToken` contract. More info in TBTCToken`.\n    /// @param _tbtcDepositToken `TBTCDepositToken` (TDT) contract. More info in\n    ///        `TBTCDepositToken`.\n    /// @param _feeRebateToken `FeeRebateToken` (FRT) contract. More info in\n    ///        `FeeRebateToken`.\n    /// @param _vendingMachineAddress `VendingMachine` address. More info in\n    ///        `VendingMachine`.\n    /// @param _lotSizeSatoshis The minimum amount of satoshi the funder is\n    ///                         required to send. This is also the amount of\n    ///                         TBTC the TDT holder will be eligible to mint:\n    ///                         (10**7 satoshi == 0.1 BTC == 0.1 TBTC).\n    function initializeDeposit(\n        ITBTCSystem _tbtcSystem,\n        TBTCToken _tbtcToken,\n        IERC721 _tbtcDepositToken,\n        FeeRebateToken _feeRebateToken,\n        address _vendingMachineAddress,\n        uint64 _lotSizeSatoshis\n    ) public onlyFactory payable {\n        self.tbtcSystem = _tbtcSystem;\n        self.tbtcToken = _tbtcToken;\n        self.tbtcDepositToken = _tbtcDepositToken;\n        self.feeRebateToken = _feeRebateToken;\n        self.vendingMachineAddress = _vendingMachineAddress;\n        self.initialize(_lotSizeSatoshis);\n    }\n\n    /// @notice This function can only be called by the vending machine.\n    /// @dev Performs the same action as requestRedemption, but transfers\n    ///      ownership of the deposit to the specified _finalRecipient. Used as\n    ///      a utility helper for the vending machine's shortcut\n    ///      TBTC->redemption path.\n    /// @param  _outputValueBytes The 8-byte little-endian output size.\n    /// @param  _redeemerOutputScript The redeemer's length-prefixed output script.\n    /// @param  _finalRecipient     The address to receive the TDT and later be recorded as deposit redeemer.\n    function transferAndRequestRedemption(\n        bytes8 _outputValueBytes,\n        bytes memory _redeemerOutputScript,\n        address payable _finalRecipient\n    ) public { // not external to allow bytes memory parameters\n        require(\n            msg.sender == self.vendingMachineAddress,\n            \"Only the vending machine can call transferAndRequestRedemption\"\n        );\n        self.transferAndRequestRedemption(\n            _outputValueBytes,\n            _redeemerOutputScript,\n            _finalRecipient\n        );\n    }\n\n    /// @notice Withdraw the ETH balance of the deposit allotted to the caller.\n    /// @dev Withdrawals can only happen when a contract is in an end-state.\n    function withdrawFunds() external {\n        self.withdrawFunds();\n    }\n}\n",
  "sourcePath": "/Users/konrad/Desktop/rumble/fin/local-setup/tbtc/solidity/contracts/deposit/Deposit.sol",
  "compiler": {
    "name": "solc",
    "version": "0.5.17+commit.d19bba13.Emscripten.clang"
  },
  "schemaVersion": "3.3.4",
  "updatedAt": "2021-04-30T10:00:51.347Z",
  "networkType": "ethereum",
  "devdoc": {
    "details": "This contract presents a public API that exposes the following      libraries:  ///       - `DepositFunding`       - `DepositLiquidaton`       - `DepositRedemption`,       - `DepositStates`       - `DepositUtils`       - `OutsourceDepositLogging`       - `TBTCConstants`  ///      Where these libraries require deposit state, this contract's state      variable `self` is used. `self` is a struct of type      `DepositUtils.Deposit` that contains all aspects of the deposit state      itself.",
    "methods": {
      "auctionValue()": {
        "details": "This call will revert if the deposit is not in a state where an      auction is currently in progress.",
        "return": "The value in wei that would be received in exchange for the         deposit's lot size in TBTC if `purchaseSignerBondsAtAuction`         were called at the time this function is called."
      },
      "collateralizationPercentage()": {
        "details": "This value represents the percentage of the backing BTC value the      signers currently must hold as bond.",
        "return": "The current collateralization level for this deposit."
      },
      "constructor": {
        "details": "Deposit should only be _constructed_ once. New deposits are created      using the `DepositFactory.createDeposit` method, and are clones of      the constructed deposit. The factory will set the initial values      for a new clone using `initializeDeposit`."
      },
      "currentState()": {
        "details": "We implement this because contracts don't handle foreign enums      well. See `DepositStates` for more info on states.",
        "return": "The 0-indexed state from the DepositStates enum."
      },
      "exitCourtesyCall()": {
        "details": "This call will revert if collateral is still below the      undercollateralized threshold according to the price feed."
      },
      "fundingInfo()": {
        "details": "This call will revert if the deposit is not in a state where the      funding info should be valid. In particular, before funding proof      is successfully submitted (i.e. in states START,      AWAITING_SIGNER_SETUP, and AWAITING_BTC_FUNDING_PROOF), none of      these values are set or valid.",
        "return": "A tuple of (uxtoValueBytes, fundedAt, uxtoOutpoint)."
      },
      "getOwnerRedemptionTbtcRequirement(address)": {
        "params": {
          "_redeemer": "The assumed owner of the deposit's TDT ."
        },
        "return": "The amount in TBTC needed to redeem the deposit."
      },
      "getRedemptionTbtcRequirement(address)": {
        "details": "This call will revert if redemption is not possible by _redeemer.",
        "params": {
          "_redeemer": "The deposit redeemer whose TBTC requirement is being        requested."
        },
        "return": "The amount in TBTC needed by the `_redeemer` to redeem the         deposit."
      },
      "inActive()": {
        "return": "True if state is ACTIVE, false otherwise."
      },
      "increaseRedemptionFee(bytes8,bytes8)": {
        "details": "This call will revert if the fee is already at its maximum, or if      the new requested fee is not a multiple of the initial requested      fee. Transaction fees can only be bumped by the amount of the      initial requested fee. Calling this sends the deposit back to      the `AWAITING_WITHDRAWAL_SIGNATURE` state and requires the signers      to `provideRedemptionSignature` for the new output value in a      timely fashion.",
        "params": {
          "_newOutputValueBytes": "The new output's value.",
          "_previousOutputValueBytes": "The previous output's value."
        }
      },
      "initialCollateralizedPercent()": {
        "details": "This value represents the percentage of the backing BTC value      the signers hold initially. It is set at creation time.",
        "return": "The initial collateralization level for this deposit."
      },
      "initialize(address)": {
        "details": "Since this function is not access-controlled, it should be called      transactionally with contract instantiation. In cases where a      regular contract directly inherits from DepositFactoryAuthority,      that should happen in the constructor. In cases where the inheritor      is binstead used via a clone factory, the same function that      creates a new clone should also trigger initialization."
      },
      "initializeDeposit(address,address,address,address,address,uint64)": {
        "details": "Initializes a new deposit clone with the base state for the      deposit.",
        "params": {
          "_feeRebateToken": "`FeeRebateToken` (FRT) contract. More info in        `FeeRebateToken`.",
          "_lotSizeSatoshis": "The minimum amount of satoshi the funder is                         required to send. This is also the amount of                         TBTC the TDT holder will be eligible to mint:                         (10**7 satoshi == 0.1 BTC == 0.1 TBTC).",
          "_tbtcDepositToken": "`TBTCDepositToken` (TDT) contract. More info in        `TBTCDepositToken`.",
          "_tbtcSystem": "`TBTCSystem` contract. More info in `TBTCSystem`.",
          "_tbtcToken": "`TBTCToken` contract. More info in TBTCToken`.",
          "_vendingMachineAddress": "`VendingMachine` address. More info in        `VendingMachine`."
        }
      },
      "keepAddress()": {
        "details": "The keep contract address is saved on Deposit initialization.",
        "return": "Address of the Keep contract."
      },
      "lotSizeSatoshis()": {
        "return": "uint64 lot size in satoshis."
      },
      "lotSizeTbtc()": {
        "details": "This is the same as lotSizeSatoshis(), but is multiplied to scale      to 18 decimal places.",
        "return": "uint256 lot size in TBTC precision (max 18 decimal places)."
      },
      "notifyCourtesyCall()": {
        "details": "This call will revert if the signers are not in fact      undercollateralized according to the price feed. After      TBTCConstants.COURTESY_CALL_DURATION, courtesy call times out and      regular abort liquidation occurs; see      `notifyCourtesyTimedOut`."
      },
      "notifyCourtesyCallExpired()": {
        "details": "This call will revert if the courtesy call period has not in fact      expired or is not in the courtesy call state. Courtesy call      expiration is treated as an abort, and is handled by seizing signer      bonds and putting them up for auction for the lot size amount in      TBTC (see `purchaseSignerBondsAtAuction`). Emits a      LiquidationStarted event. The caller is captured as the liquidation      initiator, and is eligible for 50% of any bond left after the      auction is completed."
      },
      "notifyFundingTimedOut()": {
        "details": "This is considered a funder fault, and the funder's payment for      opening the deposit is not refunded. Emits a SetupFailed event.      Reverts if the funding timeout has not yet elapsed, or if the      deposit is not currently awaiting funding proof."
      },
      "notifyRedemptionProofTimedOut()": {
        "details": "This call will revert if the deposit is not currently awaiting a      signature or if the allotted time has not yet elapsed. This is      considered an abort, and is punished by seizing signer bonds and      putting them up for auction for the lot size amount in TBTC (see      `purchaseSignerBondsAtAuction`). Emits a LiquidationStarted event.      The caller is captured as the liquidation initiator, and      is eligible for 50% of any bond left after the auction is     completed."
      },
      "notifyRedemptionSignatureTimedOut()": {
        "details": "This is considered an abort, and is punished by seizing signer      bonds and putting them up for auction. Emits a LiquidationStarted      event and a Liquidated event and sends the full signer bond to the      redeemer. Reverts if the deposit is not currently awaiting a      signature or if the allotted time has not yet elapsed. The caller      is captured as the liquidation initiator, and is eligible for 50%      of any bond left after the auction is completed."
      },
      "notifySignerSetupFailed()": {
        "details": "This is considered a signer fault, and the signers' bonds are used      to make the deposit setup fee available for withdrawal by the TDT      holder as a refund. The remainder of the signers' bonds are      returned to the bonding pool and the signers are released from any      further responsibilities. Reverts if the deposit is not awaiting      signer setup or if the signing group formation timeout has not      elapsed."
      },
      "notifyUndercollateralizedLiquidation()": {
        "details": "Calls out to the system for oracle info.This call will revert if the signers are not in fact severely      undercollateralized according to the price feed. Severe      undercollateralization is treated as an abort, and is handled by      seizing signer bonds and putting them up for auction in exchange      for the lot size amount in TBTC (see      `purchaseSignerBondsAtAuction`). Emits a LiquidationStarted event.      The caller is captured as the liquidation initiator, and is      eligible for 50% of any bond left after the auction is completed."
      },
      "provideBTCFundingProof(bytes4,bytes,bytes,bytes4,uint8,bytes,uint256,bytes)": {
        "details": "Takes a pre-parsed transaction and calculates values needed to      verify funding.",
        "params": {
          "_bitcoinHeaders": "Single bytestring of 80-byte bitcoin headers,        lowest height first.",
          "_fundingOutputIndex": "Index of funding output in _txOutputVector        (0-indexed).",
          "_merkleProof": "The merkle proof of transaction inclusion in a        block.",
          "_txIndexInBlock": "Transaction index in the block (0-indexed).",
          "_txInputVector": "All transaction inputs prepended by the number of        inputs encoded as a VarInt, max 0xFC(252) inputs.",
          "_txLocktime": "Final 4 bytes of the transaction.",
          "_txOutputVector": "All transaction outputs prepended by the number         of outputs encoded as a VarInt, max 0xFC(252) outputs.",
          "_txVersion": "Transaction version number (4-byte little-endian)."
        }
      },
      "provideECDSAFraudProof(uint8,bytes32,bytes32,bytes32,bytes)": {
        "details": "This call will revert if the underlying keep cannot verify that      there was fraud. Fraud is handled by seizing signer bonds and      putting them up for auction in exchange for the lot size amount in      TBTC (see `purchaseSignerBondsAtAuction`). Emits a      LiquidationStarted event. The caller is captured as the liquidation      initiator, and is eligible for any bond left after the auction is      completed.",
        "params": {
          "_preimage": "The sha256 preimage of the digest.",
          "_r": "Signature R value.",
          "_s": "Signature S value.",
          "_signedDigest": "The digest signed by the signature (v,r,s) tuple.",
          "_v": "Signature recovery value."
        }
      },
      "provideFundingECDSAFraudProof(uint8,bytes32,bytes32,bytes32,bytes)": {
        "details": "Calls out to the keep to verify if there was fraud.",
        "params": {
          "_preimage": "The sha256 preimage of the digest.",
          "_r": "Signature R value.",
          "_s": "Signature S value.",
          "_signedDigest": "The digest signed by the signature (v,r,s) tuple.",
          "_v": "Signature recovery value."
        }
      },
      "provideRedemptionProof(bytes4,bytes,bytes,bytes4,bytes,uint256,bytes)": {
        "details": "Takes a pre-parsed transaction and calculates values needed to      verify funding. Signers can have their bonds seized if this is not      called within `TBTCConstants.REDEMPTION_PROOF_TIMEOUT` seconds of      a redemption signature being provided.",
        "params": {
          "_bitcoinHeaders": "Single bytestring of 80-byte bitcoin headers,        lowest height first.",
          "_merkleProof": "The merkle proof of transaction inclusion in a        block.",
          "_txIndexInBlock": "Transaction index in the block (0-indexed).",
          "_txInputVector": "All transaction inputs prepended by the number of        inputs encoded as a VarInt, max 0xFC(252) inputs.",
          "_txLocktime": "Final 4 bytes of the transaction.",
          "_txOutputVector": "All transaction outputs prepended by the number         of outputs encoded as a VarInt, max 0xFC(252) outputs.",
          "_txVersion": "Transaction version number (4-byte little-endian)."
        }
      },
      "provideRedemptionSignature(uint8,bytes32,bytes32)": {
        "details": "The signers will be penalized if this function is not called      correctly within `TBTCConstants.REDEMPTION_SIGNATURE_TIMEOUT`      seconds of a redemption request or fee increase being received.",
        "params": {
          "_r": "Signature R value.",
          "_s": "Signature S value. Should be in the low half of secp256k1        curve's order.",
          "_v": "Signature recovery value."
        }
      },
      "purchaseSignerBondsAtAuction()": {
        "details": "The amount of ETH given for the transferred TBTC can be read using      the `auctionValue` function; note, however, that the function's      value is only static during the specific block it is queried, as it      varies by block timestamp."
      },
      "remainingTerm()": {
        "details": "The value accuracy is not guaranteed since block.timestmap can be      lightly manipulated by miners.",
        "return": "The remaining term of the deposit in seconds. 0 if already at         term."
      },
      "requestFunderAbort(bytes)": {
        "details": "This is a self-admitted funder fault, and is only be callable by      the TDT holder. This function emits the FunderAbortRequested event,      but stores no additional state.",
        "params": {
          "_abortOutputScript": "The output script the funder wishes to request        a return of their UTXO to."
        }
      },
      "requestRedemption(bytes8,bytes)": {
        "details": "The amount of TBTC needed to redeem can be looked up using the      `getRedemptionTbtcRequirement` or `getOwnerRedemptionTbtcRequirement`      functions.",
        "params": {
          "_outputValueBytes": "The 8-byte little-endian output size. The         difference between this value and the lot size of the deposit         will be paid as a fee to the Bitcoin miners when the signed         transaction is broadcast.",
          "_redeemerOutputScript": "The redeemer's length-prefixed output         script."
        }
      },
      "retrieveSignerPubkey()": {
        "details": "Stores the pubkey as 2 bytestrings, X and Y. Emits a      RegisteredPubkey event with the two components. Reverts if the      deposit is not awaiting signer setup, if the generated public key      is unset or has incorrect length, or if the public key has a 0      X or Y value."
      },
      "severelyUndercollateralizedThresholdPercent()": {
        "details": "This collateralization level is critical. If the collateralization      level falls below this percentage the Deposit can get liquidated.      This value represents the percentage of the backing BTC value the      signers must hold as bond in order to not be severely      undercollateralized. It is set at creation time. Note that the      value for new deposits in TBTCSystem can be changed by governance,      but the value for a particular deposit is static once the deposit      is created.",
        "return": "The severely undercollateralized level for this deposit."
      },
      "signerFeeTbtc()": {
        "details": "This is the one-time fee required by the signers to perform the      tasks needed to maintain a decentralized and trustless model for      tBTC. It is a percentage of the deposit's lot size.",
        "return": "Fee amount in TBTC."
      },
      "transferAndRequestRedemption(bytes8,bytes,address)": {
        "details": "Performs the same action as requestRedemption, but transfers      ownership of the deposit to the specified _finalRecipient. Used as      a utility helper for the vending machine's shortcut      TBTC->redemption path.",
        "params": {
          "_finalRecipient": "The address to receive the TDT and later be recorded as deposit redeemer.",
          "_outputValueBytes": "The 8-byte little-endian output size.",
          "_redeemerOutputScript": "The redeemer's length-prefixed output script."
        }
      },
      "undercollateralizedThresholdPercent()": {
        "details": "This collateralization level is semi-critical. If the      collateralization level falls below this percentage the Deposit can      be courtesy-called by calling `notifyCourtesyCall`. This value      represents the percentage of the backing BTC value the signers must      hold as bond in order to not be undercollateralized. It is set at      creation time. Note that the value for new deposits in TBTCSystem      can be changed by governance, but the value for a particular      deposit is static once the deposit is created.",
        "return": "The undercollateralized level for this deposit."
      },
      "utxoValue()": {
        "details": "This call will revert if the deposit is not in a state where the      UTXO info should be valid. In particular, before funding proof is      successfully submitted (i.e. in states START,      AWAITING_SIGNER_SETUP, and AWAITING_BTC_FUNDING_PROOF), this value      would not be valid.",
        "return": "The value of the funding UTXO in satoshis."
      },
      "withdrawFunds()": {
        "details": "Withdrawals can only happen when a contract is in an end-state."
      },
      "withdrawableAmount()": {
        "details": "Generally ETH is only available to withdraw after the deposit      reaches a closed state. The amount reported is for the sender, and      can be withdrawn using `withdrawFunds` if the deposit is in an end      state.",
        "return": "The withdraw allowance in wei."
      }
    },
    "title": "tBTC Deposit"
  },
  "userdoc": {
    "methods": {
      "auctionValue()": {
        "notice": "Calculates the amount of value at auction right now."
      },
      "collateralizationPercentage()": {
        "notice": "Get the current collateralization level for this Deposit."
      },
      "currentState()": {
        "notice": "Get the integer representing the current state."
      },
      "exitCourtesyCall()": {
        "notice": "Notify the contract that the signers' bond value has recovered         enough to be considered sufficiently collateralized."
      },
      "fundingInfo()": {
        "notice": "Returns information associated with the funding UXTO."
      },
      "getOwnerRedemptionTbtcRequirement(address)": {
        "notice": "Get TBTC amount required for redemption assuming _redeemer         is this deposit's owner (TDT holder)."
      },
      "getRedemptionTbtcRequirement(address)": {
        "notice": "Get TBTC amount required for redemption by a specified         _redeemer."
      },
      "inActive()": {
        "notice": "Check if the Deposit is in ACTIVE state."
      },
      "increaseRedemptionFee(bytes8,bytes8)": {
        "notice": "Anyone may request a signature for a transaction with an         increased Bitcoin transaction fee."
      },
      "initialCollateralizedPercent()": {
        "notice": "Get the initial collateralization level for this Deposit."
      },
      "initialize(address)": {
        "notice": "Set the address of the System contract on contract         initialization."
      },
      "initializeDeposit(address,address,address,address,address,uint64)": {
        "notice": "This function can only be called by the deposit factory; use         `DepositFactory.createDeposit` to create a new deposit."
      },
      "keepAddress()": {
        "notice": "Get the contract address of the BondedECDSAKeep associated with         this Deposit."
      },
      "lotSizeSatoshis()": {
        "notice": "Get this deposit's BTC lot size in satoshis."
      },
      "lotSizeTbtc()": {
        "notice": "Get this deposit's lot size in TBTC."
      },
      "notifyCourtesyCall()": {
        "notice": "Notify the contract that the signers are undercollateralized."
      },
      "notifyCourtesyCallExpired()": {
        "notice": "Notify the contract that the courtesy period has expired and the         deposit should move into liquidation."
      },
      "notifyFundingTimedOut()": {
        "notice": "Notify the contract that the funding phase of the deposit has         timed out if `provideBTCFundingProof` is not successfully called         within the allotted time. Any sent BTC is left under control of         the signer group, and the funder can use `requestFunderAbort` to         request an at-signer-discretion return of any BTC sent to a         deposit that has been notified of a funding timeout."
      },
      "notifyRedemptionProofTimedOut()": {
        "notice": "Notify the contract that the deposit has failed to receive a         redemption proof in the allotted time."
      },
      "notifyRedemptionSignatureTimedOut()": {
        "notice": "Notify the contract that the signers have failed to produce a         signature for a redemption request in the allotted time."
      },
      "notifySignerSetupFailed()": {
        "notice": "Notify the contract that signing group setup has timed out if         retrieveSignerPubkey is not successfully called within the         allotted time."
      },
      "notifyUndercollateralizedLiquidation()": {
        "notice": "Notify the contract that the signers are undercollateralized."
      },
      "provideBTCFundingProof(bytes4,bytes,bytes,bytes4,uint8,bytes,uint256,bytes)": {
        "notice": "Anyone may submit a funding proof to the deposit showing that         a transaction was submitted and sufficiently confirmed on the         Bitcoin chain transferring the deposit lot size's amount of BTC         to the signer-controlled private key corresopnding to this         deposit. This will move the deposit into an active state."
      },
      "provideECDSAFraudProof(uint8,bytes32,bytes32,bytes32,bytes)": {
        "notice": "Anyone can provide a signature corresponding to the signers'         public key that was not requested to prove fraud. A redemption         request and a redemption fee increase are the only ways to         request a signature from the signers."
      },
      "provideFundingECDSAFraudProof(uint8,bytes32,bytes32,bytes32,bytes)": {
        "notice": "Anyone can provide a signature corresponding to the signers'         public key to prove fraud during funding. Note that during         funding no signature has been requested from the signers, so         any signature is effectively fraud."
      },
      "provideRedemptionProof(bytes4,bytes,bytes,bytes4,bytes,uint256,bytes)": {
        "notice": "Anyone may submit a redemption proof to the deposit showing that         a transaction was submitted and sufficiently confirmed on the         Bitcoin chain transferring the deposit lot size's amount of BTC         from the signer-controlled private key corresponding to this         deposit to the requested redemption output script. This will         move the deposit into a redeemed state."
      },
      "provideRedemptionSignature(uint8,bytes32,bytes32)": {
        "notice": "Anyone may provide a withdrawal signature if it was requested."
      },
      "purchaseSignerBondsAtAuction()": {
        "notice": "Closes an auction and purchases the signer bonds by transferring         the lot size in TBTC to the redeemer, if there is one, or to the         TDT holder if not. Any bond amount that is not currently up for         auction is either made available for the liquidation initiator         to withdraw (for fraud) or split 50-50 between the initiator and         the signers (for abort or collateralization issues)."
      },
      "remainingTerm()": {
        "notice": "Retrieve the remaining term of the deposit in seconds."
      },
      "requestFunderAbort(bytes)": {
        "notice": "Requests a funder abort for a failed-funding deposit; that is,         requests the return of a sent UTXO to _abortOutputScript. It         imposes no requirements on the signing group. Signers should         send their UTXO to the requested output script, but do so at         their discretion and with no penalty for failing to do so. This         can be used for example when a UTXO is sent that is the wrong         size for the lot."
      },
      "requestRedemption(bytes8,bytes)": {
        "notice": "Requests redemption of this deposit, meaning the transmission,         by the signers, of the deposit's UTXO to the specified Bitocin         output script. Requires approving the deposit to spend the         amount of TBTC needed to redeem."
      },
      "retrieveSignerPubkey()": {
        "notice": "Notify the contract that the ECDSA keep has generated a public         key so the deposit contract can pull it in."
      },
      "severelyUndercollateralizedThresholdPercent()": {
        "notice": "Get the severe undercollateralization level for this Deposit."
      },
      "signerFeeTbtc()": {
        "notice": "Get the signer fee for this deposit, in TBTC."
      },
      "transferAndRequestRedemption(bytes8,bytes,address)": {
        "notice": "This function can only be called by the vending machine."
      },
      "undercollateralizedThresholdPercent()": {
        "notice": "Get the undercollateralization level for this Deposit."
      },
      "utxoValue()": {
        "notice": "Get the value of the funding UTXO."
      },
      "withdrawFunds()": {
        "notice": "Withdraw the ETH balance of the deposit allotted to the caller."
      },
      "withdrawableAmount()": {
        "notice": "Get caller's ETH withdraw allowance."
      }
    },
    "notice": "This is the main contract for tBTC. It is the state machine that         (through various libraries) handles bitcoin funding, bitcoin-spv         proofs, redemption, liquidation, and fraud logic."
  }
}