{
  "contractName": "DepositFactoryAuthority",
  "abi": [
    {
      "constant": false,
      "inputs": [
        {
          "internalType": "address",
          "name": "_factory",
          "type": "address"
        }
      ],
      "name": "initialize",
      "outputs": [],
      "payable": false,
      "stateMutability": "nonpayable",
      "type": "function"
    }
  ],
  "bytecode": "0x60806040526000805460ff1916905534801561001a57600080fd5b5061018b8061002a6000396000f3fe608060405234801561001057600080fd5b506004361061002b5760003560e01c8063c4d66de814610030575b600080fd5b6100566004803603602081101561004657600080fd5b50356001600160a01b0316610058565b005b6001600160a01b03811661009d5760405162461bcd60e51b815260040180806020018281038252602381526020018061010f6023913960400191505060405180910390fd5b60005460ff16156100df5760405162461bcd60e51b81526004018080602001828103825260258152602001806101326025913960400191505060405180910390fd5b6000805460ff196001600160a01b0390931661010002610100600160a81b03199091161791909116600117905556fe466163746f72792063616e6e6f7420626520746865207a65726f20616464726573732e466163746f72792063616e206f6e6c7920626520696e697469616c697a6564206f6e63652ea265627a7a723158202a5db6465fbaf4bb40b5de83f883ea77d08097d75edc9c30c9d3e7bffc1547e864736f6c63430005110032",
  "source": "pragma solidity 0.5.17;\n\n/// @title  Deposit Factory Authority\n/// @notice Contract to secure function calls to the Deposit Factory.\n/// @dev    Secured by setting the depositFactory address and using the onlyFactory\n///         modifier on functions requiring restriction.\ncontract DepositFactoryAuthority {\n\n    bool internal _initialized = false;\n    address internal _depositFactory;\n\n    /// @notice Set the address of the System contract on contract\n    ///         initialization.\n    /// @dev Since this function is not access-controlled, it should be called\n    ///      transactionally with contract instantiation. In cases where a\n    ///      regular contract directly inherits from DepositFactoryAuthority,\n    ///      that should happen in the constructor. In cases where the inheritor\n    ///      is binstead used via a clone factory, the same function that\n    ///      creates a new clone should also trigger initialization.\n    function initialize(address _factory) public {\n        require(_factory != address(0), \"Factory cannot be the zero address.\");\n        require(! _initialized, \"Factory can only be initialized once.\");\n\n        _depositFactory = _factory;\n        _initialized = true;\n    }\n\n    /// @notice Function modifier ensures modified function is only called by set deposit factory.\n    modifier onlyFactory(){\n        require(_initialized, \"Factory initialization must have been called.\");\n        require(msg.sender == _depositFactory, \"Caller must be depositFactory contract\");\n        _;\n    }\n}\n",
  "sourcePath": "/Users/konrad/Desktop/rumble/fin/local-setup/tbtc/solidity/contracts/system/DepositFactoryAuthority.sol",
  "compiler": {
    "name": "solc",
    "version": "0.5.17+commit.d19bba13.Emscripten.clang"
  },
  "schemaVersion": "3.3.4",
  "updatedAt": "2021-04-30T09:32:13.273Z",
  "devdoc": {
    "details": "Secured by setting the depositFactory address and using the onlyFactory         modifier on functions requiring restriction.",
    "methods": {
      "initialize(address)": {
        "details": "Since this function is not access-controlled, it should be called      transactionally with contract instantiation. In cases where a      regular contract directly inherits from DepositFactoryAuthority,      that should happen in the constructor. In cases where the inheritor      is binstead used via a clone factory, the same function that      creates a new clone should also trigger initialization."
      }
    },
    "title": "Deposit Factory Authority"
  },
  "userdoc": {
    "methods": {
      "initialize(address)": {
        "notice": "Set the address of the System contract on contract         initialization."
      }
    },
    "notice": "Contract to secure function calls to the Deposit Factory."
  }
}