{
  "contractName": "DepositUtils",
  "abi": [
    {
      "constant": true,
      "inputs": [
        {
          "internalType": "bytes32",
          "name": "_pubkeyY",
          "type": "bytes32"
        }
      ],
      "name": "determineCompressionPrefix",
      "outputs": [
        {
          "internalType": "bytes",
          "name": "",
          "type": "bytes"
        }
      ],
      "payable": false,
      "stateMutability": "pure",
      "type": "function"
    },
    {
      "constant": true,
      "inputs": [
        {
          "internalType": "bytes32",
          "name": "_pubkeyX",
          "type": "bytes32"
        },
        {
          "internalType": "bytes32",
          "name": "_pubkeyY",
          "type": "bytes32"
        }
      ],
      "name": "compressPubkey",
      "outputs": [
        {
          "internalType": "bytes",
          "name": "",
          "type": "bytes"
        }
      ],
      "payable": false,
      "stateMutability": "pure",
      "type": "function"
    },
    {
      "constant": true,
      "inputs": [
        {
          "internalType": "bytes8",
          "name": "_b",
          "type": "bytes8"
        }
      ],
      "name": "bytes8LEToUint",
      "outputs": [
        {
          "internalType": "uint256",
          "name": "",
          "type": "uint256"
        }
      ],
      "payable": false,
      "stateMutability": "pure",
      "type": "function"
    }
  ],
  "bytecode": "0x612e51610026600b82828239805160001a60731461001957fe5b30600052607381538281f3fe730000000000000000000000000000000000000000301460806040526004361061014c5760003560e01c80638fdd0388116100c2578063d9ab8b8111610086578063d9ab8b8114610521578063db08d91914610544578063e0dfd81a14610561578063e92d81191461059b578063f846f3711461088f578063fa067d92146109cc5761014c565b80638fdd03881461048357806391f88c85146104a0578063a22b0614146104bd578063a8807848146104e7578063ad91ce1f146105045761014c565b8063406af69511610114578063406af6951461033b57806350ef3aa1146103625780635c7b82d71461037f57806368c2bd861461042c5780637949c2d2146104495780637b1993d4146104665761014c565b80630f27e5a0146101515780631129a8a91461021e5780631bf7ad311461025357806327e75cee1461028c5780632fac808a1461031e575b600080fd5b6102016004803603606081101561016757600080fd5b81359190810190604081016020820135600160201b81111561018857600080fd5b82018360208201111561019a57600080fd5b803590602001918460018302840111600160201b831117156101bb57600080fd5b91908080601f0160208091040260200160405190810160405280939291908181526020018383808284376000920191909152509295505050903560ff1691506109e99050565b604080516001600160c01b03199092168252519081900360200190f35b6102416004803603604081101561023457600080fd5b5080359060200135610b55565b60408051918252519081900360200190f35b6102706004803603602081101561026957600080fd5b5035610b6d565b604080516001600160a01b039092168252519081900360200190f35b6102a9600480360360208110156102a257600080fd5b5035610c74565b6040805160208082528351818301528351919283929083019185019080838360005b838110156102e35781810151838201526020016102cb565b50505050905090810190601f1680156103105780820380516001836020036101000a031916815260200191505b509250505060405180910390f35b6102416004803603602081101561033457600080fd5b5035610cbd565b6102416004803603602081101561035157600080fd5b50356001600160c01b031916610d3a565b6102416004803603602081101561037857600080fd5b5035610d75565b61042a6004803603604081101561039557600080fd5b81359190810190604081016020820135600160201b8111156103b657600080fd5b8201836020820111156103c857600080fd5b803590602001918460018302840111600160201b831117156103e957600080fd5b91908080601f016020809104026020016040519081016040528093929190818152602001838380828437600092019190915250929550610efb945050505050565b005b6102416004803603602081101561044257600080fd5b503561114c565b6102416004803603602081101561045f57600080fd5b50356111c2565b6102416004803603602081101561047c57600080fd5b5035611253565b6102416004803603602081101561049957600080fd5b5035611267565b610241600480360360208110156104b657600080fd5b50356112ab565b8180156104c957600080fd5b5061042a600480360360208110156104e057600080fd5b503561135d565b610241600480360360208110156104fd57600080fd5b5035611396565b6102706004803603602081101561051a57600080fd5b50356113b6565b6102a96004803603604081101561053757600080fd5b5080359060200135611403565b6102a96004803603602081101561055a57600080fd5b5035611479565b61057e6004803603602081101561057757600080fd5b50356114aa565b604080516001600160601b03199092168252519081900360200190f35b61080660048036036101208110156105b257600080fd5b8135916001600160e01b031960208201351691810190606081016040820135600160201b8111156105e257600080fd5b8201836020820111156105f457600080fd5b803590602001918460018302840111600160201b8311171561061557600080fd5b91908080601f0160208091040260200160405190810160405280939291908181526020018383808284376000920191909152509295949360208101935035915050600160201b81111561066757600080fd5b82018360208201111561067957600080fd5b803590602001918460018302840111600160201b8311171561069a57600080fd5b91908080601f01602080910402602001604051908101604052809392919081815260200183838082843760009201919091525092956001600160e01b03198535169560ff60208701351695919450925060608101915060400135600160201b81111561070557600080fd5b82018360208201111561071757600080fd5b803590602001918460018302840111600160201b8311171561073857600080fd5b91908080601f01602080910402602001604051908101604052809392919081815260200183838082843760009201919091525092958435959094909350604081019250602001359050600160201b81111561079257600080fd5b8201836020820111156107a457600080fd5b803590602001918460018302840111600160201b831117156107c557600080fd5b91908080601f0160208091040260200160405190810160405280939291908181526020018383808284376000920191909152509295506114eb945050505050565b604080516001600160c01b03198416815260208082018381528451938301939093528351919291606084019185019080838360005b8381101561085357818101518382015260200161083b565b50505050905090810190601f1680156108805780820380516001836020036101000a031916815260200191505b50935050505060405180910390f35b61042a600480360360a08110156108a557600080fd5b813591602081013591810190606081016040820135600160201b8111156108cb57600080fd5b8201836020820111156108dd57600080fd5b803590602001918460018302840111600160201b831117156108fe57600080fd5b91908080601f01602080910402602001604051908101604052809392919081815260200183838082843760009201919091525092958435959094909350604081019250602001359050600160201b81111561095857600080fd5b82018360208201111561096a57600080fd5b803590602001918460018302840111600160201b8311171561098b57600080fd5b91908080601f016020809104026020016040519081016040528093929190818152602001838380828437600092019190915250929550611762945050505050565b610241600480360360208110156109e257600080fd5b50356117cc565b6000806060610a018560ff861663ffffffff61181016565b9050610a0c866114aa565b604080516001600160601b03199092166020808401919091528151808403601401815260349093019091528151910120610a45826119e0565b8051906020012014610a885760405162461bcd60e51b815260040180806020018281038252603e815260200180612da6603e913960400191505060405180910390fd5b8051601f148015610af35750610a9d866114aa565b604080516205800560ea1b6020808301919091526001600160601b03199093166023820152815160178183038101825260379092019092528151919092012090610af190839060089063ffffffff611c1416565b145b610b2e5760405162461bcd60e51b815260040180806020018281038252604e815260200180612cbc604e913960600191505060405180910390fd5b610b49610b44826000600863ffffffff611c7b16565b611d35565b925050505b9392505050565b60008181526019830160205260409020545b92915050565b600381015460408051634f558e7960e01b8152306004820152905160009283926001600160a01b0390911691634f558e7991602480820192602092909190829003018186803b158015610bbf57600080fd5b505afa158015610bd3573d6000803e3d6000fd5b505050506040513d6020811015610be957600080fd5b505115610c6c576003830154604080516331a9108f60e11b815230600482015290516001600160a01b0390921691636352211e91602480820192602092909190829003018186803b158015610c3d57600080fd5b505afa158015610c51573d6000803e3d6000fd5b505050506040513d6020811015610c6757600080fd5b505190505b90505b919050565b606060018083161415610c9f57506040805180820190915260018152600360f81b6020820152610c6f565b506040805180820190915260018152600160f91b6020820152610c6f565b600a81015460408051631b87adb560e31b815290516000926001600160a01b031691829163dc3d6da891600480820192602092909190829003018186803b158015610d0757600080fd5b505afa158015610d1b573d6000803e3d6000fd5b505050506040513d6020811015610d3157600080fd5b50519392505050565b604080516001600160c01b031983166020820152815180820360080181526028909101909152600090610c6c90610d7090611d51565b611dde565b600080610d8f836007015442611e1b90919063ffffffff16565b9050600047905073__TBTCConstants_________________________6378cb51af6040518163ffffffff1660e01b815260040160206040518083038186803b158015610dda57600080fd5b505af4158015610dee573d6000803e3d6000fd5b505050506040513d6020811015610e0457600080fd5b5051821115610e16579150610c6f9050565b6000610e2185611e78565b90506000610ec573__TBTCConstants_________________________6378cb51af6040518163ffffffff1660e01b815260040160206040518083038186803b158015610e6c57600080fd5b505af4158015610e80573d6000803e3d6000fd5b505050506040513d6020811015610e9657600080fd5b5051610eb986610ead60648763ffffffff611e1b16565b9063ffffffff611e9716565b9063ffffffff611ef016565b90506000610ed9838363ffffffff611f5a16565b9050610ef06064610eb9868463ffffffff611e9716565b979650505050505050565b600080610f0784611267565b90506000610f148561114c565b90506000610f29610f2486611fb4565b61200d565b905082811415610f3b57829350610f82565b81811415610f4b57819350610f82565b60405162461bcd60e51b8152600401808060200182810382526025815260200180612d3d6025913960400191505060405180910390fd5b6000610f8d86612024565b9050610f976120e8565b811415610fd55760405162461bcd60e51b8152600401808060200182810382526023815260200180612d836023913960400191505060405180910390fd5b610fdd6120ef565b811415611029576040805162461bcd60e51b815260206004820152601560248201527424b73b30b634b2103432b0b232b9399031b430b4b760591b604482015290519081900360640190fd5b6110316120f5565b811415611085576040805162461bcd60e51b815260206004820152601d60248201527f496e73756666696369656e7420776f726b20696e206120686561646572000000604482015290519081900360640190fd5b61110573__TBTCConstants_________________________639b3fd99f6040518163ffffffff1660e01b815260040160206040518083038186803b1580156110cc57600080fd5b505af41580156110e0573d6000803e3d6000fd5b505050506040513d60208110156110f657600080fd5b5051869063ffffffff611e9716565b8110156111435760405162461bcd60e51b8152600401808060200182810382526033815260200180612d0a6033913960400191505060405180910390fd5b50505050505050565b80546040805163402b783d60e01b815290516000926001600160a01b03169163402b783d916004808301926020929190829003018186803b15801561119057600080fd5b505afa1580156111a4573d6000803e3d6000fd5b505050506040513d60208110156111ba57600080fd5b505192915050565b6000610c6c73__TBTCConstants_________________________63ae9eb1276040518163ffffffff1660e01b815260040160206040518083038186803b15801561120b57600080fd5b505af415801561121f573d6000803e3d6000fd5b505050506040513d602081101561123557600080fd5b50516004840154600160a01b900467ffffffffffffffff1690611e97565b6015810154600090610c6c9060c01b610d3a565b80546040805163dab70cb160e01b815290516000926001600160a01b03169163dab70cb1916004808301926020929190829003018186803b15801561119057600080fd5b60008061133273__TBTCConstants_________________________63d565d1f16040518163ffffffff1660e01b815260040160206040518083038186803b1580156112f557600080fd5b505af4158015611309573d6000803e3d6000fd5b505050506040513d602081101561131f57600080fd5b505160168501549063ffffffff611f5a16565b9050804210156113545761134c814263ffffffff611e1b16565b915050610c6f565b50600092915050565b60408051602081019182905260009081905261137d916010840191612be0565b5060006011820181905560138201819055601490910155565b6004810154600090610c6c90600160e81b900461ffff16610eb9846111c2565b6002810154604080516331a9108f60e11b815230600482015290516000926001600160a01b031691636352211e916024808301926020929190829003018186803b15801561119057600080fd5b606061140e82610c74565b836040516020018083805190602001908083835b602083106114415780518252601f199092019160209182019101611422565b51815160209384036101000a600019018019909216911617905292019384525060408051808503815293909101905250949350505050565b600d810154600e90910154604080516020810193909352828101919091528051808303820181526060909201905290565b600060606114c083600d015484600e0154611403565b905060606114cd826120fb565b90506114e081600063ffffffff61224316565b60601b949350505050565b600060606114f8896122a5565b611549576040805162461bcd60e51b815260206004820152601d60248201527f696e76616c696420696e70757420766563746f722070726f7669646564000000604482015290519081900360640190fd5b61155288612357565b6115a3576040805162461bcd60e51b815260206004820152601e60248201527f696e76616c6964206f757470757420766563746f722070726f76696465640000604482015290519081900360640190fd5b60006116968b8b8b8b60405160200180856001600160e01b0319166001600160e01b031916815260040184805190602001908083835b602083106115f85780518252601f1990920191602091820191016115d9565b51815160209384036101000a600019018019909216911617905286519190930192860191508083835b602083106116405780518252601f199092019160209182019101611621565b6001836020036101000a038019825116818451168082178552505050505050905001826001600160e01b0319166001600160e01b03191681526004019450505050506040516020818303038152906040526123fc565b90506116a38c8a896109e9565b60048d0154909350600160a01b900467ffffffffffffffff166116c584610d3a565b101561170c576040805162461bcd60e51b815260206004820152601160248201527011195c1bdcda5d081d1bdbc81cdb585b1b607a1b604482015290519081900360640190fd5b6117198c82888888611762565b60408051602081019290925260f89790971b6001600160f81b03191681880152600060418201528651808203602401815260449091019096525099939850929650505050505050565b611780611771610b4483612525565b8590858563ffffffff61253a16565b6117bb5760405162461bcd60e51b8152600401808060200182810382526039815260200180612de46039913960400191505060405180910390fd5b6117c58582610efb565b5050505050565b8054604080516329b05a4760e21b815290516000926001600160a01b03169163a6c1691c916004808301926020929190829003018186803b15801561119057600080fd5b606060008061181e856125ea565b90925090506000198214156118645760405162461bcd60e51b8152600401808060200182810382526022815260200180612c9a6022913960400191505060405180910390fd5b8084106118ac576040805162461bcd60e51b81526020600482015260116024820152702b37baba103932b0b21037bb32b9393ab760791b604482015290519081900360640190fd5b6060600060018401815b87811015611946576118d682838b51038b611c7b9092919063ffffffff16565b93506118e184612676565b925060001983141561193a576040805162461bcd60e51b815260206004820152601a60248201527f42616420566172496e7420696e207363726970745075626b6579000000000000604482015290519081900360640190fd5b908201906001016118b6565b5061195f81828a51038a611c7b9092919063ffffffff16565b925061196a83612676565b91506000198214156119c3576040805162461bcd60e51b815260206004820152601a60248201527f42616420566172496e7420696e207363726970745075626b6579000000000000604482015290519081900360640190fd5b6119d488828463ffffffff611c7b16565b98975050505050505050565b60606000826008815181106119f157fe5b0160200151835160f89190911c91506009820160ff1614611a22575050604080516020810190915260008152610c6f565b82600981518110611a2f57fe5b016020015160f81c611ad25760028160ff161015611a5d575050604080516020810190915260008152610c6f565b600083600a81518110611a6c57fe5b016020015160f81c9050600119820160ff1681141580611a99575080602014158015611a99575080601414155b15611ab7576040518060200160405280600081525092505050610c6f565b611ac984600b8363ffffffff611c7b16565b92505050610c6f565b6000611ae7846008600363ffffffff611c1416565b60408051621976a960e81b81529051908190036003019020909150811415611b925783600b81518110611b1657fe5b60209101015160f81c6014141580611b615750604051808061222b60f21b81525060020190506040518091039020611b5e6002865103600287611c149092919063ffffffff16565b14155b15611b7f576040518060200160405280600081525092505050610c6f565b611ac984600c601463ffffffff611c7b16565b604080516205ea4560ea1b81529051908190036003019020811415611bfd5783600185510381518110611bc157fe5b60209101015160f81c608714611bea576040518060200160405280600081525092505050610c6f565b611ac984600b601463ffffffff611c7b16565b505050604080516020810190915260008152919050565b60008282018381118015611c29575080855110155b611c70576040805162461bcd60e51b8152602060048201526013602482015272536c696365206f7574206f6620626f756e647360681b604482015290519081900360640190fd5b505091016020012090565b606081611c975750604080516020810190915260008152610b4e565b8282018381118015611caa575080855110155b611cf1576040805162461bcd60e51b8152602060048201526013602482015272536c696365206f7574206f6620626f756e647360681b604482015290519081900360640190fd5b604051915082604083010160405282825283850182038460208701018481015b80821015611d2a57815183830152602082019150611d11565b505050509392505050565b6000815160001415611d4957506000610c6f565b506020015190565b60608082516040519080825280601f01601f191660200182016040528015611d80576020820181803883390190505b50905060005b8351811015611dd757838181518110611d9b57fe5b602001015160f81c60f81b826001838751030381518110611db857fe5b60200101906001600160f81b031916908160001a905350600101611d86565b5092915050565b600080805b8351811015611dd7578060010184510360080260020a848281518110611e0557fe5b016020015160f81c029190910190600101611de3565b600082821115611e72576040805162461bcd60e51b815260206004820152601e60248201527f536166654d6174683a207375627472616374696f6e206f766572666c6f770000604482015290519081900360640190fd5b50900390565b6005810154600090610c6c906127109061ffff1663ffffffff611ef016565b600082611ea657506000610b67565b82820282848281611eb357fe5b0414610b4e5760405162461bcd60e51b8152600401808060200182810382526021815260200180612d626021913960400191505060405180910390fd5b6000808211611f46576040805162461bcd60e51b815260206004820152601a60248201527f536166654d6174683a206469766973696f6e206279207a65726f000000000000604482015290519081900360640190fd5b6000828481611f5157fe5b04949350505050565b600082820183811015610b4e576040805162461bcd60e51b815260206004820152601b60248201527f536166654d6174683a206164646974696f6e206f766572666c6f770000000000604482015290519081900360640190fd5b60006060611fcb836048600363ffffffff611c7b16565b9050600083604b81518110611fdc57fe5b016020015160f81c90506000611ff4610d7084611d51565b6002199290920160ff166101000a909102949350505050565b6000610c6c61ffff60d01b8363ffffffff6126dc16565b6000605082518161203157fe5b06156120405750600019610c6f565b50600080805b83518110156120e15760606120638583605063ffffffff611c7b16565b905081156120865761207581846126ef565b612086576001199350505050610c6f565b600061209182611fb4565b905061209c8261271b565b9350806120a885612740565b11156120bc57600219945050505050610c6f565b6120d56120c88261200d565b869063ffffffff61287a16565b94505050605001612046565b5050919050565b6000195b90565b60011990565b60021990565b606060036002836040518082805190602001908083835b602083106121315780518252601f199092019160209182019101612112565b51815160209384036101000a60001901801990921691161790526040519190930194509192505080830381855afa158015612170573d6000803e3d6000fd5b5050506040513d602081101561218557600080fd5b50516040805160208181019390935281518082038401815290820191829052805190928291908401908083835b602083106121d15780518252601f1990920191602091820191016121b2565b51815160209384036101000a60001901801990921691161790526040519190930194509192505080830381855afa158015612210573d6000803e3d6000fd5b505060408051805160601b6001600160601b03191660208201528151601481830301815260349091019091529392505050565b6000601482018281118015612259575080845110155b6122945760405162461bcd60e51b8152600401808060200182810382526021815260200180612c796021913960400191505060405180910390fd5b50500160200151600160601b900490565b60008060006122b3846125ea565b90925090508015806122c6575060001982145b156122d657600092505050610c6f565b6001820160005b8281101561234a57855182106122fa576000945050505050610c6f565b6060612314838489510389611c7b9092919063ffffffff16565b90506000612321826128d2565b905060001981141561233c5760009650505050505050610c6f565b9290920191506001016122dd565b5084511492505050919050565b6000806000612365846125ea565b9092509050801580612378575060001982145b1561238857600092505050610c6f565b6001820160005b8281101561234a57855182106123ac576000945050505050610c6f565b60606123c6838489510389611c7b9092919063ffffffff16565b905060006123d382612676565b90506000198114156123ee5760009650505050505050610c6f565b92909201915060010161238f565b6000600280836040518082805190602001908083835b602083106124315780518252601f199092019160209182019101612412565b51815160209384036101000a60001901801990921691161790526040519190930194509192505080830381855afa158015612470573d6000803e3d6000fd5b5050506040513d602081101561248557600080fd5b50516040805160208181019390935281518082038401815290820191829052805190928291908401908083835b602083106124d15780518252601f1990920191602091820191016124b2565b51815160209384036101000a60001901801990921691161790526040519190930194509192505080830381855afa158015612510573d6000803e3d6000fd5b5050506040513d60208110156111ba57600080fd5b6060610c6c826024602063ffffffff611c7b16565b60008385148015612549575081155b801561255457508251155b15612561575060016125e2565b60608584866040516020018084815260200183805190602001908083835b6020831061259e5780518252601f19909201916020918201910161257f565b51815160209384036101000a60001901801990921691161790529201938452506040805180850381529390910190525092506125de915082905084612905565b9150505b949350505050565b60008060006125f884612a44565b905060ff81166126255760008460008151811061261157fe5b016020015190935060f81c91506126719050565b8060010160ff16845110156126435750600019915060009050612671565b6000612665610d7061266087600160ff871663ffffffff611c7b16565b611d51565b60ff9092169350909150505b915091565b600060098251101561268b5750600019610c6f565b60606126a660088085510385611c7b9092919063ffffffff16565b90506000806126b4836125ea565b90925090506000198214156126d0576000199350505050610c6f565b01600901915050919050565b60008183816126e757fe5b049392505050565b6000806126fe610b4485612ac0565b9050828114612711576000915050610b67565b5060019392505050565b600060405160208184516020860160025afa5060208160208360025afa505192915050565b600881811c7eff00ff00ff00ff00ff00ff00ff00ff00ff00ff00ff00ff00ff00ff00ff00ff167fff00ff00ff00ff00ff00ff00ff00ff00ff00ff00ff00ff00ff00ff00ff00ff009290911b9190911617601081811c7dffff0000ffff0000ffff0000ffff0000ffff0000ffff0000ffff0000ffff167fffff0000ffff0000ffff0000ffff0000ffff0000ffff0000ffff0000ffff00009290911b9190911617602081811c7bffffffff00000000ffffffff00000000ffffffff00000000ffffffff167fffffffff00000000ffffffff00000000ffffffff00000000ffffffff000000009290911b9190911617604081811c77ffffffffffffffff0000000000000000ffffffffffffffff1677ffffffffffffffff0000000000000000ffffffffffffffff199290911b9190911617608081811c91901b1790565b81810182811015610b67576040805162461bcd60e51b815260206004820152601960248201527f4f766572666c6f7720647572696e67206164646974696f6e2e00000000000000604482015290519081900360640190fd5b60008060006128e084612ad5565b90925090506000198214156128fb5760001992505050610c6f565b0160290192915050565b6000602083518161291257fe5b061561292057506000610b67565b82516020141561293257506001610b67565b82516040141561294457506000610b67565b8251829060009061296690610b44908790601f1901602063ffffffff611c7b16565b9050600061297f610b448783602063ffffffff611c7b16565b905060015b865160019061299a90602063ffffffff6126dc16565b03811015612a3a5760028406600114156129f2576129eb6129c68860208085029063ffffffff611c7b16565b8360405160200180828152602001915050604051602081830303815290604052612b25565b9150612a2e565b604080516020808201859052825180830382018152918301909252612a2b91612a26908a908581029063ffffffff611c7b16565b612b25565b91505b600193841c9301612984565b5014949350505050565b600081600081518110612a5357fe5b60209101015160f81c60ff1415612a6c57506008610c6f565b81600081518110612a7957fe5b60209101015160f81c60fe1415612a9257506004610c6f565b81600081518110612a9f57fe5b60209101015160f81c60fd1415612ab857506002610c6f565b506000919050565b6060610c6c826004602063ffffffff611c7b16565b600080602583511015612aef575060001990506000612671565b6060612b0a60248086510386611c7b9092919063ffffffff16565b9050600080612b18836125ea565b9095509350505050915091565b6000610b4e83836040516020018083805190602001908083835b60208310612b5e5780518252601f199092019160209182019101612b3f565b51815160209384036101000a600019018019909216911617905285519190930192850191508083835b60208310612ba65780518252601f199092019160209182019101612b87565b6001836020036101000a038019825116818451168082178552505050505050905001925050506040516020818303038152906040526123fc565b828054600181600116156101000203166002900490600052602060002090601f016020900481019282601f10612c2157805160ff1916838001178555612c4e565b82800160010185558215612c4e579182015b82811115612c4e578251825591602001919060010190612c33565b50612c5a929150612c5e565b5090565b6120ec91905b80821115612c5a5760008155600101612c6456fe4164647265737320636f6e76657273696f6e206f7574206f6620626f756e64732e52656164206f76657272756e20647572696e6720566172496e742070617273696e6746756e64696e67207472616e73616374696f6e206f7574707574207479706520756e737570706f727465643a206f6e6c7920703277706b68206f7574707574732061726520737570706f72746564496e73756666696369656e7420616363756d756c6174656420646966666963756c747920696e2068656164657220636861696e6e6f742061742063757272656e74206f722070726576696f757320646966666963756c7479536166654d6174683a206d756c7469706c69636174696f6e206f766572666c6f77496e76616c6964206c656e677468206f6620746865206865616465727320636861696e436f756c64206e6f74206964656e74696679206f75747075742066756e64696e6720746865207265717569726564207075626c6963206b657920686173685478206d65726b6c652070726f6f66206973206e6f742076616c696420666f722070726f76696465642068656164657220616e642074784964a265627a7a72315820b49e1de9693263ee82a81a354f3518635fc8a5005005723f9c25330dcf6424d664736f6c63430005110032",
  "source": "pragma solidity 0.5.17;\n\nimport {ValidateSPV} from \"@summa-tx/bitcoin-spv-sol/contracts/ValidateSPV.sol\";\nimport {BTCUtils} from \"@summa-tx/bitcoin-spv-sol/contracts/BTCUtils.sol\";\nimport {BytesLib} from \"@summa-tx/bitcoin-spv-sol/contracts/BytesLib.sol\";\nimport {IBondedECDSAKeep} from \"@keep-network/keep-ecdsa/contracts/api/IBondedECDSAKeep.sol\";\nimport {IERC721} from \"openzeppelin-solidity/contracts/token/ERC721/IERC721.sol\";\nimport {SafeMath} from \"openzeppelin-solidity/contracts/math/SafeMath.sol\";\nimport {DepositStates} from \"./DepositStates.sol\";\nimport {TBTCConstants} from \"../system/TBTCConstants.sol\";\nimport {ITBTCSystem} from \"../interfaces/ITBTCSystem.sol\";\nimport {TBTCToken} from \"../system/TBTCToken.sol\";\nimport {FeeRebateToken} from \"../system/FeeRebateToken.sol\";\n\nlibrary DepositUtils {\n\n    using SafeMath for uint256;\n    using SafeMath for uint64;\n    using BytesLib for bytes;\n    using BTCUtils for bytes;\n    using BTCUtils for uint256;\n    using ValidateSPV for bytes;\n    using ValidateSPV for bytes32;\n    using DepositStates for DepositUtils.Deposit;\n\n    struct Deposit {\n\n        // SET DURING CONSTRUCTION\n        ITBTCSystem tbtcSystem;\n        TBTCToken tbtcToken;\n        IERC721 tbtcDepositToken;\n        FeeRebateToken feeRebateToken;\n        address vendingMachineAddress;\n        uint64 lotSizeSatoshis;\n        uint8 currentState;\n        uint16 signerFeeDivisor;\n        uint16 initialCollateralizedPercent;\n        uint16 undercollateralizedThresholdPercent;\n        uint16 severelyUndercollateralizedThresholdPercent;\n        uint256 keepSetupFee;\n\n        // SET ON FRAUD\n        uint256 liquidationInitiated;  // Timestamp of when liquidation starts\n        uint256 courtesyCallInitiated; // When the courtesy call is issued\n        address payable liquidationInitiator;\n\n        // written when we request a keep\n        address keepAddress;  // The address of our keep contract\n        uint256 signingGroupRequestedAt;  // timestamp of signing group request\n\n        // written when we get a keep result\n        uint256 fundingProofTimerStart;  // start of the funding proof period. reused for funding fraud proof period\n        bytes32 signingGroupPubkeyX;  // The X coordinate of the signing group's pubkey\n        bytes32 signingGroupPubkeyY;  // The Y coordinate of the signing group's pubkey\n\n        // INITIALLY WRITTEN BY REDEMPTION FLOW\n        address payable redeemerAddress;  // The redeemer's address, used as fallback for fraud in redemption\n        bytes redeemerOutputScript;  // The redeemer output script\n        uint256 initialRedemptionFee;  // the initial fee as requested\n        uint256 latestRedemptionFee; // the fee currently required by a redemption transaction\n        uint256 withdrawalRequestTime;  // the most recent withdrawal request timestamp\n        bytes32 lastRequestedDigest;  // the digest most recently requested for signing\n\n        // written when we get funded\n        bytes8 utxoValueBytes;  // LE uint. the size of the deposit UTXO in satoshis\n        uint256 fundedAt; // timestamp when funding proof was received\n        bytes utxoOutpoint;  // the 36-byte outpoint of the custodied UTXO\n\n        /// @dev Map of ETH balances an address can withdraw after contract reaches ends-state.\n        mapping(address => uint256) withdrawableAmounts;\n\n        /// @dev Map of timestamps representing when transaction digests were approved for signing\n        mapping (bytes32 => uint256) approvedDigests;\n    }\n\n    /// @notice Closes keep associated with the deposit.\n    /// @dev Should be called when the keep is no longer needed and the signing\n    /// group can disband.\n    function closeKeep(DepositUtils.Deposit storage _d) internal {\n        IBondedECDSAKeep _keep = IBondedECDSAKeep(_d.keepAddress);\n        _keep.closeKeep();\n    }\n\n    /// @notice         Gets the current block difficulty.\n    /// @dev            Calls the light relay and gets the current block difficulty.\n    /// @return         The difficulty.\n    function currentBlockDifficulty(Deposit storage _d) public view returns (uint256) {\n        return _d.tbtcSystem.fetchRelayCurrentDifficulty();\n    }\n\n    /// @notice         Gets the previous block difficulty.\n    /// @dev            Calls the light relay and gets the previous block difficulty.\n    /// @return         The difficulty.\n    function previousBlockDifficulty(Deposit storage _d) public view returns (uint256) {\n        return _d.tbtcSystem.fetchRelayPreviousDifficulty();\n    }\n\n    /// @notice                     Evaluates the header difficulties in a proof.\n    /// @dev                        Uses the light oracle to source recent difficulty.\n    /// @param  _bitcoinHeaders     The header chain to evaluate.\n    /// @return                     True if acceptable, otherwise revert.\n    function evaluateProofDifficulty(Deposit storage _d, bytes memory _bitcoinHeaders) public view {\n        uint256 _reqDiff;\n        uint256 _current = currentBlockDifficulty(_d);\n        uint256 _previous = previousBlockDifficulty(_d);\n        uint256 _firstHeaderDiff = _bitcoinHeaders.extractTarget().calculateDifficulty();\n\n        if (_firstHeaderDiff == _current) {\n            _reqDiff = _current;\n        } else if (_firstHeaderDiff == _previous) {\n            _reqDiff = _previous;\n        } else {\n            revert(\"not at current or previous difficulty\");\n        }\n\n        uint256 _observedDiff = _bitcoinHeaders.validateHeaderChain();\n\n        require(_observedDiff != ValidateSPV.getErrBadLength(), \"Invalid length of the headers chain\");\n        require(_observedDiff != ValidateSPV.getErrInvalidChain(), \"Invalid headers chain\");\n        require(_observedDiff != ValidateSPV.getErrLowWork(), \"Insufficient work in a header\");\n\n        require(\n            _observedDiff >= _reqDiff.mul(TBTCConstants.getTxProofDifficultyFactor()),\n            \"Insufficient accumulated difficulty in header chain\"\n        );\n    }\n\n    /// @notice                 Syntactically check an SPV proof for a bitcoin transaction with its hash (ID).\n    /// @dev                    Stateless SPV Proof verification documented elsewhere (see https://github.com/summa-tx/bitcoin-spv).\n    /// @param _d               Deposit storage pointer.\n    /// @param _txId            The bitcoin txid of the tx that is purportedly included in the header chain.\n    /// @param _merkleProof     The merkle proof of inclusion of the tx in the bitcoin block.\n    /// @param _txIndexInBlock  The index of the tx in the Bitcoin block (0-indexed).\n    /// @param _bitcoinHeaders  An array of tightly-packed bitcoin headers.\n    function checkProofFromTxId(\n        Deposit storage _d,\n        bytes32 _txId,\n        bytes memory _merkleProof,\n        uint256 _txIndexInBlock,\n        bytes memory _bitcoinHeaders\n    ) public view{\n        require(\n            _txId.prove(\n                _bitcoinHeaders.extractMerkleRootLE().toBytes32(),\n                _merkleProof,\n                _txIndexInBlock\n            ),\n            \"Tx merkle proof is not valid for provided header and txId\");\n        evaluateProofDifficulty(_d, _bitcoinHeaders);\n    }\n\n    /// @notice                     Find and validate funding output in transaction output vector using the index.\n    /// @dev                        Gets `_fundingOutputIndex` output from the output vector and validates if it is\n    ///                             a p2wpkh output with public key hash matching this deposit's public key hash.\n    /// @param _d                   Deposit storage pointer.\n    /// @param _txOutputVector      All transaction outputs prepended by the number of outputs encoded as a VarInt, max 0xFC outputs.\n    /// @param _fundingOutputIndex  Index of funding output in _txOutputVector.\n    /// @return                     Funding value.\n    function findAndParseFundingOutput(\n        DepositUtils.Deposit storage _d,\n        bytes memory _txOutputVector,\n        uint8 _fundingOutputIndex\n    ) public view returns (bytes8) {\n        bytes8 _valueBytes;\n        bytes memory _output;\n\n        // Find the output paying the signer PKH\n        _output = _txOutputVector.extractOutputAtIndex(_fundingOutputIndex);\n\n        require(\n            keccak256(_output.extractHash()) == keccak256(abi.encodePacked(signerPKH(_d))),\n            \"Could not identify output funding the required public key hash\"\n        );\n        require(\n            _output.length == 31 &&\n                _output.keccak256Slice(8, 23) == keccak256(abi.encodePacked(hex\"160014\", signerPKH(_d))),\n            \"Funding transaction output type unsupported: only p2wpkh outputs are supported\"\n        );\n\n        _valueBytes = bytes8(_output.slice(0, 8).toBytes32());\n        return _valueBytes;\n    }\n\n    /// @notice                     Validates the funding tx and parses information from it.\n    /// @dev                        Takes a pre-parsed transaction and calculates values needed to verify funding.\n    /// @param  _d                  Deposit storage pointer.\n    /// @param _txVersion           Transaction version number (4-byte LE).\n    /// @param _txInputVector       All transaction inputs prepended by the number of inputs encoded as a VarInt, max 0xFC(252) inputs.\n    /// @param _txOutputVector      All transaction outputs prepended by the number of outputs encoded as a VarInt, max 0xFC(252) outputs.\n    /// @param _txLocktime          Final 4 bytes of the transaction.\n    /// @param _fundingOutputIndex  Index of funding output in _txOutputVector (0-indexed).\n    /// @param _merkleProof         The merkle proof of transaction inclusion in a block.\n    /// @param _txIndexInBlock      Transaction index in the block (0-indexed).\n    /// @param _bitcoinHeaders      Single bytestring of 80-byte bitcoin headers, lowest height first.\n    /// @return                     The 8-byte LE UTXO size in satoshi, the 36byte outpoint.\n    function validateAndParseFundingSPVProof(\n        DepositUtils.Deposit storage _d,\n        bytes4 _txVersion,\n        bytes memory _txInputVector,\n        bytes memory _txOutputVector,\n        bytes4 _txLocktime,\n        uint8 _fundingOutputIndex,\n        bytes memory _merkleProof,\n        uint256 _txIndexInBlock,\n        bytes memory _bitcoinHeaders\n    ) public view returns (bytes8 _valueBytes, bytes memory _utxoOutpoint){ // not external to allow bytes memory parameters\n        require(_txInputVector.validateVin(), \"invalid input vector provided\");\n        require(_txOutputVector.validateVout(), \"invalid output vector provided\");\n\n        bytes32 txID = abi.encodePacked(_txVersion, _txInputVector, _txOutputVector, _txLocktime).hash256();\n\n        _valueBytes = findAndParseFundingOutput(_d, _txOutputVector, _fundingOutputIndex);\n\n        require(bytes8LEToUint(_valueBytes) >= _d.lotSizeSatoshis, \"Deposit too small\");\n\n        checkProofFromTxId(_d, txID, _merkleProof, _txIndexInBlock, _bitcoinHeaders);\n\n        // The utxoOutpoint is the LE txID plus the index of the output as a 4-byte LE int\n        // _fundingOutputIndex is a uint8, so we know it is only 1 byte\n        // Therefore, pad with 3 more bytes\n        _utxoOutpoint = abi.encodePacked(txID, _fundingOutputIndex, hex\"000000\");\n    }\n\n    /// @notice Retreive the remaining term of the deposit\n    /// @dev    The return value is not guaranteed since block.timestmap can be lightly manipulated by miners.\n    /// @return The remaining term of the deposit in seconds. 0 if already at term\n    function remainingTerm(DepositUtils.Deposit storage _d) public view returns(uint256){\n        uint256 endOfTerm = _d.fundedAt.add(TBTCConstants.getDepositTerm());\n        if(block.timestamp < endOfTerm ) {\n            return endOfTerm.sub(block.timestamp);\n        }\n        return 0;\n    }\n\n    /// @notice     Calculates the amount of value at auction right now.\n    /// @dev        We calculate the % of the auction that has elapsed, then scale the value up.\n    /// @param _d   Deposit storage pointer.\n    /// @return     The value in wei to distribute in the auction at the current time.\n    function auctionValue(Deposit storage _d) external view returns (uint256) {\n        uint256 _elapsed = block.timestamp.sub(_d.liquidationInitiated);\n        uint256 _available = address(this).balance;\n        if (_elapsed > TBTCConstants.getAuctionDuration()) {\n            return _available;\n        }\n\n        // This should make a smooth flow from base% to 100%\n        uint256 _basePercentage = getAuctionBasePercentage(_d);\n        uint256 _elapsedPercentage = uint256(100).sub(_basePercentage).mul(_elapsed).div(TBTCConstants.getAuctionDuration());\n        uint256 _percentage = _basePercentage.add(_elapsedPercentage);\n\n        return _available.mul(_percentage).div(100);\n    }\n\n    /// @notice         Gets the lot size in erc20 decimal places (max 18)\n    /// @return         uint256 lot size in 10**18 decimals.\n    function lotSizeTbtc(Deposit storage _d) public view returns (uint256){\n        return _d.lotSizeSatoshis.mul(TBTCConstants.getSatoshiMultiplier());\n    }\n\n    /// @notice         Determines the fees due to the signers for work performed.\n    /// @dev            Signers are paid based on the TBTC issued.\n    /// @return         Accumulated fees in 10**18 decimals.\n    function signerFeeTbtc(Deposit storage _d) public view returns (uint256) {\n        return lotSizeTbtc(_d).div(_d.signerFeeDivisor);\n    }\n\n    /// @notice             Determines the prefix to the compressed public key.\n    /// @dev                The prefix encodes the parity of the Y coordinate.\n    /// @param  _pubkeyY    The Y coordinate of the public key.\n    /// @return             The 1-byte prefix for the compressed key.\n    function determineCompressionPrefix(bytes32 _pubkeyY) public pure returns (bytes memory) {\n        if(uint256(_pubkeyY) & 1 == 1) {\n            return hex\"03\";  // Odd Y\n        } else {\n            return hex\"02\";  // Even Y\n        }\n    }\n\n    /// @notice             Compresses a public key.\n    /// @dev                Converts the 64-byte key to a 33-byte key, bitcoin-style.\n    /// @param  _pubkeyX    The X coordinate of the public key.\n    /// @param  _pubkeyY    The Y coordinate of the public key.\n    /// @return             The 33-byte compressed pubkey.\n    function compressPubkey(bytes32 _pubkeyX, bytes32 _pubkeyY) public pure returns (bytes memory) {\n        return abi.encodePacked(determineCompressionPrefix(_pubkeyY), _pubkeyX);\n    }\n\n    /// @notice    Returns the packed public key (64 bytes) for the signing group.\n    /// @dev       We store it as 2 bytes32, (2 slots) then repack it on demand.\n    /// @return    64 byte public key.\n    function signerPubkey(Deposit storage _d) external view returns (bytes memory) {\n        return abi.encodePacked(_d.signingGroupPubkeyX, _d.signingGroupPubkeyY);\n    }\n\n    /// @notice    Returns the Bitcoin pubkeyhash (hash160) for the signing group.\n    /// @dev       This is used in bitcoin output scripts for the signers.\n    /// @return    20-bytes public key hash.\n    function signerPKH(Deposit storage _d) public view returns (bytes20) {\n        bytes memory _pubkey = compressPubkey(_d.signingGroupPubkeyX, _d.signingGroupPubkeyY);\n        bytes memory _digest = _pubkey.hash160();\n        return bytes20(_digest.toAddress(0));  // dirty solidity hack\n    }\n\n    /// @notice    Returns the size of the deposit UTXO in satoshi.\n    /// @dev       We store the deposit as bytes8 to make signature checking easier.\n    /// @return    UTXO value in satoshi.\n    function utxoValue(Deposit storage _d) external view returns (uint256) {\n        return bytes8LEToUint(_d.utxoValueBytes);\n    }\n\n    /// @notice     Gets the current price of Bitcoin in Ether.\n    /// @dev        Polls the price feed via the system contract.\n    /// @return     The current price of 1 sat in wei.\n    function fetchBitcoinPrice(Deposit storage _d) external view returns (uint256) {\n        return _d.tbtcSystem.fetchBitcoinPrice();\n    }\n\n    /// @notice     Fetches the Keep's bond amount in wei.\n    /// @dev        Calls the keep contract to do so.\n    /// @return     The amount of bonded ETH in wei.\n    function fetchBondAmount(Deposit storage _d) external view returns (uint256) {\n        IBondedECDSAKeep _keep = IBondedECDSAKeep(_d.keepAddress);\n        return _keep.checkBondAmount();\n    }\n\n    /// @notice         Convert a LE bytes8 to a uint256.\n    /// @dev            Do this by converting to bytes, then reversing endianness, then converting to int.\n    /// @return         The uint256 represented in LE by the bytes8.\n    function bytes8LEToUint(bytes8 _b) public pure returns (uint256) {\n        return abi.encodePacked(_b).reverseEndianness().bytesToUint();\n    }\n\n    /// @notice         Gets timestamp of digest approval for signing.\n    /// @dev            Identifies entry in the recorded approvals by keep ID and digest pair.\n    /// @param _digest  Digest to check approval for.\n    /// @return         Timestamp from the moment of recording the digest for signing.\n    ///                 Returns 0 if the digest was not approved for signing.\n    function wasDigestApprovedForSigning(Deposit storage _d, bytes32 _digest) external view returns (uint256) {\n        return _d.approvedDigests[_digest];\n    }\n\n    /// @notice         Looks up the Fee Rebate Token holder.\n    /// @return         The current token holder if the Token exists.\n    ///                 address(0) if the token does not exist.\n    function feeRebateTokenHolder(Deposit storage _d) public view returns (address payable) {\n        address tokenHolder = address(0);\n        if(_d.feeRebateToken.exists(uint256(address(this)))){\n            tokenHolder = address(uint160(_d.feeRebateToken.ownerOf(uint256(address(this)))));\n        }\n        return address(uint160(tokenHolder));\n    }\n\n    /// @notice         Looks up the deposit beneficiary by calling the tBTC system.\n    /// @dev            We cast the address to a uint256 to match the 721 standard.\n    /// @return         The current deposit beneficiary.\n    function depositOwner(Deposit storage _d) public view returns (address payable) {\n        return address(uint160(_d.tbtcDepositToken.ownerOf(uint256(address(this)))));\n    }\n\n    /// @notice     Deletes state after termination of redemption process.\n    /// @dev        We keep around the redeemer address so we can pay them out.\n    function redemptionTeardown(Deposit storage _d) public {\n        _d.redeemerOutputScript = \"\";\n        _d.initialRedemptionFee = 0;\n        _d.withdrawalRequestTime = 0;\n        _d.lastRequestedDigest = bytes32(0);\n    }\n\n\n    /// @notice     Get the starting percentage of the bond at auction.\n    /// @dev        This will return the same value regardless of collateral price.\n    /// @return     The percentage of the InitialCollateralizationPercent that will result\n    ///             in a 100% bond value base auction given perfect collateralization.\n    function getAuctionBasePercentage(Deposit storage _d) internal view returns (uint256) {\n        return uint256(10000).div(_d.initialCollateralizedPercent);\n    }\n\n    /// @notice     Seize the signer bond from the keep contract.\n    /// @dev        we check our balance before and after.\n    /// @return     The amount seized in wei.\n    function seizeSignerBonds(Deposit storage _d) internal returns (uint256) {\n        uint256 _preCallBalance = address(this).balance;\n\n        IBondedECDSAKeep _keep = IBondedECDSAKeep(_d.keepAddress);\n        _keep.seizeSignerBonds();\n\n        uint256 _postCallBalance = address(this).balance;\n        require(_postCallBalance > _preCallBalance, \"No funds received, unexpected\");\n        return _postCallBalance.sub(_preCallBalance);\n    }\n\n    /// @notice     Adds a given amount to the withdraw allowance for the address.\n    /// @dev        Withdrawals can only happen when a contract is in an end-state.\n    function enableWithdrawal(DepositUtils.Deposit storage _d, address _withdrawer, uint256 _amount) internal {\n        _d.withdrawableAmounts[_withdrawer] = _d.withdrawableAmounts[_withdrawer].add(_amount);\n    }\n\n    /// @notice     Withdraw caller's allowance.\n    /// @dev        Withdrawals can only happen when a contract is in an end-state.\n    function withdrawFunds(DepositUtils.Deposit storage _d) internal {\n        uint256 available = _d.withdrawableAmounts[msg.sender];\n\n        require(_d.inEndState(), \"Contract not yet terminated\");\n        require(available > 0, \"Nothing to withdraw\");\n        require(address(this).balance >= available, \"Insufficient contract balance\");\n\n        // zero-out to prevent reentrancy\n        _d.withdrawableAmounts[msg.sender] = 0;\n\n        /* solium-disable-next-line security/no-call-value */\n        (bool ok,) = msg.sender.call.value(available)(\"\");\n        require(\n            ok,\n            \"Failed to send withdrawable amount to sender\"\n        );\n    }\n\n    /// @notice     Get the caller's withdraw allowance.\n    /// @return     The caller's withdraw allowance in wei.\n    function getWithdrawableAmount(DepositUtils.Deposit storage _d) internal view returns (uint256) {\n        return _d.withdrawableAmounts[msg.sender];\n    }\n\n    /// @notice     Distributes the fee rebate to the Fee Rebate Token owner.\n    /// @dev        Whenever this is called we are shutting down.\n    function distributeFeeRebate(Deposit storage _d) internal {\n        address rebateTokenHolder = feeRebateTokenHolder(_d);\n\n        // exit the function if there is nobody to send the rebate to\n        if(rebateTokenHolder == address(0)){\n            return;\n        }\n\n        // pay out the rebate if it is available\n        if(_d.tbtcToken.balanceOf(address(this)) >= signerFeeTbtc(_d)) {\n            _d.tbtcToken.transfer(rebateTokenHolder, signerFeeTbtc(_d));\n        }\n    }\n\n    /// @notice             Pushes ether held by the deposit to the signer group.\n    /// @dev                Ether is returned to signing group members bonds.\n    /// @param  _ethValue   The amount of ether to send.\n    function pushFundsToKeepGroup(Deposit storage _d, uint256 _ethValue) internal {\n        require(address(this).balance >= _ethValue, \"Not enough funds to send\");\n        if(_ethValue > 0){\n            IBondedECDSAKeep _keep = IBondedECDSAKeep(_d.keepAddress);\n            _keep.returnPartialSignerBonds(_ethValue);\n        }\n    }\n\n    /// @notice Calculate TBTC amount required for redemption by a specified\n    ///         _redeemer. If _assumeRedeemerHoldTdt is true, return the\n    ///         requirement as if the redeemer holds this deposit's TDT.\n    /// @dev Will revert if redemption is not possible by the current owner and\n    ///      _assumeRedeemerHoldsTdt was not set. Setting\n    ///      _assumeRedeemerHoldsTdt only when appropriate is the responsibility\n    ///      of the caller; as such, this function should NEVER be publicly\n    ///      exposed.\n    /// @param _redeemer The account that should be treated as redeeming this\n    ///        deposit  for the purposes of this calculation.\n    /// @param _assumeRedeemerHoldsTdt If true, the calculation assumes that the\n    ///        specified redeemer holds the TDT. If false, the calculation\n    ///        checks the deposit owner against the specified _redeemer. Note\n    ///        that this parameter should be false for all mutating calls to\n    ///        preserve system correctness.\n    /// @return A tuple of the amount the redeemer owes to the deposit to\n    ///         initiate redemption, the amount that is owed to the TDT holder\n    ///         when redemption is initiated, and the amount that is owed to the\n    ///         FRT holder when redemption is initiated.\n    function calculateRedemptionTbtcAmounts(\n        DepositUtils.Deposit storage _d,\n        address _redeemer,\n        bool _assumeRedeemerHoldsTdt\n    ) internal view returns (\n        uint256 owedToDeposit,\n        uint256 owedToTdtHolder,\n        uint256 owedToFrtHolder\n    ) {\n        bool redeemerHoldsTdt =\n            _assumeRedeemerHoldsTdt || depositOwner(_d) == _redeemer;\n        bool preTerm = remainingTerm(_d) > 0 &&  !_d.inCourtesyCall();\n\n        require(\n            redeemerHoldsTdt || !preTerm,\n            \"Only TDT holder can redeem unless deposit is at-term or in COURTESY_CALL\"\n        );\n\n        bool frtExists = feeRebateTokenHolder(_d) != address(0);\n        bool redeemerHoldsFrt = feeRebateTokenHolder(_d) == _redeemer;\n        uint256 signerFee = signerFeeTbtc(_d);\n\n        uint256 feeEscrow = calculateRedemptionFeeEscrow(\n            signerFee,\n            preTerm,\n            frtExists,\n            redeemerHoldsTdt,\n            redeemerHoldsFrt\n        );\n\n        // Base redemption + fee = total we need to have escrowed to start\n        // redemption.\n        owedToDeposit =\n            calculateBaseRedemptionCharge(\n                lotSizeTbtc(_d),\n                redeemerHoldsTdt\n            ).add(feeEscrow);\n\n        // Adjust the amount owed to the deposit based on any balance the\n        // deposit already has.\n        uint256 balance = _d.tbtcToken.balanceOf(address(this));\n        if (owedToDeposit > balance) {\n            owedToDeposit = owedToDeposit.sub(balance);\n        } else {\n            owedToDeposit = 0;\n        }\n\n        // Pre-term, the FRT rebate is payed out, but if the redeemer holds the\n        // FRT, the amount has already been subtracted from what is owed to the\n        // deposit at this point (by calculateRedemptionFeeEscrow). This allows\n        // the redeemer to simply *not pay* the fee rebate, rather than having\n        // them pay it only to have it immediately returned.\n        if (preTerm && frtExists && !redeemerHoldsFrt) {\n            owedToFrtHolder = signerFee;\n        }\n\n        // The TDT holder gets any leftover balance.\n        owedToTdtHolder =\n            balance.add(owedToDeposit).sub(signerFee).sub(owedToFrtHolder);\n\n        return (owedToDeposit, owedToTdtHolder, owedToFrtHolder);\n    }\n\n    /// @notice                    Get the base TBTC amount needed to redeem.\n    /// @param _lotSize   The lot size to use for the base redemption charge.\n    /// @param _redeemerHoldsTdt   True if the redeemer is the TDT holder.\n    /// @return                    The amount in TBTC.\n    function calculateBaseRedemptionCharge(\n        uint256 _lotSize,\n        bool _redeemerHoldsTdt\n    ) internal pure returns (uint256){\n        if (_redeemerHoldsTdt) {\n            return 0;\n        }\n        return _lotSize;\n    }\n\n    /// @notice  Get fees owed for redemption\n    /// @param signerFee The value of the signer fee for fee calculations.\n    /// @param _preTerm               True if the Deposit is at-term or in courtesy_call.\n    /// @param _frtExists     True if the FRT exists.\n    /// @param _redeemerHoldsTdt     True if the the redeemer holds the TDT.\n    /// @param _redeemerHoldsFrt     True if the redeemer holds the FRT.\n    /// @return                      The fees owed in TBTC.\n    function calculateRedemptionFeeEscrow(\n        uint256 signerFee,\n        bool _preTerm,\n        bool _frtExists,\n        bool _redeemerHoldsTdt,\n        bool _redeemerHoldsFrt\n    ) internal pure returns (uint256) {\n        // Escrow the fee rebate so the FRT holder can be repaids, unless the\n        // redeemer holds the FRT, in which case we simply don't require the\n        // rebate from them.\n        bool escrowRequiresFeeRebate =\n            _preTerm && _frtExists && ! _redeemerHoldsFrt;\n\n        bool escrowRequiresFee =\n            _preTerm ||\n            // If the FRT exists at term/courtesy call, the fee is\n            // \"required\", but should already be escrowed before redemption.\n            _frtExists ||\n            // The TDT holder always owes fees if there is no FRT.\n            _redeemerHoldsTdt;\n\n        uint256 feeEscrow = 0;\n        if (escrowRequiresFee) {\n            feeEscrow += signerFee;\n        }\n        if (escrowRequiresFeeRebate) {\n            feeEscrow += signerFee;\n        }\n\n        return feeEscrow;\n    }\n}\n",
  "sourcePath": "/Users/konrad/Desktop/rumble/fin/local-setup/tbtc/solidity/contracts/deposit/DepositUtils.sol",
  "compiler": {
    "name": "solc",
    "version": "0.5.17+commit.d19bba13.Emscripten.clang"
  },
  "schemaVersion": "3.3.4",
  "updatedAt": "2021-04-30T09:57:27.560Z",
  "networkType": "ethereum",
  "devdoc": {
    "methods": {
      "auctionValue(DepositUtils.Deposit storage)": {
        "details": "We calculate the % of the auction that has elapsed, then scale the value up.",
        "params": {
          "_d": "Deposit storage pointer."
        },
        "return": "The value in wei to distribute in the auction at the current time."
      },
      "bytes8LEToUint(bytes8)": {
        "details": "Do this by converting to bytes, then reversing endianness, then converting to int.",
        "return": "The uint256 represented in LE by the bytes8."
      },
      "checkProofFromTxId(DepositUtils.Deposit storage,bytes32,bytes,uint256,bytes)": {
        "details": "Stateless SPV Proof verification documented elsewhere (see https://github.com/summa-tx/bitcoin-spv).",
        "params": {
          "_bitcoinHeaders": "An array of tightly-packed bitcoin headers.",
          "_d": "Deposit storage pointer.",
          "_merkleProof": "The merkle proof of inclusion of the tx in the bitcoin block.",
          "_txId": "The bitcoin txid of the tx that is purportedly included in the header chain.",
          "_txIndexInBlock": "The index of the tx in the Bitcoin block (0-indexed)."
        }
      },
      "compressPubkey(bytes32,bytes32)": {
        "details": "Converts the 64-byte key to a 33-byte key, bitcoin-style.",
        "params": {
          "_pubkeyX": "The X coordinate of the public key.",
          "_pubkeyY": "The Y coordinate of the public key."
        },
        "return": "The 33-byte compressed pubkey."
      },
      "currentBlockDifficulty(DepositUtils.Deposit storage)": {
        "details": "Calls the light relay and gets the current block difficulty.",
        "return": "The difficulty."
      },
      "depositOwner(DepositUtils.Deposit storage)": {
        "details": "We cast the address to a uint256 to match the 721 standard.",
        "return": "The current deposit beneficiary."
      },
      "determineCompressionPrefix(bytes32)": {
        "details": "The prefix encodes the parity of the Y coordinate.",
        "params": {
          "_pubkeyY": "The Y coordinate of the public key."
        },
        "return": "The 1-byte prefix for the compressed key."
      },
      "evaluateProofDifficulty(DepositUtils.Deposit storage,bytes)": {
        "details": "Uses the light oracle to source recent difficulty.",
        "params": {
          "_bitcoinHeaders": "The header chain to evaluate."
        },
        "return": "True if acceptable, otherwise revert."
      },
      "feeRebateTokenHolder(DepositUtils.Deposit storage)": {
        "return": "The current token holder if the Token exists.                 address(0) if the token does not exist."
      },
      "fetchBitcoinPrice(DepositUtils.Deposit storage)": {
        "details": "Polls the price feed via the system contract.",
        "return": "The current price of 1 sat in wei."
      },
      "fetchBondAmount(DepositUtils.Deposit storage)": {
        "details": "Calls the keep contract to do so.",
        "return": "The amount of bonded ETH in wei."
      },
      "findAndParseFundingOutput(DepositUtils.Deposit storage,bytes,uint8)": {
        "details": "Gets `_fundingOutputIndex` output from the output vector and validates if it is                             a p2wpkh output with public key hash matching this deposit's public key hash.",
        "params": {
          "_d": "Deposit storage pointer.",
          "_fundingOutputIndex": "Index of funding output in _txOutputVector.",
          "_txOutputVector": "All transaction outputs prepended by the number of outputs encoded as a VarInt, max 0xFC outputs."
        },
        "return": "Funding value."
      },
      "lotSizeTbtc(DepositUtils.Deposit storage)": {
        "return": "uint256 lot size in 10**18 decimals."
      },
      "previousBlockDifficulty(DepositUtils.Deposit storage)": {
        "details": "Calls the light relay and gets the previous block difficulty.",
        "return": "The difficulty."
      },
      "redemptionTeardown(DepositUtils.Deposit storage)": {
        "details": "We keep around the redeemer address so we can pay them out."
      },
      "remainingTerm(DepositUtils.Deposit storage)": {
        "details": "The return value is not guaranteed since block.timestmap can be lightly manipulated by miners.",
        "return": "The remaining term of the deposit in seconds. 0 if already at term"
      },
      "signerFeeTbtc(DepositUtils.Deposit storage)": {
        "details": "Signers are paid based on the TBTC issued.",
        "return": "Accumulated fees in 10**18 decimals."
      },
      "signerPKH(DepositUtils.Deposit storage)": {
        "details": "This is used in bitcoin output scripts for the signers.",
        "return": "20-bytes public key hash."
      },
      "signerPubkey(DepositUtils.Deposit storage)": {
        "details": "We store it as 2 bytes32, (2 slots) then repack it on demand.",
        "return": "64 byte public key."
      },
      "utxoValue(DepositUtils.Deposit storage)": {
        "details": "We store the deposit as bytes8 to make signature checking easier.",
        "return": "UTXO value in satoshi."
      },
      "validateAndParseFundingSPVProof(DepositUtils.Deposit storage,bytes4,bytes,bytes,bytes4,uint8,bytes,uint256,bytes)": {
        "details": "Takes a pre-parsed transaction and calculates values needed to verify funding.",
        "params": {
          "_bitcoinHeaders": "Single bytestring of 80-byte bitcoin headers, lowest height first.",
          "_d": "Deposit storage pointer.",
          "_fundingOutputIndex": "Index of funding output in _txOutputVector (0-indexed).",
          "_merkleProof": "The merkle proof of transaction inclusion in a block.",
          "_txIndexInBlock": "Transaction index in the block (0-indexed).",
          "_txInputVector": "All transaction inputs prepended by the number of inputs encoded as a VarInt, max 0xFC(252) inputs.",
          "_txLocktime": "Final 4 bytes of the transaction.",
          "_txOutputVector": "All transaction outputs prepended by the number of outputs encoded as a VarInt, max 0xFC(252) outputs.",
          "_txVersion": "Transaction version number (4-byte LE)."
        },
        "return": "The 8-byte LE UTXO size in satoshi, the 36byte outpoint."
      },
      "wasDigestApprovedForSigning(DepositUtils.Deposit storage,bytes32)": {
        "details": "Identifies entry in the recorded approvals by keep ID and digest pair.",
        "params": {
          "_digest": "Digest to check approval for."
        },
        "return": "Timestamp from the moment of recording the digest for signing.                 Returns 0 if the digest was not approved for signing."
      }
    }
  },
  "userdoc": {
    "methods": {
      "auctionValue(DepositUtils.Deposit storage)": {
        "notice": "Calculates the amount of value at auction right now."
      },
      "bytes8LEToUint(bytes8)": {
        "notice": "Convert a LE bytes8 to a uint256."
      },
      "checkProofFromTxId(DepositUtils.Deposit storage,bytes32,bytes,uint256,bytes)": {
        "notice": "Syntactically check an SPV proof for a bitcoin transaction with its hash (ID)."
      },
      "compressPubkey(bytes32,bytes32)": {
        "notice": "Compresses a public key."
      },
      "currentBlockDifficulty(DepositUtils.Deposit storage)": {
        "notice": "Gets the current block difficulty."
      },
      "depositOwner(DepositUtils.Deposit storage)": {
        "notice": "Looks up the deposit beneficiary by calling the tBTC system."
      },
      "determineCompressionPrefix(bytes32)": {
        "notice": "Determines the prefix to the compressed public key."
      },
      "evaluateProofDifficulty(DepositUtils.Deposit storage,bytes)": {
        "notice": "Evaluates the header difficulties in a proof."
      },
      "feeRebateTokenHolder(DepositUtils.Deposit storage)": {
        "notice": "Looks up the Fee Rebate Token holder."
      },
      "fetchBitcoinPrice(DepositUtils.Deposit storage)": {
        "notice": "Gets the current price of Bitcoin in Ether."
      },
      "fetchBondAmount(DepositUtils.Deposit storage)": {
        "notice": "Fetches the Keep's bond amount in wei."
      },
      "findAndParseFundingOutput(DepositUtils.Deposit storage,bytes,uint8)": {
        "notice": "Find and validate funding output in transaction output vector using the index."
      },
      "lotSizeTbtc(DepositUtils.Deposit storage)": {
        "notice": "Gets the lot size in erc20 decimal places (max 18)"
      },
      "previousBlockDifficulty(DepositUtils.Deposit storage)": {
        "notice": "Gets the previous block difficulty."
      },
      "redemptionTeardown(DepositUtils.Deposit storage)": {
        "notice": "Deletes state after termination of redemption process."
      },
      "remainingTerm(DepositUtils.Deposit storage)": {
        "notice": "Retreive the remaining term of the deposit"
      },
      "signerFeeTbtc(DepositUtils.Deposit storage)": {
        "notice": "Determines the fees due to the signers for work performed."
      },
      "signerPKH(DepositUtils.Deposit storage)": {
        "notice": "Returns the Bitcoin pubkeyhash (hash160) for the signing group."
      },
      "signerPubkey(DepositUtils.Deposit storage)": {
        "notice": "Returns the packed public key (64 bytes) for the signing group."
      },
      "utxoValue(DepositUtils.Deposit storage)": {
        "notice": "Returns the size of the deposit UTXO in satoshi."
      },
      "validateAndParseFundingSPVProof(DepositUtils.Deposit storage,bytes4,bytes,bytes,bytes4,uint8,bytes,uint256,bytes)": {
        "notice": "Validates the funding tx and parses information from it."
      },
      "wasDigestApprovedForSigning(DepositUtils.Deposit storage,bytes32)": {
        "notice": "Gets timestamp of digest approval for signing."
      }
    }
  }
}