{
  "contractName": "Dummy",
  "abi": [
    {
      "constant": true,
      "inputs": [],
      "name": "state",
      "outputs": [
        {
          "internalType": "uint256",
          "name": "",
          "type": "uint256"
        }
      ],
      "payable": false,
      "stateMutability": "view",
      "type": "function"
    },
    {
      "constant": false,
      "inputs": [
        {
          "internalType": "uint256",
          "name": "_state",
          "type": "uint256"
        }
      ],
      "name": "setState",
      "outputs": [],
      "payable": false,
      "stateMutability": "nonpayable",
      "type": "function"
    },
    {
      "constant": true,
      "inputs": [],
      "name": "getState",
      "outputs": [
        {
          "internalType": "uint256",
          "name": "",
          "type": "uint256"
        }
      ],
      "payable": false,
      "stateMutability": "view",
      "type": "function"
    }
  ],
  "bytecode": "0x608060405234801561001057600080fd5b5060c18061001f6000396000f3fe6080604052348015600f57600080fd5b5060043610603c5760003560e01c80631865c57d146041578063a9e966b7146059578063c19d93fb146075575b600080fd5b6047607b565b60408051918252519081900360200190f35b607360048036036020811015606d57600080fd5b50356081565b005b60476086565b60005490565b600055565b6000548156fea265627a7a72315820a0c3553fc5821c3f3144774c0d38da88bf7410c8c059934803275bd258264e8064736f6c63430005110032",
  "source": "pragma solidity 0.5.17;\n\n/// @dev Dummy contract to used to test clone factory.\n///      This contract will be cloned\ncontract Dummy{\n\n    uint256 public state;\n\n    function setState(uint256 _state) public {\n        state = _state;\n    }\n\n    function getState()public view returns (uint256) {\n        return state;\n    }\n}\n",
  "sourcePath": "/home/kowal/Projects/sovryn/tbtc/solidity/contracts/test/factory/Dummy.sol",
  "compiler": {
    "name": "solc",
    "version": "0.5.17+commit.d19bba13.Emscripten.clang"
  },
  "schemaVersion": "3.0.23",
  "updatedAt": "2021-02-01T16:23:17.018Z",
  "devdoc": {
    "details": "Dummy contract to used to test clone factory.      This contract will be cloned",
    "methods": {}
  },
  "userdoc": {
    "methods": {}
  }
}