{
  "contractName": "KeepFactorySelectionStub",
  "abi": [
    {
      "constant": false,
      "inputs": [
        {
          "internalType": "contract IBondedECDSAKeepFactory",
          "name": "_defaultFactory",
          "type": "address"
        }
      ],
      "name": "initialize",
      "outputs": [],
      "payable": false,
      "stateMutability": "nonpayable",
      "type": "function"
    },
    {
      "constant": true,
      "inputs": [],
      "name": "selectFactory",
      "outputs": [
        {
          "internalType": "contract IBondedECDSAKeepFactory",
          "name": "",
          "type": "address"
        }
      ],
      "payable": false,
      "stateMutability": "view",
      "type": "function"
    },
    {
      "constant": false,
      "inputs": [
        {
          "internalType": "uint256",
          "name": "_minimumBondableValue",
          "type": "uint256"
        },
        {
          "internalType": "uint256",
          "name": "_groupSize",
          "type": "uint256"
        },
        {
          "internalType": "uint256",
          "name": "_honestThreshold",
          "type": "uint256"
        }
      ],
      "name": "setMinimumBondableValue",
      "outputs": [],
      "payable": false,
      "stateMutability": "nonpayable",
      "type": "function"
    },
    {
      "constant": false,
      "inputs": [],
      "name": "selectFactoryAndRefresh",
      "outputs": [
        {
          "internalType": "contract IBondedECDSAKeepFactory",
          "name": "",
          "type": "address"
        }
      ],
      "payable": false,
      "stateMutability": "nonpayable",
      "type": "function"
    },
    {
      "constant": false,
      "inputs": [
        {
          "internalType": "address",
          "name": "_keepStakedFactory",
          "type": "address"
        },
        {
          "internalType": "address",
          "name": "_fullyBackedFactory",
          "type": "address"
        },
        {
          "internalType": "address",
          "name": "_factorySelector",
          "type": "address"
        }
      ],
      "name": "setFactories",
      "outputs": [],
      "payable": false,
      "stateMutability": "nonpayable",
      "type": "function"
    },
    {
      "constant": true,
      "inputs": [],
      "name": "factories",
      "outputs": [
        {
          "internalType": "address",
          "name": "_keepStakedFactory",
          "type": "address"
        },
        {
          "internalType": "address",
          "name": "_fullyBackedFactory",
          "type": "address"
        },
        {
          "internalType": "address",
          "name": "_factorySelector",
          "type": "address"
        }
      ],
      "payable": false,
      "stateMutability": "view",
      "type": "function"
    }
  ],
  "bytecode": "0x608060405234801561001057600080fd5b5061043d806100206000396000f3fe608060405234801561001057600080fd5b50600436106100625760003560e01c80633fd19199146100675780636291fc8d1461008b5780637bd3b99514610093578063b8ee9156146100cd578063c4d66de8146100f6578063fe5b38e41461011c575b600080fd5b61006f61014f565b604080516001600160a01b039092168252519081900360200190f35b61006f6101d3565b6100cb600480360360608110156100a957600080fd5b506001600160a01b038135811691602081013582169160409091013516610226565b005b6100cb600480360360608110156100e357600080fd5b508035906020810135906040013561023e565b6100cb6004803603602081101561010c57600080fd5b50356001600160a01b03166102c0565b61012461033a565b604080516001600160a01b039485168152928416602084015292168183015290519081900360600190f35b60008073__KeepFactorySelection__________________63d83d44b090916040518263ffffffff1660e01b81526004018082815260200191505060206040518083038186803b1580156101a257600080fd5b505af41580156101b6573d6000803e3d6000fd5b505050506040513d60208110156101cc57600080fd5b5051905090565b60008073__KeepFactorySelection__________________63d857268890916040518263ffffffff1660e01b81526004018082815260200191505060206040518083038186803b1580156101a257600080fd5b610239600084848463ffffffff61035716565b505050565b6040805163e33cd97160e01b8152600060048201819052602482018690526044820185905260648201849052915173__KeepFactorySelection__________________9263e33cd9719260848082019391829003018186803b1580156102a357600080fd5b505af41580156102b7573d6000803e3d6000fd5b50505050505050565b6040805163e8e08cf160e01b81526000600482018190526001600160a01b0384166024830152915173__KeepFactorySelection__________________9263e8e08cf19260448082019391829003018186803b15801561031f57600080fd5b505af4158015610333573d6000803e3d6000fd5b5050505050565b6003546004546002546001600160a01b0392831693918316921690565b6001600160a01b03831661039c5760405162461bcd60e51b81526004018080602001828103825260238152602001806103e66023913960400191505060405180910390fd5b6003840180546001600160a01b039485166001600160a01b031991821617909155600485018054938516938216939093179092556002909301805493909216921691909117905556fe496e76616c6964204b4545502d7374616b656420666163746f72792061646472657373a265627a7a7231582026ad10ae68073021a391eb4087d9054922b308ede3b2618ea124dceaa699e57464736f6c63430005110032",
  "source": "pragma solidity 0.5.17;\n\nimport {IBondedECDSAKeepFactory} from \"@keep-network/keep-ecdsa/contracts/api/IBondedECDSAKeepFactory.sol\";\n\nimport \"../../system/KeepFactorySelection.sol\";\n\ncontract KeepFactorySelectionStub {\n    using KeepFactorySelection for KeepFactorySelection.Storage;\n    KeepFactorySelection.Storage keepFactorySelection;\n\n    function initialize(IBondedECDSAKeepFactory _defaultFactory) public {\n        keepFactorySelection.initialize(_defaultFactory);\n    }\n\n    function selectFactory() public view returns (IBondedECDSAKeepFactory) {\n        return keepFactorySelection.selectFactory();\n    }\n\n    function setMinimumBondableValue(\n        uint256 _minimumBondableValue,\n        uint256 _groupSize,\n        uint256 _honestThreshold\n    ) public {\n        keepFactorySelection.setMinimumBondableValue(\n            _minimumBondableValue,\n            _groupSize,\n            _honestThreshold\n        );\n    }\n\n    function selectFactoryAndRefresh() public returns (IBondedECDSAKeepFactory) {\n        return keepFactorySelection.selectFactoryAndRefresh();\n    }\n\n    function setFactories(\n        address _keepStakedFactory,\n        address _fullyBackedFactory,\n        address _factorySelector\n    ) public {\n        keepFactorySelection.setFactories(\n            _keepStakedFactory,\n            _fullyBackedFactory,\n            _factorySelector\n        );\n    }\n\n    function factories()\n        public\n        view\n        returns (\n            address _keepStakedFactory,\n            address _fullyBackedFactory,\n            address _factorySelector\n        )\n    {\n        _keepStakedFactory = address(keepFactorySelection.keepStakedFactory);\n        _fullyBackedFactory = address(keepFactorySelection.fullyBackedFactory);\n        _factorySelector = address(keepFactorySelection.factorySelector);\n    }\n}\n\ncontract KeepFactorySelectorStub is KeepFactorySelector {\n\n    bool internal defaultMode = true;\n    bool internal maliciousMode = false;\n\n    function selectFactory(\n        uint256,\n        IBondedECDSAKeepFactory _defaultFactory,\n        IBondedECDSAKeepFactory _fullyBackedFactory\n    ) external view returns (IBondedECDSAKeepFactory) {\n        if (maliciousMode) {\n            return IBondedECDSAKeepFactory(0xaFacEbadfAceCffeeFaceacebacEAfAceCfFEeA0);\n        } else if (defaultMode) {\n            return _defaultFactory;\n        } else {\n            return _fullyBackedFactory;\n        }\n    }\n\n    function setMaliciousMode() public {\n        maliciousMode = true;\n    }\n\n    function unsetMaliciousMode() public {\n        maliciousMode = false;\n    }\n\n    function setDefaultMode() public {\n        defaultMode = true;\n    }\n\n    function setFullyBackedMode() public {\n        defaultMode = false;\n    }\n}\n",
  "sourcePath": "/Users/konrad/Desktop/rumble/fin/local-setup/tbtc/solidity/contracts/test/system/KeepFactorySelectionStub.sol",
  "compiler": {
    "name": "solc",
    "version": "0.5.17+commit.d19bba13.Emscripten.clang"
  },
  "schemaVersion": "3.3.4",
  "updatedAt": "2021-04-30T09:32:13.344Z",
  "devdoc": {
    "methods": {}
  },
  "userdoc": {
    "methods": {}
  }
}