{
  "contractName": "MockRelay",
  "abi": [
    {
      "constant": true,
      "inputs": [],
      "name": "getCurrentEpochDifficulty",
      "outputs": [
        {
          "internalType": "uint256",
          "name": "",
          "type": "uint256"
        }
      ],
      "payable": false,
      "stateMutability": "view",
      "type": "function"
    },
    {
      "constant": true,
      "inputs": [],
      "name": "getPrevEpochDifficulty",
      "outputs": [
        {
          "internalType": "uint256",
          "name": "",
          "type": "uint256"
        }
      ],
      "payable": false,
      "stateMutability": "view",
      "type": "function"
    },
    {
      "constant": false,
      "inputs": [
        {
          "internalType": "uint256",
          "name": "_current",
          "type": "uint256"
        }
      ],
      "name": "setCurrentEpochDifficulty",
      "outputs": [],
      "payable": false,
      "stateMutability": "nonpayable",
      "type": "function"
    },
    {
      "constant": false,
      "inputs": [
        {
          "internalType": "uint256",
          "name": "_previous",
          "type": "uint256"
        }
      ],
      "name": "setPrevEpochDifficulty",
      "outputs": [],
      "payable": false,
      "stateMutability": "nonpayable",
      "type": "function"
    }
  ],
  "bytecode": "0x608060405260016000556001805534801561001957600080fd5b5060ea806100286000396000f3fe6080604052348015600f57600080fd5b506004361060465760003560e01c8063113764be14604b5780632b97be241460635780633c5e87521460695780637d4046fb146085575b600080fd5b6051609f565b60408051918252519081900360200190f35b605160a5565b608360048036036020811015607d57600080fd5b503560ab565b005b608360048036036020811015609957600080fd5b503560b0565b60005490565b60015490565b600155565b60005556fea265627a7a72315820dfac345de6d57428309dfbac7aa62f629d2ea9b6c1ff4c5d3453060fa8d7a06464736f6c63430005110032",
  "source": "pragma solidity 0.5.17;\n\n// Import of `TestnetRelay` will build artifacts for `TestnetRelay` and `OnDemandSPVProof`\n// that are required by the migration script but are not used for local contracts\n// deployment.\nimport \"@summa-tx/relay-sol/contracts/TestnetRelay.sol\";\n\ncontract MockRelay {\n    uint256 current = 1;\n    uint256 previous = 1;\n\n    function getCurrentEpochDifficulty() external view returns (uint256) {\n        return current;\n    }\n\n    function getPrevEpochDifficulty() external view returns (uint256) {\n        return previous;\n    }\n\n    function setCurrentEpochDifficulty(uint256 _current) public {\n        current = _current;\n    }\n\n    function setPrevEpochDifficulty(uint256 _previous) public {\n        previous = _previous;\n    }\n}\n",
  "sourcePath": "/Users/konrad/Desktop/rumble/fin/local-setup/tbtc/solidity/contracts/test/relay/MockRelay.sol",
  "compiler": {
    "name": "solc",
    "version": "0.5.17+commit.d19bba13.Emscripten.clang"
  },
  "schemaVersion": "3.3.4",
  "updatedAt": "2021-04-30T09:57:27.713Z",
  "networkType": "ethereum",
  "devdoc": {
    "methods": {}
  },
  "userdoc": {
    "methods": {}
  }
}