{
  "contractName": "MockPriceOracle",
  "abi": [
    {
      "inputs": [],
      "payable": false,
      "stateMutability": "nonpayable",
      "type": "constructor"
    },
    {
      "constant": true,
      "inputs": [],
      "name": "value",
      "outputs": [
        {
          "internalType": "int256",
          "name": "",
          "type": "int256"
        }
      ],
      "payable": false,
      "stateMutability": "view",
      "type": "function"
    },
    {
      "constant": true,
      "inputs": [],
      "name": "latestAnswer",
      "outputs": [
        {
          "internalType": "int256",
          "name": "",
          "type": "int256"
        }
      ],
      "payable": false,
      "stateMutability": "view",
      "type": "function"
    },
    {
      "constant": true,
      "inputs": [],
      "name": "getPrice",
      "outputs": [
        {
          "internalType": "int256",
          "name": "answer",
          "type": "int256"
        }
      ],
      "payable": false,
      "stateMutability": "view",
      "type": "function"
    },
    {
      "constant": false,
      "inputs": [
        {
          "internalType": "int256",
          "name": "_value",
          "type": "int256"
        }
      ],
      "name": "setValue",
      "outputs": [],
      "payable": false,
      "stateMutability": "nonpayable",
      "type": "function"
    }
  ],
  "bytecode": "0x608060405234801561001057600080fd5b5060cb8061001f6000396000f3fe6080604052348015600f57600080fd5b506004361060465760003560e01c80633fa4f24514604b5780635093dc7d14606357806350d25bcd14607f57806398d5fdca14607f575b600080fd5b60516085565b60408051918252519081900360200190f35b607d60048036036020811015607757600080fd5b5035608b565b005b60516090565b60005481565b600055565b6000549056fea265627a7a72315820156096e96fbb9051a78e73a8a6b105a1de251174e7704aae86f5ac65c0ed50e464736f6c63430005110032",
  "source": "pragma solidity 0.5.17;\n\nimport \"../../../contracts/external/PriceOracle.sol\";\n\n/// @title A mock implementation of a medianizer price oracle.\n/// @dev This is used in the Keep testnets only. Mainnet uses the MakerDAO medianizer.\ncontract MockPriceOracle is PriceOracle {\n    int256 public value;\n\n    constructor() public {\n        // solium-disable-previous-line no-empty-blocks\n    }\n\n    function latestAnswer() external view returns (int256) {\n        return value;\n    }\n\n    function getPrice() external view returns (int256 answer) {\n        return value;\n    }\n\n    function setValue(int256 _value) external {\n        value = _value;\n    }\n}\n\ncontract ETHBTCPriceFeedMock is MockPriceOracle {\n    // solium-disable-previous-line no-empty-blocks\n}\n",
  "sourcePath": "/Users/konrad/Desktop/rumble/fin/local-setup/tbtc/solidity/contracts/test/price-feed/MockPriceOracle.sol",
  "compiler": {
    "name": "solc",
    "version": "0.5.17+commit.d19bba13.Emscripten.clang"
  },
  "schemaVersion": "3.3.4",
  "updatedAt": "2021-04-30T09:32:13.342Z",
  "devdoc": {
    "details": "This is used in the Keep testnets only. Mainnet uses the MakerDAO medianizer.",
    "methods": {},
    "title": "A mock implementation of a medianizer price oracle."
  },
  "userdoc": {
    "methods": {}
  }
}