{
  "contractName": "OnDemandSPV",
  "abi": [
    {
      "inputs": [
        {
          "internalType": "bytes",
          "name": "_genesisHeader",
          "type": "bytes"
        },
        {
          "internalType": "uint256",
          "name": "_height",
          "type": "uint256"
        },
        {
          "internalType": "bytes32",
          "name": "_periodStart",
          "type": "bytes32"
        },
        {
          "internalType": "uint256",
          "name": "_firstID",
          "type": "uint256"
        }
      ],
      "payable": false,
      "stateMutability": "nonpayable",
      "type": "constructor"
    },
    {
      "anonymous": false,
      "inputs": [
        {
          "indexed": true,
          "internalType": "bytes32",
          "name": "_first",
          "type": "bytes32"
        },
        {
          "indexed": true,
          "internalType": "bytes32",
          "name": "_last",
          "type": "bytes32"
        }
      ],
      "name": "Extension",
      "type": "event"
    },
    {
      "anonymous": false,
      "inputs": [
        {
          "indexed": true,
          "internalType": "address",
          "name": "_requester",
          "type": "address"
        },
        {
          "indexed": true,
          "internalType": "uint256",
          "name": "_requestID",
          "type": "uint256"
        },
        {
          "indexed": false,
          "internalType": "uint64",
          "name": "_paysValue",
          "type": "uint64"
        },
        {
          "indexed": false,
          "internalType": "bytes",
          "name": "_spends",
          "type": "bytes"
        },
        {
          "indexed": false,
          "internalType": "bytes",
          "name": "_pays",
          "type": "bytes"
        }
      ],
      "name": "NewProofRequest",
      "type": "event"
    },
    {
      "anonymous": false,
      "inputs": [
        {
          "indexed": true,
          "internalType": "bytes32",
          "name": "_from",
          "type": "bytes32"
        },
        {
          "indexed": true,
          "internalType": "bytes32",
          "name": "_to",
          "type": "bytes32"
        },
        {
          "indexed": true,
          "internalType": "bytes32",
          "name": "_gcd",
          "type": "bytes32"
        }
      ],
      "name": "NewTip",
      "type": "event"
    },
    {
      "anonymous": false,
      "inputs": [
        {
          "indexed": true,
          "internalType": "uint256",
          "name": "_requestID",
          "type": "uint256"
        }
      ],
      "name": "RequestClosed",
      "type": "event"
    },
    {
      "anonymous": false,
      "inputs": [
        {
          "indexed": true,
          "internalType": "bytes32",
          "name": "_txid",
          "type": "bytes32"
        },
        {
          "indexed": true,
          "internalType": "uint256",
          "name": "_requestID",
          "type": "uint256"
        }
      ],
      "name": "RequestFilled",
      "type": "event"
    },
    {
      "constant": true,
      "inputs": [],
      "name": "BASE_COST",
      "outputs": [
        {
          "internalType": "uint256",
          "name": "",
          "type": "uint256"
        }
      ],
      "payable": false,
      "stateMutability": "view",
      "type": "function"
    },
    {
      "constant": true,
      "inputs": [],
      "name": "HEIGHT_INTERVAL",
      "outputs": [
        {
          "internalType": "uint32",
          "name": "",
          "type": "uint32"
        }
      ],
      "payable": false,
      "stateMutability": "view",
      "type": "function"
    },
    {
      "constant": false,
      "inputs": [
        {
          "internalType": "bytes",
          "name": "_anchor",
          "type": "bytes"
        },
        {
          "internalType": "bytes",
          "name": "_headers",
          "type": "bytes"
        }
      ],
      "name": "addHeaders",
      "outputs": [
        {
          "internalType": "bool",
          "name": "",
          "type": "bool"
        }
      ],
      "payable": false,
      "stateMutability": "nonpayable",
      "type": "function"
    },
    {
      "constant": false,
      "inputs": [
        {
          "internalType": "bytes",
          "name": "_oldPeriodStartHeader",
          "type": "bytes"
        },
        {
          "internalType": "bytes",
          "name": "_oldPeriodEndHeader",
          "type": "bytes"
        },
        {
          "internalType": "bytes",
          "name": "_headers",
          "type": "bytes"
        }
      ],
      "name": "addHeadersWithRetarget",
      "outputs": [
        {
          "internalType": "bool",
          "name": "",
          "type": "bool"
        }
      ],
      "payable": false,
      "stateMutability": "nonpayable",
      "type": "function"
    },
    {
      "constant": true,
      "inputs": [
        {
          "internalType": "bytes32",
          "name": "_digest",
          "type": "bytes32"
        },
        {
          "internalType": "uint256",
          "name": "_offset",
          "type": "uint256"
        }
      ],
      "name": "findAncestor",
      "outputs": [
        {
          "internalType": "bytes32",
          "name": "",
          "type": "bytes32"
        }
      ],
      "payable": false,
      "stateMutability": "view",
      "type": "function"
    },
    {
      "constant": true,
      "inputs": [
        {
          "internalType": "bytes32",
          "name": "_digest",
          "type": "bytes32"
        }
      ],
      "name": "findHeight",
      "outputs": [
        {
          "internalType": "uint256",
          "name": "",
          "type": "uint256"
        }
      ],
      "payable": false,
      "stateMutability": "view",
      "type": "function"
    },
    {
      "constant": true,
      "inputs": [],
      "name": "getBestKnownDigest",
      "outputs": [
        {
          "internalType": "bytes32",
          "name": "",
          "type": "bytes32"
        }
      ],
      "payable": false,
      "stateMutability": "view",
      "type": "function"
    },
    {
      "constant": true,
      "inputs": [],
      "name": "getCurrentEpochDifficulty",
      "outputs": [
        {
          "internalType": "uint256",
          "name": "",
          "type": "uint256"
        }
      ],
      "payable": false,
      "stateMutability": "view",
      "type": "function"
    },
    {
      "constant": true,
      "inputs": [],
      "name": "getLastReorgCommonAncestor",
      "outputs": [
        {
          "internalType": "bytes32",
          "name": "",
          "type": "bytes32"
        }
      ],
      "payable": false,
      "stateMutability": "view",
      "type": "function"
    },
    {
      "constant": true,
      "inputs": [],
      "name": "getPrevEpochDifficulty",
      "outputs": [
        {
          "internalType": "uint256",
          "name": "",
          "type": "uint256"
        }
      ],
      "payable": false,
      "stateMutability": "view",
      "type": "function"
    },
    {
      "constant": true,
      "inputs": [],
      "name": "getRelayGenesis",
      "outputs": [
        {
          "internalType": "bytes32",
          "name": "",
          "type": "bytes32"
        }
      ],
      "payable": false,
      "stateMutability": "view",
      "type": "function"
    },
    {
      "constant": true,
      "inputs": [
        {
          "internalType": "bytes32",
          "name": "_ancestor",
          "type": "bytes32"
        },
        {
          "internalType": "bytes32",
          "name": "_descendant",
          "type": "bytes32"
        },
        {
          "internalType": "uint256",
          "name": "_limit",
          "type": "uint256"
        }
      ],
      "name": "isAncestor",
      "outputs": [
        {
          "internalType": "bool",
          "name": "",
          "type": "bool"
        }
      ],
      "payable": false,
      "stateMutability": "view",
      "type": "function"
    },
    {
      "constant": true,
      "inputs": [],
      "name": "latestValidatedTx",
      "outputs": [
        {
          "internalType": "bytes32",
          "name": "",
          "type": "bytes32"
        }
      ],
      "payable": false,
      "stateMutability": "view",
      "type": "function"
    },
    {
      "constant": false,
      "inputs": [
        {
          "internalType": "bytes32",
          "name": "_ancestor",
          "type": "bytes32"
        },
        {
          "internalType": "bytes",
          "name": "_currentBest",
          "type": "bytes"
        },
        {
          "internalType": "bytes",
          "name": "_newBest",
          "type": "bytes"
        },
        {
          "internalType": "uint256",
          "name": "_limit",
          "type": "uint256"
        }
      ],
      "name": "markNewHeaviest",
      "outputs": [
        {
          "internalType": "bool",
          "name": "",
          "type": "bool"
        }
      ],
      "payable": false,
      "stateMutability": "nonpayable",
      "type": "function"
    },
    {
      "constant": true,
      "inputs": [],
      "name": "nextID",
      "outputs": [
        {
          "internalType": "uint256",
          "name": "",
          "type": "uint256"
        }
      ],
      "payable": false,
      "stateMutability": "view",
      "type": "function"
    },
    {
      "constant": true,
      "inputs": [],
      "name": "remoteGasAllowance",
      "outputs": [
        {
          "internalType": "uint256",
          "name": "",
          "type": "uint256"
        }
      ],
      "payable": false,
      "stateMutability": "view",
      "type": "function"
    },
    {
      "constant": false,
      "inputs": [
        {
          "internalType": "uint256",
          "name": "_requestID",
          "type": "uint256"
        }
      ],
      "name": "cancelRequest",
      "outputs": [
        {
          "internalType": "bool",
          "name": "",
          "type": "bool"
        }
      ],
      "payable": false,
      "stateMutability": "nonpayable",
      "type": "function"
    },
    {
      "constant": true,
      "inputs": [],
      "name": "getLatestValidatedTx",
      "outputs": [
        {
          "internalType": "bytes32",
          "name": "",
          "type": "bytes32"
        }
      ],
      "payable": false,
      "stateMutability": "view",
      "type": "function"
    },
    {
      "constant": true,
      "inputs": [
        {
          "internalType": "uint256",
          "name": "_requestID",
          "type": "uint256"
        }
      ],
      "name": "getRequest",
      "outputs": [
        {
          "internalType": "bytes32",
          "name": "spends",
          "type": "bytes32"
        },
        {
          "internalType": "bytes32",
          "name": "pays",
          "type": "bytes32"
        },
        {
          "internalType": "uint64",
          "name": "paysValue",
          "type": "uint64"
        },
        {
          "internalType": "uint8",
          "name": "state",
          "type": "uint8"
        },
        {
          "internalType": "address",
          "name": "consumer",
          "type": "address"
        },
        {
          "internalType": "address",
          "name": "owner",
          "type": "address"
        },
        {
          "internalType": "uint8",
          "name": "numConfs",
          "type": "uint8"
        },
        {
          "internalType": "uint256",
          "name": "notBefore",
          "type": "uint256"
        }
      ],
      "payable": false,
      "stateMutability": "view",
      "type": "function"
    },
    {
      "constant": false,
      "inputs": [
        {
          "internalType": "bytes",
          "name": "_spends",
          "type": "bytes"
        },
        {
          "internalType": "bytes",
          "name": "_pays",
          "type": "bytes"
        },
        {
          "internalType": "uint64",
          "name": "_paysValue",
          "type": "uint64"
        },
        {
          "internalType": "address",
          "name": "_consumer",
          "type": "address"
        },
        {
          "internalType": "uint8",
          "name": "_numConfs",
          "type": "uint8"
        },
        {
          "internalType": "uint256",
          "name": "_notBefore",
          "type": "uint256"
        }
      ],
      "name": "request",
      "outputs": [
        {
          "internalType": "uint256",
          "name": "",
          "type": "uint256"
        }
      ],
      "payable": false,
      "stateMutability": "nonpayable",
      "type": "function"
    },
    {
      "constant": false,
      "inputs": [
        {
          "internalType": "bytes",
          "name": "_header",
          "type": "bytes"
        },
        {
          "internalType": "bytes",
          "name": "_proof",
          "type": "bytes"
        },
        {
          "internalType": "bytes4",
          "name": "_version",
          "type": "bytes4"
        },
        {
          "internalType": "bytes4",
          "name": "_locktime",
          "type": "bytes4"
        },
        {
          "internalType": "uint256",
          "name": "_index",
          "type": "uint256"
        },
        {
          "internalType": "uint16",
          "name": "_reqIndices",
          "type": "uint16"
        },
        {
          "internalType": "bytes",
          "name": "_vin",
          "type": "bytes"
        },
        {
          "internalType": "bytes",
          "name": "_vout",
          "type": "bytes"
        },
        {
          "internalType": "uint256",
          "name": "_requestID",
          "type": "uint256"
        }
      ],
      "name": "provideProof",
      "outputs": [
        {
          "internalType": "bool",
          "name": "",
          "type": "bool"
        }
      ],
      "payable": false,
      "stateMutability": "nonpayable",
      "type": "function"
    }
  ],
  "bytecode": "0x60806040526207a120600b553480156200001857600080fd5b506040516200406e3803806200406e833981810160405260808110156200003e57600080fd5b81019080805160405193929190846401000000008211156200005f57600080fd5b9083019060208201858111156200007557600080fd5b82516401000000008111828201881017156200009057600080fd5b82525081516020918201929091019080838360005b83811015620000bf578181015183820152602001620000a5565b50505050905090810190601f168015620000ed5780820380516001836020036101000a031916815260200191505b506040908152602082015190820151606090920151855191945091925084908490849060501462000157576040805162461bcd60e51b815260206004820152600f60248201526e29ba37b8103132b4b73390323ab6b160891b604482015290519081900360640190fd5b60006200016f846200023560201b62001b1d1760201c565b905062ffffff821615620001b55760405162461bcd60e51b815260040180806020018281038252603d81526020018062004031603d913960400191505060405180910390fd5b600081815560018290556002829055818152600460205260409020839055620001f16107e08406846200036e60201b620029de1790919060201c565b60046000848152602001908152602001600020819055506200021e84620003cc60201b620028f11760201c565b600555505050600991909155506200064d92505050565b6000600280836040518082805190602001908083835b602083106200026c5780518252601f1990920191602091820191016200024b565b51815160209384036101000a60001901801990921691161790526040519190930194509192505080830381855afa158015620002ac573d6000803e3d6000fd5b5050506040513d6020811015620002c257600080fd5b50516040805160208181019390935281518082038401815290820191829052805190928291908401908083835b60208310620003105780518252601f199092019160209182019101620002ef565b51815160209384036101000a60001901801990921691161790526040519190930194509192505080830381855afa15801562000350573d6000803e3d6000fd5b5050506040513d60208110156200036657600080fd5b505192915050565b600082821115620003c6576040805162461bcd60e51b815260206004820152601d60248201527f556e646572666c6f7720647572696e67207375627472616374696f6e2e000000604482015290519081900360640190fd5b50900390565b6000620003f5620003e6836001600160e01b03620003fb16565b6001600160e01b036200047b16565b92915050565b600060606200041d60486003856200049c60201b6200248b179092919060201c565b9050600083604b815181106200042f57fe5b016020015160f81c905060006200046262000453846001600160e01b036200056716565b6001600160e01b03620005f916565b6002199290920160ff166101000a909102949350505050565b6000620003f58261ffff60d01b6200063960201b6200331e1790919060201c565b606081620004ba575060408051602081019091526000815262000560565b8282018381118015620004ce575080855110155b62000520576040805162461bcd60e51b815260206004820152601360248201527f536c696365206f7574206f6620626f756e647300000000000000000000000000604482015290519081900360640190fd5b604051915082604083010160405282825283850182038460208701018481015b808210156200055b5781518383015260208201915062000540565b505050505b9392505050565b60608082516040519080825280601f01601f19166020018201604052801562000597576020820181803883390190505b50905060005b8351811015620005f257838181518110620005b457fe5b602001015160f81c60f81b826001838751030381518110620005d257fe5b60200101906001600160f81b031916908160001a9053506001016200059d565b5092915050565b600080805b8351811015620005f2578060010184510360080260020a8482815181106200062257fe5b016020015160f81c029190910190600101620005fe565b60008183816200064557fe5b049392505050565b6139d4806200065d6000396000f3fe608060405234801561001057600080fd5b50600436106101375760003560e01c806374c3a3a9116100b8578063a882e8641161007c578063a882e8641461058f578063ad401de614610597578063b985621a1461071e578063c58242cd14610747578063c58343ef1461074f578063e3d8d8d8146107c357610137565b806374c3a3a9146102c65780637fa637fc1461038b5780639426323414610499578063a00d95261461057f578063a24022aa1461058757610137565b806330017b3b116100ff57806330017b3b146101765780633015394c1461019957806360b5c390146101ca57806365da41b9146101e757806370d53c18146102a557610137565b8063113764be1461013c5780631910d973146101565780631e96917d1461015e57806329798b96146101665780632b97be241461016e575b600080fd5b6101446107cb565b60408051918252519081900360200190f35b6101446107d1565b6101446107d7565b6101446107dd565b6101446107e3565b6101446004803603604081101561018c57600080fd5b50803590602001356107e9565b6101b6600480360360208110156101af57600080fd5b50356107fe565b604080519115158252519081900360200190f35b610144600480360360208110156101e057600080fd5b503561091c565b6101b6600480360360408110156101fd57600080fd5b810190602081018135600160201b81111561021757600080fd5b82018360208201111561022957600080fd5b803590602001918460018302840111600160201b8311171561024a57600080fd5b919390929091602081019035600160201b81111561026757600080fd5b82018360208201111561027957600080fd5b803590602001918460018302840111600160201b8311171561029a57600080fd5b509092509050610927565b6102ad6109a7565b6040805163ffffffff9092168252519081900360200190f35b6101b6600480360360808110156102dc57600080fd5b81359190810190604081016020820135600160201b8111156102fd57600080fd5b82018360208201111561030f57600080fd5b803590602001918460018302840111600160201b8311171561033057600080fd5b919390929091602081019035600160201b81111561034d57600080fd5b82018360208201111561035f57600080fd5b803590602001918460018302840111600160201b8311171561038057600080fd5b9193509150356109ac565b6101b6600480360360608110156103a157600080fd5b810190602081018135600160201b8111156103bb57600080fd5b8201836020820111156103cd57600080fd5b803590602001918460018302840111600160201b831117156103ee57600080fd5b919390929091602081019035600160201b81111561040b57600080fd5b82018360208201111561041d57600080fd5b803590602001918460018302840111600160201b8311171561043e57600080fd5b919390929091602081019035600160201b81111561045b57600080fd5b82018360208201111561046d57600080fd5b803590602001918460018302840111600160201b8311171561048e57600080fd5b509092509050610a2f565b610144600480360360c08110156104af57600080fd5b810190602081018135600160201b8111156104c957600080fd5b8201836020820111156104db57600080fd5b803590602001918460018302840111600160201b831117156104fc57600080fd5b919390929091602081019035600160201b81111561051957600080fd5b82018360208201111561052b57600080fd5b803590602001918460018302840111600160201b8311171561054c57600080fd5b919350915067ffffffffffffffff813516906001600160a01b036020820135169060ff6040820135169060600135610ad8565b610144610b60565b610144610b67565b610144610b6d565b6101b660048036036101208110156105ae57600080fd5b810190602081018135600160201b8111156105c857600080fd5b8201836020820111156105da57600080fd5b803590602001918460018302840111600160201b831117156105fb57600080fd5b919390929091602081019035600160201b81111561061857600080fd5b82018360208201111561062a57600080fd5b803590602001918460018302840111600160201b8311171561064b57600080fd5b919390926001600160e01b0319833581169360208101359091169260408201359261ffff6060840135169260a081019060800135600160201b81111561069057600080fd5b8201836020820111156106a257600080fd5b803590602001918460018302840111600160201b831117156106c357600080fd5b919390929091602081019035600160201b8111156106e057600080fd5b8201836020820111156106f257600080fd5b803590602001918460018302840111600160201b8311171561071357600080fd5b919350915035610b73565b6101b66004803603606081101561073457600080fd5b5080359060208101359060400135610dad565b610144610dc4565b61076c6004803603602081101561076557600080fd5b5035610dca565b60408051988952602089019790975267ffffffffffffffff9095168787015260ff93841660608801526001600160a01b039283166080880152911660a08601521660c084015260e083015251908190036101000190f35b610144610e56565b60055490565b60015490565b60095481565b600a5481565b60065490565b60006107f58383610e5c565b90505b92915050565b600081815260086020526040812060016004820154600160a01b900460ff16600281111561082857fe5b1461086f576040805162461bcd60e51b815260206004820152601260248201527152657175657374206e6f742061637469766560701b604482015290519081900360640190fd5b60038101546001600160a01b0316331480610896575060048101546001600160a01b031633145b6108d15760405162461bcd60e51b815260040180806020018281038252602a81526020018061389f602a913960400191505060405180910390fd5b60048101805460ff60a01b1916600160a11b17905560405183907f4287938c90f288c18d761d34c3a5ad998017f7e890a72628c9636bb82ea286bd90600090a260019150505b919050565b60006107f882610ed8565b600061099c85858080601f01602080910402602001604051908101604052809392919081815260200183838082843760009201919091525050604080516020601f8901819004810282018101909252878152925087915086908190840183828082843760009201829052509250610f83915050565b90505b949350505050565b600481565b6000610a248787878080601f01602080910402602001604051908101604052809392919081815260200183838082843760009201919091525050604080516020601f8b01819004810282018101909252898152925089915088908190840183828082843760009201919091525088925061127b915050565b979650505050505050565b6000610a2487878080601f01602080910402602001604051908101604052809392919081815260200183838082843760009201919091525050604080516020601f8b01819004810282018101909252898152925089915088908190840183828082843760009201919091525050604080516020601f8a01819004810282018101909252888152925088915087908190840183828082843760009201919091525061147892505050565b6000610b5389898080601f01602080910402602001604051908101604052809392919081815260200183838082843760009201919091525050604080516020601f8d018190048102820181019092528b815292508b91508a90819084018382808284376000920191909152508a92508991508890508761168b565b9998505050505050505050565b6201518081565b600b5481565b600a5490565b600080610be78b888888888f60405160200180876001600160e01b0319166001600160e01b03191681526004018686808284379190910190508484808284376001600160e01b03199094169190930190815260408051601b19818403018152600490920190529650611b1d95505050505050565b60008181526007602052604090205490915060ff16610ca957610c898f8f8080601f016020809104026020016040519081016040528093929190818152602001838380828437600081840152601f19601f820116905080830192505050505050508e8e8080601f0160208091040260200160405190810160405280939291908181526020018383808284376000920191909152508e9250869150889050611c4e565b506000818152600760205260409020805460ff19166001179055600a8190555b610d1f8888888080601f01602080910402602001604051908101604052809392919081815260200183838082843760009201919091525050604080516020601f8c018190048102820181019092528a815292508a9150899081908401838280828437600092019190915250899250611db4915050565b50610d97818989898080601f01602080910402602001604051908101604052809392919081815260200183838082843760009201919091525050604080516020601f8d018190048102820181019092528b815292508b91508a90819084018382808284376000920191909152508a9250612107915050565b5060019f9e505050505050505050505050505050565b6000610dba8484846123de565b90505b9392505050565b60025490565b600081815260086020526040812080546001820154600383015460048401549294919367ffffffffffffffff600160a01b928390041693839283928392839260ff9104166002811115610e1957fe5b600382015460048301546002909301549a9c999b50979990986001600160a01b03808a169993169750600160e01b90920460ff1695509350915050565b60005490565b600082815b83811015610e92576000918252600360205260409091205490610e8b81600163ffffffff61243316565b9050610e61565b50806107f5576040805162461bcd60e51b815260206004820152601060248201526f2ab735b737bbb71030b731b2b9ba37b960811b604482015290519081900360640190fd5b60008082815b6005811015610f4557600082815260046020526040902054925082610f13576000918252600360205260409091205490610f2d565b610f23838263ffffffff61243316565b9350505050610917565b610f3e81600163ffffffff61243316565b9050610ede565b506040805162461bcd60e51b815260206004820152600d60248201526c556e6b6e6f776e20626c6f636b60981b604482015290519081900360640190fd5b6000806060600080610f9488611b1d565b90506000610fb2610fad8983605063ffffffff61248b16565b612545565b90506000610fbf83610ed8565b90508780610fd4575081610fd28b612545565b145b61100f5760405162461bcd60e51b815260040180806020018281038252602481526020018061392c6024913960400191505060405180910390fd5b605089518161101a57fe5b06156110575760405162461bcd60e51b815260040180806020018281038252602b81526020018061380f602b913960400191505060405180910390fd5b60005b60508a518161106557fe5b048110156112375761109061108182605063ffffffff61259e16565b8b90605063ffffffff61248b16565b95506110a5826001830163ffffffff61243316565b96506110b086611b1d565b60008181526003602052604090205490955061117557826110f76110f2876040516020018082815260200191505060405160208183030381529060405261260e565b61269b565b111561114a576040805162461bcd60e51b815260206004820152601b60248201527f48656164657220776f726b20697320696e73756666696369656e740000000000604482015290519081900360640190fd5b6000858152600360205260409020849055600487066111755760008581526004602052604090208790555b8261117f87612545565b146111d1576040805162461bcd60e51b815260206004820152601b60248201527f546172676574206368616e67656420756e65787065637465646c790000000000604482015290519081900360640190fd5b6111e1868563ffffffff6126d816565b61121c5760405162461bcd60e51b81526004018080602001828103825260268152602001806137946026913960400191505060405180910390fd5b84935061123081600163ffffffff61243316565b905061105a565b50836112428b611b1d565b6040517ff90e4f1d9cd0dd55e339411cbc9b152482307c3a23ed64715e4a2858f641a3f590600090a35060019998505050505050505050565b60006107e08211156112be5760405162461bcd60e51b81526004018080602001828103825260338152602001806137ba6033913960400191505060405180910390fd5b60006112c984611b1d565b905060006112d686611b1d565b9050600154811461132e576040805162461bcd60e51b815260206004820181905260248201527f50617373656420696e2062657374206973206e6f742062657374206b6e6f776e604482015290519081900360640190fd5b600082815260036020526040902054611384576040805162461bcd60e51b81526020600482015260136024820152722732bb903132b9ba1034b9903ab735b737bbb760691b604482015290519081900360640190fd5b611392876001548487612704565b6113cd5760405162461bcd60e51b81526004018080602001828103825260298152602001806139776029913960400191505060405180910390fd5b816113d98888886127a6565b146114155760405162461bcd60e51b81526004018080602001828103825260338152602001806138c96033913960400191505060405180910390fd5b60018290556002879055600061142a866128f1565b9050600554811461143b5760058190555b8783837f3cc13de64df0f0239626235c51a2da251bbc8c85664ecce39263da3ee03f606c60405160405180910390a4506001979650505050505050565b60008061148c61148786611b1d565b610ed8565b9050600061149c61148786611b1d565b90506107e081066107df146114e25760405162461bcd60e51b815260040180806020018281038252603d815260200180613862603d913960400191505060405180910390fd5b6114f4826107df63ffffffff61243316565b81146115315760405162461bcd60e51b815260040180806020018281038252602881526020018061383a6028913960400191505060405180910390fd5b61153a856128f1565b611543876128f1565b1461157f5760405162461bcd60e51b81526004018080602001828103825260278152602001806139506027913960400191505060405180910390fd5b6060611594856000605063ffffffff61248b16565b905060006115a182612545565b905060006115d46115b18a612545565b6115ba8b612904565b63ffffffff166115c98b612904565b63ffffffff1661291a565b9050818183161461162c576040805162461bcd60e51b815260206004820152601960248201527f496e76616c69642072657461726765742070726f766964656400000000000000604482015290519081900360640190fd5b60006116378a6128f1565b9050806006541415801561166657506116636107e0611657600154610ed8565b9063ffffffff6129de16565b85115b156116715760068190555b61167d89896001610f83565b9a9950505050505050505050565b60098054600181019091558651600091908790602414806116ab57508851155b6116ef576040805162461bcd60e51b815260206004820152601060248201526f4e6f7420612076616c6964205554584f60801b604482015290519081900360640190fd5b805180158015906117175750600181038260008151811061170c57fe5b016020015160f81c14155b1561179d578082604051602001808360ff1660ff1660f81b815260010182805190602001908083835b6020831061175f5780518252601f199092019160209182019101611740565b6001836020036101000a0380198251168184511680821785525050505050509050019250505060405160208183030381529060405291506001810190505b6040516000602080830182815285516060948793602890910191908401908083835b602083106117de5780518252601f1990920191602091820191016117bf565b6001836020036101000a038019825116818451168082178552505050505050905001925050506040516020818303038152906040529050816000148061182d5750600061182a82612a3b565b51115b806118415750600061183e82612c6f565b51115b611892576040805162461bcd60e51b815260206004820152601a60248201527f4e6f742061207374616e64617264206f75747075742074797065000000000000604482015290519081900360640190fd5b60008b5111806118a25750600082115b6118ea576040805162461bcd60e51b8152602060048201526014602482015273139bc81c995c5d595cdd081cdc1958da599a595960621b604482015290519081900360640190fd5b60008481526008602052604090206004810180546001600160a01b031916331790558b511561191d578b5160208d012081555b8215611930578351602085012060018201555b67ffffffffffffffff8a16156119695760038101805467ffffffffffffffff60a01b1916600160a01b67ffffffffffffffff8d16021790555b60008860ff1611801561197f575060f18860ff16105b1561199f5760038101805460ff60e01b1916600160e01b60ff8b16021790555b86156119ad57600281018790555b6003810180546001600160a01b0319166001600160a01b038b161790556004810180546001919060ff60a01b1916600160a01b83021790555084336001600160a01b03167ff6744579059b48cd66d2c2dfe223754f166f2200b6de2bc6e0d239cd52d1a8c48c8f88604051808467ffffffffffffffff1667ffffffffffffffff1681526020018060200180602001838103835285818151815260200191508051906020019080838360005b83811015611a70578181015183820152602001611a58565b50505050905090810190601f168015611a9d5780820380516001836020036101000a031916815260200191505b50838103825284518152845160209182019186019080838360005b83811015611ad0578181015183820152602001611ab8565b50505050905090810190601f168015611afd5780820380516001836020036101000a031916815260200191505b509550505050505060405180910390a350929a9950505050505050505050565b6000600280836040518082805190602001908083835b60208310611b525780518252601f199092019160209182019101611b33565b51815160209384036101000a60001901801990921691161790526040519190930194509192505080830381855afa158015611b91573d6000803e3d6000fd5b5050506040513d6020811015611ba657600080fd5b50516040805160208181019390935281518082038401815290820191829052805190928291908401908083835b60208310611bf25780518252601f199092019160209182019101611bd3565b51815160209384036101000a60001901801990921691161790526040519190930194509192505080830381855afa158015611c31573d6000803e3d6000fd5b5050506040513d6020811015611c4657600080fd5b505192915050565b6000611c6c83611c65611c6089612ce4565b612cf9565b8787612d15565b611cb3576040805162461bcd60e51b81526020600482015260136024820152722130b21034b731b63ab9b4b7b710383937b7b360691b604482015290519081900360640190fd5b6000611cbe87611b1d565b90506000611cca610dc4565b9050611cd8828260f06123de565b611d29576040805162461bcd60e51b815260206004820152601b60248201527f47434420646f6573206e6f7420636f6e6669726d206865616465720000000000604482015290519081900360640190fd5b600084815260086020526040902060030154600160e01b900460ff1680611d4f84612db9565b60ff161015611da5576040805162461bcd60e51b815260206004820152601a60248201527f496e73756666696369656e7420636f6e6669726d6174696f6e73000000000000604482015290519081900360640190fd5b50600198975050505050505050565b6000611dbf84612dd6565b611e06576040805162461bcd60e51b8152602060048201526013602482015272159a5b881a5cc81b585b199bdc9b585d1d1959606a1b604482015290519081900360640190fd5b611e0f83612e88565b611e57576040805162461bcd60e51b8152602060048201526014602482015273159bdd5d081a5cc81b585b199bdc9b585d1d195960621b604482015290519081900360640190fd5b6000828152600860208190526040909120600281015460ff9288901c83169288169190421015611ece576040805162461bcd60e51b815260206004820152601e60248201527f52657175657374206973207375626d697474656420746f6f206561726c790000604482015290519081900360640190fd5b60016004820154600160a01b900460ff166002811115611eea57fe5b14611f34576040805162461bcd60e51b815260206004820152601560248201527452657175657374206973206e6f742061637469766560581b604482015290519081900360640190fd5b60018101548015801590612065576060611f578960ff871663ffffffff612f2d16565b90506060611f746008808451038461248b9092919063ffffffff16565b905083818051906020012014611fd1576040805162461bcd60e51b815260206004820152601b60248201527f446f6573206e6f74206d61746368207061797320726571756573740000000000604482015290519081900360640190fd5b6003850154600160a01b900467ffffffffffffffff1680158061201057508067ffffffffffffffff16612003846130fd565b67ffffffffffffffff1610155b612061576040805162461bcd60e51b815260206004820152601c60248201527f446f6573206e6f74206d617463682076616c7565207265717565737400000000604482015290519081900360640190fd5b5050505b825480158015906120f55760606120858c60ff8a1663ffffffff61312216565b90508115806120a2575082612099826132c8565b80519060200120145b6120f3576040805162461bcd60e51b815260206004820152601d60248201527f446f6573206e6f74206d61746368207370656e64732072657175657374000000604482015290519081900360640190fd5b505b5060019b9a5050505050505050505050565b60008060086000848152602001908152602001600020905060008160030160009054906101000a90046001600160a01b03169050600060088861ffff16901c905060008860ff169050826001600160a01b0316600b54846001600160a01b0316630140356d905060e01b8c8b8b8b88886040516020018087815260200180602001806020018681526020018560ff1660ff1681526020018460ff1660ff168152602001838103835288818151815260200191508051906020019080838360005b838110156121df5781810151838201526020016121c7565b50505050905090810190601f16801561220c5780820380516001836020036101000a031916815260200191505b50838103825287518152875160209182019189019080838360005b8381101561223f578181015183820152602001612227565b50505050905090810190601f16801561226c5780820380516001836020036101000a031916815260200191505b509850505050505050505060405160208183030381529060405260405160200180836001600160e01b0319166001600160e01b031916815260040182805190602001908083835b602083106122d25780518252601f1990920191602091820191016122b3565b6001836020036101000a038019825116818451168082178552505050505050905001925050506040516020818303038152906040526040518082805190602001908083835b602083106123365780518252601f199092019160209182019101612317565b6001836020036101000a03801982511681845116808217855250505050505090500191505060006040518083038160008787f1925050503d8060008114612399576040519150601f19603f3d011682016040523d82523d6000602084013e61239e565b606091505b50506040518791508b907f97b6ce150a3b8e94c442fb09fe13c2b262f0e9b3bfc83ef2309675e09dcb453b90600090a35060019998505050505050505050565b600082815b8381101561242757858214156123fe57600192505050610dbd565b600091825260036020526040909120549061242081600163ffffffff61243316565b90506123e3565b50600095945050505050565b818101828110156107f8576040805162461bcd60e51b815260206004820152601960248201527f4f766572666c6f7720647572696e67206164646974696f6e2e00000000000000604482015290519081900360640190fd5b6060816124a75750604080516020810190915260008152610dbd565b82820183811180156124ba575080855110155b612501576040805162461bcd60e51b8152602060048201526013602482015272536c696365206f7574206f6620626f756e647360681b604482015290519081900360640190fd5b604051915082604083010160405282825283850182038460208701018481015b8082101561253a57815183830152602082019150612521565b505050509392505050565b6000606061255c836048600363ffffffff61248b16565b9050600083604b8151811061256d57fe5b016020015160f81c905060006125856110f28461260e565b6002199290920160ff166101000a909102949350505050565b6000826125ad575060006107f8565b50818102818382816125bb57fe5b04146107f8576040805162461bcd60e51b815260206004820152601f60248201527f4f766572666c6f7720647572696e67206d756c7469706c69636174696f6e2e00604482015290519081900360640190fd5b60608082516040519080825280601f01601f19166020018201604052801561263d576020820181803883390190505b50905060005b83518110156126945783818151811061265857fe5b602001015160f81c60f81b82600183875103038151811061267557fe5b60200101906001600160f81b031916908160001a905350600101612643565b5092915050565b600080805b8351811015612694578060010184510360080260020a8482815181106126c257fe5b016020015160f81c0291909101906001016126a0565b6000806126e7611c60856132dd565b90508281146126fa5760009150506107f8565b5060019392505050565b6000838514801561271457508285145b156127215750600161099f565b8383818160005b8681101561277c5789831461274a576000838152600360205260409020549294505b898214612764576000828152600360205260409020549193505b61277581600163ffffffff61243316565b9050612728565b508284141561279257600094505050505061099f565b808214611da557600094505050505061099f565b6000806127b285610ed8565b905060006127c261148786611b1d565b905060006127d261148786611b1d565b90508282101580156127e45750828110155b61281f5760405162461bcd60e51b81526004018080602001828103825260308152602001806138fc6030913960400191505060405180910390fd5b600061283b6107e08506611657866107e063ffffffff61243316565b905080831081831081158261284d5750805b156128685761285b89611b1d565b9650505050505050610dbd565b818015612873575080155b156128815761285b88611b1d565b81801561288b5750805b156128af57838510156128a6576128a188611b1d565b61285b565b61285b89611b1d565b6128cd6128bb896128f1565b6107e0865b069063ffffffff61259e16565b6128e26128d98b6128f1565b6107e0886128c0565b10156128a65761285b88611b1d565b60006107f86128ff83612545565b6132f2565b60006107f86110f261291584613309565b61260e565b60008061292d838563ffffffff6129de16565b905061294362127500600463ffffffff61331e16565b8110156129615761295e62127500600463ffffffff61331e16565b90505b61297562127500600463ffffffff61259e16565b8111156129935761299062127500600463ffffffff61259e16565b90505b60006129b8826129ac886201000063ffffffff61331e16565b9063ffffffff61259e16565b90506129d4620100006129ac836212750063ffffffff61331e16565b9695505050505050565b600082821115612a35576040805162461bcd60e51b815260206004820152601d60248201527f556e646572666c6f7720647572696e67207375627472616374696f6e2e000000604482015290519081900360640190fd5b50900390565b6060600082600881518110612a4c57fe5b0160200151835160f89190911c91506009820160ff1614612a7d575050604080516020810190915260008152610917565b82600981518110612a8a57fe5b016020015160f81c612b2d5760028160ff161015612ab8575050604080516020810190915260008152610917565b600083600a81518110612ac757fe5b016020015160f81c9050600119820160ff1681141580612af4575080602014158015612af4575080601414155b15612b12576040518060200160405280600081525092505050610917565b612b2484600b8363ffffffff61248b16565b92505050610917565b6000612b42846008600363ffffffff61333116565b60408051621976a960e81b81529051908190036003019020909150811415612bed5783600b81518110612b7157fe5b60209101015160f81c6014141580612bbc5750604051808061222b60f21b81525060020190506040518091039020612bb960028651036002876133319092919063ffffffff16565b14155b15612bda576040518060200160405280600081525092505050610917565b612b2484600c601463ffffffff61248b16565b604080516205ea4560ea1b81529051908190036003019020811415612c585783600185510381518110612c1c57fe5b60209101015160f81c608714612c45576040518060200160405280600081525092505050610917565b612b2484600b601463ffffffff61248b16565b505050604080516020810190915260008152919050565b60408051603560f91b8152905160019181900382019020606091612c97908490600990613331565b14612cb15750604080516020810190915260008152610917565b6060612cc683600a600163ffffffff61248b16565b9050610dbd600b612cd68361269b565b85919063ffffffff61248b16565b60606107f8826024602063ffffffff61248b16565b6000815160001415612d0d57506000610917565b506020015190565b60008385148015612d24575081155b8015612d2f57508251155b15612d3c5750600161099f565b60608584866040516020018084815260200183805190602001908083835b60208310612d795780518252601f199092019160209182019101612d5a565b51815160209384036101000a60001901801990921691161790529201938452506040805180850381529390910190525092506129d4915082905084613398565b6000612dc482610ed8565b612dcf600154610ed8565b0392915050565b6000806000612de4846134d7565b9092509050801580612df7575060001982145b15612e0757600092505050610917565b6001820160005b82811015612e7b5785518210612e2b576000945050505050610917565b6060612e4583848951038961248b9092919063ffffffff16565b90506000612e528261355e565b9050600019811415612e6d5760009650505050505050610917565b929092019150600101612e0e565b5084511492505050919050565b6000806000612e96846134d7565b9092509050801580612ea9575060001982145b15612eb957600092505050610917565b6001820160005b82811015612e7b5785518210612edd576000945050505050610917565b6060612ef783848951038961248b9092919063ffffffff16565b90506000612f0482613591565b9050600019811415612f1f5760009650505050505050610917565b929092019150600101612ec0565b6060600080612f3b856134d7565b9092509050600019821415612f815760405162461bcd60e51b81526004018080602001828103825260228152602001806137ed6022913960400191505060405180910390fd5b808410612fc9576040805162461bcd60e51b81526020600482015260116024820152702b37baba103932b0b21037bb32b9393ab760791b604482015290519081900360640190fd5b6060600060018401815b8781101561306357612ff382838b51038b61248b9092919063ffffffff16565b9350612ffe84613591565b9250600019831415613057576040805162461bcd60e51b815260206004820152601a60248201527f42616420566172496e7420696e207363726970745075626b6579000000000000604482015290519081900360640190fd5b90820190600101612fd3565b5061307c81828a51038a61248b9092919063ffffffff16565b925061308783613591565b91506000198214156130e0576040805162461bcd60e51b815260206004820152601a60248201527f42616420566172496e7420696e207363726970745075626b6579000000000000604482015290519081900360640190fd5b6130f188828463ffffffff61248b16565b98975050505050505050565b6000606061310a836135f7565b905060606131178261260e565b905061099f8161269b565b6060600080613130856134d7565b90925090506000198214156131765760405162461bcd60e51b81526004018080602001828103825260228152602001806137ed6022913960400191505060405180910390fd5b8084106131bd576040805162461bcd60e51b815260206004820152601060248201526f2b34b7103932b0b21037bb32b9393ab760811b604482015290519081900360640190fd5b6060600060018401815b87811015613251576131e782838b51038b61248b9092919063ffffffff16565b93506131f28461355e565b9250600019831415613245576040805162461bcd60e51b815260206004820152601760248201527642616420566172496e7420696e2073637269707453696760481b604482015290519081900360640190fd5b908201906001016131c7565b5061326a81828a51038a61248b9092919063ffffffff16565b92506132758361355e565b91506000198214156130e0576040805162461bcd60e51b815260206004820152601760248201527642616420566172496e7420696e2073637269707453696760481b604482015290519081900360640190fd5b60606107f8826000602463ffffffff61248b16565b60606107f8826004602063ffffffff61248b16565b60006107f861ffff60d01b8363ffffffff61331e16565b60606107f8826044600463ffffffff61248b16565b600081838161332957fe5b049392505050565b60008282018381118015613346575080855110155b61338d576040805162461bcd60e51b8152602060048201526013602482015272536c696365206f7574206f6620626f756e647360681b604482015290519081900360640190fd5b505091016020012090565b600060208351816133a557fe5b06156133b3575060006107f8565b8251602014156133c5575060016107f8565b8251604014156133d7575060006107f8565b825182906000906133f990611c60908790601f1901602063ffffffff61248b16565b90506000613412611c608783602063ffffffff61248b16565b905060015b865160019061342d90602063ffffffff61331e16565b038110156134cd5760028406600114156134855761347e6134598860208085029063ffffffff61248b16565b836040516020018082815260200191505060405160208183030381529060405261360c565b91506134c1565b6040805160208082018590528251808303820181529183019092526134be916134b9908a908581029063ffffffff61248b16565b61360c565b91505b600193841c9301613417565b5014949350505050565b60008060006134e5846136c7565b905060ff8116613512576000846000815181106134fe57fe5b016020015190935060f81c91506135599050565b8060010160ff16845110156135305750600019915060009050613559565b600061354d6110f261291587600160ff871663ffffffff61248b16565b60ff9092169350909150505b915091565b600080600061356c84613743565b90925090506000198214156135875760001992505050610917565b0160290192915050565b60006009825110156135a65750600019610917565b60606135c16008808551038561248b9092919063ffffffff16565b90506000806135cf836134d7565b90925090506000198214156135eb576000199350505050610917565b01600901915050919050565b60606107f8826000600863ffffffff61248b16565b60006107f583836040516020018083805190602001908083835b602083106136455780518252601f199092019160209182019101613626565b51815160209384036101000a600019018019909216911617905285519190930192850191508083835b6020831061368d5780518252601f19909201916020918201910161366e565b6001836020036101000a03801982511681845116808217855250505050505090500192505050604051602081830303815290604052611b1d565b6000816000815181106136d657fe5b60209101015160f81c60ff14156136ef57506008610917565b816000815181106136fc57fe5b60209101015160f81c60fe141561371557506004610917565b8160008151811061372257fe5b60209101015160f81c60fd141561373b57506002610917565b506000919050565b60008060258351101561375d575060001990506000613559565b60606137786024808651038661248b9092919063ffffffff16565b9050600080613786836134d7565b909550935050505091509156fe4865616465727320646f206e6f7420666f726d206120636f6e73697374656e7420636861696e526571756573746564206c696d69742069732067726561746572207468616e203120646966666963756c747920706572696f6452656164206f76657272756e20647572696e6720566172496e742070617273696e67486561646572206172726179206c656e677468206d75737420626520646976697369626c652062792038304d7573742070726f766964652065786163746c79203120646966666963756c747920706572696f644d7573742070726f7669646520746865206c61737420686561646572206f662074686520636c6f73696e6720646966666963756c747920706572696f6443616e206f6e6c792062652063616e63656c6c6564206279206f776e6572206f7220636f6e73756d65724e65772062657374206861736820646f6573206e6f742068617665206d6f726520776f726b207468616e2070726576696f7573412064657363656e64616e74206865696768742069732062656c6f772074686520616e636573746f7220686569676874556e6578706563746564207265746172676574206f6e2065787465726e616c2063616c6c506572696f642068656164657220646966666963756c7469657320646f206e6f74206d61746368416e636573746f72206d75737420626520686561766965737420636f6d6d6f6e20616e636573746f72a265627a7a72315820c78cd984b4a44ee489763380a641f336841352de68a0b4527809553841e4bd1964736f6c63430005110032506572696f64207374617274206861736820646f6573206e6f74206861766520776f726b2e2048696e743a2077726f6e672062797465206f726465723f",
  "source": "pragma solidity ^0.5.10;\n\n/** @title OnDemandSPV */\n/** @author Summa (https://summa.one) */\n\nimport {Relay} from \"./Relay.sol\";\nimport {ISPVRequestManager, ISPVConsumer} from \"./Interfaces.sol\";\nimport {BytesLib} from \"@summa-tx/bitcoin-spv-sol/contracts/BytesLib.sol\";\nimport {BTCUtils} from \"@summa-tx/bitcoin-spv-sol/contracts/BTCUtils.sol\";\nimport {ValidateSPV} from \"@summa-tx/bitcoin-spv-sol/contracts/ValidateSPV.sol\";\nimport {SafeMath} from \"@summa-tx/bitcoin-spv-sol/contracts/SafeMath.sol\";\n\n\ncontract OnDemandSPV is ISPVRequestManager, Relay {\n    using SafeMath for uint256;\n    using BytesLib for bytes;\n    using BTCUtils for bytes;\n\n    struct ProofRequest {\n        bytes32 spends;\n        bytes32 pays;\n        uint256 notBefore;\n        address consumer;\n        uint64 paysValue;\n        uint8 numConfs;\n        address owner;\n        RequestStates state;\n    }\n\n    enum RequestStates { NONE, ACTIVE, CLOSED }\n    mapping (bytes32 => bool) internal validatedTxns;  // authenticated tx store\n    mapping (uint256 => ProofRequest) internal requests;  // request info\n    uint256 public constant BASE_COST = 24 * 60 * 60;  // 1 day\n\n    uint256 public nextID;\n    bytes32 public latestValidatedTx;\n    uint256 public remoteGasAllowance = 500000; // maximum gas for callback call\n\n    /// @notice                   Gives a starting point for the relay\n    /// @dev                      We don't check this AT ALL really. Don't use relays with bad genesis\n    /// @param  _genesisHeader    The starting header\n    /// @param  _height           The starting height\n    /// @param  _periodStart      The hash of the first header in the genesis epoch\n    constructor(\n        bytes memory _genesisHeader,\n        uint256 _height,\n        bytes32 _periodStart,\n        uint256 _firstID\n    ) Relay(\n        _genesisHeader,\n        _height,\n        _periodStart\n    ) public {\n        nextID = _firstID;\n    }\n\n    /// @notice                 Cancel a bitcoin event request.\n    /// @dev                    Prevents the relay from forwarding tx infromation\n    /// @param  _requestID      The ID of the request to be cancelled\n    /// @return                 True if succesful, error otherwise\n    function cancelRequest(uint256 _requestID) external returns (bool) {\n        ProofRequest storage _req = requests[_requestID];\n        require(_req.state == RequestStates.ACTIVE, \"Request not active\");\n        require(msg.sender == _req.consumer || msg.sender == _req.owner, \"Can only be cancelled by owner or consumer\");\n        _req.state = RequestStates.CLOSED;\n        emit RequestClosed(_requestID);\n        return true;\n    }\n\n    function getLatestValidatedTx() external view returns (bytes32) {\n        return latestValidatedTx;\n    }\n\n    /// @notice             Retrieve info about a request\n    /// @dev                Requests ids are numerical\n    /// @param  _requestID  The numerical ID of the request\n    /// @return             A tuple representation of the request struct\n    function getRequest(\n        uint256 _requestID\n    ) external view returns (\n        bytes32 spends,\n        bytes32 pays,\n        uint64 paysValue,\n        uint8 state,\n        address consumer,\n        address owner,\n        uint8 numConfs,\n        uint256 notBefore\n    ) {\n        ProofRequest storage _req = requests[_requestID];\n        spends = _req.spends;\n        pays = _req.pays;\n        paysValue = _req.paysValue;\n        state = uint8(_req.state);\n        consumer = _req.consumer;\n        owner = _req.owner;\n        numConfs = _req.numConfs;\n        notBefore = _req.notBefore;\n    }\n\n    /// @notice                 Subscribe to a feed of Bitcoin txns matching a request\n    /// @dev                    The request can be a spent utxo and/or a created utxo\n    /// @param  _spends         An outpoint that must be spent in acceptable txns (optional)\n    /// @param  _pays           An output script that must be paid in acceptable txns (optional)\n    /// @param  _paysValue      A minimum value that must be paid to the output script (optional)\n    /// @param  _consumer       The address of a ISPVConsumer exposing spv\n    /// @param  _numConfs       The minimum number of Bitcoin confirmations to accept\n    /// @param  _notBefore      A timestamp before which proofs are not accepted\n    /// @return                 A unique request ID.\n    function request(\n        bytes calldata _spends,\n        bytes calldata _pays,\n        uint64 _paysValue,\n        address _consumer,\n        uint8 _numConfs,\n        uint256 _notBefore\n    ) external returns (uint256) {\n        return _request(_spends, _pays, _paysValue, _consumer, _numConfs, _notBefore);\n    }\n\n    /// @notice                 Subscribe to a feed of Bitcoin txns matching a request\n    /// @dev                    The request can be a spent utxo and/or a created utxo\n    /// @param  _spends         An outpoint that must be spent in acceptable txns (optional)\n    /// @param  _pays           An output script that must be paid in acceptable txns (optional)\n    /// @param  _paysValue      A minimum value that must be paid to the output script (optional)\n    /// @param  _consumer       The address of a ISPVConsumer exposing spv\n    /// @param  _numConfs       The minimum number of Bitcoin confirmations to accept\n    /// @param  _notBefore      A timestamp before which proofs are not accepted\n    /// @return                 A unique request ID\n    function _request(\n        bytes memory _spends,\n        bytes memory _pays,\n        uint64 _paysValue,\n        address _consumer,\n        uint8 _numConfs,\n        uint256 _notBefore\n    ) internal returns (uint256) {\n        uint256 _requestID = nextID;\n        nextID = nextID + 1;\n        bytes memory pays = _pays;\n\n        require(_spends.length == 36 || _spends.length == 0, \"Not a valid UTXO\");\n\n        /* NB: This will fail if the output is not p2pkh, p2sh, p2wpkh, or p2wsh*/\n        uint256 _paysLen = pays.length;\n\n        // if it's not length-prefixed, length-prefix it\n        if (_paysLen > 0 && uint8(pays[0]) != _paysLen - 1) {\n            pays = abi.encodePacked(uint8(_paysLen), pays);\n            _paysLen += 1; // update the length because we made it longer\n        }\n\n        bytes memory _p = abi.encodePacked(bytes8(0), pays);\n        require(\n            _paysLen == 0 ||  // no request OR\n            _p.extractHash().length > 0 || // standard output OR\n            _p.extractOpReturnData().length > 0, // OP_RETURN output\n            \"Not a standard output type\");\n\n        require(_spends.length > 0 || _paysLen > 0, \"No request specified\");\n\n        ProofRequest storage _req = requests[_requestID];\n        _req.owner = msg.sender;\n\n        if (_spends.length > 0) {\n            _req.spends = keccak256(_spends);\n        }\n        if (_paysLen > 0) {\n            _req.pays = keccak256(pays);\n        }\n        if (_paysValue > 0) {\n            _req.paysValue = _paysValue;\n        }\n        if (_numConfs > 0 && _numConfs < 241) { //241 is arbitray. 40 hours\n            _req.numConfs = _numConfs;\n        }\n        if (_notBefore > 0) {\n            _req.notBefore = _notBefore;\n        }\n        _req.consumer = _consumer;\n        _req.state = RequestStates.ACTIVE;\n\n        emit NewProofRequest(msg.sender, _requestID, _paysValue, _spends, pays);\n\n        return _requestID;\n    }\n\n    /// @notice                 Provide a proof of a tx that satisfies some request\n    /// @dev                    The caller must specify which inputs, which outputs, and which request\n    /// @param  _header         The header containing the merkleroot committing to the tx\n    /// @param  _proof          The merkle proof intermediate nodes\n    /// @param  _version        The tx version, always the first 4 bytes of the tx\n    /// @param  _locktime       The tx locktime, always the last 4 bytes of the tx\n    /// @param  _index          The index of the tx in the merkle tree's leaves\n    /// @param  _reqIndices  The input and output index to check against the request, packed\n    /// @param  _vin            The tx input vector\n    /// @param  _vout           The tx output vector\n    /// @param  _requestID       The id of the request that has been triggered\n    /// @return                 True if succesful, error otherwise\n    function provideProof(\n        bytes calldata _header,\n        bytes calldata _proof,\n        bytes4 _version,\n        bytes4 _locktime,\n        uint256 _index,\n        uint16 _reqIndices,\n        bytes calldata _vin,\n        bytes calldata _vout,\n        uint256 _requestID\n    ) external returns (bool) {\n        bytes32 _txid = abi.encodePacked(_version, _vin, _vout, _locktime).hash256();\n        /*\n        NB: this shortcuts validation of any txn we've seen before\n            repeats can omit header, proof, and index\n        */\n        if (!validatedTxns[_txid]) {\n            _checkInclusion(\n                _header,\n                _proof,\n                _index,\n                _txid,\n                _requestID);\n            validatedTxns[_txid] = true;\n            latestValidatedTx = _txid;\n        }\n        _checkRequests(_reqIndices, _vin, _vout, _requestID);\n        _callCallback(_txid, _reqIndices, _vin, _vout, _requestID);\n        return true;\n    }\n\n    /// @notice             Notify a consumer that one of its requests has been triggered\n    /// @dev                We include information about the tx that triggered it, so the consumer can take actions\n    /// @param  _vin        The tx input vector\n    /// @param  _vout       The tx output vector\n    /// @param  _txid       The transaction ID\n    /// @param  _requestID   The id of the request that has been triggered\n    function _callCallback(\n        bytes32 _txid,\n        uint16 _reqIndices,\n        bytes memory _vin,\n        bytes memory _vout,\n        uint256 _requestID\n    ) internal returns (bool) {\n        ProofRequest storage _req = requests[_requestID];\n        ISPVConsumer c = ISPVConsumer(_req.consumer);\n\n        uint8 _inputIndex = uint8(_reqIndices >> 8);\n        uint8 _outputIndex = uint8(_reqIndices & 0xff);\n\n        /*\n        NB:\n        We want to make the remote call, but we don't care about results\n        We use the low-level call so that we can ignore reverts and set gas\n        */\n        address(c).call.gas(remoteGasAllowance)(\n            abi.encodePacked(\n                c.spv.selector,\n                abi.encode(_txid, _vin, _vout, _requestID, _inputIndex, _outputIndex)\n            )\n        );\n\n        emit RequestFilled(_txid, _requestID);\n\n        return true;\n    }\n\n    /// @notice             Verifies inclusion of a tx in a header, and that header in the Relay chain\n    /// @dev                Specifically we check that both the best tip and the heaviest common header confirm it\n    /// @param  _header     The header containing the merkleroot committing to the tx\n    /// @param  _proof      The merkle proof intermediate nodes\n    /// @param  _index      The index of the tx in the merkle tree's leaves\n    /// @param  _txid       The txid that is the proof leaf\n    /// @param _requestID   The ID of the request to check against\n    function _checkInclusion(\n        bytes memory _header,\n        bytes memory _proof,\n        uint256 _index,\n        bytes32 _txid,\n        uint256 _requestID\n    ) internal view returns (bool) {\n        require(\n            ValidateSPV.prove(\n                _txid,\n                _header.extractMerkleRootLE().toBytes32(),\n                _proof,\n                _index),\n            \"Bad inclusion proof\");\n\n        bytes32 _headerHash = _header.hash256();\n        bytes32 _GCD = getLastReorgCommonAncestor();\n\n        require(\n            _isAncestor(\n                _headerHash,\n                _GCD,\n                240),\n            \"GCD does not confirm header\");\n        uint8 _numConfs = requests[_requestID].numConfs;\n        require(\n            _getConfs(_headerHash) >= _numConfs,\n            \"Insufficient confirmations\");\n\n        return true;\n    }\n\n    /// @notice             Finds the number of headers on top of the argument\n    /// @dev                Bounded to 6400 gas (8 looksups) max\n    /// @param _headerHash  The LE double-sha2 header hash\n    /// @return             The number of headers on top\n    function _getConfs(bytes32 _headerHash) internal view returns (uint8) {\n        return uint8(_findHeight(bestKnownDigest) - _findHeight(_headerHash));\n    }\n\n    /// @notice                 Verifies that a tx meets the requester's request\n    /// @dev                    Requests can be specify an input, and output, and/or an output value\n    /// @param  _reqIndices  The input and output index to check against the request, packed\n    /// @param  _vin            The tx input vector\n    /// @param  _vout           The tx output vector\n    /// @param  _requestID       The id of the request to check\n    function _checkRequests (\n        uint16 _reqIndices,\n        bytes memory _vin,\n        bytes memory _vout,\n        uint256 _requestID\n    ) internal view returns (bool) {\n        require(_vin.validateVin(), \"Vin is malformatted\");\n        require(_vout.validateVout(), \"Vout is malformatted\");\n\n        uint8 _inputIndex = uint8(_reqIndices >> 8);\n        uint8 _outputIndex = uint8(_reqIndices & 0xff);\n\n        ProofRequest storage _req = requests[_requestID];\n        require(_req.notBefore <= block.timestamp, \"Request is submitted too early\");\n        require(_req.state == RequestStates.ACTIVE, \"Request is not active\");\n\n        bytes32 _pays = _req.pays;\n        bool _hasPays = _pays != bytes32(0);\n        if (_hasPays) {\n            bytes memory _out = _vout.extractOutputAtIndex(uint8(_outputIndex));\n            bytes memory _scriptPubkey = _out.slice(8, _out.length - 8);\n            require(\n                keccak256(_scriptPubkey) == _pays,\n                \"Does not match pays request\");\n            uint64 _paysValue = _req.paysValue;\n            require(\n                _paysValue == 0 ||\n                _out.extractValue() >= _paysValue,\n                \"Does not match value request\");\n        }\n\n        bytes32 _spends = _req.spends;\n        bool _hasSpends = _spends != bytes32(0);\n        if (_hasSpends) {\n            bytes memory _in = _vin.extractInputAtIndex(uint8(_inputIndex));\n            require(\n                !_hasSpends ||\n                keccak256(_in.extractOutpoint()) == _spends,\n                \"Does not match spends request\");\n        }\n        return true;\n    }\n}\n",
  "sourcePath": "@summa-tx/relay-sol/contracts/OnDemandSPV.sol",
  "compiler": {
    "name": "solc",
    "version": "0.5.17+commit.d19bba13.Emscripten.clang"
  },
  "schemaVersion": "3.0.23",
  "updatedAt": "2021-02-01T14:48:54.205Z",
  "networkType": "ethereum",
  "devdoc": {
    "methods": {
      "addHeaders(bytes,bytes)": {
        "details": "We check integrity and consistency of the header chain",
        "params": {
          "_anchor": "The header immediately preceeding the new chain",
          "_headers": "A tightly-packed list of 80-byte Bitcoin headers"
        },
        "return": "True if successfully written, error otherwise"
      },
      "addHeadersWithRetarget(bytes,bytes,bytes)": {
        "details": "Checks the retarget, the heights, and the linkage",
        "params": {
          "_headers": "A tightly-packed list of 80-byte Bitcoin headers",
          "_oldPeriodEndHeader": "The last header in the difficulty period being closed",
          "_oldPeriodStartHeader": "The first header in the difficulty period being closed"
        },
        "return": "True if successfully written, error otherwise"
      },
      "cancelRequest(uint256)": {
        "details": "Prevents the relay from forwarding tx infromation",
        "params": {
          "_requestID": "The ID of the request to be cancelled"
        },
        "return": "True if succesful, error otherwise"
      },
      "constructor": {
        "details": "We don't check this AT ALL really. Don't use relays with bad genesis",
        "params": {
          "_genesisHeader": "The starting header",
          "_height": "The starting height",
          "_periodStart": "The hash of the first header in the genesis epoch"
        }
      },
      "findAncestor(bytes32,uint256)": {
        "details": "Will fail if the header is unknown",
        "params": {
          "_digest": "The header digest to search for"
        },
        "return": "The height of the header, or error if unknown"
      },
      "findHeight(bytes32)": {
        "details": "Will fail if the header is unknown",
        "params": {
          "_digest": "The header digest to search for"
        },
        "return": "The height of the header, or error if unknown"
      },
      "getBestKnownDigest()": {
        "details": "This updated only by calling markNewHeaviest",
        "return": "The hash of the best marked chain tip"
      },
      "getCurrentEpochDifficulty()": {
        "details": "This is updated when a new heavist header has a new diff",
        "return": "The difficulty of the bestKnownDigest"
      },
      "getLastReorgCommonAncestor()": {
        "details": "This is updated only by calling markNewHeaviest",
        "return": "The hash of the shared ancestor of the most recent fork"
      },
      "getPrevEpochDifficulty()": {
        "details": "This is updated when a difficulty change is accepted",
        "return": "The difficulty of the previous epoch"
      },
      "getRelayGenesis()": {
        "details": "This is an initialization parameter",
        "return": "The hash of the first block of the relay"
      },
      "getRequest(uint256)": {
        "details": "Requests ids are numerical",
        "params": {
          "_requestID": "The numerical ID of the request"
        },
        "return": "A tuple representation of the request struct"
      },
      "isAncestor(bytes32,bytes32,uint256)": {
        "details": "Limit the amount of lookups (and thus gas usage) with _limit",
        "params": {
          "_ancestor": "The prospective ancestor",
          "_descendant": "The descendant to check",
          "_limit": "The maximum number of blocks to check"
        },
        "return": "true if ancestor is at most limit blocks lower than descendant, otherwise false"
      },
      "markNewHeaviest(bytes32,bytes,bytes,uint256)": {
        "details": "We don't check this AT ALL really. Don't use relays with bad genesis",
        "params": {
          "_ancestor": "The digest of the most recent common ancestor",
          "_currentBest": "The 80-byte header referenced by bestKnownDigest",
          "_limit": "Limit the amount of traversal of the chain",
          "_newBest": "The 80-byte header to mark as the new best"
        },
        "return": "True if successfully updates bestKnownDigest, error otherwise"
      },
      "provideProof(bytes,bytes,bytes4,bytes4,uint256,uint16,bytes,bytes,uint256)": {
        "details": "The caller must specify which inputs, which outputs, and which request",
        "params": {
          "_header": "The header containing the merkleroot committing to the tx",
          "_index": "The index of the tx in the merkle tree's leaves",
          "_locktime": "The tx locktime, always the last 4 bytes of the tx",
          "_proof": "The merkle proof intermediate nodes",
          "_reqIndices": "The input and output index to check against the request, packed",
          "_requestID": "The id of the request that has been triggered",
          "_version": "The tx version, always the first 4 bytes of the tx",
          "_vin": "The tx input vector",
          "_vout": "The tx output vector"
        },
        "return": "True if succesful, error otherwise"
      },
      "request(bytes,bytes,uint64,address,uint8,uint256)": {
        "details": "The request can be a spent utxo and/or a created utxo",
        "params": {
          "_consumer": "The address of a ISPVConsumer exposing spv",
          "_notBefore": "A timestamp before which proofs are not accepted",
          "_numConfs": "The minimum number of Bitcoin confirmations to accept",
          "_pays": "An output script that must be paid in acceptable txns (optional)",
          "_paysValue": "A minimum value that must be paid to the output script (optional)",
          "_spends": "An outpoint that must be spent in acceptable txns (optional)"
        },
        "return": "A unique request ID."
      }
    }
  },
  "userdoc": {
    "methods": {
      "addHeaders(bytes,bytes)": {
        "notice": "Adds headers to storage after validating"
      },
      "addHeadersWithRetarget(bytes,bytes,bytes)": {
        "notice": "Adds headers to storage, performs additional validation of retarget"
      },
      "cancelRequest(uint256)": {
        "notice": "Cancel a bitcoin event request."
      },
      "constructor": "Gives a starting point for the relay",
      "findAncestor(bytes32,uint256)": {
        "notice": "Finds an ancestor for a block by its digest"
      },
      "findHeight(bytes32)": {
        "notice": "Finds the height of a header by its digest"
      },
      "getBestKnownDigest()": {
        "notice": "Getter for bestKnownDigest"
      },
      "getCurrentEpochDifficulty()": {
        "notice": "Getter for currentEpochDiff"
      },
      "getLastReorgCommonAncestor()": {
        "notice": "Getter for relayGenesis"
      },
      "getPrevEpochDifficulty()": {
        "notice": "Getter for prevEpochDiff"
      },
      "getRelayGenesis()": {
        "notice": "Getter for relayGenesis"
      },
      "getRequest(uint256)": {
        "notice": "Retrieve info about a request"
      },
      "isAncestor(bytes32,bytes32,uint256)": {
        "notice": "Checks if a digest is an ancestor of the current one"
      },
      "markNewHeaviest(bytes32,bytes,bytes,uint256)": {
        "notice": "Gives a starting point for the relay"
      },
      "provideProof(bytes,bytes,bytes4,bytes4,uint256,uint16,bytes,bytes,uint256)": {
        "notice": "Provide a proof of a tx that satisfies some request"
      },
      "request(bytes,bytes,uint64,address,uint8,uint256)": {
        "notice": "Subscribe to a feed of Bitcoin txns matching a request"
      }
    }
  }
}