{
  "contractName": "RedemptionScript",
  "abi": [
    {
      "inputs": [
        {
          "internalType": "address",
          "name": "_VendingMachine",
          "type": "address"
        },
        {
          "internalType": "address",
          "name": "_TBTCToken",
          "type": "address"
        },
        {
          "internalType": "address",
          "name": "_FeeRebateToken",
          "type": "address"
        }
      ],
      "payable": false,
      "stateMutability": "nonpayable",
      "type": "constructor"
    },
    {
      "constant": false,
      "inputs": [
        {
          "internalType": "address",
          "name": "_from",
          "type": "address"
        },
        {
          "internalType": "uint256",
          "name": "_amount",
          "type": "uint256"
        },
        {
          "internalType": "address",
          "name": "",
          "type": "address"
        },
        {
          "internalType": "bytes",
          "name": "_extraData",
          "type": "bytes"
        }
      ],
      "name": "receiveApproval",
      "outputs": [],
      "payable": false,
      "stateMutability": "nonpayable",
      "type": "function"
    }
  ],
  "bytecode": "0x608060405234801561001057600080fd5b5060405161051d38038061051d8339818101604052606081101561003357600080fd5b5080516020820151604090920151600180546001600160a01b039384166001600160a01b031991821617909155600080549484169482169490941790935560028054929091169190921617905561048e8061008f6000396000f3fe608060405234801561001057600080fd5b506004361061002b5760003560e01c80638f4ffcb114610030575b600080fd5b6100f56004803603608081101561004657600080fd5b6001600160a01b03823581169260208101359260408201359092169181019060808101606082013564010000000081111561008057600080fd5b82018360208201111561009257600080fd5b803590602001918460018302840111640100000000831117156100b457600080fd5b91908080601f0160208091040260200160405190810160405280939291908181526020018383808284376000920191909152509295506100f7945050505050565b005b6000546001600160a01b031633146101405760405162461bcd60e51b815260040180806020018281038252602c8152602001806103fa602c913960400191505060405180910390fd5b60008054604080516323b872dd60e01b81526001600160a01b03888116600483015230602483015260448201889052915191909216926323b872dd92606480820193602093909283900390910190829087803b15801561019f57600080fd5b505af11580156101b3573d6000803e3d6000fd5b505050506040513d60208110156101c957600080fd5b5050600080546001546040805163095ea7b360e01b81526001600160a01b039283166004820152602481018890529051919092169263095ea7b392604480820193602093909283900390910190829087803b15801561022757600080fd5b505af115801561023b573d6000803e3d6000fd5b505050506040513d602081101561025157600080fd5b5050602081015160ff198116906001600160e01b03191663be138da760e01b146102ac5760405162461bcd60e51b81526004018080602001828103825260348152602001806104266034913960400191505060405180910390fd5b60015460405183516000926060926001600160a01b0390911691869190819060208401908083835b602083106102f35780518252601f1990920191602091820191016102d4565b6001836020036101000a0380198251168184511680821785525050505050509050019150506000604051808303816000865af19150503d8060008114610355576040519150601f19603f3d011682016040523d82523d6000602084013e61035a565b606091505b5090925090506044810180836103ee5760405162461bcd60e51b81526004018080602001828103825283818151815260200191508051906020019080838360005b838110156103b357818101518382015260200161039b565b50505050905090810190601f1680156103e05780820380516001836020036101000a031916815260200191505b509250505060405180910390fd5b50505050505050505056fe4f6e6c7920746f6b656e20636f6e74726163742063616e2063616c6c2072656365697665417070726f76616c426164205f657874726144617461207369676e61747572652e2043616c6c206d75737420626520746f2074627463546f4274632ea265627a7a723158208f94324cab9689640cd76f6f823f5ca2f2a0106c04583550f40ceca58d1a72cd64736f6c63430005110032",
  "source": "pragma solidity 0.5.17;\n\nimport {ITokenRecipient} from \"../interfaces/ITokenRecipient.sol\";\nimport {TBTCDepositToken} from \"../system/TBTCDepositToken.sol\";\nimport {TBTCToken} from \"../system/TBTCToken.sol\";\nimport {FeeRebateToken} from \"../system/FeeRebateToken.sol\";\nimport {VendingMachine} from \"../system/VendingMachine.sol\";\nimport {Deposit} from \"../deposit/Deposit.sol\";\nimport {BytesLib} from \"@summa-tx/bitcoin-spv-sol/contracts/BytesLib.sol\";\n\n/// @notice A one-click script for redeeming TBTC into BTC.\n/// @dev Wrapper script for VendingMachine.tbtcToBtc\n/// This contract implements receiveApproval() and can therefore use\n/// approveAndCall(). This pattern combines TBTC Token approval and\n/// vendingMachine.tbtcToBtc() in a single transaction.\ncontract RedemptionScript is ITokenRecipient {\n    using BytesLib for bytes;\n\n    TBTCToken tbtcToken;\n    VendingMachine vendingMachine;\n    FeeRebateToken feeRebateToken;\n\n    constructor(\n        address _VendingMachine,\n        address _TBTCToken,\n        address _FeeRebateToken\n    ) public {\n        vendingMachine = VendingMachine(_VendingMachine);\n        tbtcToken = TBTCToken(_TBTCToken);\n        feeRebateToken = FeeRebateToken(_FeeRebateToken);\n    }\n\n    /// @notice Receives approval for a TBTC transfer, and calls `VendingMachine.tbtcToBtc` for a user.\n    /// @dev Implements the approveAndCall receiver interface.\n    /// @param _from The owner of the token who approved them for transfer.\n    /// @param _amount Approved TBTC amount for the transfer.\n    /// @param _extraData Encoded function call to `VendingMachine.tbtcToBtc`.\n    function receiveApproval(\n        address _from,\n        uint256 _amount,\n        address,\n        bytes memory _extraData\n    ) public { // not external to allow bytes memory parameters\n        require(msg.sender == address(tbtcToken), \"Only token contract can call receiveApproval\");\n\n        tbtcToken.transferFrom(_from, address(this), _amount);\n        tbtcToken.approve(address(vendingMachine), _amount);\n\n        // Verify _extraData is a call to tbtcToBtc.\n        bytes4 functionSignature;\n        assembly {\n            functionSignature := and(mload(add(_extraData, 0x20)), not(0xff))\n        }\n        require(\n            functionSignature == vendingMachine.tbtcToBtc.selector,\n            \"Bad _extraData signature. Call must be to tbtcToBtc.\"\n        );\n\n        // We capture the `returnData` in order to forward any nested revert message\n        // from the contract call.\n        // solium-disable-next-line security/no-low-level-calls\n        (bool success, bytes memory returnData) = address(vendingMachine).call(_extraData);\n\n        string memory revertMessage;\n        assembly {\n            // A revert message is ABI-encoded as a call to Error(string).\n            // Slicing the Error() signature (4 bytes) and Data offset (4 bytes)\n            // leaves us with a pre-encoded string.\n            // We also slice off the ABI-coded length of returnData (32).\n            revertMessage := add(returnData, 0x44)\n        }\n\n        require(success, revertMessage);\n    }\n}\n",
  "sourcePath": "/home/kowal/Projects/sovryn/tbtc/solidity/contracts/scripts/RedemptionScript.sol",
  "compiler": {
    "name": "solc",
    "version": "0.5.17+commit.d19bba13.Emscripten.clang"
  },
  "schemaVersion": "3.0.23",
  "updatedAt": "2021-02-01T14:48:54.250Z",
  "networkType": "ethereum",
  "devdoc": {
    "details": "Wrapper script for VendingMachine.tbtcToBtc This contract implements receiveApproval() and can therefore use approveAndCall(). This pattern combines TBTC Token approval and vendingMachine.tbtcToBtc() in a single transaction.",
    "methods": {
      "receiveApproval(address,uint256,address,bytes)": {
        "details": "Implements the approveAndCall receiver interface.",
        "params": {
          "_amount": "Approved TBTC amount for the transfer.",
          "_extraData": "Encoded function call to `VendingMachine.tbtcToBtc`.",
          "_from": "The owner of the token who approved them for transfer."
        }
      }
    }
  },
  "userdoc": {
    "methods": {
      "receiveApproval(address,uint256,address,bytes)": {
        "notice": "Receives approval for a TBTC transfer, and calls `VendingMachine.tbtcToBtc` for a user."
      }
    },
    "notice": "A one-click script for redeeming TBTC into BTC."
  }
}