{
  "contractName": "SatWeiPriceFeed",
  "abi": [
    {
      "inputs": [],
      "payable": false,
      "stateMutability": "nonpayable",
      "type": "constructor"
    },
    {
      "anonymous": false,
      "inputs": [
        {
          "indexed": true,
          "internalType": "address",
          "name": "previousOwner",
          "type": "address"
        },
        {
          "indexed": true,
          "internalType": "address",
          "name": "newOwner",
          "type": "address"
        }
      ],
      "name": "OwnershipTransferred",
      "type": "event"
    },
    {
      "constant": true,
      "inputs": [],
      "name": "isOwner",
      "outputs": [
        {
          "internalType": "bool",
          "name": "",
          "type": "bool"
        }
      ],
      "payable": false,
      "stateMutability": "view",
      "type": "function"
    },
    {
      "constant": true,
      "inputs": [],
      "name": "owner",
      "outputs": [
        {
          "internalType": "address",
          "name": "",
          "type": "address"
        }
      ],
      "payable": false,
      "stateMutability": "view",
      "type": "function"
    },
    {
      "constant": false,
      "inputs": [],
      "name": "renounceOwnership",
      "outputs": [],
      "payable": false,
      "stateMutability": "nonpayable",
      "type": "function"
    },
    {
      "constant": false,
      "inputs": [
        {
          "internalType": "address",
          "name": "newOwner",
          "type": "address"
        }
      ],
      "name": "transferOwnership",
      "outputs": [],
      "payable": false,
      "stateMutability": "nonpayable",
      "type": "function"
    },
    {
      "constant": false,
      "inputs": [
        {
          "internalType": "address",
          "name": "_tbtcSystemAddress",
          "type": "address"
        },
        {
          "internalType": "address",
          "name": "_SOVBTCPriceFeed",
          "type": "address"
        }
      ],
      "name": "initialize",
      "outputs": [],
      "payable": false,
      "stateMutability": "nonpayable",
      "type": "function"
    },
    {
      "constant": true,
      "inputs": [],
      "name": "getPrice",
      "outputs": [
        {
          "internalType": "uint256",
          "name": "",
          "type": "uint256"
        }
      ],
      "payable": false,
      "stateMutability": "view",
      "type": "function"
    },
    {
      "constant": false,
      "inputs": [
        {
          "internalType": "address",
          "name": "_SOVBTCPriceFeed",
          "type": "address"
        }
      ],
      "name": "setOracleAddress",
      "outputs": [],
      "payable": false,
      "stateMutability": "nonpayable",
      "type": "function"
    }
  ],
  "bytecode": "0x60806040526000805460ff60a01b1916905534801561001d57600080fd5b50600080546001600160a01b03191633178082556040516001600160a01b039190911691907f8be0079c531659141344cd1fd0a4f28419497f9722a3daafe3b4186f6b6457e0908290a36105f3806100766000396000f3fe608060405234801561001057600080fd5b506004361061007d5760003560e01c80638da5cb5b1161005b5780638da5cb5b146100e05780638f32d59b1461010457806398d5fdca14610120578063f2fde38b1461013a5761007d565b8063485cc955146100825780634c69c00f146100b2578063715018a6146100d8575b600080fd5b6100b06004803603604081101561009857600080fd5b506001600160a01b0381358116916020013516610160565b005b6100b0600480360360208110156100c857600080fd5b50356001600160a01b031661023e565b6100b06102a7565b6100e8610338565b604080516001600160a01b039092168252519081900360200190f35b61010c610347565b604080519115158252519081900360200190f35b610128610358565b60408051918252519081900360200190f35b6100b06004803603602081101561015057600080fd5b50356001600160a01b0316610463565b610168610347565b6101a7576040805162461bcd60e51b8152602060048201819052602482015260008051602061059f833981519152604482015290519081900360640190fd5b600054600160a01b900460ff16156101fd576040805162461bcd60e51b815260206004820152601460248201527320b63932b0b23c9034b734ba34b0b634bd32b21760611b604482015290519081900360640190fd5b600180546001600160a01b039384166001600160a01b031991821617909155600280549290931691161790556000805460ff60a01b1916600160a01b179055565b610246610347565b610285576040805162461bcd60e51b8152602060048201819052602482015260008051602061059f833981519152604482015290519081900360640190fd5b600280546001600160a01b0319166001600160a01b0392909216919091179055565b6102af610347565b6102ee576040805162461bcd60e51b8152602060048201819052602482015260008051602061059f833981519152604482015290519081900360640190fd5b600080546040516001600160a01b03909116907f8be0079c531659141344cd1fd0a4f28419497f9722a3daafe3b4186f6b6457e0908390a3600080546001600160a01b0319169055565b6000546001600160a01b031690565b6000546001600160a01b0316331490565b6001546000906001600160a01b031633146103a45760405162461bcd60e51b815260040180806020018281038252602281526020018061057d6022913960400191505060405180910390fd5b600254604080516350d25bcd60e01b815290516000926001600160a01b0316916350d25bcd916004808301926020929190829003018186803b1580156103e957600080fd5b505afa1580156103fd573d6000803e3d6000fd5b505050506040513d602081101561041357600080fd5b505190508061045e576040805162461bcd60e51b815260206004820152601260248201527150726963652066656564206f66666c696e6560701b604482015290519081900360640190fd5b905090565b61046b610347565b6104aa576040805162461bcd60e51b8152602060048201819052602482015260008051602061059f833981519152604482015290519081900360640190fd5b6104b3816104b6565b50565b6001600160a01b0381166104fb5760405162461bcd60e51b81526004018080602001828103825260268152602001806105576026913960400191505060405180910390fd5b600080546040516001600160a01b03808516939216917f8be0079c531659141344cd1fd0a4f28419497f9722a3daafe3b4186f6b6457e091a3600080546001600160a01b0319166001600160a01b039290921691909117905556fe4f776e61626c653a206e6577206f776e657220697320746865207a65726f206164647265737343616c6c6572206d757374206265207462746353797374656d20636f6e74726163744f776e61626c653a2063616c6c6572206973206e6f7420746865206f776e6572a265627a7a723158209af14fa68304b5e3e8751102a2690b3155a7ed4dc444577e0282bce93d4f260964736f6c63430005110032",
  "source": "pragma solidity 0.5.17;\n\nimport {SafeMath} from \"openzeppelin-solidity/contracts/math/SafeMath.sol\";\nimport \"openzeppelin-solidity/contracts/ownership/Ownable.sol\";\nimport \"../external/PriceOracle.sol\";\nimport \"../interfaces/ISatWeiPriceFeed.sol\";\n\n/// @notice satoshi/wei price feed.\n/// @dev Used ETH/USD medianizer values converted to sat/wei.\ncontract SatWeiPriceFeed is Ownable, ISatWeiPriceFeed {\n    using SafeMath for uint256;\n\n    bool private _initialized = false;\n    address internal tbtcSystemAddress;\n\n    PriceOracle private priceFeed;\n\n    constructor() public {\n        // solium-disable-previous-line no-empty-blocks\n    }\n\n    /// @notice Initialises the addresses of the ETHBTC price feeds.\n    /// @param _tbtcSystemAddress Address of the `TBTCSystem` contract. Used for access control.\n    /// @param _SOVBTCPriceFeed The SOVBTC price feed address.\n    function initialize(address _tbtcSystemAddress, address _SOVBTCPriceFeed)\n        external\n        onlyOwner\n    {\n        require(!_initialized, \"Already initialized.\");\n        tbtcSystemAddress = _tbtcSystemAddress;\n        priceFeed = PriceOracle(_SOVBTCPriceFeed);\n        _initialized = true;\n    }\n\n    /// @notice Get the current price of 1 BTC in usd.\n    /// @dev This does not account for any 'Flippening' event.\n    /// @return The price of one BTC in usd.\n    function getPrice() external view onlyTbtcSystem returns (uint256) {\n        int256 price = priceFeed.latestAnswer();\n\n        require(price != 0, \"Price feed offline\");\n        return uint256(price);\n    }\n\n    function setOracleAddress(address _SOVBTCPriceFeed)\n        external\n        onlyOwner\n    {\n        priceFeed = PriceOracle(_SOVBTCPriceFeed);\n    }\n\n    /// @notice Function modifier ensures modified function is only called by tbtcSystemAddress.\n    modifier onlyTbtcSystem() {\n        require(\n            msg.sender == tbtcSystemAddress,\n            \"Caller must be tbtcSystem contract\"\n        );\n        _;\n    }\n}\n",
  "sourcePath": "/home/kowal/Projects/sovryn/tbtc/solidity/contracts/price-feed/SatWeiPriceFeed.sol",
  "compiler": {
    "name": "solc",
    "version": "0.5.17+commit.d19bba13.Emscripten.clang"
  },
  "schemaVersion": "3.0.23",
  "updatedAt": "2021-02-01T14:52:37.599Z",
  "networkType": "ethereum",
  "devdoc": {
    "details": "Used ETH/USD medianizer values converted to sat/wei.",
    "methods": {
      "getPrice()": {
        "details": "This does not account for any 'Flippening' event.",
        "return": "The price of one BTC in usd."
      },
      "initialize(address,address)": {
        "params": {
          "_SOVBTCPriceFeed": "The SOVBTC price feed address.",
          "_tbtcSystemAddress": "Address of the `TBTCSystem` contract. Used for access control."
        }
      },
      "isOwner()": {
        "details": "Returns true if the caller is the current owner."
      },
      "owner()": {
        "details": "Returns the address of the current owner."
      },
      "renounceOwnership()": {
        "details": "Leaves the contract without owner. It will not be possible to call `onlyOwner` functions anymore. Can only be called by the current owner.     * > Note: Renouncing ownership will leave the contract without an owner, thereby removing any functionality that is only available to the owner."
      },
      "transferOwnership(address)": {
        "details": "Transfers ownership of the contract to a new account (`newOwner`). Can only be called by the current owner."
      }
    }
  },
  "userdoc": {
    "methods": {
      "getPrice()": {
        "notice": "Get the current price of 1 BTC in usd."
      },
      "initialize(address,address)": {
        "notice": "Initialises the addresses of the ETHBTC price feeds."
      }
    },
    "notice": "satoshi/wei price feed."
  }
}