{
  "contractName": "TBTCConstants",
  "abi": [
    {
      "constant": true,
      "inputs": [],
      "name": "AUCTION_DURATION",
      "outputs": [
        {
          "internalType": "uint256",
          "name": "",
          "type": "uint256"
        }
      ],
      "payable": false,
      "stateMutability": "view",
      "type": "function"
    },
    {
      "constant": true,
      "inputs": [],
      "name": "BENEFICIARY_FEE_DIVISOR",
      "outputs": [
        {
          "internalType": "uint256",
          "name": "",
          "type": "uint256"
        }
      ],
      "payable": false,
      "stateMutability": "view",
      "type": "function"
    },
    {
      "constant": true,
      "inputs": [],
      "name": "COURTESY_CALL_DURATION",
      "outputs": [
        {
          "internalType": "uint256",
          "name": "",
          "type": "uint256"
        }
      ],
      "payable": false,
      "stateMutability": "view",
      "type": "function"
    },
    {
      "constant": true,
      "inputs": [],
      "name": "DEPOSIT_TERM_LENGTH",
      "outputs": [
        {
          "internalType": "uint256",
          "name": "",
          "type": "uint256"
        }
      ],
      "payable": false,
      "stateMutability": "view",
      "type": "function"
    },
    {
      "constant": true,
      "inputs": [],
      "name": "FORMATION_TIMEOUT",
      "outputs": [
        {
          "internalType": "uint256",
          "name": "",
          "type": "uint256"
        }
      ],
      "payable": false,
      "stateMutability": "view",
      "type": "function"
    },
    {
      "constant": true,
      "inputs": [],
      "name": "FUNDING_PROOF_TIMEOUT",
      "outputs": [
        {
          "internalType": "uint256",
          "name": "",
          "type": "uint256"
        }
      ],
      "payable": false,
      "stateMutability": "view",
      "type": "function"
    },
    {
      "constant": true,
      "inputs": [],
      "name": "INCREASE_FEE_TIMER",
      "outputs": [
        {
          "internalType": "uint256",
          "name": "",
          "type": "uint256"
        }
      ],
      "payable": false,
      "stateMutability": "view",
      "type": "function"
    },
    {
      "constant": true,
      "inputs": [],
      "name": "MINIMUM_REDEMPTION_FEE",
      "outputs": [
        {
          "internalType": "uint256",
          "name": "",
          "type": "uint256"
        }
      ],
      "payable": false,
      "stateMutability": "view",
      "type": "function"
    },
    {
      "constant": true,
      "inputs": [],
      "name": "REDEMPTION_PROOF_TIMEOUT",
      "outputs": [
        {
          "internalType": "uint256",
          "name": "",
          "type": "uint256"
        }
      ],
      "payable": false,
      "stateMutability": "view",
      "type": "function"
    },
    {
      "constant": true,
      "inputs": [],
      "name": "REDEMPTION_SIGNATURE_TIMEOUT",
      "outputs": [
        {
          "internalType": "uint256",
          "name": "",
          "type": "uint256"
        }
      ],
      "payable": false,
      "stateMutability": "view",
      "type": "function"
    },
    {
      "constant": true,
      "inputs": [],
      "name": "SATOSHI_MULTIPLIER",
      "outputs": [
        {
          "internalType": "uint256",
          "name": "",
          "type": "uint256"
        }
      ],
      "payable": false,
      "stateMutability": "view",
      "type": "function"
    },
    {
      "constant": true,
      "inputs": [],
      "name": "TX_PROOF_DIFFICULTY_FACTOR",
      "outputs": [
        {
          "internalType": "uint256",
          "name": "",
          "type": "uint256"
        }
      ],
      "payable": false,
      "stateMutability": "view",
      "type": "function"
    },
    {
      "constant": true,
      "inputs": [],
      "name": "getBeneficiaryRewardDivisor",
      "outputs": [
        {
          "internalType": "uint256",
          "name": "",
          "type": "uint256"
        }
      ],
      "payable": false,
      "stateMutability": "pure",
      "type": "function"
    },
    {
      "constant": true,
      "inputs": [],
      "name": "getSatoshiMultiplier",
      "outputs": [
        {
          "internalType": "uint256",
          "name": "",
          "type": "uint256"
        }
      ],
      "payable": false,
      "stateMutability": "pure",
      "type": "function"
    },
    {
      "constant": true,
      "inputs": [],
      "name": "getDepositTerm",
      "outputs": [
        {
          "internalType": "uint256",
          "name": "",
          "type": "uint256"
        }
      ],
      "payable": false,
      "stateMutability": "pure",
      "type": "function"
    },
    {
      "constant": true,
      "inputs": [],
      "name": "getTxProofDifficultyFactor",
      "outputs": [
        {
          "internalType": "uint256",
          "name": "",
          "type": "uint256"
        }
      ],
      "payable": false,
      "stateMutability": "pure",
      "type": "function"
    },
    {
      "constant": true,
      "inputs": [],
      "name": "getSignatureTimeout",
      "outputs": [
        {
          "internalType": "uint256",
          "name": "",
          "type": "uint256"
        }
      ],
      "payable": false,
      "stateMutability": "pure",
      "type": "function"
    },
    {
      "constant": true,
      "inputs": [],
      "name": "getIncreaseFeeTimer",
      "outputs": [
        {
          "internalType": "uint256",
          "name": "",
          "type": "uint256"
        }
      ],
      "payable": false,
      "stateMutability": "pure",
      "type": "function"
    },
    {
      "constant": true,
      "inputs": [],
      "name": "getRedemptionProofTimeout",
      "outputs": [
        {
          "internalType": "uint256",
          "name": "",
          "type": "uint256"
        }
      ],
      "payable": false,
      "stateMutability": "pure",
      "type": "function"
    },
    {
      "constant": true,
      "inputs": [],
      "name": "getMinimumRedemptionFee",
      "outputs": [
        {
          "internalType": "uint256",
          "name": "",
          "type": "uint256"
        }
      ],
      "payable": false,
      "stateMutability": "pure",
      "type": "function"
    },
    {
      "constant": true,
      "inputs": [],
      "name": "getFundingTimeout",
      "outputs": [
        {
          "internalType": "uint256",
          "name": "",
          "type": "uint256"
        }
      ],
      "payable": false,
      "stateMutability": "pure",
      "type": "function"
    },
    {
      "constant": true,
      "inputs": [],
      "name": "getSigningGroupFormationTimeout",
      "outputs": [
        {
          "internalType": "uint256",
          "name": "",
          "type": "uint256"
        }
      ],
      "payable": false,
      "stateMutability": "pure",
      "type": "function"
    },
    {
      "constant": true,
      "inputs": [],
      "name": "getCourtesyCallTimeout",
      "outputs": [
        {
          "internalType": "uint256",
          "name": "",
          "type": "uint256"
        }
      ],
      "payable": false,
      "stateMutability": "pure",
      "type": "function"
    },
    {
      "constant": true,
      "inputs": [],
      "name": "getAuctionDuration",
      "outputs": [
        {
          "internalType": "uint256",
          "name": "",
          "type": "uint256"
        }
      ],
      "payable": false,
      "stateMutability": "pure",
      "type": "function"
    }
  ],
  "bytecode": "0x6102cc610026600b82828239805160001a60731461001957fe5b30600052607381538281f3fe73000000000000000000000000000000000000000030146080604052600436106101625760003560e01c80639b3fd99f116100cd578063c342b1f711610086578063c342b1f714610199578063c7ba0347146101f9578063d565d1f114610201578063d891dcdb14610209578063f653c0b914610211578063fc94f1d6146101e957610162565b80639b3fd99f146101d1578063a1f6c639146101d9578063a271e525146101e1578063a99b528314610189578063ac8bfdad146101e9578063ae9eb127146101f157610162565b80635b6b452a1161011f5780635b6b452a146101a95780636da1dda2146101b1578063741b5e4c146101b957806378cb51af146101c157806386322af7146101c95780639887426d146101a157610162565b806302b7044b146101675780630a913dea1461018157806312aeac8314610189578063242c0ed01461019157806338c86093146101995780635480b4b2146101a1575b600080fd5b61016f610219565b60408051918252519081900360200190f35b61016f61021e565b61016f610225565b61016f61022b565b61016f610231565b61016f610237565b61016f61023d565b61016f610243565b61016f610249565b61016f61024e565b61016f610255565b61016f61025a565b61016f61025f565b61016f610265565b61016f61026c565b61016f610272565b61016f61027b565b61016f610284565b61016f61028b565b61016f610291565b600181565b62ed4e0081565b612a3081565b61384081565b612a3090565b61546090565b611c2081565b6103e881565b609681565b6201518090565b609690565b600190565b6103e890565b6201518081565b61546081565b6402540be40090565b6402540be40081565b62ed4e0090565b611c2090565b6138409056fea265627a7a723158209d151140efe899abf4c72b53ec070ae0c7961b3b92236c176e18775fbb9b6b2c64736f6c63430005110032",
  "source": "pragma solidity 0.5.17;\n\n/// @title TBTCDevelopmentConstants\n/// @notice Constants for development testnet usages; tuned for testing and\n///         faster iteration rather than security. These should NOT be deployed\n///         on mainnet or mainnet-like (\"staging\") environments.\nlibrary TBTCDevelopmentConstants {\n    // This is intended to make it easy to update system params\n    // During testing swap this out with another constats contract\n\n    // System Parameters\n    uint256 public constant BENEFICIARY_FEE_DIVISOR = 1000;  // 1/1000 = 10 bps = 0.1% = 0.001\n    uint256 public constant SATOSHI_MULTIPLIER = 10 ** 10; // multiplier to convert satoshi to TBTC token units\n    uint256 public constant DEPOSIT_TERM_LENGTH = 180 * 24 * 60 * 60; // 180 days in seconds\n    uint256 public constant TX_PROOF_DIFFICULTY_FACTOR = 1; // confirmations on the Bitcoin chain\n\n    // Redemption Flow\n    uint256 public constant REDEMPTION_SIGNATURE_TIMEOUT = 2 * 60 * 60;  // seconds\n    uint256 public constant INCREASE_FEE_TIMER = 4 * 60 * 60;  // seconds\n    uint256 public constant REDEMPTION_PROOF_TIMEOUT = 6 * 60 * 60;  // seconds\n    uint256 public constant MINIMUM_REDEMPTION_FEE = 150; // satoshi\n\n    // Funding Flow\n    uint256 public constant FUNDING_PROOF_TIMEOUT = 3 * 60 * 60; // seconds\n    uint256 public constant FORMATION_TIMEOUT = 3 * 60 * 60; // seconds\n\n    // Liquidation Flow\n    uint256 public constant COURTESY_CALL_DURATION = 6 * 60 * 60; // seconds\n    uint256 public constant AUCTION_DURATION = 24 * 60 * 60; // seconds\n\n    // Getters for easy access\n    function getBeneficiaryRewardDivisor() external pure returns (uint256) { return BENEFICIARY_FEE_DIVISOR; }\n    function getSatoshiMultiplier() external pure returns (uint256) { return SATOSHI_MULTIPLIER; }\n    function getDepositTerm() external pure returns (uint256) { return DEPOSIT_TERM_LENGTH; }\n    function getTxProofDifficultyFactor() external pure returns (uint256) { return TX_PROOF_DIFFICULTY_FACTOR; }\n\n    function getSignatureTimeout() external pure returns (uint256) { return REDEMPTION_SIGNATURE_TIMEOUT; }\n    function getIncreaseFeeTimer() external pure returns (uint256) { return INCREASE_FEE_TIMER; }\n    function getRedemptionProofTimeout() external pure returns (uint256) { return REDEMPTION_PROOF_TIMEOUT; }\n    function getMinimumRedemptionFee() external pure returns (uint256) { return MINIMUM_REDEMPTION_FEE; }\n\n    function getFundingTimeout() external pure returns (uint256) { return FUNDING_PROOF_TIMEOUT; }\n    function getSigningGroupFormationTimeout() external pure returns (uint256) { return FORMATION_TIMEOUT; }\n\n    function getCourtesyCallTimeout() external pure returns (uint256) { return COURTESY_CALL_DURATION; }\n    function getAuctionDuration() external pure returns (uint256) { return AUCTION_DURATION; }\n}\n",
  "sourcePath": "/Users/konrad/Desktop/rumble/fin/local-setup/tbtc/solidity/contracts/system/TBTCDevelopmentConstants.sol",
  "compiler": {
    "name": "solc",
    "version": "0.5.17+commit.d19bba13.Emscripten.clang"
  },
  "schemaVersion": "3.3.4",
  "updatedAt": "2021-04-30T09:57:27.719Z",
  "networkType": "ethereum",
  "devdoc": {
    "methods": {},
    "title": "TBTCDevelopmentConstants"
  },
  "userdoc": {
    "methods": {},
    "notice": "Constants for development testnet usages; tuned for testing and         faster iteration rather than security. These should NOT be deployed         on mainnet or mainnet-like (\"staging\") environments."
  }
}