{
  "contractName": "TBTCToken",
  "abi": [
    {
      "inputs": [
        {
          "internalType": "address",
          "name": "_VendingMachine",
          "type": "address"
        }
      ],
      "payable": false,
      "stateMutability": "nonpayable",
      "type": "constructor"
    },
    {
      "anonymous": false,
      "inputs": [
        {
          "indexed": true,
          "internalType": "address",
          "name": "owner",
          "type": "address"
        },
        {
          "indexed": true,
          "internalType": "address",
          "name": "spender",
          "type": "address"
        },
        {
          "indexed": false,
          "internalType": "uint256",
          "name": "value",
          "type": "uint256"
        }
      ],
      "name": "Approval",
      "type": "event"
    },
    {
      "anonymous": false,
      "inputs": [
        {
          "indexed": true,
          "internalType": "address",
          "name": "from",
          "type": "address"
        },
        {
          "indexed": true,
          "internalType": "address",
          "name": "to",
          "type": "address"
        },
        {
          "indexed": false,
          "internalType": "uint256",
          "name": "value",
          "type": "uint256"
        }
      ],
      "name": "Transfer",
      "type": "event"
    },
    {
      "constant": true,
      "inputs": [
        {
          "internalType": "address",
          "name": "owner",
          "type": "address"
        },
        {
          "internalType": "address",
          "name": "spender",
          "type": "address"
        }
      ],
      "name": "allowance",
      "outputs": [
        {
          "internalType": "uint256",
          "name": "",
          "type": "uint256"
        }
      ],
      "payable": false,
      "stateMutability": "view",
      "type": "function"
    },
    {
      "constant": false,
      "inputs": [
        {
          "internalType": "address",
          "name": "spender",
          "type": "address"
        },
        {
          "internalType": "uint256",
          "name": "value",
          "type": "uint256"
        }
      ],
      "name": "approve",
      "outputs": [
        {
          "internalType": "bool",
          "name": "",
          "type": "bool"
        }
      ],
      "payable": false,
      "stateMutability": "nonpayable",
      "type": "function"
    },
    {
      "constant": true,
      "inputs": [
        {
          "internalType": "address",
          "name": "account",
          "type": "address"
        }
      ],
      "name": "balanceOf",
      "outputs": [
        {
          "internalType": "uint256",
          "name": "",
          "type": "uint256"
        }
      ],
      "payable": false,
      "stateMutability": "view",
      "type": "function"
    },
    {
      "constant": true,
      "inputs": [],
      "name": "decimals",
      "outputs": [
        {
          "internalType": "uint8",
          "name": "",
          "type": "uint8"
        }
      ],
      "payable": false,
      "stateMutability": "view",
      "type": "function"
    },
    {
      "constant": false,
      "inputs": [
        {
          "internalType": "address",
          "name": "spender",
          "type": "address"
        },
        {
          "internalType": "uint256",
          "name": "subtractedValue",
          "type": "uint256"
        }
      ],
      "name": "decreaseAllowance",
      "outputs": [
        {
          "internalType": "bool",
          "name": "",
          "type": "bool"
        }
      ],
      "payable": false,
      "stateMutability": "nonpayable",
      "type": "function"
    },
    {
      "constant": false,
      "inputs": [
        {
          "internalType": "address",
          "name": "spender",
          "type": "address"
        },
        {
          "internalType": "uint256",
          "name": "addedValue",
          "type": "uint256"
        }
      ],
      "name": "increaseAllowance",
      "outputs": [
        {
          "internalType": "bool",
          "name": "",
          "type": "bool"
        }
      ],
      "payable": false,
      "stateMutability": "nonpayable",
      "type": "function"
    },
    {
      "constant": true,
      "inputs": [],
      "name": "name",
      "outputs": [
        {
          "internalType": "string",
          "name": "",
          "type": "string"
        }
      ],
      "payable": false,
      "stateMutability": "view",
      "type": "function"
    },
    {
      "constant": true,
      "inputs": [],
      "name": "symbol",
      "outputs": [
        {
          "internalType": "string",
          "name": "",
          "type": "string"
        }
      ],
      "payable": false,
      "stateMutability": "view",
      "type": "function"
    },
    {
      "constant": true,
      "inputs": [],
      "name": "totalSupply",
      "outputs": [
        {
          "internalType": "uint256",
          "name": "",
          "type": "uint256"
        }
      ],
      "payable": false,
      "stateMutability": "view",
      "type": "function"
    },
    {
      "constant": false,
      "inputs": [
        {
          "internalType": "address",
          "name": "recipient",
          "type": "address"
        },
        {
          "internalType": "uint256",
          "name": "amount",
          "type": "uint256"
        }
      ],
      "name": "transfer",
      "outputs": [
        {
          "internalType": "bool",
          "name": "",
          "type": "bool"
        }
      ],
      "payable": false,
      "stateMutability": "nonpayable",
      "type": "function"
    },
    {
      "constant": false,
      "inputs": [
        {
          "internalType": "address",
          "name": "sender",
          "type": "address"
        },
        {
          "internalType": "address",
          "name": "recipient",
          "type": "address"
        },
        {
          "internalType": "uint256",
          "name": "amount",
          "type": "uint256"
        }
      ],
      "name": "transferFrom",
      "outputs": [
        {
          "internalType": "bool",
          "name": "",
          "type": "bool"
        }
      ],
      "payable": false,
      "stateMutability": "nonpayable",
      "type": "function"
    },
    {
      "constant": false,
      "inputs": [
        {
          "internalType": "address",
          "name": "_account",
          "type": "address"
        },
        {
          "internalType": "uint256",
          "name": "_amount",
          "type": "uint256"
        }
      ],
      "name": "mint",
      "outputs": [
        {
          "internalType": "bool",
          "name": "",
          "type": "bool"
        }
      ],
      "payable": false,
      "stateMutability": "nonpayable",
      "type": "function"
    },
    {
      "constant": false,
      "inputs": [
        {
          "internalType": "address",
          "name": "_account",
          "type": "address"
        },
        {
          "internalType": "uint256",
          "name": "_amount",
          "type": "uint256"
        }
      ],
      "name": "burnFrom",
      "outputs": [],
      "payable": false,
      "stateMutability": "nonpayable",
      "type": "function"
    },
    {
      "constant": false,
      "inputs": [
        {
          "internalType": "uint256",
          "name": "_amount",
          "type": "uint256"
        }
      ],
      "name": "burn",
      "outputs": [],
      "payable": false,
      "stateMutability": "nonpayable",
      "type": "function"
    },
    {
      "constant": false,
      "inputs": [
        {
          "internalType": "contract ITokenRecipient",
          "name": "_spender",
          "type": "address"
        },
        {
          "internalType": "uint256",
          "name": "_value",
          "type": "uint256"
        },
        {
          "internalType": "bytes",
          "name": "_extraData",
          "type": "bytes"
        }
      ],
      "name": "approveAndCall",
      "outputs": [
        {
          "internalType": "bool",
          "name": "",
          "type": "bool"
        }
      ],
      "payable": false,
      "stateMutability": "nonpayable",
      "type": "function"
    }
  ],
  "bytecode": "0x608060405234801561001057600080fd5b50604051610f66380380610f668339818101604052602081101561003357600080fd5b50516040805180820182526004808252637442544360e01b60208381019182528451808601909552918452635442544360e01b918401919091528151849391601291610081916000916100d2565b5081516100959060019060208501906100d2565b506002805460ff191660ff929092169190911790555050600680546001600160a01b0319166001600160a01b03929092169190911790555061016d565b828054600181600116156101000203166002900490600052602060002090601f016020900481019282601f1061011357805160ff1916838001178555610140565b82800160010185558215610140579182015b82811115610140578251825591602001919060010190610125565b5061014c929150610150565b5090565b61016a91905b8082111561014c5760008155600101610156565b90565b610dea8061017c6000396000f3fe608060405234801561001057600080fd5b50600436106100f55760003560e01c806342966c6811610097578063a457c2d711610066578063a457c2d7146102f6578063a9059cbb14610322578063cae9ca511461034e578063dd62ed3e14610409576100f5565b806342966c681461027d57806370a082311461029c57806379cc6790146102c257806395d89b41146102ee576100f5565b806323b872dd116100d357806323b872dd146101d1578063313ce56714610207578063395093511461022557806340c10f1914610251576100f5565b806306fdde03146100fa578063095ea7b31461017757806318160ddd146101b7575b600080fd5b610102610437565b6040805160208082528351818301528351919283929083019185019080838360005b8381101561013c578181015183820152602001610124565b50505050905090810190601f1680156101695780820380516001836020036101000a031916815260200191505b509250505060405180910390f35b6101a36004803603604081101561018d57600080fd5b506001600160a01b0381351690602001356104cd565b604080519115158252519081900360200190f35b6101bf6104e3565b60408051918252519081900360200190f35b6101a3600480360360608110156101e757600080fd5b506001600160a01b038135811691602081013590911690604001356104e9565b61020f610541565b6040805160ff9092168252519081900360200190f35b6101a36004803603604081101561023b57600080fd5b506001600160a01b03813516906020013561054a565b6101a36004803603604081101561026757600080fd5b506001600160a01b038135169060200135610586565b61029a6004803603602081101561029357600080fd5b50356105dc565b005b6101bf600480360360208110156102b257600080fd5b50356001600160a01b03166105e9565b61029a600480360360408110156102d857600080fd5b506001600160a01b038135169060200135610604565b610102610612565b6101a36004803603604081101561030c57600080fd5b506001600160a01b038135169060200135610672565b6101a36004803603604081101561033857600080fd5b506001600160a01b0381351690602001356106ae565b6101a36004803603606081101561036457600080fd5b6001600160a01b038235169160208101359181019060608101604082013564010000000081111561039457600080fd5b8201836020820111156103a657600080fd5b803590602001918460018302840111640100000000831117156103c857600080fd5b91908080601f0160208091040260200160405190810160405280939291908181526020018383808284376000920191909152509295506106bb945050505050565b6101bf6004803603604081101561041f57600080fd5b506001600160a01b03813581169160200135166107c0565b60008054604080516020601f60026000196101006001881615020190951694909404938401819004810282018101909252828152606093909290918301828280156104c35780601f10610498576101008083540402835291602001916104c3565b820191906000526020600020905b8154815290600101906020018083116104a657829003601f168201915b5050505050905090565b60006104da3384846107eb565b50600192915050565b60055490565b60006104f68484846108d7565b6001600160a01b038416600090815260046020908152604080832033808552925290912054610536918691610531908663ffffffff610a1b16565b6107eb565b5060015b9392505050565b60025460ff1690565b3360008181526004602090815260408083206001600160a01b038716845290915281205490916104da918590610531908663ffffffff610a7816565b6006546000906001600160a01b031633146105d25760405162461bcd60e51b8152600401808060200182810382526022815260200180610ce56022913960400191505060405180910390fd5b6104da8383610ad2565b6105e63382610bc4565b50565b6001600160a01b031660009081526003602052604090205490565b61060e8282610c9f565b5050565b60018054604080516020601f600260001961010087891615020190951694909404938401819004810282018101909252828152606093909290918301828280156104c35780601f10610498576101008083540402835291602001916104c3565b3360008181526004602090815260408083206001600160a01b038716845290915281205490916104da918590610531908663ffffffff610a1b16565b60006104da3384846108d7565b60006106c784846104cd565b156107b657604051638f4ffcb160e01b815233600482018181526024830186905230604484018190526080606485019081528651608486015286516001600160a01b038a1695638f4ffcb195948a94938a939192909160a490910190602085019080838360005b8381101561074657818101518382015260200161072e565b50505050905090810190601f1680156107735780820380516001836020036101000a031916815260200191505b5095505050505050600060405180830381600087803b15801561079557600080fd5b505af11580156107a9573d6000803e3d6000fd5b505050506001905061053a565b5060009392505050565b6001600160a01b03918216600090815260046020908152604080832093909416825291909152205490565b6001600160a01b0383166108305760405162461bcd60e51b8152600401808060200182810382526024815260200180610d926024913960400191505060405180910390fd5b6001600160a01b0382166108755760405162461bcd60e51b8152600401808060200182810382526022815260200180610d2a6022913960400191505060405180910390fd5b6001600160a01b03808416600081815260046020908152604080832094871680845294825291829020859055815185815291517f8c5be1e5ebec7d5bd14f71427d1e84f3dd0314c0f7b2291e5b200ac8c7c3b9259281900390910190a3505050565b6001600160a01b03831661091c5760405162461bcd60e51b8152600401808060200182810382526025815260200180610d6d6025913960400191505060405180910390fd5b6001600160a01b0382166109615760405162461bcd60e51b8152600401808060200182810382526023815260200180610d076023913960400191505060405180910390fd5b6001600160a01b03831660009081526003602052604090205461098a908263ffffffff610a1b16565b6001600160a01b0380851660009081526003602052604080822093909355908416815220546109bf908263ffffffff610a7816565b6001600160a01b0380841660008181526003602090815260409182902094909455805185815290519193928716927fddf252ad1be2c89b69c2b068fc378daa952ba7f163c4a11628f55a4df523b3ef92918290030190a3505050565b600082821115610a72576040805162461bcd60e51b815260206004820152601e60248201527f536166654d6174683a207375627472616374696f6e206f766572666c6f770000604482015290519081900360640190fd5b50900390565b60008282018381101561053a576040805162461bcd60e51b815260206004820152601b60248201527f536166654d6174683a206164646974696f6e206f766572666c6f770000000000604482015290519081900360640190fd5b6001600160a01b038216610b2d576040805162461bcd60e51b815260206004820152601f60248201527f45524332303a206d696e7420746f20746865207a65726f206164647265737300604482015290519081900360640190fd5b600554610b40908263ffffffff610a7816565b6005556001600160a01b038216600090815260036020526040902054610b6c908263ffffffff610a7816565b6001600160a01b03831660008181526003602090815260408083209490945583518581529351929391927fddf252ad1be2c89b69c2b068fc378daa952ba7f163c4a11628f55a4df523b3ef9281900390910190a35050565b6001600160a01b038216610c095760405162461bcd60e51b8152600401808060200182810382526021815260200180610d4c6021913960400191505060405180910390fd5b600554610c1c908263ffffffff610a1b16565b6005556001600160a01b038216600090815260036020526040902054610c48908263ffffffff610a1b16565b6001600160a01b0383166000818152600360209081526040808320949094558351858152935191937fddf252ad1be2c89b69c2b068fc378daa952ba7f163c4a11628f55a4df523b3ef929081900390910190a35050565b610ca98282610bc4565b6001600160a01b03821660009081526004602090815260408083203380855292529091205461060e918491610531908563ffffffff610a1b1656fe63616c6c6572206d757374206265207468652076656e64696e67206d616368696e6545524332303a207472616e7366657220746f20746865207a65726f206164647265737345524332303a20617070726f766520746f20746865207a65726f206164647265737345524332303a206275726e2066726f6d20746865207a65726f206164647265737345524332303a207472616e736665722066726f6d20746865207a65726f206164647265737345524332303a20617070726f76652066726f6d20746865207a65726f2061646472657373a265627a7a723158206cf657dd862ac28de28d6d3d6da990bb656146ecd5c15cc125ac90b041e0592e64736f6c63430005110032",
  "source": "pragma solidity 0.5.17;\n\nimport {ERC20} from \"openzeppelin-solidity/contracts/token/ERC20/ERC20.sol\";\nimport {ERC20Detailed} from \"openzeppelin-solidity/contracts/token/ERC20/ERC20Detailed.sol\";\nimport {VendingMachineAuthority} from \"./VendingMachineAuthority.sol\";\nimport {ITokenRecipient} from \"../interfaces/ITokenRecipient.sol\";\n\n/// @title  TBTC Token.\n/// @notice This is the TBTC ERC20 contract.\n/// @dev    Tokens can only be minted by the `VendingMachine` contract.\ncontract TBTCToken is ERC20Detailed, ERC20, VendingMachineAuthority {\n    /// @dev Constructor, calls ERC20Detailed constructor to set Token info\n    ///      ERC20Detailed(TokenName, TokenSymbol, NumberOfDecimals)\n    constructor(address _VendingMachine)\n        ERC20Detailed(\"tBTC\", \"TBTC\", 18)\n        VendingMachineAuthority(_VendingMachine)\n    public {\n        // solium-disable-previous-line no-empty-blocks\n    }\n\n    /// @dev             Mints an amount of the token and assigns it to an account.\n    ///                  Uses the internal _mint function.\n    /// @param _account  The account that will receive the created tokens.\n    /// @param _amount   The amount of tokens that will be created.\n    function mint(address _account, uint256 _amount) external onlyVendingMachine returns (bool) {\n        // NOTE: this is a public function with unchecked minting. Only the\n        // vending machine is allowed to call it, and it is in charge of\n        // ensuring minting is permitted.\n        _mint(_account, _amount);\n        return true;\n    }\n\n    /// @dev             Burns an amount of the token from the given account's balance.\n    ///                  deducting from the sender's allowance for said account.\n    ///                  Uses the internal _burn function.\n    /// @param _account  The account whose tokens will be burnt.\n    /// @param _amount   The amount of tokens that will be burnt.\n    function burnFrom(address _account, uint256 _amount) external {\n        _burnFrom(_account, _amount);\n    }\n\n    /// @dev Destroys `amount` tokens from `msg.sender`, reducing the\n    /// total supply.\n    /// @param _amount   The amount of tokens that will be burnt.\n    function burn(uint256 _amount) external {\n        _burn(msg.sender, _amount);\n    }\n\n    /// @notice           Set allowance for other address and notify.\n    ///                   Allows `_spender` to spend no more than `_value`\n    ///                   tokens on your behalf and then ping the contract about\n    ///                   it.\n    /// @dev              The `_spender` should implement the `ITokenRecipient`\n    ///                   interface to receive approval notifications.\n    /// @param _spender   Address of contract authorized to spend.\n    /// @param _value     The max amount they can spend.\n    /// @param _extraData Extra information to send to the approved contract.\n    /// @return true if the `_spender` was successfully approved and acted on\n    ///         the approval, false (or revert) otherwise.\n    function approveAndCall(\n        ITokenRecipient _spender,\n        uint256 _value,\n        bytes memory _extraData\n    ) public returns (bool) { // not external to allow bytes memory parameters\n        if (approve(address(_spender), _value)) {\n            _spender.receiveApproval(msg.sender, _value, address(this), _extraData);\n            return true;\n        }\n        return false;\n    }\n}\n",
  "sourcePath": "/home/kowal/Projects/sovryn/tbtc/solidity/contracts/system/TBTCToken.sol",
  "compiler": {
    "name": "solc",
    "version": "0.5.17+commit.d19bba13.Emscripten.clang"
  },
  "schemaVersion": "3.0.23",
  "updatedAt": "2021-02-01T16:49:54.008Z",
  "networkType": "ethereum",
  "devdoc": {
    "details": "Tokens can only be minted by the `VendingMachine` contract.",
    "methods": {
      "allowance(address,address)": {
        "details": "See `IERC20.allowance`."
      },
      "approve(address,uint256)": {
        "details": "See `IERC20.approve`.     * Requirements:     * - `spender` cannot be the zero address."
      },
      "approveAndCall(address,uint256,bytes)": {
        "details": "The `_spender` should implement the `ITokenRecipient`                   interface to receive approval notifications.",
        "params": {
          "_extraData": "Extra information to send to the approved contract.",
          "_spender": "Address of contract authorized to spend.",
          "_value": "The max amount they can spend."
        },
        "return": "true if the `_spender` was successfully approved and acted on         the approval, false (or revert) otherwise."
      },
      "balanceOf(address)": {
        "details": "See `IERC20.balanceOf`."
      },
      "burn(uint256)": {
        "details": "Destroys `amount` tokens from `msg.sender`, reducing the total supply.",
        "params": {
          "_amount": "The amount of tokens that will be burnt."
        }
      },
      "burnFrom(address,uint256)": {
        "details": "Burns an amount of the token from the given account's balance.                  deducting from the sender's allowance for said account.                  Uses the internal _burn function.",
        "params": {
          "_account": "The account whose tokens will be burnt.",
          "_amount": "The amount of tokens that will be burnt."
        }
      },
      "constructor": {
        "details": "Constructor, calls ERC20Detailed constructor to set Token info      ERC20Detailed(TokenName, TokenSymbol, NumberOfDecimals)"
      },
      "decimals()": {
        "details": "Returns the number of decimals used to get its user representation. For example, if `decimals` equals `2`, a balance of `505` tokens should be displayed to a user as `5,05` (`505 / 10 ** 2`).     * Tokens usually opt for a value of 18, imitating the relationship between Ether and Wei.     * > Note that this information is only used for _display_ purposes: it in no way affects any of the arithmetic of the contract, including `IERC20.balanceOf` and `IERC20.transfer`."
      },
      "decreaseAllowance(address,uint256)": {
        "details": "Atomically decreases the allowance granted to `spender` by the caller.     * This is an alternative to `approve` that can be used as a mitigation for problems described in `IERC20.approve`.     * Emits an `Approval` event indicating the updated allowance.     * Requirements:     * - `spender` cannot be the zero address. - `spender` must have allowance for the caller of at least `subtractedValue`."
      },
      "increaseAllowance(address,uint256)": {
        "details": "Atomically increases the allowance granted to `spender` by the caller.     * This is an alternative to `approve` that can be used as a mitigation for problems described in `IERC20.approve`.     * Emits an `Approval` event indicating the updated allowance.     * Requirements:     * - `spender` cannot be the zero address."
      },
      "mint(address,uint256)": {
        "details": "Mints an amount of the token and assigns it to an account.                  Uses the internal _mint function.",
        "params": {
          "_account": "The account that will receive the created tokens.",
          "_amount": "The amount of tokens that will be created."
        }
      },
      "name()": {
        "details": "Returns the name of the token."
      },
      "symbol()": {
        "details": "Returns the symbol of the token, usually a shorter version of the name."
      },
      "totalSupply()": {
        "details": "See `IERC20.totalSupply`."
      },
      "transfer(address,uint256)": {
        "details": "See `IERC20.transfer`.     * Requirements:     * - `recipient` cannot be the zero address. - the caller must have a balance of at least `amount`."
      },
      "transferFrom(address,address,uint256)": {
        "details": "See `IERC20.transferFrom`.     * Emits an `Approval` event indicating the updated allowance. This is not required by the EIP. See the note at the beginning of `ERC20`;     * Requirements: - `sender` and `recipient` cannot be the zero address. - `sender` must have a balance of at least `value`. - the caller must have allowance for `sender`'s tokens of at least `amount`."
      }
    },
    "title": "TBTC Token."
  },
  "userdoc": {
    "methods": {
      "approveAndCall(address,uint256,bytes)": {
        "notice": "Set allowance for other address and notify.                   Allows `_spender` to spend no more than `_value`                   tokens on your behalf and then ping the contract about                   it."
      }
    },
    "notice": "This is the TBTC ERC20 contract."
  }
}