{
  "contractName": "TBTCSystemStub",
  "abi": [
    {
      "inputs": [
        {
          "internalType": "address",
          "name": "_priceFeed",
          "type": "address"
        },
        {
          "internalType": "address",
          "name": "_relay",
          "type": "address"
        }
      ],
      "payable": false,
      "stateMutability": "nonpayable",
      "type": "constructor"
    },
    {
      "anonymous": false,
      "inputs": [
        {
          "indexed": false,
          "internalType": "bool",
          "name": "_allowNewDeposits",
          "type": "bool"
        }
      ],
      "name": "AllowNewDepositsUpdated",
      "type": "event"
    },
    {
      "anonymous": false,
      "inputs": [
        {
          "indexed": false,
          "internalType": "uint16",
          "name": "_initialCollateralizedPercent",
          "type": "uint16"
        },
        {
          "indexed": false,
          "internalType": "uint16",
          "name": "_undercollateralizedThresholdPercent",
          "type": "uint16"
        },
        {
          "indexed": false,
          "internalType": "uint16",
          "name": "_severelyUndercollateralizedThresholdPercent",
          "type": "uint16"
        },
        {
          "indexed": false,
          "internalType": "uint256",
          "name": "_timestamp",
          "type": "uint256"
        }
      ],
      "name": "CollateralizationThresholdsUpdateStarted",
      "type": "event"
    },
    {
      "anonymous": false,
      "inputs": [
        {
          "indexed": false,
          "internalType": "uint16",
          "name": "_initialCollateralizedPercent",
          "type": "uint16"
        },
        {
          "indexed": false,
          "internalType": "uint16",
          "name": "_undercollateralizedThresholdPercent",
          "type": "uint16"
        },
        {
          "indexed": false,
          "internalType": "uint16",
          "name": "_severelyUndercollateralizedThresholdPercent",
          "type": "uint16"
        }
      ],
      "name": "CollateralizationThresholdsUpdated",
      "type": "event"
    },
    {
      "anonymous": false,
      "inputs": [
        {
          "indexed": true,
          "internalType": "address",
          "name": "_depositContractAddress",
          "type": "address"
        },
        {
          "indexed": false,
          "internalType": "uint256",
          "name": "_timestamp",
          "type": "uint256"
        }
      ],
      "name": "CourtesyCalled",
      "type": "event"
    },
    {
      "anonymous": false,
      "inputs": [
        {
          "indexed": true,
          "internalType": "address",
          "name": "_depositContractAddress",
          "type": "address"
        },
        {
          "indexed": true,
          "internalType": "address",
          "name": "_keepAddress",
          "type": "address"
        },
        {
          "indexed": false,
          "internalType": "uint256",
          "name": "_timestamp",
          "type": "uint256"
        }
      ],
      "name": "Created",
      "type": "event"
    },
    {
      "anonymous": false,
      "inputs": [
        {
          "indexed": false,
          "internalType": "address",
          "name": "_priceFeed",
          "type": "address"
        }
      ],
      "name": "EthBtcPriceFeedAdded",
      "type": "event"
    },
    {
      "anonymous": false,
      "inputs": [
        {
          "indexed": false,
          "internalType": "address",
          "name": "_priceFeed",
          "type": "address"
        },
        {
          "indexed": false,
          "internalType": "uint256",
          "name": "_timestamp",
          "type": "uint256"
        }
      ],
      "name": "EthBtcPriceFeedAdditionStarted",
      "type": "event"
    },
    {
      "anonymous": false,
      "inputs": [
        {
          "indexed": true,
          "internalType": "address",
          "name": "_depositContractAddress",
          "type": "address"
        },
        {
          "indexed": false,
          "internalType": "uint256",
          "name": "_timestamp",
          "type": "uint256"
        }
      ],
      "name": "ExitedCourtesyCall",
      "type": "event"
    },
    {
      "anonymous": false,
      "inputs": [
        {
          "indexed": true,
          "internalType": "address",
          "name": "_depositContractAddress",
          "type": "address"
        },
        {
          "indexed": false,
          "internalType": "uint256",
          "name": "_timestamp",
          "type": "uint256"
        }
      ],
      "name": "FraudDuringSetup",
      "type": "event"
    },
    {
      "anonymous": false,
      "inputs": [
        {
          "indexed": true,
          "internalType": "address",
          "name": "_depositContractAddress",
          "type": "address"
        },
        {
          "indexed": true,
          "internalType": "bytes32",
          "name": "_txid",
          "type": "bytes32"
        },
        {
          "indexed": false,
          "internalType": "uint256",
          "name": "_timestamp",
          "type": "uint256"
        }
      ],
      "name": "Funded",
      "type": "event"
    },
    {
      "anonymous": false,
      "inputs": [
        {
          "indexed": true,
          "internalType": "address",
          "name": "_depositContractAddress",
          "type": "address"
        },
        {
          "indexed": false,
          "internalType": "bytes",
          "name": "_abortOutputScript",
          "type": "bytes"
        }
      ],
      "name": "FunderAbortRequested",
      "type": "event"
    },
    {
      "anonymous": false,
      "inputs": [
        {
          "indexed": true,
          "internalType": "address",
          "name": "_depositContractAddress",
          "type": "address"
        },
        {
          "indexed": true,
          "internalType": "bytes32",
          "name": "_digest",
          "type": "bytes32"
        },
        {
          "indexed": false,
          "internalType": "bytes32",
          "name": "_r",
          "type": "bytes32"
        },
        {
          "indexed": false,
          "internalType": "bytes32",
          "name": "_s",
          "type": "bytes32"
        },
        {
          "indexed": false,
          "internalType": "uint256",
          "name": "_timestamp",
          "type": "uint256"
        }
      ],
      "name": "GotRedemptionSignature",
      "type": "event"
    },
    {
      "anonymous": false,
      "inputs": [
        {
          "indexed": false,
          "internalType": "address",
          "name": "_keepStakedFactory",
          "type": "address"
        },
        {
          "indexed": false,
          "internalType": "address",
          "name": "_fullyBackedFactory",
          "type": "address"
        },
        {
          "indexed": false,
          "internalType": "address",
          "name": "_factorySelector",
          "type": "address"
        },
        {
          "indexed": false,
          "internalType": "uint256",
          "name": "_timestamp",
          "type": "uint256"
        }
      ],
      "name": "KeepFactoriesUpdateStarted",
      "type": "event"
    },
    {
      "anonymous": false,
      "inputs": [
        {
          "indexed": false,
          "internalType": "address",
          "name": "_keepStakedFactory",
          "type": "address"
        },
        {
          "indexed": false,
          "internalType": "address",
          "name": "_fullyBackedFactory",
          "type": "address"
        },
        {
          "indexed": false,
          "internalType": "address",
          "name": "_factorySelector",
          "type": "address"
        }
      ],
      "name": "KeepFactoriesUpdated",
      "type": "event"
    },
    {
      "anonymous": false,
      "inputs": [
        {
          "indexed": true,
          "internalType": "address",
          "name": "_depositContractAddress",
          "type": "address"
        },
        {
          "indexed": false,
          "internalType": "uint256",
          "name": "_timestamp",
          "type": "uint256"
        }
      ],
      "name": "Liquidated",
      "type": "event"
    },
    {
      "anonymous": false,
      "inputs": [
        {
          "indexed": false,
          "internalType": "uint64[]",
          "name": "_lotSizes",
          "type": "uint64[]"
        },
        {
          "indexed": false,
          "internalType": "uint256",
          "name": "_timestamp",
          "type": "uint256"
        }
      ],
      "name": "LotSizesUpdateStarted",
      "type": "event"
    },
    {
      "anonymous": false,
      "inputs": [
        {
          "indexed": false,
          "internalType": "uint64[]",
          "name": "_lotSizes",
          "type": "uint64[]"
        }
      ],
      "name": "LotSizesUpdated",
      "type": "event"
    },
    {
      "anonymous": false,
      "inputs": [
        {
          "indexed": true,
          "internalType": "address",
          "name": "previousOwner",
          "type": "address"
        },
        {
          "indexed": true,
          "internalType": "address",
          "name": "newOwner",
          "type": "address"
        }
      ],
      "name": "OwnershipTransferred",
      "type": "event"
    },
    {
      "anonymous": false,
      "inputs": [
        {
          "indexed": true,
          "internalType": "address",
          "name": "_depositContractAddress",
          "type": "address"
        },
        {
          "indexed": true,
          "internalType": "bytes32",
          "name": "_txid",
          "type": "bytes32"
        },
        {
          "indexed": false,
          "internalType": "uint256",
          "name": "_timestamp",
          "type": "uint256"
        }
      ],
      "name": "Redeemed",
      "type": "event"
    },
    {
      "anonymous": false,
      "inputs": [
        {
          "indexed": true,
          "internalType": "address",
          "name": "_depositContractAddress",
          "type": "address"
        },
        {
          "indexed": true,
          "internalType": "address",
          "name": "_requester",
          "type": "address"
        },
        {
          "indexed": true,
          "internalType": "bytes32",
          "name": "_digest",
          "type": "bytes32"
        },
        {
          "indexed": false,
          "internalType": "uint256",
          "name": "_utxoValue",
          "type": "uint256"
        },
        {
          "indexed": false,
          "internalType": "bytes",
          "name": "_redeemerOutputScript",
          "type": "bytes"
        },
        {
          "indexed": false,
          "internalType": "uint256",
          "name": "_requestedFee",
          "type": "uint256"
        },
        {
          "indexed": false,
          "internalType": "bytes",
          "name": "_outpoint",
          "type": "bytes"
        }
      ],
      "name": "RedemptionRequested",
      "type": "event"
    },
    {
      "anonymous": false,
      "inputs": [
        {
          "indexed": true,
          "internalType": "address",
          "name": "_depositContractAddress",
          "type": "address"
        },
        {
          "indexed": false,
          "internalType": "bytes32",
          "name": "_signingGroupPubkeyX",
          "type": "bytes32"
        },
        {
          "indexed": false,
          "internalType": "bytes32",
          "name": "_signingGroupPubkeyY",
          "type": "bytes32"
        },
        {
          "indexed": false,
          "internalType": "uint256",
          "name": "_timestamp",
          "type": "uint256"
        }
      ],
      "name": "RegisteredPubkey",
      "type": "event"
    },
    {
      "anonymous": false,
      "inputs": [
        {
          "indexed": true,
          "internalType": "address",
          "name": "_depositContractAddress",
          "type": "address"
        },
        {
          "indexed": false,
          "internalType": "uint256",
          "name": "_timestamp",
          "type": "uint256"
        }
      ],
      "name": "SetupFailed",
      "type": "event"
    },
    {
      "anonymous": false,
      "inputs": [
        {
          "indexed": false,
          "internalType": "uint16",
          "name": "_signerFeeDivisor",
          "type": "uint16"
        },
        {
          "indexed": false,
          "internalType": "uint256",
          "name": "_timestamp",
          "type": "uint256"
        }
      ],
      "name": "SignerFeeDivisorUpdateStarted",
      "type": "event"
    },
    {
      "anonymous": false,
      "inputs": [
        {
          "indexed": false,
          "internalType": "uint16",
          "name": "_signerFeeDivisor",
          "type": "uint16"
        }
      ],
      "name": "SignerFeeDivisorUpdated",
      "type": "event"
    },
    {
      "anonymous": false,
      "inputs": [
        {
          "indexed": true,
          "internalType": "address",
          "name": "_depositContractAddress",
          "type": "address"
        },
        {
          "indexed": false,
          "internalType": "bool",
          "name": "_wasFraud",
          "type": "bool"
        },
        {
          "indexed": false,
          "internalType": "uint256",
          "name": "_timestamp",
          "type": "uint256"
        }
      ],
      "name": "StartedLiquidation",
      "type": "event"
    },
    {
      "constant": true,
      "inputs": [
        {
          "internalType": "address",
          "name": "_caller",
          "type": "address"
        }
      ],
      "name": "approvedToLog",
      "outputs": [
        {
          "internalType": "bool",
          "name": "",
          "type": "bool"
        }
      ],
      "payable": false,
      "stateMutability": "view",
      "type": "function"
    },
    {
      "constant": false,
      "inputs": [
        {
          "internalType": "uint16",
          "name": "_initialCollateralizedPercent",
          "type": "uint16"
        },
        {
          "internalType": "uint16",
          "name": "_undercollateralizedThresholdPercent",
          "type": "uint16"
        },
        {
          "internalType": "uint16",
          "name": "_severelyUndercollateralizedThresholdPercent",
          "type": "uint16"
        }
      ],
      "name": "beginCollateralizationThresholdsUpdate",
      "outputs": [],
      "payable": false,
      "stateMutability": "nonpayable",
      "type": "function"
    },
    {
      "constant": false,
      "inputs": [
        {
          "internalType": "address",
          "name": "_keepStakedFactory",
          "type": "address"
        },
        {
          "internalType": "address",
          "name": "_fullyBackedFactory",
          "type": "address"
        },
        {
          "internalType": "address",
          "name": "_factorySelector",
          "type": "address"
        }
      ],
      "name": "beginKeepFactoriesUpdate",
      "outputs": [],
      "payable": false,
      "stateMutability": "nonpayable",
      "type": "function"
    },
    {
      "constant": false,
      "inputs": [
        {
          "internalType": "uint64[]",
          "name": "_lotSizes",
          "type": "uint64[]"
        }
      ],
      "name": "beginLotSizesUpdate",
      "outputs": [],
      "payable": false,
      "stateMutability": "nonpayable",
      "type": "function"
    },
    {
      "constant": false,
      "inputs": [
        {
          "internalType": "uint16",
          "name": "_signerFeeDivisor",
          "type": "uint16"
        }
      ],
      "name": "beginSignerFeeDivisorUpdate",
      "outputs": [],
      "payable": false,
      "stateMutability": "nonpayable",
      "type": "function"
    },
    {
      "constant": false,
      "inputs": [],
      "name": "emergencyPauseNewDeposits",
      "outputs": [],
      "payable": false,
      "stateMutability": "nonpayable",
      "type": "function"
    },
    {
      "constant": true,
      "inputs": [],
      "name": "fetchRelayCurrentDifficulty",
      "outputs": [
        {
          "internalType": "uint256",
          "name": "",
          "type": "uint256"
        }
      ],
      "payable": false,
      "stateMutability": "view",
      "type": "function"
    },
    {
      "constant": true,
      "inputs": [],
      "name": "fetchRelayPreviousDifficulty",
      "outputs": [
        {
          "internalType": "uint256",
          "name": "",
          "type": "uint256"
        }
      ],
      "payable": false,
      "stateMutability": "view",
      "type": "function"
    },
    {
      "constant": false,
      "inputs": [],
      "name": "finalizeCollateralizationThresholdsUpdate",
      "outputs": [],
      "payable": false,
      "stateMutability": "nonpayable",
      "type": "function"
    },
    {
      "constant": false,
      "inputs": [],
      "name": "finalizeKeepFactoriesUpdate",
      "outputs": [],
      "payable": false,
      "stateMutability": "nonpayable",
      "type": "function"
    },
    {
      "constant": false,
      "inputs": [],
      "name": "finalizeLotSizesUpdate",
      "outputs": [],
      "payable": false,
      "stateMutability": "nonpayable",
      "type": "function"
    },
    {
      "constant": false,
      "inputs": [],
      "name": "finalizeSignerFeeDivisorUpdate",
      "outputs": [],
      "payable": false,
      "stateMutability": "nonpayable",
      "type": "function"
    },
    {
      "constant": true,
      "inputs": [],
      "name": "getAllowNewDeposits",
      "outputs": [
        {
          "internalType": "bool",
          "name": "",
          "type": "bool"
        }
      ],
      "payable": false,
      "stateMutability": "view",
      "type": "function"
    },
    {
      "constant": true,
      "inputs": [],
      "name": "getAllowedLotSizes",
      "outputs": [
        {
          "internalType": "uint64[]",
          "name": "",
          "type": "uint64[]"
        }
      ],
      "payable": false,
      "stateMutability": "view",
      "type": "function"
    },
    {
      "constant": true,
      "inputs": [],
      "name": "getGovernanceTimeDelay",
      "outputs": [
        {
          "internalType": "uint256",
          "name": "",
          "type": "uint256"
        }
      ],
      "payable": false,
      "stateMutability": "pure",
      "type": "function"
    },
    {
      "constant": true,
      "inputs": [],
      "name": "getInitialCollateralizedPercent",
      "outputs": [
        {
          "internalType": "uint16",
          "name": "",
          "type": "uint16"
        }
      ],
      "payable": false,
      "stateMutability": "view",
      "type": "function"
    },
    {
      "constant": true,
      "inputs": [],
      "name": "getKeepFactoriesUpgradeabilityPeriod",
      "outputs": [
        {
          "internalType": "uint256",
          "name": "",
          "type": "uint256"
        }
      ],
      "payable": false,
      "stateMutability": "pure",
      "type": "function"
    },
    {
      "constant": true,
      "inputs": [],
      "name": "getMaximumLotSize",
      "outputs": [
        {
          "internalType": "uint256",
          "name": "",
          "type": "uint256"
        }
      ],
      "payable": false,
      "stateMutability": "view",
      "type": "function"
    },
    {
      "constant": true,
      "inputs": [],
      "name": "getMinimumLotSize",
      "outputs": [
        {
          "internalType": "uint256",
          "name": "",
          "type": "uint256"
        }
      ],
      "payable": false,
      "stateMutability": "view",
      "type": "function"
    },
    {
      "constant": true,
      "inputs": [],
      "name": "getNewDepositFeeEstimate",
      "outputs": [
        {
          "internalType": "uint256",
          "name": "",
          "type": "uint256"
        }
      ],
      "payable": false,
      "stateMutability": "view",
      "type": "function"
    },
    {
      "constant": true,
      "inputs": [],
      "name": "getPriceFeedGovernanceTimeDelay",
      "outputs": [
        {
          "internalType": "uint256",
          "name": "",
          "type": "uint256"
        }
      ],
      "payable": false,
      "stateMutability": "pure",
      "type": "function"
    },
    {
      "constant": true,
      "inputs": [],
      "name": "getRemainingCollateralizationThresholdsUpdateTime",
      "outputs": [
        {
          "internalType": "uint256",
          "name": "",
          "type": "uint256"
        }
      ],
      "payable": false,
      "stateMutability": "view",
      "type": "function"
    },
    {
      "constant": true,
      "inputs": [],
      "name": "getRemainingEthBtcPriceFeedAdditionTime",
      "outputs": [
        {
          "internalType": "uint256",
          "name": "",
          "type": "uint256"
        }
      ],
      "payable": false,
      "stateMutability": "view",
      "type": "function"
    },
    {
      "constant": true,
      "inputs": [],
      "name": "getRemainingKeepFactoriesUpdateTime",
      "outputs": [
        {
          "internalType": "uint256",
          "name": "",
          "type": "uint256"
        }
      ],
      "payable": false,
      "stateMutability": "view",
      "type": "function"
    },
    {
      "constant": true,
      "inputs": [],
      "name": "getRemainingKeepFactoriesUpgradeabilityTime",
      "outputs": [
        {
          "internalType": "uint256",
          "name": "",
          "type": "uint256"
        }
      ],
      "payable": false,
      "stateMutability": "view",
      "type": "function"
    },
    {
      "constant": true,
      "inputs": [],
      "name": "getRemainingLotSizesUpdateTime",
      "outputs": [
        {
          "internalType": "uint256",
          "name": "",
          "type": "uint256"
        }
      ],
      "payable": false,
      "stateMutability": "view",
      "type": "function"
    },
    {
      "constant": true,
      "inputs": [],
      "name": "getRemainingPauseTerm",
      "outputs": [
        {
          "internalType": "uint256",
          "name": "",
          "type": "uint256"
        }
      ],
      "payable": false,
      "stateMutability": "view",
      "type": "function"
    },
    {
      "constant": true,
      "inputs": [],
      "name": "getRemainingSignerFeeDivisorUpdateTime",
      "outputs": [
        {
          "internalType": "uint256",
          "name": "",
          "type": "uint256"
        }
      ],
      "payable": false,
      "stateMutability": "view",
      "type": "function"
    },
    {
      "constant": true,
      "inputs": [],
      "name": "getSeverelyUndercollateralizedThresholdPercent",
      "outputs": [
        {
          "internalType": "uint16",
          "name": "",
          "type": "uint16"
        }
      ],
      "payable": false,
      "stateMutability": "view",
      "type": "function"
    },
    {
      "constant": true,
      "inputs": [],
      "name": "getSignerFeeDivisor",
      "outputs": [
        {
          "internalType": "uint16",
          "name": "",
          "type": "uint16"
        }
      ],
      "payable": false,
      "stateMutability": "view",
      "type": "function"
    },
    {
      "constant": true,
      "inputs": [],
      "name": "getUndercollateralizedThresholdPercent",
      "outputs": [
        {
          "internalType": "uint16",
          "name": "",
          "type": "uint16"
        }
      ],
      "payable": false,
      "stateMutability": "view",
      "type": "function"
    },
    {
      "constant": false,
      "inputs": [
        {
          "internalType": "contract IBondedECDSAKeepFactory",
          "name": "_defaultKeepFactory",
          "type": "address"
        },
        {
          "internalType": "contract DepositFactory",
          "name": "_depositFactory",
          "type": "address"
        },
        {
          "internalType": "address payable",
          "name": "_masterDepositAddress",
          "type": "address"
        },
        {
          "internalType": "contract TBTCToken",
          "name": "_tbtcToken",
          "type": "address"
        },
        {
          "internalType": "contract TBTCDepositToken",
          "name": "_tbtcDepositToken",
          "type": "address"
        },
        {
          "internalType": "contract FeeRebateToken",
          "name": "_feeRebateToken",
          "type": "address"
        },
        {
          "internalType": "contract VendingMachine",
          "name": "_vendingMachine",
          "type": "address"
        },
        {
          "internalType": "uint16",
          "name": "_keepThreshold",
          "type": "uint16"
        },
        {
          "internalType": "uint16",
          "name": "_keepSize",
          "type": "uint16"
        }
      ],
      "name": "initialize",
      "outputs": [],
      "payable": false,
      "stateMutability": "nonpayable",
      "type": "function"
    },
    {
      "constant": true,
      "inputs": [
        {
          "internalType": "uint64",
          "name": "_requestedLotSizeSatoshis",
          "type": "uint64"
        }
      ],
      "name": "isAllowedLotSize",
      "outputs": [
        {
          "internalType": "bool",
          "name": "",
          "type": "bool"
        }
      ],
      "payable": false,
      "stateMutability": "view",
      "type": "function"
    },
    {
      "constant": true,
      "inputs": [],
      "name": "isOwner",
      "outputs": [
        {
          "internalType": "bool",
          "name": "",
          "type": "bool"
        }
      ],
      "payable": false,
      "stateMutability": "view",
      "type": "function"
    },
    {
      "constant": true,
      "inputs": [],
      "name": "keepSize",
      "outputs": [
        {
          "internalType": "uint16",
          "name": "",
          "type": "uint16"
        }
      ],
      "payable": false,
      "stateMutability": "view",
      "type": "function"
    },
    {
      "constant": true,
      "inputs": [],
      "name": "keepThreshold",
      "outputs": [
        {
          "internalType": "uint16",
          "name": "",
          "type": "uint16"
        }
      ],
      "payable": false,
      "stateMutability": "view",
      "type": "function"
    },
    {
      "constant": false,
      "inputs": [],
      "name": "logCourtesyCalled",
      "outputs": [],
      "payable": false,
      "stateMutability": "nonpayable",
      "type": "function"
    },
    {
      "constant": false,
      "inputs": [
        {
          "internalType": "address",
          "name": "_keepAddress",
          "type": "address"
        }
      ],
      "name": "logCreated",
      "outputs": [],
      "payable": false,
      "stateMutability": "nonpayable",
      "type": "function"
    },
    {
      "constant": false,
      "inputs": [],
      "name": "logExitedCourtesyCall",
      "outputs": [],
      "payable": false,
      "stateMutability": "nonpayable",
      "type": "function"
    },
    {
      "constant": false,
      "inputs": [],
      "name": "logFraudDuringSetup",
      "outputs": [],
      "payable": false,
      "stateMutability": "nonpayable",
      "type": "function"
    },
    {
      "constant": false,
      "inputs": [
        {
          "internalType": "bytes32",
          "name": "_txid",
          "type": "bytes32"
        }
      ],
      "name": "logFunded",
      "outputs": [],
      "payable": false,
      "stateMutability": "nonpayable",
      "type": "function"
    },
    {
      "constant": false,
      "inputs": [
        {
          "internalType": "bytes",
          "name": "_abortOutputScript",
          "type": "bytes"
        }
      ],
      "name": "logFunderRequestedAbort",
      "outputs": [],
      "payable": false,
      "stateMutability": "nonpayable",
      "type": "function"
    },
    {
      "constant": false,
      "inputs": [
        {
          "internalType": "bytes32",
          "name": "_digest",
          "type": "bytes32"
        },
        {
          "internalType": "bytes32",
          "name": "_r",
          "type": "bytes32"
        },
        {
          "internalType": "bytes32",
          "name": "_s",
          "type": "bytes32"
        }
      ],
      "name": "logGotRedemptionSignature",
      "outputs": [],
      "payable": false,
      "stateMutability": "nonpayable",
      "type": "function"
    },
    {
      "constant": false,
      "inputs": [],
      "name": "logLiquidated",
      "outputs": [],
      "payable": false,
      "stateMutability": "nonpayable",
      "type": "function"
    },
    {
      "constant": false,
      "inputs": [
        {
          "internalType": "bytes32",
          "name": "_txid",
          "type": "bytes32"
        }
      ],
      "name": "logRedeemed",
      "outputs": [],
      "payable": false,
      "stateMutability": "nonpayable",
      "type": "function"
    },
    {
      "constant": false,
      "inputs": [
        {
          "internalType": "address",
          "name": "_requester",
          "type": "address"
        },
        {
          "internalType": "bytes32",
          "name": "_digest",
          "type": "bytes32"
        },
        {
          "internalType": "uint256",
          "name": "_utxoValue",
          "type": "uint256"
        },
        {
          "internalType": "bytes",
          "name": "_redeemerOutputScript",
          "type": "bytes"
        },
        {
          "internalType": "uint256",
          "name": "_requestedFee",
          "type": "uint256"
        },
        {
          "internalType": "bytes",
          "name": "_outpoint",
          "type": "bytes"
        }
      ],
      "name": "logRedemptionRequested",
      "outputs": [],
      "payable": false,
      "stateMutability": "nonpayable",
      "type": "function"
    },
    {
      "constant": false,
      "inputs": [
        {
          "internalType": "bytes32",
          "name": "_signingGroupPubkeyX",
          "type": "bytes32"
        },
        {
          "internalType": "bytes32",
          "name": "_signingGroupPubkeyY",
          "type": "bytes32"
        }
      ],
      "name": "logRegisteredPubkey",
      "outputs": [],
      "payable": false,
      "stateMutability": "nonpayable",
      "type": "function"
    },
    {
      "constant": false,
      "inputs": [],
      "name": "logSetupFailed",
      "outputs": [],
      "payable": false,
      "stateMutability": "nonpayable",
      "type": "function"
    },
    {
      "constant": false,
      "inputs": [
        {
          "internalType": "bool",
          "name": "_wasFraud",
          "type": "bool"
        }
      ],
      "name": "logStartedLiquidation",
      "outputs": [],
      "payable": false,
      "stateMutability": "nonpayable",
      "type": "function"
    },
    {
      "constant": true,
      "inputs": [],
      "name": "owner",
      "outputs": [
        {
          "internalType": "address",
          "name": "",
          "type": "address"
        }
      ],
      "payable": false,
      "stateMutability": "view",
      "type": "function"
    },
    {
      "constant": true,
      "inputs": [],
      "name": "priceFeed",
      "outputs": [
        {
          "internalType": "contract ISatWeiPriceFeed",
          "name": "",
          "type": "address"
        }
      ],
      "payable": false,
      "stateMutability": "view",
      "type": "function"
    },
    {
      "constant": false,
      "inputs": [],
      "name": "refreshMinimumBondableValue",
      "outputs": [],
      "payable": false,
      "stateMutability": "nonpayable",
      "type": "function"
    },
    {
      "constant": true,
      "inputs": [],
      "name": "relay",
      "outputs": [
        {
          "internalType": "contract IRelay",
          "name": "",
          "type": "address"
        }
      ],
      "payable": false,
      "stateMutability": "view",
      "type": "function"
    },
    {
      "constant": false,
      "inputs": [],
      "name": "renounceOwnership",
      "outputs": [],
      "payable": false,
      "stateMutability": "nonpayable",
      "type": "function"
    },
    {
      "constant": false,
      "inputs": [],
      "name": "resumeNewDeposits",
      "outputs": [],
      "payable": false,
      "stateMutability": "nonpayable",
      "type": "function"
    },
    {
      "constant": false,
      "inputs": [
        {
          "internalType": "address",
          "name": "newOwner",
          "type": "address"
        }
      ],
      "name": "transferOwnership",
      "outputs": [],
      "payable": false,
      "stateMutability": "nonpayable",
      "type": "function"
    },
    {
      "constant": false,
      "inputs": [
        {
          "internalType": "uint256",
          "name": "_oraclePrice",
          "type": "uint256"
        }
      ],
      "name": "setOraclePrice",
      "outputs": [],
      "payable": false,
      "stateMutability": "nonpayable",
      "type": "function"
    },
    {
      "constant": true,
      "inputs": [],
      "name": "fetchBitcoinPrice",
      "outputs": [
        {
          "internalType": "uint256",
          "name": "",
          "type": "uint256"
        }
      ],
      "payable": false,
      "stateMutability": "view",
      "type": "function"
    },
    {
      "constant": false,
      "inputs": [
        {
          "internalType": "address",
          "name": "_keepAddress",
          "type": "address"
        }
      ],
      "name": "setKeepAddress",
      "outputs": [],
      "payable": false,
      "stateMutability": "nonpayable",
      "type": "function"
    },
    {
      "constant": false,
      "inputs": [
        {
          "internalType": "uint64",
          "name": "",
          "type": "uint64"
        },
        {
          "internalType": "uint256",
          "name": "",
          "type": "uint256"
        }
      ],
      "name": "requestNewKeep",
      "outputs": [
        {
          "internalType": "address",
          "name": "_keepAddress",
          "type": "address"
        }
      ],
      "payable": true,
      "stateMutability": "payable",
      "type": "function"
    }
  ],
  "bytecode": "0x6000600255600b805462ffffff60201b19166607d000000000001761ffff60381b19166796000000000000001761ffff60481b1916697d0000000000000000001761ffff60581b19166b6e0000000000000000000000179055610120604052620f424060809081526298968060a0526301312d0060c0526302faf08060e0526305f5e100610100526200009790600c906005620001c0565b50601780546001600160a01b031916600717905564e8d4a51000601855348015620000c157600080fd5b5060405162003cb538038062003cb583398181016040526040811015620000e757600080fd5b508051602090910151600080546001600160a01b0319163317808255604051849284926001600160a01b0316917f8be0079c531659141344cd1fd0a4f28419497f9722a3daafe3b4186f6b6457e0908290a3600480546001600160a01b039384166001600160a01b031991821617909155600580549290931691161790556040805160c081018252620186a08152620f4240602082015262989680918101919091526301312d0060608201526302faf08060808201526305f5e10060a0820152620001b790600c906006620001c0565b505050620002a6565b828054828255906000526020600020906003016004900481019282156200026a5791602002820160005b838211156200023357835183826101000a8154816001600160401b03021916908363ffffffff1602179055509260200192600801602081600701049283019260010302620001ea565b8015620002685782816101000a8154906001600160401b03021916905560080160208160070104928301926001030262000233565b505b50620002789291506200027c565b5090565b620002a391905b80821115620002785780546001600160401b031916815560010162000283565b90565b6139ff80620002b66000396000f3fe6080604052600436106103975760003560e01c806380f04b8c116101dc578063c074d55011610102578063de1e57d0116100a0578063eae6191f1161006f578063eae6191f14610ccc578063f2e7234714610d11578063f2fde38b14610d26578063f760621e14610d5957610397565b8063de1e57d014610c78578063e2c50ad814610c8d578063e5426d2e14610ca2578063e5a6d77d14610cb757610397565b8063cd3a9490116100dc578063cd3a949014610b5d578063ce2c07ce14610b72578063dab70cb114610c23578063dde3fdd214610c3857610397565b8063c074d55014610b09578063c65cd86d14610b1e578063c8fba24314610b4857610397565b8063a28b79f11161017a578063ae7f4a5f11610149578063ae7f4a5f14610ab5578063b196b5a314610aca578063b59589d114610adf578063b792a38e14610af457610397565b8063a28b79f114610a43578063a2cd75da14610a76578063a6c1691c14610a8b578063a831c81614610aa057610397565b80638da5cb5b116101b65780638da5cb5b146109d15780638f32d59b146109e6578063987ecea7146109fb5780639ffb386214610a1057610397565b806380f04b8c1461096057806382f9196814610975578063869f9469146109a157610397565b806334d534a9116102c157806364bdb6671161025f578063741bef1a1161022e578063741bef1a146108db5780637c33fc051461090c5780637c75b115146109215780637ed451a41461093657610397565b806364bdb667146108725780636e1ba283146108875780636f4fef62146108b1578063715018a6146108c657610397565b8063402b783d1161029b578063402b783d146107ee57806349b6473014610803578063575350881461083157806360e98d591461084657610397565b806334d534a9146107985780633aac3467146107ad5780633ee850bc146107d957610397565b806318e647dd116103395780632753d84b116103085780632753d84b146106c0578063282bfd38146106d55780632b155e37146107085780632d00f1ee1461078357610397565b806318e647dd146104c55780631c52d90c1461061f57806322a147e61461069657806322e5724c146106ab57610397565b80630af488f9116103755780630af488f91461045d5780630ce0e700146104725780630d4455dc146104875780630d7eb1c41461049c57610397565b8063013b0f301461039c578063022d44b7146103c3578063086c9edd146103f8575b600080fd5b3480156103a857600080fd5b506103b1610d8f565b60408051918252519081900360200190f35b3480156103cf57600080fd5b506103f6600480360360208110156103e657600080fd5b50356001600160a01b0316610e30565b005b34801561040457600080fd5b5061040d610e52565b60408051602080825283518183015283519192839290830191858101910280838360005b83811015610449578181015183820152602001610431565b505050509050019250505060405180910390f35b34801561046957600080fd5b506103b1610edc565b34801561047e57600080fd5b506103f6610eed565b34801561049357600080fd5b506103f6611045565b3480156104a857600080fd5b506104b16111fa565b604080519115158252519081900360200190f35b3480156104d157600080fd5b506103f6600480360360c08110156104e857600080fd5b6001600160a01b038235169160208101359160408201359190810190608081016060820135600160201b81111561051e57600080fd5b82018360208201111561053057600080fd5b803590602001918460018302840111600160201b8311171561055157600080fd5b91908080601f01602080910402602001604051908101604052809392919081815260200183838082843760009201919091525092958435959094909350604081019250602001359050600160201b8111156105ab57600080fd5b8201836020820111156105bd57600080fd5b803590602001918460018302840111600160201b831117156105de57600080fd5b91908080601f01602080910402602001604051908101604052809392919081815260200183838082843760009201919091525092955061120a945050505050565b34801561062b57600080fd5b506103f6600480360361012081101561064357600080fd5b506001600160a01b038135811691602081013582169160408201358116916060810135821691608082013581169160a081013582169160c0820135169061ffff60e082013581169161010001351661137b565b3480156106a257600080fd5b506103f66115d3565b3480156106b757600080fd5b506103f661164f565b3480156106cc57600080fd5b506103b16116cb565b3480156106e157600080fd5b506103f6600480360360208110156106f857600080fd5b50356001600160a01b031661170d565b34801561071457600080fd5b506103f66004803603602081101561072b57600080fd5b810190602081018135600160201b81111561074557600080fd5b82018360208201111561075757600080fd5b803590602001918460208302840111600160201b8311171561077857600080fd5b509092509050611794565b34801561078f57600080fd5b506103b1611af5565b3480156107a457600080fd5b506103b1611bec565b3480156107b957600080fd5b506103f6600480360360208110156107d057600080fd5b50351515611bfc565b3480156107e557600080fd5b506103b1611c7e565b3480156107fa57600080fd5b506103b1611c8f565b34801561080f57600080fd5b506103f66004803603602081101561082657600080fd5b503561ffff16611d05565b34801561083d57600080fd5b506103b1611e2b565b34801561085257600080fd5b5061085b611e3c565b6040805161ffff9092168252519081900360200190f35b34801561087e57600080fd5b5061085b611e4f565b34801561089357600080fd5b506103f6600480360360208110156108aa57600080fd5b5035611e59565b3480156108bd57600080fd5b5061085b611ed7565b3480156108d257600080fd5b506103f6611ee8565b3480156108e757600080fd5b506108f0611f79565b604080516001600160a01b039092168252519081900360200190f35b34801561091857600080fd5b506103f6611f88565b34801561092d57600080fd5b506103f66120db565b34801561094257600080fd5b506103f66004803603602081101561095957600080fd5b5035612181565b34801561096c57600080fd5b506103f66121ff565b6108f06004803603604081101561098b57600080fd5b506001600160401b038135169060200135612314565b3480156109ad57600080fd5b506103f6600480360360408110156109c457600080fd5b5080359060200135612327565b3480156109dd57600080fd5b506108f06123b1565b3480156109f257600080fd5b506104b16123c0565b348015610a0757600080fd5b5061085b6123d1565b348015610a1c57600080fd5b506104b160048036036020811015610a3357600080fd5b50356001600160a01b03166123e2565b348015610a4f57600080fd5b506104b160048036036020811015610a6657600080fd5b50356001600160401b0316612467565b348015610a8257600080fd5b5061085b6124d4565b348015610a9757600080fd5b506103b16124e5565b348015610aac57600080fd5b506103f66124eb565b348015610ac157600080fd5b506103b1612567565b348015610ad657600080fd5b506103b161256e565b348015610aeb57600080fd5b506108f061257f565b348015610b0057600080fd5b506103b161258e565b348015610b1557600080fd5b506103b161259f565b348015610b2a57600080fd5b506103f660048036036020811015610b4157600080fd5b50356125b0565b348015610b5457600080fd5b506103f66125b5565b348015610b6957600080fd5b506103f6612631565b348015610b7e57600080fd5b506103f660048036036020811015610b9557600080fd5b810190602081018135600160201b811115610baf57600080fd5b820183602082011115610bc157600080fd5b803590602001918460018302840111600160201b83111715610be257600080fd5b91908080601f0160208091040260200160405190810160405280939291908181526020018383808284376000920191909152509295506127f5945050505050565b348015610c2f57600080fd5b506103b16128d5565b348015610c4457600080fd5b506103f660048036036060811015610c5b57600080fd5b5061ffff813581169160208101358216916040909101351661291a565b348015610c8457600080fd5b506103f6612b07565b348015610c9957600080fd5b506103f6612cb4565b348015610cae57600080fd5b5061085b612d30565b348015610cc357600080fd5b506103b1612d40565b348015610cd857600080fd5b506103f660048036036060811015610cef57600080fd5b506001600160a01b038135811691602081013582169160409091013516612d47565b348015610d1d57600080fd5b506103b1612ec5565b348015610d3257600080fd5b506103f660048036036020811015610d4957600080fd5b50356001600160a01b0316612ecc565b348015610d6557600080fd5b506103f660048036036060811015610d7c57600080fd5b5080359060208101359060400135612f1f565b600b54600090600160201b900460ff1615610ddb5760405162461bcd60e51b81526004018080602001828103825260228152602001806139126022913960400191505060405180910390fd5b620d2f00610df460035442612fab90919063ffffffff16565b1015610e2757610e22610e1260035442612fab90919063ffffffff16565b620d2f009063ffffffff612fab16565b610e2a565b60005b90505b90565b601780546001600160a01b0319166001600160a01b0392909216919091179055565b6060600c805480602002602001604051908101604052809291908181526020018280548015610ed257602002820191906000526020600020906000905b82829054906101000a90046001600160401b03166001600160401b031681526020019060080190602082600701049283019260010382029150808411610e8f5790505b5050505050905090565b6000610e2a6016546276a700613008565b610ef56123c0565b610f34576040805162461bcd60e51b815260206004820181905260248201526000805160206137f4833981519152604482015290519081900360640190fd5b600d546202a30060008211610f87576040805162461bcd60e51b815260206004820152601460248201527310da185b99d9481b9bdd081a5b9a5d1a585d195960621b604482015290519081900360640190fd5b80610f98428463ffffffff612fab16565b1015610fd9576040805162461bcd60e51b815260206004820181905260248201526000805160206137d4833981519152604482015290519081900360640190fd5b601154600b80546501000000000061ffff90931692830266ffff00000000001990911617905560408051918252517f236dec26d53c6a51390e98ed703106e132fd062b0e38b8a9cf8b4d13f47952c89181900360200190a150506011805461ffff191690556000600d55565b61104d6123c0565b61108c576040805162461bcd60e51b815260206004820181905260248201526000805160206137f4833981519152604482015290519081900360640190fd5b6010546202a300600082116110df576040805162461bcd60e51b815260206004820152601460248201527310da185b99d9481b9bdd081a5b9a5d1a585d195960621b604482015290519081900360640190fd5b806110f0428463ffffffff612fab16565b1015611131576040805162461bcd60e51b815260206004820181905260248201526000805160206137d4833981519152604482015290519081900360640190fd5b601354601454601554611164926006926001600160a01b03600160301b909204821692908216911663ffffffff61309216565b601354601454601554604080516001600160a01b03600160301b90950485168152928416602084015292168183015290517f75cd06e2a95bd62ad447184bf0950b3af3aabd0960994d09da9724686d0c17209181900360600190a150506000601055601380546601000000000000600160d01b0319169055601480546001600160a01b0319908116909155601580549091169055565b600b54600160201b900460ff1690565b611213336123e2565b61124e5760405162461bcd60e51b81526004018080602001828103825260248152602001806136aa6024913960400191505060405180910390fd5b84866001600160a01b0316336001600160a01b03167f7959c380174061a21a3ba80243a032ba9cd10dc8bd1736d7e835c94e97a35a9887878787604051808581526020018060200184815260200180602001838103835286818151815260200191508051906020019080838360005b838110156112d55781810151838201526020016112bd565b50505050905090810190601f1680156113025780820380516001836020036101000a031916815260200191505b50838103825284518152845160209182019186019080838360005b8381101561133557818101518382015260200161131d565b50505050905090810190601f1680156113625780820380516001836020036101000a031916815260200191505b50965050505050505060405180910390a4505050505050565b6113836123c0565b6113c2576040805162461bcd60e51b815260206004820181905260248201526000805160206137f4833981519152604482015290519081900360640190fd5b6002541561140d576040805162461bcd60e51b8152602060048201526013602482015272185b1c9958591e481a5b9a5d1a585b1a5e9959606a1b604482015290519081900360640190fd5b6040805163e8e08cf160e01b8152600660048201526001600160a01b038b166024820152905173__KeepFactorySelection__________________9163e8e08cf1916044808301926000929190829003018186803b15801561146e57600080fd5b505af4158015611482573d6000803e3d6000fd5b5050600b80544260025564ff000000001961ffff86811661ffff19918916620100000263ffff00001990941693909317169190911716600160201b179055506114cc905085613120565b60408051630d4815e560e21b81526001600160a01b0388811660048301528781166024830152868116604483015291519185169163352057949160648082019260009290919082900301818387803b15801561152757600080fd5b505af115801561153b573d6000803e3d6000fd5b50506040805163bbe2bbd560e01b81526001600160a01b038b811660048301523060248301528a811660448301528981166064830152888116608483015287811660a48301529151918c16935063bbe2bbd5925060c48082019260009290919082900301818387803b1580156115b057600080fd5b505af11580156115c4573d6000803e3d6000fd5b50505050505050505050505050565b6115dc336123e2565b6116175760405162461bcd60e51b81526004018080602001828103825260248152602001806136aa6024913960400191505060405180910390fd5b60408051428152905133917f6e7b45210b79c12cd1332babd8d86c0bbb9ca898a89ce0404f17064dbfba18c0919081900360200190a2565b611658336123e2565b6116935760405162461bcd60e51b81526004018080602001828103825260248152602001806136aa6024913960400191505060405180910390fd5b60408051428152905133917f07f0eaafadb9abb1d28da85d4b4c74f1939fd61b535c7f5ab501f618f07e76ee919081900360200190a2565b600c80546000919060001981019081106116e157fe5b6000918252602090912060048204015460039091166008026101000a90046001600160401b0316919050565b611716336123e2565b6117515760405162461bcd60e51b81526004018080602001828103825260248152602001806136aa6024913960400191505060405180910390fd5b6040805142815290516001600160a01b0383169133917f822b3073be62c5c7f143c2dcd71ee266434ee935d90a1eec3be34710ac8ec1a29181900360200190a350565b61179c6123c0565b6117db576040805162461bcd60e51b815260206004820181905260248201526000805160206137f4833981519152604482015290519081900360640190fd5b6000805b82811015611a37578383828181106117f357fe5b905060200201356001600160401b03166001600160401b03166305f5e10014156118205760019150611a2f565b61c35084848381811061182f57fe5b905060200201356001600160401b03166001600160401b031610156118855760405162461bcd60e51b815260040180806020018281038252602e81526020018061373f602e913960400191505060405180910390fd5b6402540be40084848381811061189757fe5b905060200201356001600160401b03166001600160401b031611156118ed5760405162461bcd60e51b815260040180806020018281038252602e8152602001806138e4602e913960400191505060405180910390fd5b600081118015611947575083836001830381811061190757fe5b905060200201356001600160401b03166001600160401b031684848381811061192c57fe5b905060200201356001600160401b03166001600160401b0316145b156119835760405162461bcd60e51b81526004018080602001828103825260278152602001806137186027913960400191505060405180910390fd5b6000811180156119dd575083836001830381811061199d57fe5b905060200201356001600160401b03166001600160401b03168484838181106119c257fe5b905060200201356001600160401b03166001600160401b0316105b15611a2f576040805162461bcd60e51b815260206004820152601d60248201527f4c6f742073697a65206172726179206d75737420626520736f72746564000000604482015290519081900360640190fd5b6001016117df565b5080611a745760405162461bcd60e51b81526004018080602001828103825260288152602001806138616028913960400191505060405180910390fd5b7fffb1e2bce3c7a63d0cac5492540bd370e1156621adde36cd481262c2846a2b7b83834260405180806020018381526020018281038252858582818152602001925060200280828437600083820152604051601f909101601f1916909201829003965090945050505050a1611aeb6012848461342c565b505042600e555050565b600080600673__KeepFactorySelection__________________63d83d44b090916040518263ffffffff1660e01b81526004018082815260200191505060206040518083038186803b158015611b4a57600080fd5b505af4158015611b5e573d6000803e3d6000fd5b505050506040513d6020811015611b7457600080fd5b50516040805163bc2c289f60e01b815290519192506001600160a01b0383169163bc2c289f91600480820192602092909190829003018186803b158015611bba57600080fd5b505afa158015611bce573d6000803e3d6000fd5b505050506040513d6020811015611be457600080fd5b505191505090565b6000600c6000815481106116e157fe5b611c05336123e2565b611c405760405162461bcd60e51b81526004018080602001828103825260248152602001806136aa6024913960400191505060405180910390fd5b604080518215158152426020820152815133927fbef11c059eefba82a15aea8a3a89c86fd08d7711c88fa7daea2632a55488510c928290030190a250565b6000610e2a600e546202a300613008565b60055460408051630ae5ef8960e21b815290516000926001600160a01b031691632b97be24916004808301926020929190829003018186803b158015611cd457600080fd5b505afa158015611ce8573d6000803e3d6000fd5b505050506040513d6020811015611cfe57600080fd5b5051905090565b611d0d6123c0565b611d4c576040805162461bcd60e51b815260206004820181905260248201526000805160206137f4833981519152604482015290519081900360640190fd5b60098161ffff1611611d8f5760405162461bcd60e51b815260040180806020018281038252604a8152602001806136ce604a913960600191505060405180910390fd5b6113888161ffff1610611dd35760405162461bcd60e51b815260040180806020018281038252604b815260200180613934604b913960600191505060405180910390fd5b6011805461ffff191661ffff831690811790915542600d81905560408051928352602083019190915280517f38cb7049f0daf658ca989e9ef6b850ef11e3740ff07a0c16706042c39adf48fc9281900390910190a150565b6000610e2a6010546202a300613008565b600b5465010000000000900461ffff1690565b600b5461ffff1681565b611e62336123e2565b611e9d5760405162461bcd60e51b81526004018080602001828103825260248152602001806136aa6024913960400191505060405180910390fd5b604080514281529051829133917f44b7f176bcc739b54bd0800fe491cbdea19df7d4d6b19c281462e6b4fc5043449181900360200190a350565b600b54600160581b900461ffff1690565b611ef06123c0565b611f2f576040805162461bcd60e51b815260206004820181905260248201526000805160206137f4833981519152604482015290519081900360640190fd5b600080546040516001600160a01b03909116907f8be0079c531659141344cd1fd0a4f28419497f9722a3daafe3b4186f6b6457e0908390a3600080546001600160a01b0319169055565b6004546001600160a01b031681565b600b54600160201b900460ff1615611fd15760405162461bcd60e51b81526004018080602001828103825260228152602001806139126022913960400191505060405180910390fd5b600354612025576040805162461bcd60e51b815260206004820152601b60248201527f4465706f73697420686173206e6f74206265656e207061757365640000000000604482015290519081900360640190fd5b620d2f0061203e60035442612fab90919063ffffffff16565b1015612091576040805162461bcd60e51b815260206004820152601960248201527f4465706f7369747320617265207374696c6c2070617573656400000000000000604482015290519081900360640190fd5b600b805464ff000000001916600160201b179055604080516001815290517f3a854be74be62dd3ba5f0fdb7aa5b535683f999e90cda09ba75a2d99b27225239181900360200190a1565b73__KeepFactorySelection__________________63e33cd9716006612107612102611bec565b6131a0565b600b54604080516001600160e01b031960e087901b1681526004810194909452602484019290925261ffff808216604485015262010000909104166064830152516084808301926000929190829003018186803b15801561216757600080fd5b505af415801561217b573d6000803e3d6000fd5b50505050565b61218a336123e2565b6121c55760405162461bcd60e51b81526004018080602001828103825260248152602001806136aa6024913960400191505060405180910390fd5b604080514281529051829133917fe34c70bd3e03956978a5c76d2ea5f3a60819171afea6dee4fc12b2e45f72d43d9181900360200190a350565b6122076123c0565b612246576040805162461bcd60e51b815260206004820181905260248201526000805160206137f4833981519152604482015290519081900360640190fd5b600354156122855760405162461bcd60e51b81526004018080602001828103825260318152602001806135d76031913960400191505060405180910390fd5b600254420362ed4e0081106122cb5760405162461bcd60e51b815260040180806020018281038252604e815260200180613608604e913960600191505060405180910390fd5b42600355600b805464ff0000000019169055604080516000815290517f3a854be74be62dd3ba5f0fdb7aa5b535683f999e90cda09ba75a2d99b27225239181900360200190a150565b6017546001600160a01b03165b92915050565b612330336123e2565b61236b5760405162461bcd60e51b81526004018080602001828103825260248152602001806136aa6024913960400191505060405180910390fd5b60408051838152602081018390524281830152905133917f8ee737ab16909c4e9d1b750814a4393c9f84ab5d3a29c08c313b783fc846ae33919081900360600190a25050565b6000546001600160a01b031690565b6000546001600160a01b0316331490565b600b54600160381b900461ffff1690565b60015460408051634f558e7960e01b81526001600160a01b03848116600483015291516000939290921691634f558e7991602480820192602092909190829003018186803b15801561243357600080fd5b505afa158015612447573d6000803e3d6000fd5b505050506040513d602081101561245d57600080fd5b505190505b919050565b6000805b600c548110156124cb57826001600160401b0316600c828154811061248c57fe5b6000918252602090912060048204015460039091166008026101000a90046001600160401b031614156124c3576001915050612462565b60010161246b565b50600092915050565b600b54600160481b900461ffff1690565b60185490565b6124f4336123e2565b61252f5760405162461bcd60e51b81526004018080602001828103825260248152602001806136aa6024913960400191505060405180910390fd5b60408051428152905133917f8fd2cfb62a35fccc1ecef829f83a6c2f840b73dad49d3eaaa402909752086d4b919081900360200190a2565b6276a70090565b6000610e2a60025462ed4e00613008565b6005546001600160a01b031681565b6000610e2a600d546202a300613008565b6000610e2a600f546202a300613008565b601855565b6125be336123e2565b6125f95760405162461bcd60e51b81526004018080602001828103825260248152602001806136aa6024913960400191505060405180910390fd5b60408051428152905133917fa5ee7a2b0254fce91deed604506790ed7fa072d0b14cba4859c3bc8955b9caac919081900360200190a2565b6126396123c0565b612678576040805162461bcd60e51b815260206004820181905260248201526000805160206137f4833981519152604482015290519081900360640190fd5b600e546202a300600082116126cb576040805162461bcd60e51b815260206004820152601460248201527310da185b99d9481b9bdd081a5b9a5d1a585d195960621b604482015290519081900360640190fd5b806126dc428463ffffffff612fab16565b101561271d576040805162461bcd60e51b815260206004820181905260248201526000805160206137d4833981519152604482015290519081900360640190fd5b6012805461272d91600c916134ed565b507fa801e49d33e856d89d06e647753d9d9dda3d0b0520c4346290ada455a00cafcc6012604051808060200182810382528381815481526020019150805480156127c857602002820191906000526020600020906000905b82829054906101000a90046001600160401b03166001600160401b0316815260200190600801906020826007010492830192600103820291508084116127855790505b50509250505060405180910390a16000600e8190556127e860128261353b565b506127f16120db565b5050565b6127fe336123e2565b6128395760405162461bcd60e51b81526004018080602001828103825260248152602001806136aa6024913960400191505060405180910390fd5b604080516020808252835181830152835133937fa6e9673b5d53b3fe3c62b6459720f9c2a1b129d4f69acb771404ba8681b6a9309386939092839283019185019080838360005b83811015612898578181015183820152602001612880565b50505050905090810190601f1680156128c55780820380516001836020036101000a031916815260200191505b509250505060405180910390a250565b6005546040805163089bb25f60e11b815290516000926001600160a01b03169163113764be916004808301926020929190829003018186803b158015611cd457600080fd5b6129226123c0565b612961576040805162461bcd60e51b815260206004820181905260248201526000805160206137f4833981519152604482015290519081900360640190fd5b61012c8361ffff1611156129a65760405162461bcd60e51b815260040180806020018281038252602e815260200180613889602e913960400191505060405180910390fd5b60648361ffff16116129e95760405162461bcd60e51b815260040180806020018281038252602e81526020018061367c602e913960400191505060405180910390fd5b8161ffff168361ffff1611612a2f5760405162461bcd60e51b815260040180806020018281038252604681526020018061376d6046913960600191505060405180910390fd5b8061ffff168261ffff1611612a755760405162461bcd60e51b815260040180806020018281038252604c81526020018061397f604c913960600191505060405180910390fd5b6013805461ffff191661ffff85811691821763ffff00001916620100008683169081029190911765ffff000000001916600160201b9286169283021790935542600f81905560408051938452602084019490945282840191909152606082015290517fc9e225c2db3e9f70966e6c0403de785bcda0172ec4e41111a6e8f4b85b1f30fb916080908290030190a1505050565b612b0f6123c0565b612b4e576040805162461bcd60e51b815260206004820181905260248201526000805160206137f4833981519152604482015290519081900360640190fd5b600f546202a30060008211612ba1576040805162461bcd60e51b815260206004820152601460248201527310da185b99d9481b9bdd081a5b9a5d1a585d195960621b604482015290519081900360640190fd5b80612bb2428463ffffffff612fab16565b1015612bf3576040805162461bcd60e51b815260206004820181905260248201526000805160206137d4833981519152604482015290519081900360640190fd5b601354600b805468ffff00000000000000191661ffff808416600160381b8102929092176affff00000000000000000019166201000085048216600160481b81029190911761ffff60581b1916600160201b90950491909116600160581b81029490941790925560408051918252602082019290925280820192909252517f07ac9ce7dc4b2edb6435fb2255e9e867f357ef2052b982ce468442aa9d6c1d50916060908290030190a150506013805465ffffffffffff191690556000600f55565b612cbd336123e2565b612cf85760405162461bcd60e51b81526004018080602001828103825260248152602001806136aa6024913960400191505060405180910390fd5b60408051428152905133917f1e61af503f1d7de21d5300094c18bf8700f82b2951a4d54dd2adda13f6b3da30919081900360200190a2565b600b5462010000900461ffff1681565b62ed4e0090565b612d4f6123c0565b612d8e576040805162461bcd60e51b815260206004820181905260248201526000805160206137f4833981519152604482015290519081900360640190fd5b600254420362ed4e008110612dd45760405162461bcd60e51b815260040180806020018281038252604d815260200180613814604d913960600191505060405180910390fd5b6001600160a01b038416612e195760405162461bcd60e51b815260040180806020018281038252602d8152602001806138b7602d913960400191505060405180910390fd5b601380546001600160a01b03808716600160301b81026601000000000000600160d01b031990931692909217909255601480548684166001600160a01b0319918216811790925560158054948716949091168417905542601081905560408051938452602084019290925282820193909352606082019290925290517f1608ec8025d64cdb0ed78e62a67d271a33b9d738842a6eb6e6449bc3afab6dca9181900360800190a150505050565b6202a30090565b612ed46123c0565b612f13576040805162461bcd60e51b815260206004820181905260248201526000805160206137f4833981519152604482015290519081900360640190fd5b612f1c816131f1565b50565b612f28336123e2565b612f635760405162461bcd60e51b81526004018080602001828103825260248152602001806136aa6024913960400191505060405180910390fd5b604080518381526020810183905242818301529051849133917f7f7d7327762d01d2c4a552ea0be2bc5a76264574a80aa78083e691a840e509f29181900360600190a3505050565b600082821115613002576040805162461bcd60e51b815260206004820152601e60248201527f536166654d6174683a207375627472616374696f6e206f766572666c6f770000604482015290519081900360640190fd5b50900390565b6000808311613055576040805162461bcd60e51b8152602060048201526014602482015273155c19185d19481b9bdd081a5b9a5d1a585d195960621b604482015290519081900360640190fd5b6000613067428563ffffffff612fab16565b905082811061307a576000915050612321565b61308a838263ffffffff612fab16565b915050612321565b6001600160a01b0383166130d75760405162461bcd60e51b81526004018080602001828103825260238152602001806135b46023913960400191505060405180910390fd5b6003840180546001600160a01b039485166001600160a01b0319918216179091556004850180549385169382169390931790925560029093018054939092169216919091179055565b6001546001600160a01b03161561317e576040805162461bcd60e51b815260206004820152601f60248201527f746274634465706f736974546f6b656e20697320616c72656164792073657400604482015290519081900360640190fd5b600180546001600160a01b0319166001600160a01b0392909216919091179055565b6000806131bb836131af613291565b9063ffffffff61336916565b600b549091506131ea906064906131de908490600160381b900461ffff16613369565b9063ffffffff6133c216565b9392505050565b6001600160a01b0381166132365760405162461bcd60e51b81526004018080602001828103825260268152602001806136566026913960400191505060405180910390fd5b600080546040516001600160a01b03808516939216917f8be0079c531659141344cd1fd0a4f28419497f9722a3daafe3b4186f6b6457e091a3600080546001600160a01b0319166001600160a01b0392909216919091179055565b6004805460408051634c6afee560e11b8152905160009384936001600160a01b0316926398d5fdca9281830192602092829003018186803b1580156132d557600080fd5b505afa1580156132e9573d6000803e3d6000fd5b505050506040513d60208110156132ff57600080fd5b505190508015806133175750670de0b6b3a764000081115b15610e2a576040805162461bcd60e51b815260206004820152601b60248201527f53797374656d2072657475726e65642061206261642070726963650000000000604482015290519081900360640190fd5b60008261337857506000612321565b8282028284828161338557fe5b04146131ea5760405162461bcd60e51b81526004018080602001828103825260218152602001806137b36021913960400191505060405180910390fd5b6000808211613418576040805162461bcd60e51b815260206004820152601a60248201527f536166654d6174683a206469766973696f6e206279207a65726f000000000000604482015290519081900360640190fd5b600082848161342357fe5b04949350505050565b828054828255906000526020600020906003016004900481019282156134dd5791602002820160005b838211156134a85783356001600160401b031683826101000a8154816001600160401b0302191690836001600160401b031602179055509260200192600801602081600701049283019260010302613455565b80156134db5782816101000a8154906001600160401b0302191690556008016020816007010492830192600103026134a8565b505b506134e9929150613574565b5090565b828054828255906000526020600020906003016004900481019282156134dd576000526020600020916003016004900482015b828111156134dd578254825591600101919060010190613520565b81548183558181111561356f57600301600490048160030160049004836000526020600020918201910161356f9190613599565b505050565b610e2d91905b808211156134e957805467ffffffffffffffff1916815560010161357a565b610e2d91905b808211156134e9576000815560010161359f56fe496e76616c6964204b4545502d7374616b656420666163746f72792061646472657373656d657267656e637950617573654e65774465706f736974732063616e206f6e6c792062652063616c6c6564206f6e6365656d657267656e637950617573654e65774465706f736974732063616e206f6e6c792062652063616c6c65642077697468696e203138302064617973206f6620696e697469616c697a6174696f6e4f776e61626c653a206e6577206f776e657220697320746865207a65726f2061646472657373496e697469616c20636f6c6c61746572616c697a65642070657263656e74206d757374206265203e3d203130302543616c6c6572206973206e6f7420617070726f76656420746f206c6f67206576656e74735369676e6572206665652064697669736f72206d7573742062652067726561746572207468616e20392c20666f722061207369676e6572206665652074686174206973203c3d203130254c6f742073697a65206172726179206d757374206e6f742068617665206475706c6963617465734c6f742073697a6573206c657373207468616e20302e303030352042544320617265206e6f7420616c6c6f776564556e646572636f6c6c61746572616c697a6564207468726573686f6c64206d757374206265203c20696e697469616c20636f6c6c61746572616c697a65642070657263656e74536166654d6174683a206d756c7469706c69636174696f6e206f766572666c6f77476f7665726e616e63652064656c617920686173206e6f7420656c61707365644f776e61626c653a2063616c6c6572206973206e6f7420746865206f776e6572626567696e4b656570466163746f726965735570646174652063616e206f6e6c792062652063616c6c65642077697468696e203138302064617973206f6620696e697469616c697a6174696f6e4c6f742073697a65206172726179206d75737420616c7761797320636f6e7461696e203120425443496e697469616c20636f6c6c61746572616c697a65642070657263656e74206d757374206265203c3d20333030254b454550207374616b656420666163746f7279206d7573742062652061206e6f6e7a65726f20616464726573734c6f742073697a65732067726561746572207468616e203130302042544320617265206e6f7420616c6c6f7765644e6577206465706f73697473206172652063757272656e746c7920616c6c6f7765645369676e6572206665652064697669736f72206d757374206265206c657373207468616e20353030302c20666f722061207369676e6572206665652074686174206973203e20302e30322553657665726520756e646572636f6c6c61746572616c697a6564207468726573686f6c64206d757374206265203c20756e646572636f6c6c61746572616c697a6564207468726573686f6c64a265627a7a723158206cee8d3f02caa04735b53fef54699a89b07d37a6eeecf2f3d8f8ff97fd00812e64736f6c63430005110032",
  "source": "pragma solidity 0.5.17;\n\nimport {TBTCSystem} from \"../../../contracts/system/TBTCSystem.sol\";\n\ncontract TBTCSystemStub is TBTCSystem {\n    address keepAddress = address(7);\n    uint256 oraclePrice = 10 ** 12;\n\n    constructor(address _priceFeed, address _relay)\n        // Set expected factory address to 0-address.\n        // Address is irelevant as test use forceMint function to bypass ACL\n        TBTCSystem(_priceFeed, _relay)\n    public {\n        // solium-disable-previous-line no-empty-blocks\n        lotSizesSatoshis = [10**5, 10**6, 10**7, 2 * 10**7, 5 * 10**7, 10**8]; // [0.01, 0.1, 0.2, 0.5, 1.0] BTC\n    }\n\n    function setOraclePrice(uint256 _oraclePrice) external {\n        oraclePrice = _oraclePrice;\n    }\n\n    /// @dev Override TBTCSystem.fetchBitcoinPrice, don't call out to the price feed.\n    function fetchBitcoinPrice() external view returns (uint256) {\n        return oraclePrice;\n    }\n\n    function setKeepAddress(address _keepAddress) external {\n        keepAddress = _keepAddress;\n    }\n\n    function requestNewKeep(uint64, uint256) external payable returns (address _keepAddress) {\n        return keepAddress;\n    }\n}\n",
  "sourcePath": "/home/kowal/Projects/sovryn/tbtc/solidity/contracts/test/system/TBTCSystemStub.sol",
  "compiler": {
    "name": "solc",
    "version": "0.5.17+commit.d19bba13.Emscripten.clang"
  },
  "schemaVersion": "3.0.23",
  "updatedAt": "2021-02-01T14:28:06.557Z",
  "devdoc": {
    "methods": {
      "approvedToLog(address)": {
        "details": "checks tbtcDepositToken to see if the caller represents                     an existing deposit.                     We don't require this, so deposits are not bricked if the system borks.",
        "params": {
          "_caller": "The address of the calling contract."
        },
        "return": "True if approved, otherwise false."
      },
      "beginCollateralizationThresholdsUpdate(uint16,uint16,uint16)": {
        "details": "This can be finalized by calling `finalizeCollateralizationThresholdsUpdate`         Anytime after `governanceTimeDelay` has elapsed.",
        "params": {
          "_initialCollateralizedPercent": "default signing bond percent for new deposits",
          "_severelyUndercollateralizedThresholdPercent": "second undercollateralization trigger",
          "_undercollateralizedThresholdPercent": "first undercollateralization trigger"
        }
      },
      "beginKeepFactoriesUpdate(address,address,address)": {
        "details": "It can be finalized by calling `finalizeKeepFactoriesUpdate`      any time after `governanceTimeDelay` has elapsed. This can be      called more than once until finalized to reset the values and      timer. An update can only be initialized before      `keepFactoriesUpgradeabilityPeriod` elapses after system initialization;      after that, no further updates can be initialized, though any pending      update can be finalized. All calls must set all three properties to      their desired value; leaving a value as 0, even if it was previously      set, will update that value to be 0. ETH-bond-only factory or the      strategy are allowed to be set as zero addresses.",
        "params": {
          "_factorySelector": "Address of the keep factory selection strategy.",
          "_fullyBackedFactory": "Address of the ETH-bond-only-based factory.",
          "_keepStakedFactory": "Address of the KEEP staked based factory."
        }
      },
      "beginLotSizesUpdate(uint64[])": {
        "details": "Lot size array should always contain 10**8 satoshis (1 BTC) and         cannot contain values less than 50000 satoshis (0.0005 BTC) or         greater than 10**10 satoshis (100 BTC). Lot size array must not         have duplicates and it must be sorted.         This can be finalized by calling `finalizeLotSizesUpdate`         anytime after `governanceTimeDelay` has elapsed.",
        "params": {
          "_lotSizes": "Array of allowed lot sizes."
        }
      },
      "beginSignerFeeDivisorUpdate(uint16)": {
        "details": "This can be finalized by calling `finalizeSignerFeeDivisorUpdate`         Anytime after `governanceTimeDelay` has elapsed.",
        "params": {
          "_signerFeeDivisor": "The signer fee divisor."
        }
      },
      "fetchBitcoinPrice()": {
        "details": "Override TBTCSystem.fetchBitcoinPrice, don't call out to the price feed."
      },
      "finalizeCollateralizationThresholdsUpdate()": {
        "details": "`beginCollateralizationThresholdsUpdate` must be called first, once `governanceTimeDelay`       has passed, this function can be called to set the collateralization thresholds to the       value set in `beginCollateralizationThresholdsUpdate`"
      },
      "finalizeKeepFactoriesUpdate()": {
        "details": "`beginKeepFactoriesUpdate` must be called first; once      `governanceTimeDelay` has passed, this function can be called to      set factories addresses to the values set in `beginKeepFactoriesUpdate`."
      },
      "finalizeLotSizesUpdate()": {
        "details": "`beginLotSizesUpdate` must be called first, once `governanceTimeDelay`       has passed, this function can be called to set the lot sizes to the       value set in `beginLotSizesUpdate`"
      },
      "finalizeSignerFeeDivisorUpdate()": {
        "details": "`beginSignerFeeDivisorUpdate` must be called first, once `governanceTimeDelay`       has passed, this function can be called to set the signer fee divisor to the       value set in `beginSignerFeeDivisorUpdate`"
      },
      "getAllowNewDeposits()": {
        "return": "True if new deposits should be allowed by the emergency pause button"
      },
      "getAllowedLotSizes()": {
        "return": "Uint64 array of allowed lot sizes"
      },
      "getMaximumLotSize()": {
        "return": "The largest lot size, in satoshis."
      },
      "getMinimumLotSize()": {
        "return": "The lowest lot size, in satoshis."
      },
      "getNewDepositFeeEstimate()": {
        "return": "Uint256 estimate."
      },
      "getSignerFeeDivisor()": {
        "return": "The signer fee divisor."
      },
      "initialize(address,address,address,address,address,address,address,uint16,uint16)": {
        "details": "Only the Deposit factory should call this, and only once.",
        "params": {
          "_defaultKeepFactory": "ECDSA keep factory backed by KEEP stake.",
          "_depositFactory": "Deposit Factory. More info in `DepositFactory`.",
          "_feeRebateToken": "FeeRebateToken (FRT). More info in `FeeRebateToken`.",
          "_keepSize": "Signing group size.",
          "_keepThreshold": "Signing group honesty threshold.",
          "_masterDepositAddress": "Master Deposit address. More info in `Deposit`.",
          "_tbtcDepositToken": "TBTCDepositToken (TDT). More info in `TBTCDepositToken`.",
          "_tbtcToken": "TBTCToken. More info in `TBTCToken`."
        }
      },
      "isAllowedLotSize(uint64)": {
        "params": {
          "_requestedLotSizeSatoshis": "Lot size to check."
        },
        "return": "True if lot size is allowed, false otherwise."
      },
      "isOwner()": {
        "details": "Returns true if the caller is the current owner."
      },
      "logCourtesyCalled()": {
        "details": "We append the sender, which is the deposit contract that called."
      },
      "logCreated(address)": {
        "details": "We append the sender, which is the deposit contract that called.",
        "params": {
          "_keepAddress": "The address of the associated keep."
        },
        "return": "True if successful, else revert."
      },
      "logExitedCourtesyCall()": {
        "details": "We append the sender, which is the deposit contract that called."
      },
      "logFraudDuringSetup()": {
        "details": "We append the sender, which is the deposit contract that called."
      },
      "logFunded(bytes32)": {
        "details": "We append the sender, which is the deposit contract that called."
      },
      "logFunderRequestedAbort(bytes)": {
        "details": "We append the sender, which is the deposit contract that called."
      },
      "logGotRedemptionSignature(bytes32,bytes32,bytes32)": {
        "details": "We append the sender, which is the deposit contract that called.",
        "params": {
          "_digest": "signed digest.",
          "_r": "signature r value.",
          "_s": "signature s value."
        }
      },
      "logLiquidated()": {
        "details": "We append the sender, which is the deposit contract that called."
      },
      "logRedeemed(bytes32)": {
        "details": "We append the sender, which is the deposit contract that called."
      },
      "logRedemptionRequested(address,bytes32,uint256,bytes,uint256,bytes)": {
        "details": "This is the only event without an explicit timestamp.",
        "params": {
          "_digest": "The calculated sighash digest.",
          "_outpoint": "The 36 byte outpoint.",
          "_redeemerOutputScript": "The redeemer's length-prefixed output script.",
          "_requestedFee": "The requester or bump-system specified fee.",
          "_requester": "The ethereum address of the requester.",
          "_utxoValue": "The size of the utxo in sat."
        },
        "return": "True if successful, else revert."
      },
      "logRegisteredPubkey(bytes32,bytes32)": {
        "details": "We append the sender, which is the deposit contract that called."
      },
      "logSetupFailed()": {
        "details": "We append the sender, which is the deposit contract that called."
      },
      "logStartedLiquidation(bool)": {
        "details": "We append the sender, which is the deposit contract that called.",
        "params": {
          "_wasFraud": "True if liquidating for fraud."
        }
      },
      "owner()": {
        "details": "Returns the address of the current owner."
      },
      "refreshMinimumBondableValue()": {
        "details": "It is recommended to call this function on tBTC initialization and after minimum lot size update."
      },
      "renounceOwnership()": {
        "details": "Leaves the contract without owner. It will not be possible to call `onlyOwner` functions anymore. Can only be called by the current owner.     * > Note: Renouncing ownership will leave the contract without an owner, thereby removing any functionality that is only available to the owner."
      },
      "transferOwnership(address)": {
        "details": "Transfers ownership of the contract to a new account (`newOwner`). Can only be called by the current owner."
      }
    }
  },
  "userdoc": {
    "methods": {
      "approvedToLog(address)": {
        "notice": "Checks if an address is an allowed logger."
      },
      "beginCollateralizationThresholdsUpdate(uint16,uint16,uint16)": {
        "notice": "Set the system collateralization levels"
      },
      "beginKeepFactoriesUpdate(address,address,address)": {
        "notice": "Sets the addresses of the KEEP-staked ECDSA keep factory,         ETH-only-backed ECDSA keep factory and the selection strategy         that will choose between the two factories for new deposits.         When the ETH-only-backed factory and strategy are not set TBTCSystem         will use KEEP-staked factory. When both factories and strategy         are set, TBTCSystem load balances between two factories based on         the selection strategy."
      },
      "beginLotSizesUpdate(uint64[])": {
        "notice": "Set the allowed deposit lot sizes."
      },
      "beginSignerFeeDivisorUpdate(uint16)": {
        "notice": "Set the system signer fee divisor."
      },
      "emergencyPauseNewDeposits()": {
        "notice": "One-time-use emergency function to disallow future deposit creation for 10 days."
      },
      "finalizeCollateralizationThresholdsUpdate()": {
        "notice": "Finish setting the system collateralization levels"
      },
      "finalizeKeepFactoriesUpdate()": {
        "notice": "Finish setting addresses of the KEEP-staked ECDSA keep factory,         ETH-only-backed ECDSA keep factory, and the selection strategy         that will choose between the two factories for new deposits."
      },
      "finalizeLotSizesUpdate()": {
        "notice": "Finish setting the accepted system lot sizes."
      },
      "finalizeSignerFeeDivisorUpdate()": {
        "notice": "Finish setting the system signer fee divisor."
      },
      "getAllowNewDeposits()": {
        "notice": "Returns whether new deposits should be allowed."
      },
      "getAllowedLotSizes()": {
        "notice": "Gets the allowed lot sizes"
      },
      "getGovernanceTimeDelay()": {
        "notice": "Returns the time delay used for governance actions except for         price feed additions."
      },
      "getInitialCollateralizedPercent()": {
        "notice": "Get the system initial collateralized level for new deposits."
      },
      "getKeepFactoriesUpgradeabilityPeriod()": {
        "notice": "Returns the time period when keep factories upgrades are allowed."
      },
      "getMaximumLotSize()": {
        "notice": "Return the largest lot size currently enabled for deposits."
      },
      "getMinimumLotSize()": {
        "notice": "Return the lowest lot size currently enabled for deposits."
      },
      "getNewDepositFeeEstimate()": {
        "notice": "Gets a fee estimate for creating a new Deposit."
      },
      "getPriceFeedGovernanceTimeDelay()": {
        "notice": "Returns the time delay used for price feed addition governance         actions."
      },
      "getRemainingCollateralizationThresholdsUpdateTime()": {
        "notice": "Get the time remaining until the collateralization thresholds can be updated."
      },
      "getRemainingEthBtcPriceFeedAdditionTime()": {
        "notice": "Get the time remaining until the signer fee divisor can be updated."
      },
      "getRemainingKeepFactoriesUpdateTime()": {
        "notice": "Get the time remaining until the Keep ETH-only-backed ECDSA keep         factory and the selection strategy that will choose between it         and the KEEP-backed factory can be updated."
      },
      "getRemainingKeepFactoriesUpgradeabilityTime()": {
        "notice": "Get the time remaining until Keep factories can no longer be updated."
      },
      "getRemainingLotSizesUpdateTime()": {
        "notice": "Get the time remaining until the lot sizes can be updated."
      },
      "getRemainingSignerFeeDivisorUpdateTime()": {
        "notice": "Get the time remaining until the signer fee divisor can be updated."
      },
      "getSeverelyUndercollateralizedThresholdPercent()": {
        "notice": "Get the system severe undercollateralization level for new deposits"
      },
      "getSignerFeeDivisor()": {
        "notice": "Gets the system signer fee divisor."
      },
      "getUndercollateralizedThresholdPercent()": {
        "notice": "Get the system undercollateralization level for new deposits"
      },
      "initialize(address,address,address,address,address,address,address,uint16,uint16)": {
        "notice": "Initialize contracts"
      },
      "isAllowedLotSize(uint64)": {
        "notice": "Check if a lot size is allowed."
      },
      "logCourtesyCalled()": {
        "notice": "Fires a CourtesyCalled event."
      },
      "logCreated(address)": {
        "notice": "Fires a Created event."
      },
      "logExitedCourtesyCall()": {
        "notice": "Fires a ExitedCourtesyCall event"
      },
      "logFraudDuringSetup()": {
        "notice": "Fires a FraudDuringSetup event."
      },
      "logFunded(bytes32)": {
        "notice": "Fires a Funded event."
      },
      "logFunderRequestedAbort(bytes)": {
        "notice": "Fires a FunderAbortRequested event."
      },
      "logGotRedemptionSignature(bytes32,bytes32,bytes32)": {
        "notice": "Fires a GotRedemptionSignature event."
      },
      "logLiquidated()": {
        "notice": "Fires a Liquidated event"
      },
      "logRedeemed(bytes32)": {
        "notice": "Fires a Redeemed event"
      },
      "logRedemptionRequested(address,bytes32,uint256,bytes,uint256,bytes)": {
        "notice": "Fires a RedemptionRequested event."
      },
      "logRegisteredPubkey(bytes32,bytes32)": {
        "notice": "Fires a RegisteredPubkey event."
      },
      "logSetupFailed()": {
        "notice": "Fires a SetupFailed event."
      },
      "logStartedLiquidation(bool)": {
        "notice": "Fires a StartedLiquidation event."
      },
      "refreshMinimumBondableValue()": {
        "notice": "Refreshes the minimum bondable value required from the operator to join the sortition pool for tBTC. The minimum bondable value is equal to the current minimum lot size collateralized 150% multiplied by the current BTC price."
      },
      "resumeNewDeposits()": {
        "notice": "Anyone can reactivate deposit creations after the pause duration is over."
      }
    }
  }
}