{
  "contractName": "TestRelay",
  "abi": [
    {
      "inputs": [
        {
          "internalType": "bytes",
          "name": "_genesisHeader",
          "type": "bytes"
        },
        {
          "internalType": "uint256",
          "name": "_height",
          "type": "uint256"
        },
        {
          "internalType": "bytes32",
          "name": "_periodStart",
          "type": "bytes32"
        }
      ],
      "payable": false,
      "stateMutability": "nonpayable",
      "type": "constructor"
    },
    {
      "anonymous": false,
      "inputs": [
        {
          "indexed": true,
          "internalType": "bytes32",
          "name": "_first",
          "type": "bytes32"
        },
        {
          "indexed": true,
          "internalType": "bytes32",
          "name": "_last",
          "type": "bytes32"
        }
      ],
      "name": "Extension",
      "type": "event"
    },
    {
      "anonymous": false,
      "inputs": [
        {
          "indexed": true,
          "internalType": "bytes32",
          "name": "_from",
          "type": "bytes32"
        },
        {
          "indexed": true,
          "internalType": "bytes32",
          "name": "_to",
          "type": "bytes32"
        },
        {
          "indexed": true,
          "internalType": "bytes32",
          "name": "_gcd",
          "type": "bytes32"
        }
      ],
      "name": "NewTip",
      "type": "event"
    },
    {
      "constant": true,
      "inputs": [],
      "name": "HEIGHT_INTERVAL",
      "outputs": [
        {
          "internalType": "uint32",
          "name": "",
          "type": "uint32"
        }
      ],
      "payable": false,
      "stateMutability": "view",
      "type": "function"
    },
    {
      "constant": false,
      "inputs": [
        {
          "internalType": "bytes",
          "name": "_anchor",
          "type": "bytes"
        },
        {
          "internalType": "bytes",
          "name": "_headers",
          "type": "bytes"
        }
      ],
      "name": "addHeaders",
      "outputs": [
        {
          "internalType": "bool",
          "name": "",
          "type": "bool"
        }
      ],
      "payable": false,
      "stateMutability": "nonpayable",
      "type": "function"
    },
    {
      "constant": false,
      "inputs": [
        {
          "internalType": "bytes",
          "name": "_oldPeriodStartHeader",
          "type": "bytes"
        },
        {
          "internalType": "bytes",
          "name": "_oldPeriodEndHeader",
          "type": "bytes"
        },
        {
          "internalType": "bytes",
          "name": "_headers",
          "type": "bytes"
        }
      ],
      "name": "addHeadersWithRetarget",
      "outputs": [
        {
          "internalType": "bool",
          "name": "",
          "type": "bool"
        }
      ],
      "payable": false,
      "stateMutability": "nonpayable",
      "type": "function"
    },
    {
      "constant": true,
      "inputs": [
        {
          "internalType": "bytes32",
          "name": "_digest",
          "type": "bytes32"
        },
        {
          "internalType": "uint256",
          "name": "_offset",
          "type": "uint256"
        }
      ],
      "name": "findAncestor",
      "outputs": [
        {
          "internalType": "bytes32",
          "name": "",
          "type": "bytes32"
        }
      ],
      "payable": false,
      "stateMutability": "view",
      "type": "function"
    },
    {
      "constant": true,
      "inputs": [
        {
          "internalType": "bytes32",
          "name": "_digest",
          "type": "bytes32"
        }
      ],
      "name": "findHeight",
      "outputs": [
        {
          "internalType": "uint256",
          "name": "",
          "type": "uint256"
        }
      ],
      "payable": false,
      "stateMutability": "view",
      "type": "function"
    },
    {
      "constant": true,
      "inputs": [],
      "name": "getBestKnownDigest",
      "outputs": [
        {
          "internalType": "bytes32",
          "name": "",
          "type": "bytes32"
        }
      ],
      "payable": false,
      "stateMutability": "view",
      "type": "function"
    },
    {
      "constant": true,
      "inputs": [],
      "name": "getCurrentEpochDifficulty",
      "outputs": [
        {
          "internalType": "uint256",
          "name": "",
          "type": "uint256"
        }
      ],
      "payable": false,
      "stateMutability": "view",
      "type": "function"
    },
    {
      "constant": true,
      "inputs": [],
      "name": "getLastReorgCommonAncestor",
      "outputs": [
        {
          "internalType": "bytes32",
          "name": "",
          "type": "bytes32"
        }
      ],
      "payable": false,
      "stateMutability": "view",
      "type": "function"
    },
    {
      "constant": true,
      "inputs": [],
      "name": "getPrevEpochDifficulty",
      "outputs": [
        {
          "internalType": "uint256",
          "name": "",
          "type": "uint256"
        }
      ],
      "payable": false,
      "stateMutability": "view",
      "type": "function"
    },
    {
      "constant": true,
      "inputs": [],
      "name": "getRelayGenesis",
      "outputs": [
        {
          "internalType": "bytes32",
          "name": "",
          "type": "bytes32"
        }
      ],
      "payable": false,
      "stateMutability": "view",
      "type": "function"
    },
    {
      "constant": true,
      "inputs": [
        {
          "internalType": "bytes32",
          "name": "_ancestor",
          "type": "bytes32"
        },
        {
          "internalType": "bytes32",
          "name": "_descendant",
          "type": "bytes32"
        },
        {
          "internalType": "uint256",
          "name": "_limit",
          "type": "uint256"
        }
      ],
      "name": "isAncestor",
      "outputs": [
        {
          "internalType": "bool",
          "name": "",
          "type": "bool"
        }
      ],
      "payable": false,
      "stateMutability": "view",
      "type": "function"
    },
    {
      "constant": false,
      "inputs": [
        {
          "internalType": "bytes32",
          "name": "_ancestor",
          "type": "bytes32"
        },
        {
          "internalType": "bytes",
          "name": "_currentBest",
          "type": "bytes"
        },
        {
          "internalType": "bytes",
          "name": "_newBest",
          "type": "bytes"
        },
        {
          "internalType": "uint256",
          "name": "_limit",
          "type": "uint256"
        }
      ],
      "name": "markNewHeaviest",
      "outputs": [
        {
          "internalType": "bool",
          "name": "",
          "type": "bool"
        }
      ],
      "payable": false,
      "stateMutability": "nonpayable",
      "type": "function"
    },
    {
      "constant": true,
      "inputs": [
        {
          "internalType": "bytes32",
          "name": "_ancestor",
          "type": "bytes32"
        },
        {
          "internalType": "bytes",
          "name": "_left",
          "type": "bytes"
        },
        {
          "internalType": "bytes",
          "name": "_right",
          "type": "bytes"
        }
      ],
      "name": "heaviestFromAncestor",
      "outputs": [
        {
          "internalType": "bytes32",
          "name": "",
          "type": "bytes32"
        }
      ],
      "payable": false,
      "stateMutability": "view",
      "type": "function"
    },
    {
      "constant": true,
      "inputs": [
        {
          "internalType": "bytes32",
          "name": "_ancestor",
          "type": "bytes32"
        },
        {
          "internalType": "bytes32",
          "name": "_left",
          "type": "bytes32"
        },
        {
          "internalType": "bytes32",
          "name": "_right",
          "type": "bytes32"
        },
        {
          "internalType": "uint256",
          "name": "_limit",
          "type": "uint256"
        }
      ],
      "name": "isMostRecentAncestor",
      "outputs": [
        {
          "internalType": "bool",
          "name": "",
          "type": "bool"
        }
      ],
      "payable": false,
      "stateMutability": "view",
      "type": "function"
    }
  ],
  "bytecode": "0x60806040523480156200001157600080fd5b506040516200209938038062002099833981810160405260608110156200003757600080fd5b81019080805160405193929190846401000000008211156200005857600080fd5b9083019060208201858111156200006e57600080fd5b82516401000000008111828201881017156200008957600080fd5b82525081516020918201929091019080838360005b83811015620000b85781810151838201526020016200009e565b50505050905090810190601f168015620000e65780820380516001836020036101000a031916815260200191505b50604090815260208201519101518451919350915083908390839060501462000148576040805162461bcd60e51b815260206004820152600f60248201526e29ba37b8103132b4b73390323ab6b160891b604482015290519081900360640190fd5b600062000160846200022060201b620012c01760201c565b905062ffffff821615620001a65760405162461bcd60e51b815260040180806020018281038252603d8152602001806200205c603d913960400191505060405180910390fd5b600081815560018290556002829055818152600460205260409020839055620001e26107e08406846200035960201b620017521790919060201c565b60046000848152602001908152602001600020819055506200020f84620003b760201b6200166f1760201c565b600555506200063895505050505050565b6000600280836040518082805190602001908083835b60208310620002575780518252601f19909201916020918201910162000236565b51815160209384036101000a60001901801990921691161790526040519190930194509192505080830381855afa15801562000297573d6000803e3d6000fd5b5050506040513d6020811015620002ad57600080fd5b50516040805160208181019390935281518082038401815290820191829052805190928291908401908083835b60208310620002fb5780518252601f199092019160209182019101620002da565b51815160209384036101000a60001901801990921691161790526040519190930194509192505080830381855afa1580156200033b573d6000803e3d6000fd5b5050506040513d60208110156200035157600080fd5b505192915050565b600082821115620003b1576040805162461bcd60e51b815260206004820152601d60248201527f556e646572666c6f7720647572696e67207375627472616374696f6e2e000000604482015290519081900360640190fd5b50900390565b6000620003e0620003d1836001600160e01b03620003e616565b6001600160e01b036200046616565b92915050565b600060606200040860486003856200048760201b620013f1179092919060201c565b9050600083604b815181106200041a57fe5b016020015160f81c905060006200044d6200043e846001600160e01b036200055216565b6001600160e01b03620005e416565b6002199290920160ff166101000a909102949350505050565b6000620003e08261ffff60d01b6200062460201b6200180c1790919060201c565b606081620004a557506040805160208101909152600081526200054b565b8282018381118015620004b9575080855110155b6200050b576040805162461bcd60e51b815260206004820152601360248201527f536c696365206f7574206f6620626f756e647300000000000000000000000000604482015290519081900360640190fd5b604051915082604083010160405282825283850182038460208701018481015b8082101562000546578151838301526020820191506200052b565b505050505b9392505050565b60608082516040519080825280601f01601f19166020018201604052801562000582576020820181803883390190505b50905060005b8351811015620005dd578381815181106200059f57fe5b602001015160f81c60f81b826001838751030381518110620005bd57fe5b60200101906001600160f81b031916908160001a90535060010162000588565b5092915050565b600080805b8351811015620005dd578060010184510360080260020a8482815181106200060d57fe5b016020015160f81c029190910190600101620005e9565b60008183816200063057fe5b049392505050565b611a1480620006486000396000f3fe608060405234801561001057600080fd5b50600436106100ea5760003560e01c806370d53c181161008c578063b25b9b0011610066578063b25b9b001461044e578063b985621a14610513578063c58242cd1461053c578063e3d8d8d814610544576100ea565b806370d53c181461025a57806374c3a3a91461027b5780637fa637fc14610340576100ea565b80632e4f161a116100c85780632e4f161a1461011957806330017b3b1461015c57806360b5c3901461017f57806365da41b91461019c576100ea565b8063113764be146100ef5780631910d973146101095780632b97be2414610111575b600080fd5b6100f761054c565b60408051918252519081900360200190f35b6100f7610552565b6100f7610558565b6101486004803603608081101561012f57600080fd5b508035906020810135906040810135906060013561055e565b604080519115158252519081900360200190f35b6100f76004803603604081101561017257600080fd5b5080359060200135610577565b6100f76004803603602081101561019557600080fd5b503561058c565b610148600480360360408110156101b257600080fd5b810190602081018135600160201b8111156101cc57600080fd5b8201836020820111156101de57600080fd5b803590602001918460018302840111600160201b831117156101ff57600080fd5b919390929091602081019035600160201b81111561021c57600080fd5b82018360208201111561022e57600080fd5b803590602001918460018302840111600160201b8311171561024f57600080fd5b50909250905061059f565b610262610614565b6040805163ffffffff9092168252519081900360200190f35b6101486004803603608081101561029157600080fd5b81359190810190604081016020820135600160201b8111156102b257600080fd5b8201836020820111156102c457600080fd5b803590602001918460018302840111600160201b831117156102e557600080fd5b919390929091602081019035600160201b81111561030257600080fd5b82018360208201111561031457600080fd5b803590602001918460018302840111600160201b8311171561033557600080fd5b919350915035610619565b6101486004803603606081101561035657600080fd5b810190602081018135600160201b81111561037057600080fd5b82018360208201111561038257600080fd5b803590602001918460018302840111600160201b831117156103a357600080fd5b919390929091602081019035600160201b8111156103c057600080fd5b8201836020820111156103d257600080fd5b803590602001918460018302840111600160201b831117156103f357600080fd5b919390929091602081019035600160201b81111561041057600080fd5b82018360208201111561042257600080fd5b803590602001918460018302840111600160201b8311171561044357600080fd5b50909250905061069c565b6100f76004803603606081101561046457600080fd5b81359190810190604081016020820135600160201b81111561048557600080fd5b82018360208201111561049757600080fd5b803590602001918460018302840111600160201b831117156104b857600080fd5b919390929091602081019035600160201b8111156104d557600080fd5b8201836020820111156104e757600080fd5b803590602001918460018302840111600160201b8311171561050857600080fd5b509092509050610745565b6101486004803603606081101561052957600080fd5b50803590602081013590604001356107c5565b6100f76107dc565b6100f76107e2565b60055490565b60015490565b60065490565b600061056c858585856107e8565b90505b949350505050565b60006105838383610899565b90505b92915050565b600061059782610915565b90505b919050565b600061056c85858080601f01602080910402602001604051908101604052809392919081815260200183838082843760009201919091525050604080516020601f89018190048102820181019092528781529250879150869081908401838280828437600092018290525092506109c0915050565b600481565b60006106918787878080601f01602080910402602001604051908101604052809392919081815260200183838082843760009201919091525050604080516020601f8b018190048102820181019092528981529250899150889081908401838280828437600092019190915250889250610cb8915050565b979650505050505050565b600061069187878080601f01602080910402602001604051908101604052809392919081815260200183838082843760009201919091525050604080516020601f8b01819004810282018101909252898152925089915088908190840183828082843760009201919091525050604080516020601f8a018190048102820181019092528881529250889150879081908401838280828437600092019190915250610eb592505050565b60006107bb8686868080601f01602080910402602001604051908101604052809392919081815260200183838082843760009201919091525050604080516020601f8a0181900481028201810190925288815292508891508790819084018382808284376000920191909152506110c892505050565b9695505050505050565b60006107d2848484611213565b90505b9392505050565b60025490565b60005490565b600083851480156107f857508285145b156108055750600161056f565b8383818160005b868110156108605789831461082e576000838152600360205260409020549294505b898214610848576000828152600360205260409020549193505b61085981600163ffffffff61126816565b905061080c565b508284141561087657600094505050505061056f565b80821461088a57600094505050505061056f565b50600198975050505050505050565b600082815b838110156108cf5760009182526003602052604090912054906108c881600163ffffffff61126816565b905061089e565b5080610583576040805162461bcd60e51b815260206004820152601060248201526f2ab735b737bbb71030b731b2b9ba37b960811b604482015290519081900360640190fd5b60008082815b60058110156109825760008281526004602052604090205492508261095057600091825260036020526040909120549061096a565b610960838263ffffffff61126816565b935050505061059a565b61097b81600163ffffffff61126816565b905061091b565b506040805162461bcd60e51b815260206004820152600d60248201526c556e6b6e6f776e20626c6f636b60981b604482015290519081900360640190fd5b60008060606000806109d1886112c0565b905060006109ef6109ea8983605063ffffffff6113f116565b6114ab565b905060006109fc83610915565b90508780610a11575081610a0f8b6114ab565b145b610a4c5760405162461bcd60e51b815260040180806020018281038252602481526020018061196c6024913960400191505060405180910390fd5b6050895181610a5757fe5b0615610a945760405162461bcd60e51b815260040180806020018281038252602b815260200180611879602b913960400191505060405180910390fd5b60005b60508a5181610aa257fe5b04811015610c7457610acd610abe82605063ffffffff61150416565b8b90605063ffffffff6113f116565b9550610ae2826001830163ffffffff61126816565b9650610aed866112c0565b600081815260036020526040902054909550610bb25782610b34610b2f8760405160200180828152602001915050604051602081830303815290604052611574565b611601565b1115610b87576040805162461bcd60e51b815260206004820152601b60248201527f48656164657220776f726b20697320696e73756666696369656e740000000000604482015290519081900360640190fd5b600085815260036020526040902084905560048706610bb25760008581526004602052604090208790555b82610bbc876114ab565b14610c0e576040805162461bcd60e51b815260206004820152601b60248201527f546172676574206368616e67656420756e65787065637465646c790000000000604482015290519081900360640190fd5b610c1e868563ffffffff61163e16565b610c595760405162461bcd60e51b81526004018080602001828103825260268152602001806118206026913960400191505060405180910390fd5b849350610c6d81600163ffffffff61126816565b9050610a97565b5083610c7f8b6112c0565b6040517ff90e4f1d9cd0dd55e339411cbc9b152482307c3a23ed64715e4a2858f641a3f590600090a35060019998505050505050505050565b60006107e0821115610cfb5760405162461bcd60e51b81526004018080602001828103825260338152602001806118466033913960400191505060405180910390fd5b6000610d06846112c0565b90506000610d13866112c0565b90506001548114610d6b576040805162461bcd60e51b815260206004820181905260248201527f50617373656420696e2062657374206973206e6f742062657374206b6e6f776e604482015290519081900360640190fd5b600082815260036020526040902054610dc1576040805162461bcd60e51b81526020600482015260136024820152722732bb903132b9ba1034b9903ab735b737bbb760691b604482015290519081900360640190fd5b610dcf8760015484876107e8565b610e0a5760405162461bcd60e51b81526004018080602001828103825260298152602001806119b76029913960400191505060405180910390fd5b81610e168888886110c8565b14610e525760405162461bcd60e51b81526004018080602001828103825260338152602001806119096033913960400191505060405180910390fd5b600182905560028790556000610e678661166f565b90506005548114610e785760058190555b8783837f3cc13de64df0f0239626235c51a2da251bbc8c85664ecce39263da3ee03f606c60405160405180910390a4506001979650505050505050565b600080610ec9610ec4866112c0565b610915565b90506000610ed9610ec4866112c0565b90506107e081066107df14610f1f5760405162461bcd60e51b815260040180806020018281038252603d8152602001806118cc603d913960400191505060405180910390fd5b610f31826107df63ffffffff61126816565b8114610f6e5760405162461bcd60e51b81526004018080602001828103825260288152602001806118a46028913960400191505060405180910390fd5b610f778561166f565b610f808761166f565b14610fbc5760405162461bcd60e51b81526004018080602001828103825260278152602001806119906027913960400191505060405180910390fd5b6060610fd1856000605063ffffffff6113f116565b90506000610fde826114ab565b90506000611011610fee8a6114ab565b610ff78b611682565b63ffffffff166110068b611682565b63ffffffff16611698565b90508181831614611069576040805162461bcd60e51b815260206004820152601960248201527f496e76616c69642072657461726765742070726f766964656400000000000000604482015290519081900360640190fd5b60006110748a61166f565b905080600654141580156110a357506110a06107e0611094600154610915565b9063ffffffff61175216565b85115b156110ae5760068190555b6110ba898960016109c0565b9a9950505050505050505050565b6000806110d485610915565b905060006110e4610ec4866112c0565b905060006110f4610ec4866112c0565b90508282101580156111065750828110155b6111415760405162461bcd60e51b815260040180806020018281038252603081526020018061193c6030913960400191505060405180910390fd5b600061115d6107e08506611094866107e063ffffffff61126816565b905080831081831081158261116f5750805b1561118a5761117d896112c0565b96505050505050506107d5565b818015611195575080155b156111a35761117d886112c0565b8180156111ad5750805b156111d157838510156111c8576111c3886112c0565b61117d565b61117d896112c0565b6111ef6111dd8961166f565b6107e0865b069063ffffffff61150416565b6112046111fb8b61166f565b6107e0886111e2565b10156111c85761117d886112c0565b600082815b8381101561125c5785821415611233576001925050506107d5565b600091825260036020526040909120549061125581600163ffffffff61126816565b9050611218565b50600095945050505050565b81810182811015610586576040805162461bcd60e51b815260206004820152601960248201527f4f766572666c6f7720647572696e67206164646974696f6e2e00000000000000604482015290519081900360640190fd5b6000600280836040518082805190602001908083835b602083106112f55780518252601f1990920191602091820191016112d6565b51815160209384036101000a60001901801990921691161790526040519190930194509192505080830381855afa158015611334573d6000803e3d6000fd5b5050506040513d602081101561134957600080fd5b50516040805160208181019390935281518082038401815290820191829052805190928291908401908083835b602083106113955780518252601f199092019160209182019101611376565b51815160209384036101000a60001901801990921691161790526040519190930194509192505080830381855afa1580156113d4573d6000803e3d6000fd5b5050506040513d60208110156113e957600080fd5b505192915050565b60608161140d57506040805160208101909152600081526107d5565b8282018381118015611420575080855110155b611467576040805162461bcd60e51b8152602060048201526013602482015272536c696365206f7574206f6620626f756e647360681b604482015290519081900360640190fd5b604051915082604083010160405282825283850182038460208701018481015b808210156114a057815183830152602082019150611487565b505050509392505050565b600060606114c2836048600363ffffffff6113f116565b9050600083604b815181106114d357fe5b016020015160f81c905060006114eb610b2f84611574565b6002199290920160ff166101000a909102949350505050565b60008261151357506000610586565b508181028183828161152157fe5b0414610586576040805162461bcd60e51b815260206004820152601f60248201527f4f766572666c6f7720647572696e67206d756c7469706c69636174696f6e2e00604482015290519081900360640190fd5b60608082516040519080825280601f01601f1916602001820160405280156115a3576020820181803883390190505b50905060005b83518110156115fa578381815181106115be57fe5b602001015160f81c60f81b8260018387510303815181106115db57fe5b60200101906001600160f81b031916908160001a9053506001016115a9565b5092915050565b600080805b83518110156115fa578060010184510360080260020a84828151811061162857fe5b016020015160f81c029190910190600101611606565b60008061165261164d856117af565b6117c4565b9050828114611665576000915050610586565b5060019392505050565b600061059761167d836114ab565b6117e0565b6000610597610b2f611693846117f7565b611574565b6000806116ab838563ffffffff61175216565b90506116c162127500600463ffffffff61180c16565b8110156116df576116dc62127500600463ffffffff61180c16565b90505b6116f362127500600463ffffffff61150416565b8111156117115761170e62127500600463ffffffff61150416565b90505b60006117368261172a886201000063ffffffff61180c16565b9063ffffffff61150416565b90506107bb6201000061172a836212750063ffffffff61180c16565b6000828211156117a9576040805162461bcd60e51b815260206004820152601d60248201527f556e646572666c6f7720647572696e67207375627472616374696f6e2e000000604482015290519081900360640190fd5b50900390565b6060610597826004602063ffffffff6113f116565b60008151600014156117d85750600061059a565b506020015190565b600061059761ffff60d01b8363ffffffff61180c16565b6060610597826044600463ffffffff6113f116565b600081838161181757fe5b04939250505056fe4865616465727320646f206e6f7420666f726d206120636f6e73697374656e7420636861696e526571756573746564206c696d69742069732067726561746572207468616e203120646966666963756c747920706572696f64486561646572206172726179206c656e677468206d75737420626520646976697369626c652062792038304d7573742070726f766964652065786163746c79203120646966666963756c747920706572696f644d7573742070726f7669646520746865206c61737420686561646572206f662074686520636c6f73696e6720646966666963756c747920706572696f644e65772062657374206861736820646f6573206e6f742068617665206d6f726520776f726b207468616e2070726576696f7573412064657363656e64616e74206865696768742069732062656c6f772074686520616e636573746f7220686569676874556e6578706563746564207265746172676574206f6e2065787465726e616c2063616c6c506572696f642068656164657220646966666963756c7469657320646f206e6f74206d61746368416e636573746f72206d75737420626520686561766965737420636f6d6d6f6e20616e636573746f72a265627a7a72315820868900384998c8e0af8f3a3b956004e45f8dcd54d23297d71df0d504d071d2ca64736f6c63430005110032506572696f64207374617274206861736820646f6573206e6f74206861766520776f726b2e2048696e743a2077726f6e672062797465206f726465723f",
  "source": "pragma solidity ^0.5.10;\n\n/** @title Relay */\n/** @author Summa (https://summa.one) */\n\nimport {SafeMath} from \"@summa-tx/bitcoin-spv-sol/contracts/SafeMath.sol\";\nimport {BytesLib} from \"@summa-tx/bitcoin-spv-sol/contracts/BytesLib.sol\";\nimport {BTCUtils} from \"@summa-tx/bitcoin-spv-sol/contracts/BTCUtils.sol\";\nimport {ValidateSPV} from \"@summa-tx/bitcoin-spv-sol/contracts/ValidateSPV.sol\";\nimport {IRelay} from \"./Interfaces.sol\";\n\ncontract Relay is IRelay {\n    using SafeMath for uint256;\n    using BytesLib for bytes;\n    using BTCUtils for bytes;\n    using ValidateSPV for bytes;\n\n    // How often do we store the height?\n    // A higher number incurs less storage cost, but more lookup cost\n    uint32 public constant HEIGHT_INTERVAL = 4;\n\n    bytes32 internal relayGenesis;\n    bytes32 internal bestKnownDigest;\n    bytes32 internal lastReorgCommonAncestor;\n    mapping (bytes32 => bytes32) internal previousBlock;\n    mapping (bytes32 => uint256) internal blockHeight;\n\n    uint256 internal currentEpochDiff;\n    uint256 internal prevEpochDiff;\n\n\n    /// @notice                   Gives a starting point for the relay\n    /// @dev                      We don't check this AT ALL really. Don't use relays with bad genesis\n    /// @param  _genesisHeader    The starting header\n    /// @param  _height           The starting height\n    /// @param  _periodStart      The hash of the first header in the genesis epoch\n    constructor(bytes memory _genesisHeader, uint256 _height, bytes32 _periodStart) public {\n        require(_genesisHeader.length == 80, \"Stop being dumb\");\n        bytes32 _genesisDigest = _genesisHeader.hash256();\n\n        require(\n            _periodStart & bytes32(0x0000000000000000000000000000000000000000000000000000000000ffffff) == bytes32(0),\n            \"Period start hash does not have work. Hint: wrong byte order?\");\n\n        relayGenesis = _genesisDigest;\n        bestKnownDigest = _genesisDigest;\n        lastReorgCommonAncestor = _genesisDigest;\n        blockHeight[_genesisDigest] = _height;\n        blockHeight[_periodStart] = _height.sub(_height % 2016);\n\n        currentEpochDiff = _genesisHeader.extractDifficulty();\n    }\n\n    /// @notice     Getter for currentEpochDiff\n    /// @dev        This is updated when a new heavist header has a new diff\n    /// @return     The difficulty of the bestKnownDigest\n    function getCurrentEpochDifficulty() external view returns (uint256) {\n        return currentEpochDiff;\n    }\n    /// @notice     Getter for prevEpochDiff\n    /// @dev        This is updated when a difficulty change is accepted\n    /// @return     The difficulty of the previous epoch\n    function getPrevEpochDifficulty() external view returns (uint256) {\n        return prevEpochDiff;\n    }\n\n    /// @notice     Getter for relayGenesis\n    /// @dev        This is an initialization parameter\n    /// @return     The hash of the first block of the relay\n    function getRelayGenesis() public view returns (bytes32) {\n        return relayGenesis;\n    }\n\n    /// @notice     Getter for bestKnownDigest\n    /// @dev        This updated only by calling markNewHeaviest\n    /// @return     The hash of the best marked chain tip\n    function getBestKnownDigest() public view returns (bytes32) {\n        return bestKnownDigest;\n    }\n\n    /// @notice     Getter for relayGenesis\n    /// @dev        This is updated only by calling markNewHeaviest\n    /// @return     The hash of the shared ancestor of the most recent fork\n    function getLastReorgCommonAncestor() public view returns (bytes32) {\n        return lastReorgCommonAncestor;\n    }\n\n    /// @notice         Finds the height of a header by its digest\n    /// @dev            Will fail if the header is unknown\n    /// @param _digest  The header digest to search for\n    /// @return         The height of the header, or error if unknown\n    function findHeight(bytes32 _digest) external view returns (uint256) {\n        return _findHeight(_digest);\n    }\n\n    /// @notice         Finds an ancestor for a block by its digest\n    /// @dev            Will fail if the header is unknown\n    /// @param _digest  The header digest to search for\n    /// @return         The height of the header, or error if unknown\n    function findAncestor(bytes32 _digest, uint256 _offset) external view returns (bytes32) {\n        return _findAncestor(_digest, _offset);\n    }\n\n    /// @notice             Checks if a digest is an ancestor of the current one\n    /// @dev                Limit the amount of lookups (and thus gas usage) with _limit\n    /// @param _ancestor    The prospective ancestor\n    /// @param _descendant  The descendant to check\n    /// @param _limit       The maximum number of blocks to check\n    /// @return             true if ancestor is at most limit blocks lower than descendant, otherwise false\n    function isAncestor(bytes32 _ancestor, bytes32 _descendant, uint256 _limit) external view returns (bool) {\n        return _isAncestor(_ancestor, _descendant, _limit);\n    }\n\n    /// @notice             Adds headers to storage after validating\n    /// @dev                We check integrity and consistency of the header chain\n    /// @param  _anchor     The header immediately preceeding the new chain\n    /// @param  _headers    A tightly-packed list of 80-byte Bitcoin headers\n    /// @return             True if successfully written, error otherwise\n    function addHeaders(bytes calldata _anchor, bytes calldata _headers) external returns (bool) {\n        return _addHeaders(_anchor, _headers, false);\n    }\n\n    /// @notice                       Adds headers to storage, performs additional validation of retarget\n    /// @dev                          Checks the retarget, the heights, and the linkage\n    /// @param  _oldPeriodStartHeader The first header in the difficulty period being closed\n    /// @param  _oldPeriodEndHeader   The last header in the difficulty period being closed\n    /// @param  _headers              A tightly-packed list of 80-byte Bitcoin headers\n    /// @return                       True if successfully written, error otherwise\n    function addHeadersWithRetarget(\n        bytes calldata _oldPeriodStartHeader,\n        bytes calldata _oldPeriodEndHeader,\n        bytes calldata _headers\n    ) external returns (bool) {\n        return _addHeadersWithRetarget(_oldPeriodStartHeader, _oldPeriodEndHeader, _headers);\n    }\n\n    /// @notice                   Gives a starting point for the relay\n    /// @dev                      We don't check this AT ALL really. Don't use relays with bad genesis\n    /// @param  _ancestor         The digest of the most recent common ancestor\n    /// @param  _currentBest      The 80-byte header referenced by bestKnownDigest\n    /// @param  _newBest          The 80-byte header to mark as the new best\n    /// @param  _limit            Limit the amount of traversal of the chain\n    /// @return                   True if successfully updates bestKnownDigest, error otherwise\n    function markNewHeaviest(\n        bytes32 _ancestor,\n        bytes calldata _currentBest,\n        bytes calldata _newBest,\n        uint256 _limit\n    ) external returns (bool) {\n        return _markNewHeaviest(_ancestor, _currentBest, _newBest, _limit);\n    }\n\n    /// @notice             Adds headers to storage after validating\n    /// @dev                We check integrity and consistency of the header chain\n    /// @param  _anchor     The header immediately preceeding the new chain\n    /// @param  _headers    A tightly-packed list of new 80-byte Bitcoin headers to record\n    /// @param  _internal   True if called internally from addHeadersWithRetarget, false otherwise\n    /// @return             True if successfully written, error otherwise\n    function _addHeaders(bytes memory _anchor, bytes memory _headers, bool _internal) internal returns (bool) {\n        uint256 _height;\n        bytes memory _header;\n        bytes32 _currentDigest;\n        bytes32 _previousDigest = _anchor.hash256();\n\n        uint256 _target = _headers.slice(0, 80).extractTarget();\n        uint256 _anchorHeight = _findHeight(_previousDigest);  /* NB: errors if unknown */\n\n        require(\n            _internal || _anchor.extractTarget() == _target,\n            \"Unexpected retarget on external call\");\n        require(_headers.length % 80 == 0, \"Header array length must be divisible by 80\");\n\n        /*\n        NB:\n        1. check that the header has sufficient work\n        2. check that headers are in a coherent chain (no retargets, hash links good)\n        3. Store the block connection\n        4. Store the height\n        */\n        for (uint256 i = 0; i < _headers.length / 80; i = i.add(1)) {\n            _header = _headers.slice(i.mul(80), 80);\n            _height = _anchorHeight.add(i + 1);\n            _currentDigest = _header.hash256();\n\n            /*\n            NB:\n            if the block is already authenticated, we don't need to a work check\n            Or write anything to state. This saves gas\n            */\n            if (previousBlock[_currentDigest] == bytes32(0)) {\n                require(\n                    abi.encodePacked(_currentDigest).reverseEndianness().bytesToUint() <= _target,\n                    \"Header work is insufficient\");\n                previousBlock[_currentDigest] = _previousDigest;\n                if (_height % HEIGHT_INTERVAL == 0) {\n                    /*\n                    NB: We store the height only every 4th header to save gas\n                    */\n                    blockHeight[_currentDigest] = _height;\n                }\n            }\n\n            /* NB: we do still need to make chain level checks tho */\n            require(_header.extractTarget() == _target, \"Target changed unexpectedly\");\n            require(_header.validateHeaderPrevHash(_previousDigest), \"Headers do not form a consistent chain\");\n\n            _previousDigest = _currentDigest;\n        }\n\n        emit Extension(\n            _anchor.hash256(),\n            _currentDigest);\n        return true;\n    }\n\n    /// @notice                       Adds headers to storage, performs additional validation of retarget\n    /// @dev                          Checks the retarget, the heights, and the linkage\n    /// @param  _oldPeriodStartHeader The first header in the difficulty period being closed\n    /// @param  _oldPeriodEndHeader   The last header in the difficulty period being closed\n    /// @param  _headers              A tightly-packed list of 80-byte Bitcoin headers\n    /// @return                       True if successfully written, error otherwise\n    function _addHeadersWithRetarget(\n        bytes memory _oldPeriodStartHeader,\n        bytes memory _oldPeriodEndHeader,\n        bytes memory _headers\n    ) internal returns (bool) {\n        /* NB: requires that both blocks are known */\n        uint256 _startHeight = _findHeight(_oldPeriodStartHeader.hash256());\n        uint256 _endHeight = _findHeight(_oldPeriodEndHeader.hash256());\n\n        /* NB: retargets should happen at 2016 block intervals */\n        require(\n            _endHeight % 2016 == 2015,\n            \"Must provide the last header of the closing difficulty period\");\n        require(\n            _endHeight == _startHeight.add(2015),\n            \"Must provide exactly 1 difficulty period\");\n        require(\n            _oldPeriodStartHeader.extractDifficulty() == _oldPeriodEndHeader.extractDifficulty(),\n            \"Period header difficulties do not match\");\n\n        /* NB: This comparison looks weird because header nBits encoding truncates targets */\n        bytes memory _newPeriodStart = _headers.slice(0, 80);\n        uint256 _actualTarget = _newPeriodStart.extractTarget();\n        uint256 _expectedTarget = BTCUtils.retargetAlgorithm(\n            _oldPeriodStartHeader.extractTarget(),\n            _oldPeriodStartHeader.extractTimestamp(),\n            _oldPeriodEndHeader.extractTimestamp()\n        );\n        require(\n            (_actualTarget & _expectedTarget) == _actualTarget,\n            \"Invalid retarget provided\");\n\n        // If the current known prevEpochDiff doesn't match, and this old period is near the chaintip/\n        // update the stored prevEpochDiff\n        // Don't update if this is a deep past epoch\n        uint256 _oldDiff = _oldPeriodStartHeader.extractDifficulty();\n        if (prevEpochDiff != _oldDiff && _endHeight > _findHeight(bestKnownDigest).sub(2016)) {\n            prevEpochDiff = _oldDiff;\n        }\n\n        // Pass all but the first through to be added\n        return _addHeaders(_oldPeriodEndHeader, _headers, true);\n    }\n\n    /// @notice         Finds the height of a header by its digest\n    /// @dev            Will fail if the header is unknown\n    /// @param _digest  The header digest to search for\n    /// @return         The height of the header\n    function _findHeight(bytes32 _digest) internal view returns (uint256) {\n        uint256 _height = 0;\n        bytes32 _current = _digest;\n        for (uint256 i = 0; i < HEIGHT_INTERVAL + 1; i = i.add(1)) {\n            _height = blockHeight[_current];\n            if (_height == 0) {\n                _current = previousBlock[_current];\n            } else {\n                return _height.add(i);\n            }\n        }\n        revert(\"Unknown block\");\n    }\n\n    /// @notice         Finds an ancestor for a block by its digest\n    /// @dev            Will fail if the header is unknown\n    /// @param _digest  The header digest to search for\n    /// @return         The height of the header, or error if unknown\n    function _findAncestor(bytes32 _digest, uint256 _offset) internal view returns (bytes32) {\n        bytes32 _current = _digest;\n        for (uint256 i = 0; i < _offset; i = i.add(1)) {\n            _current = previousBlock[_current];\n        }\n        require(_current != bytes32(0), \"Unknown ancestor\");\n        return _current;\n    }\n\n    /// @notice             Checks if a digest is an ancestor of the current one\n    /// @dev                Limit the amount of lookups (and thus gas usage) with _limit\n    /// @param _ancestor    The prospective ancestor\n    /// @param _descendant  The descendant to check\n    /// @param _limit       The maximum number of blocks to check\n    /// @return             true if ancestor is at most limit blocks lower than descendant, otherwise false\n    function _isAncestor(bytes32 _ancestor, bytes32 _descendant, uint256 _limit) internal view returns (bool) {\n        bytes32 _current = _descendant;\n        /* NB: 200 gas/read, so gas is capped at ~200 * limit */\n        for (uint256 i = 0; i < _limit; i = i.add(1)) {\n            if (_current == _ancestor) {\n                return true;\n            }\n            _current = previousBlock[_current];\n        }\n        return false;\n    }\n\n    /// @notice                   Marks the new best-known chain tip\n    /// @param  _ancestor         The digest of the most recent common ancestor\n    /// @param  _currentBest      The 80-byte header referenced by bestKnownDigest\n    /// @param  _newBest          The 80-byte header to mark as the new best\n    /// @param  _limit            Limit the amount of traversal of the chain\n    /// @return                   True if successfully updates bestKnownDigest, error otherwise\n    function _markNewHeaviest(\n        bytes32 _ancestor,\n        bytes memory _currentBest,\n        bytes memory _newBest,\n        uint256 _limit\n    ) internal returns (bool) {\n        require(_limit <= 2016, \"Requested limit is greater than 1 difficulty period\");\n        bytes32 _newBestDigest = _newBest.hash256();\n        bytes32 _currentBestDigest = _currentBest.hash256();\n        require(_currentBestDigest == bestKnownDigest, \"Passed in best is not best known\");\n        require(\n            previousBlock[_newBestDigest] != bytes32(0),\n            \"New best is unknown\");\n        require(\n            _isMostRecentAncestor(_ancestor, bestKnownDigest, _newBestDigest, _limit),\n            \"Ancestor must be heaviest common ancestor\");\n        require(\n            _heaviestFromAncestor(_ancestor, _currentBest, _newBest) == _newBestDigest,\n            \"New best hash does not have more work than previous\");\n\n        bestKnownDigest = _newBestDigest;\n        lastReorgCommonAncestor = _ancestor;\n\n        uint256 _newDiff = _newBest.extractDifficulty();\n        if (_newDiff != currentEpochDiff) {\n            currentEpochDiff = _newDiff;\n        }\n\n        emit NewTip(\n            _currentBestDigest,\n            _newBestDigest,\n            _ancestor);\n        return true;\n    }\n\n    /// @notice             Checks if a digest is an ancestor of the current one\n    /// @dev                Limit the amount of lookups (and thus gas usage) with _limit\n    /// @param _ancestor    The prospective shared ancestor\n    /// @param _left        A chain tip\n    /// @param _right       A chain tip\n    /// @param _limit       The maximum number of blocks to check\n    /// @return             true if it is the most recent common ancestor within _limit, false otherwise\n    function _isMostRecentAncestor(\n        bytes32 _ancestor,\n        bytes32 _left,\n        bytes32 _right,\n        uint256 _limit\n    ) internal view returns (bool) {\n        /* NB: sure why not */\n        if (_ancestor == _left && _ancestor == _right) {\n            return true;\n        }\n\n        bytes32 _leftCurrent = _left;\n        bytes32 _rightCurrent = _right;\n        bytes32 _leftPrev = _left;\n        bytes32 _rightPrev = _right;\n\n        for(uint256 i = 0; i < _limit; i = i.add(1)) {\n            if (_leftPrev != _ancestor) {\n                _leftCurrent = _leftPrev;  // cheap\n                _leftPrev = previousBlock[_leftPrev];  // expensive\n            }\n            if (_rightPrev != _ancestor) {\n                _rightCurrent = _rightPrev;  // cheap\n                _rightPrev = previousBlock[_rightPrev];  // expensive\n            }\n        }\n        if (_leftCurrent == _rightCurrent) {return false;} /* NB: If the same, they're a nearer ancestor */\n        if (_leftPrev != _rightPrev) {return false;} /* NB: Both must be ancestor */\n        return true;\n    }\n\n    /// @notice             Decides which header is heaviest from the ancestor\n    /// @dev                Does not support reorgs above 2017 blocks (:\n    /// @param _ancestor    The prospective shared ancestor\n    /// @param _left        A chain tip\n    /// @param _right       A chain tip\n    /// @return             true if it is the most recent common ancestor within _limit, false otherwise\n    function _heaviestFromAncestor(\n        bytes32 _ancestor,\n        bytes memory _left,\n        bytes memory _right\n    ) internal view returns (bytes32) {\n        uint256 _ancestorHeight = _findHeight(_ancestor);\n        uint256 _leftHeight = _findHeight(_left.hash256());\n        uint256 _rightHeight = _findHeight(_right.hash256());\n\n        require(\n            _leftHeight >= _ancestorHeight && _rightHeight >= _ancestorHeight,\n            \"A descendant height is below the ancestor height\");\n\n        /* NB: we can shortcut if one block is in a new difficulty window and the other isn't */\n        uint256 _nextPeriodStartHeight = _ancestorHeight.add(2016).sub(_ancestorHeight % 2016);\n        bool _leftInPeriod = _leftHeight < _nextPeriodStartHeight;\n        bool _rightInPeriod = _rightHeight < _nextPeriodStartHeight;\n\n        /*\n        NB:\n        1. Left is in a new window, right is in the old window. Left is heavier\n        2. Right is in a new window, left is in the old window. Right is heavier\n        3. Both are in the same window, choose the higher one\n        4. They're in different new windows. Choose the heavier one\n        */\n        if (!_leftInPeriod && _rightInPeriod) {return _left.hash256();}\n        if (_leftInPeriod && !_rightInPeriod) {return _right.hash256();}\n        if (_leftInPeriod && _rightInPeriod) {\n            return _leftHeight >= _rightHeight ? _left.hash256() : _right.hash256();\n        } else {  // if (!_leftInPeriod && !_rightInPeriod) {\n            if (((_leftHeight % 2016).mul(_left.extractDifficulty())) <\n                (_rightHeight % 2016).mul(_right.extractDifficulty())) {\n                return _right.hash256();\n            } else {\n                return _left.hash256();\n            }\n        }\n    }\n}\n\n// For unittests\ncontract TestRelay is Relay {\n\n    /// @notice                   Gives a starting point for the relay\n    /// @dev                      We don't check this AT ALL really. Don't use relays with bad genesis\n    /// @param  _genesisHeader    The starting header\n    /// @param  _height           The starting height\n    /// @param  _periodStart      The hash of the first header in the genesis epoch\n    constructor(bytes memory _genesisHeader, uint256 _height, bytes32 _periodStart)\n        Relay(_genesisHeader, _height, _periodStart)\n    public {}\n\n    function heaviestFromAncestor(\n        bytes32 _ancestor,\n        bytes calldata _left,\n        bytes calldata _right\n    ) external view returns (bytes32) {\n        return _heaviestFromAncestor(_ancestor, _left, _right);\n    }\n\n    function isMostRecentAncestor(\n        bytes32 _ancestor,\n        bytes32 _left,\n        bytes32 _right,\n        uint256 _limit\n    ) external view returns (bool) {\n        return _isMostRecentAncestor(_ancestor, _left, _right, _limit);\n    }\n}\n",
  "sourcePath": "@summa-tx/relay-sol/contracts/Relay.sol",
  "compiler": {
    "name": "solc",
    "version": "0.5.17+commit.d19bba13.Emscripten.clang"
  },
  "schemaVersion": "3.0.23",
  "updatedAt": "2021-02-01T16:23:17.065Z",
  "devdoc": {
    "methods": {
      "addHeaders(bytes,bytes)": {
        "details": "We check integrity and consistency of the header chain",
        "params": {
          "_anchor": "The header immediately preceeding the new chain",
          "_headers": "A tightly-packed list of 80-byte Bitcoin headers"
        },
        "return": "True if successfully written, error otherwise"
      },
      "addHeadersWithRetarget(bytes,bytes,bytes)": {
        "details": "Checks the retarget, the heights, and the linkage",
        "params": {
          "_headers": "A tightly-packed list of 80-byte Bitcoin headers",
          "_oldPeriodEndHeader": "The last header in the difficulty period being closed",
          "_oldPeriodStartHeader": "The first header in the difficulty period being closed"
        },
        "return": "True if successfully written, error otherwise"
      },
      "constructor": {
        "details": "We don't check this AT ALL really. Don't use relays with bad genesis",
        "params": {
          "_genesisHeader": "The starting header",
          "_height": "The starting height",
          "_periodStart": "The hash of the first header in the genesis epoch"
        }
      },
      "findAncestor(bytes32,uint256)": {
        "details": "Will fail if the header is unknown",
        "params": {
          "_digest": "The header digest to search for"
        },
        "return": "The height of the header, or error if unknown"
      },
      "findHeight(bytes32)": {
        "details": "Will fail if the header is unknown",
        "params": {
          "_digest": "The header digest to search for"
        },
        "return": "The height of the header, or error if unknown"
      },
      "getBestKnownDigest()": {
        "details": "This updated only by calling markNewHeaviest",
        "return": "The hash of the best marked chain tip"
      },
      "getCurrentEpochDifficulty()": {
        "details": "This is updated when a new heavist header has a new diff",
        "return": "The difficulty of the bestKnownDigest"
      },
      "getLastReorgCommonAncestor()": {
        "details": "This is updated only by calling markNewHeaviest",
        "return": "The hash of the shared ancestor of the most recent fork"
      },
      "getPrevEpochDifficulty()": {
        "details": "This is updated when a difficulty change is accepted",
        "return": "The difficulty of the previous epoch"
      },
      "getRelayGenesis()": {
        "details": "This is an initialization parameter",
        "return": "The hash of the first block of the relay"
      },
      "isAncestor(bytes32,bytes32,uint256)": {
        "details": "Limit the amount of lookups (and thus gas usage) with _limit",
        "params": {
          "_ancestor": "The prospective ancestor",
          "_descendant": "The descendant to check",
          "_limit": "The maximum number of blocks to check"
        },
        "return": "true if ancestor is at most limit blocks lower than descendant, otherwise false"
      },
      "markNewHeaviest(bytes32,bytes,bytes,uint256)": {
        "details": "We don't check this AT ALL really. Don't use relays with bad genesis",
        "params": {
          "_ancestor": "The digest of the most recent common ancestor",
          "_currentBest": "The 80-byte header referenced by bestKnownDigest",
          "_limit": "Limit the amount of traversal of the chain",
          "_newBest": "The 80-byte header to mark as the new best"
        },
        "return": "True if successfully updates bestKnownDigest, error otherwise"
      }
    }
  },
  "userdoc": {
    "methods": {
      "addHeaders(bytes,bytes)": {
        "notice": "Adds headers to storage after validating"
      },
      "addHeadersWithRetarget(bytes,bytes,bytes)": {
        "notice": "Adds headers to storage, performs additional validation of retarget"
      },
      "constructor": "Gives a starting point for the relay",
      "findAncestor(bytes32,uint256)": {
        "notice": "Finds an ancestor for a block by its digest"
      },
      "findHeight(bytes32)": {
        "notice": "Finds the height of a header by its digest"
      },
      "getBestKnownDigest()": {
        "notice": "Getter for bestKnownDigest"
      },
      "getCurrentEpochDifficulty()": {
        "notice": "Getter for currentEpochDiff"
      },
      "getLastReorgCommonAncestor()": {
        "notice": "Getter for relayGenesis"
      },
      "getPrevEpochDifficulty()": {
        "notice": "Getter for prevEpochDiff"
      },
      "getRelayGenesis()": {
        "notice": "Getter for relayGenesis"
      },
      "isAncestor(bytes32,bytes32,uint256)": {
        "notice": "Checks if a digest is an ancestor of the current one"
      },
      "markNewHeaviest(bytes32,bytes,bytes,uint256)": {
        "notice": "Gives a starting point for the relay"
      }
    }
  }
}