{
  "contractName": "VendingMachine",
  "abi": [
    {
      "inputs": [
        {
          "internalType": "address",
          "name": "_systemAddress",
          "type": "address"
        }
      ],
      "payable": false,
      "stateMutability": "nonpayable",
      "type": "constructor"
    },
    {
      "constant": false,
      "inputs": [
        {
          "internalType": "contract TBTCToken",
          "name": "_tbtcToken",
          "type": "address"
        },
        {
          "internalType": "contract TBTCDepositToken",
          "name": "_tbtcDepositToken",
          "type": "address"
        },
        {
          "internalType": "contract FeeRebateToken",
          "name": "_feeRebateToken",
          "type": "address"
        }
      ],
      "name": "setExternalAddresses",
      "outputs": [],
      "payable": false,
      "stateMutability": "nonpayable",
      "type": "function"
    },
    {
      "constant": false,
      "inputs": [
        {
          "internalType": "uint256",
          "name": "_tdtId",
          "type": "uint256"
        }
      ],
      "name": "tbtcToTdt",
      "outputs": [],
      "payable": false,
      "stateMutability": "nonpayable",
      "type": "function"
    },
    {
      "constant": false,
      "inputs": [
        {
          "internalType": "uint256",
          "name": "_tdtId",
          "type": "uint256"
        }
      ],
      "name": "tdtToTbtc",
      "outputs": [],
      "payable": false,
      "stateMutability": "nonpayable",
      "type": "function"
    },
    {
      "constant": true,
      "inputs": [
        {
          "internalType": "uint256",
          "name": "amount",
          "type": "uint256"
        }
      ],
      "name": "canMint",
      "outputs": [
        {
          "internalType": "bool",
          "name": "",
          "type": "bool"
        }
      ],
      "payable": false,
      "stateMutability": "view",
      "type": "function"
    },
    {
      "constant": true,
      "inputs": [
        {
          "internalType": "address payable",
          "name": "_depositAddress",
          "type": "address"
        }
      ],
      "name": "isQualified",
      "outputs": [
        {
          "internalType": "bool",
          "name": "",
          "type": "bool"
        }
      ],
      "payable": false,
      "stateMutability": "view",
      "type": "function"
    },
    {
      "constant": true,
      "inputs": [],
      "name": "getMintedSupply",
      "outputs": [
        {
          "internalType": "uint256",
          "name": "",
          "type": "uint256"
        }
      ],
      "payable": false,
      "stateMutability": "view",
      "type": "function"
    },
    {
      "constant": true,
      "inputs": [],
      "name": "getMaxSupply",
      "outputs": [
        {
          "internalType": "uint256",
          "name": "",
          "type": "uint256"
        }
      ],
      "payable": false,
      "stateMutability": "view",
      "type": "function"
    },
    {
      "constant": false,
      "inputs": [
        {
          "internalType": "address payable",
          "name": "_depositAddress",
          "type": "address"
        },
        {
          "internalType": "bytes4",
          "name": "_txVersion",
          "type": "bytes4"
        },
        {
          "internalType": "bytes",
          "name": "_txInputVector",
          "type": "bytes"
        },
        {
          "internalType": "bytes",
          "name": "_txOutputVector",
          "type": "bytes"
        },
        {
          "internalType": "bytes4",
          "name": "_txLocktime",
          "type": "bytes4"
        },
        {
          "internalType": "uint8",
          "name": "_fundingOutputIndex",
          "type": "uint8"
        },
        {
          "internalType": "bytes",
          "name": "_merkleProof",
          "type": "bytes"
        },
        {
          "internalType": "uint256",
          "name": "_txIndexInBlock",
          "type": "uint256"
        },
        {
          "internalType": "bytes",
          "name": "_bitcoinHeaders",
          "type": "bytes"
        }
      ],
      "name": "unqualifiedDepositToTbtc",
      "outputs": [],
      "payable": false,
      "stateMutability": "nonpayable",
      "type": "function"
    },
    {
      "constant": false,
      "inputs": [
        {
          "internalType": "address payable",
          "name": "_depositAddress",
          "type": "address"
        },
        {
          "internalType": "bytes8",
          "name": "_outputValueBytes",
          "type": "bytes8"
        },
        {
          "internalType": "bytes",
          "name": "_redeemerOutputScript",
          "type": "bytes"
        }
      ],
      "name": "tbtcToBtc",
      "outputs": [],
      "payable": false,
      "stateMutability": "nonpayable",
      "type": "function"
    }
  ],
  "bytecode": "0x608060405234801561001057600080fd5b506040516119c83803806119c88339818101604052602081101561003357600080fd5b5051600080546001600160a01b039092166001600160a01b03199092169190911790554260045561195f806100696000396000f3fe608060405234801561001057600080fd5b50600436106100935760003560e01c8063ac37d7ce11610066578063ac37d7ce14610143578063ba2238d014610160578063be138da71461017d578063efa4b19914610240578063f2113b5a146104b457610093565b806335205794146100985780634c0f38c2146100d25780635dd871a3146100ec578063a421d6681461011d575b600080fd5b6100d0600480360360608110156100ae57600080fd5b506001600160a01b0381358116916020810135821691604090910135166104bc565b005b6100da610544565b60408051918252519081900360200190f35b6101096004803603602081101561010257600080fd5b5035610680565b604080519115158252519081900360200190f35b6101096004803603602081101561013357600080fd5b50356001600160a01b03166106a9565b6100d06004803603602081101561015957600080fd5b5035610716565b6100d06004803603602081101561017657600080fd5b5035610afd565b6100d06004803603606081101561019357600080fd5b6001600160a01b03823516916001600160c01b031960208201351691810190606081016040820135600160201b8111156101cc57600080fd5b8201836020820111156101de57600080fd5b803590602001918460018302840111600160201b831117156101ff57600080fd5b91908080601f0160208091040260200160405190810160405280939291908181526020018383808284376000920191909152509295506110b1945050505050565b6100d0600480360361012081101561025757600080fd5b6001600160a01b03823516916001600160e01b031960208201351691810190606081016040820135600160201b81111561029057600080fd5b8201836020820111156102a257600080fd5b803590602001918460018302840111600160201b831117156102c357600080fd5b91908080601f0160208091040260200160405190810160405280939291908181526020018383808284376000920191909152509295949360208101935035915050600160201b81111561031557600080fd5b82018360208201111561032757600080fd5b803590602001918460018302840111600160201b8311171561034857600080fd5b91908080601f01602080910402602001604051908101604052809392919081815260200183838082843760009201919091525092956001600160e01b03198535169560ff60208701351695919450925060608101915060400135600160201b8111156103b357600080fd5b8201836020820111156103c557600080fd5b803590602001918460018302840111600160201b831117156103e657600080fd5b91908080601f01602080910402602001604051908101604052809392919081815260200183838082843760009201919091525092958435959094909350604081019250602001359050600160201b81111561044057600080fd5b82018360208201111561045257600080fd5b803590602001918460018302840111600160201b8311171561047357600080fd5b91908080601f016020809104026020016040519081016040528093929190818152602001838380828437600092019190915250929550611526945050505050565b6100da61178c565b6000546001600160a01b031633146105055760405162461bcd60e51b81526004018080602001828103825260228152602001806118c16022913960400191505060405180910390fd5b600180546001600160a01b039485166001600160a01b031991821617909155600280549385169382169390931790925560038054919093169116179055565b60045460009042036202a30081101561056857671bc16d674ec8000091505061067d565b62093a808110156105855768056bc75e2d6310000091505061067d565b621275008110156105a257680d8d726b7177a8000091505061067d565b621baf808110156105bf57681b1ae4d6e2ef50000091505061067d565b6224ea008110156105dc576828a857425466f8000091505061067d565b622e24808110156105f957683635c9adc5dea0000091505061067d565b62375f0081101561061657685150ae84a8cdf0000091505061067d565b6240998081101561063357686c6b935b8bbd40000091505061067d565b6249d4008110156106505768878678326eac90000091505061067d565b62530e8081101561066d5768a2a15d09519be0000091505061067d565b6a115eec47f6cf7e350000009150505b90565b600061068a610544565b6106a28361069661178c565b9063ffffffff61180216565b1092915050565b6000816001600160a01b031663f97a02fa6040518163ffffffff1660e01b815260040160206040518083038186803b1580156106e457600080fd5b505afa1580156106f8573d6000803e3d6000fd5b505050506040513d602081101561070e57600080fd5b505192915050565b60025460408051634f558e7960e01b81526004810184905290516001600160a01b0390921691634f558e7991602480820192602092909190829003018186803b15801561076257600080fd5b505afa158015610776573d6000803e3d6000fd5b505050506040513d602081101561078c57600080fd5b50516107c95760405162461bcd60e51b815260040180806020018281038252602181526020018061190a6021913960400191505060405180910390fd5b6107d2816106a9565b61081f576040805162461bcd60e51b815260206004820152601960248201527811195c1bdcda5d081b5d5cdd081899481c5d585b1a599a5959603a1b604482015290519081900360640190fd5b6000816001600160a01b031663946fbf4c6040518163ffffffff1660e01b815260040160206040518083038186803b15801561085a57600080fd5b505afa15801561086e573d6000803e3d6000fd5b505050506040513d602081101561088457600080fd5b5051600154604080516370a0823160e01b8152336004820152905192935083926001600160a01b03909216916370a0823191602480820192602092909190829003018186803b1580156108d657600080fd5b505afa1580156108ea573d6000803e3d6000fd5b505050506040513d602081101561090057600080fd5b50511015610955576040805162461bcd60e51b815260206004820181905260248201527f4e6f7420656e6f756768205442544320666f72205444542065786368616e6765604482015290519081900360640190fd5b6001546040805163079cc67960e41b81523360048201526024810184905290516001600160a01b03909216916379cc67909160448082019260009290919082900301818387803b1580156109a857600080fd5b505af11580156109bc573d6000803e3d6000fd5b5050600254604080516331a9108f60e11b81526004810187905290513094506001600160a01b039092169250636352211e916024808301926020929190829003018186803b158015610a0d57600080fd5b505afa158015610a21573d6000803e3d6000fd5b505050506040513d6020811015610a3757600080fd5b50516001600160a01b031614610a88576040805162461bcd60e51b815260206004820152601160248201527011195c1bdcda5d081a5cc81b1bd8dad959607a1b604482015290519081900360640190fd5b600254604080516323b872dd60e01b81523060048201523360248201526044810185905290516001600160a01b03909216916323b872dd9160648082019260009290919082900301818387803b158015610ae157600080fd5b505af1158015610af5573d6000803e3d6000fd5b505050505050565b60025460408051634f558e7960e01b81526004810184905290516001600160a01b0390921691634f558e7991602480820192602092909190829003018186803b158015610b4957600080fd5b505afa158015610b5d573d6000803e3d6000fd5b505050506040513d6020811015610b7357600080fd5b5051610bb05760405162461bcd60e51b815260040180806020018281038252602181526020018061190a6021913960400191505060405180910390fd5b610bb9816106a9565b610c06576040805162461bcd60e51b815260206004820152601960248201527811195c1bdcda5d081b5d5cdd081899481c5d585b1a599a5959603a1b604482015290519081900360640190fd5b600254604080516323b872dd60e01b81523360048201523060248201526044810184905290516001600160a01b03909216916323b872dd9160648082019260009290919082900301818387803b158015610c5f57600080fd5b505af1158015610c73573d6000803e3d6000fd5b5050505060008190506000816001600160a01b031663058d37036040518163ffffffff1660e01b815260040160206040518083038186803b158015610cb757600080fd5b505afa158015610ccb573d6000803e3d6000fd5b505050506040513d6020811015610ce157600080fd5b50516040805163251befd360e21b815290519192506000916001600160a01b0385169163946fbf4c916004808301926020929190829003018186803b158015610d2957600080fd5b505afa158015610d3d573d6000803e3d6000fd5b505050506040513d6020811015610d5357600080fd5b50519050610d6081610680565b610d9b5760405162461bcd60e51b81526004018080602001828103825260278152602001806118e36027913960400191505060405180910390fd5b600154604080516370a0823160e01b81526001600160a01b0387811660048301529151859392909216916370a0823191602480820192602092909190829003018186803b158015610deb57600080fd5b505afa158015610dff573d6000803e3d6000fd5b505050506040513d6020811015610e1557600080fd5b50511015610f42576001546001600160a01b03166340c10f1933610e3f848663ffffffff61186316565b6040518363ffffffff1660e01b815260040180836001600160a01b03166001600160a01b0316815260200182815260200192505050602060405180830381600087803b158015610e8e57600080fd5b505af1158015610ea2573d6000803e3d6000fd5b505050506040513d6020811015610eb857600080fd5b5050600154604080516340c10f1960e01b81526001600160a01b03878116600483015260248201869052915191909216916340c10f199160448083019260209291908290030181600087803b158015610f1057600080fd5b505af1158015610f24573d6000803e3d6000fd5b505050506040513d6020811015610f3a57600080fd5b50610fc39050565b600154604080516340c10f1960e01b81523360048201526024810184905290516001600160a01b03909216916340c10f19916044808201926020929091908290030181600087803b158015610f9657600080fd5b505af1158015610faa573d6000803e3d6000fd5b505050506040513d6020811015610fc057600080fd5b50505b60035460408051634f558e7960e01b81526004810187905290516001600160a01b0390921691634f558e7991602480820192602092909190829003018186803b15801561100f57600080fd5b505afa158015611023573d6000803e3d6000fd5b505050506040513d602081101561103957600080fd5b50516110ab57600354604080516340c10f1960e01b81523360048201526024810187905290516001600160a01b03909216916340c10f199160448082019260009290919082900301818387803b15801561109257600080fd5b505af11580156110a6573d6000803e3d6000fd5b505050505b50505050565b60025460408051634f558e7960e01b81526001600160a01b03868116600483015291519190921691634f558e79916024808301926020929190829003018186803b1580156110fe57600080fd5b505afa158015611112573d6000803e3d6000fd5b505050506040513d602081101561112857600080fd5b50516111655760405162461bcd60e51b815260040180806020018281038252602181526020018061190a6021913960400191505060405180910390fd5b6001546040805163251befd360e21b8152905185926001600160a01b03908116926379cc679092339286169163946fbf4c916004808301926020929190829003018186803b1580156111b657600080fd5b505afa1580156111ca573d6000803e3d6000fd5b505050506040513d60208110156111e057600080fd5b5051604080516001600160e01b031960e086901b1681526001600160a01b039093166004840152602483019190915251604480830192600092919082900301818387803b15801561123057600080fd5b505af1158015611244573d6000803e3d6000fd5b50506002546040805163095ea7b360e01b81526001600160a01b03898116600483018190526024830152915191909216935063095ea7b39250604480830192600092919082900301818387803b15801561129d57600080fd5b505af11580156112b1573d6000803e3d6000fd5b505060408051630d8d023360e41b81523360048201529051600093506001600160a01b038516925063d8d0233091602480820192602092909190829003018186803b1580156112ff57600080fd5b505afa158015611313573d6000803e3d6000fd5b505050506040513d602081101561132957600080fd5b50519050801561143c57600154604080516323b872dd60e01b81523360048201523060248201526044810184905290516001600160a01b03909216916323b872dd916064808201926020929091908290030181600087803b15801561138d57600080fd5b505af11580156113a1573d6000803e3d6000fd5b505050506040513d60208110156113b757600080fd5b50506001546040805163095ea7b360e01b81526001600160a01b038881166004830152602482018590529151919092169163095ea7b39160448083019260209291908290030181600087803b15801561140f57600080fd5b505af1158015611423573d6000803e3d6000fd5b505050506040513d602081101561143957600080fd5b50505b604051637dbe2c9560e11b81526001600160c01b031985166004820190815233604483018190526060602484019081528651606485015286516001600160a01b0387169463fb7c592a948a948a94909391929091608490910190602086019080838360005b838110156114b95781810151838201526020016114a1565b50505050905090810190601f1680156114e65780820380516001836020036101000a031916815260200191505b50945050505050600060405180830381600087803b15801561150757600080fd5b505af115801561151b573d6000803e3d6000fd5b505050505050505050565b6000899050806001600160a01b031663d9f74b0e8a8a8a8a8a8a8a8a6040518963ffffffff1660e01b815260040180896001600160e01b0319166001600160e01b03191681526020018060200180602001886001600160e01b0319166001600160e01b03191681526020018760ff1660ff168152602001806020018681526020018060200185810385528c818151815260200191508051906020019080838360005b838110156115e05781810151838201526020016115c8565b50505050905090810190601f16801561160d5780820380516001836020036101000a031916815260200191505b5085810384528b5181528b516020918201918d019080838360005b83811015611640578181015183820152602001611628565b50505050905090810190601f16801561166d5780820380516001836020036101000a031916815260200191505b5085810383528851815288516020918201918a019080838360005b838110156116a0578181015183820152602001611688565b50505050905090810190601f1680156116cd5780820380516001836020036101000a031916815260200191505b50858103825286518152865160209182019188019080838360005b838110156117005781810151838201526020016116e8565b50505050905090810190601f16801561172d5780820380516001836020036101000a031916815260200191505b509c50505050505050505050505050600060405180830381600087803b15801561175657600080fd5b505af115801561176a573d6000803e3d6000fd5b505050506117808a6001600160a01b0316610afd565b50505050505050505050565b600154604080516318160ddd60e01b815290516000926001600160a01b0316916318160ddd916004808301926020929190829003018186803b1580156117d157600080fd5b505afa1580156117e5573d6000803e3d6000fd5b505050506040513d60208110156117fb57600080fd5b5051905090565b60008282018381101561185c576040805162461bcd60e51b815260206004820152601b60248201527f536166654d6174683a206164646974696f6e206f766572666c6f770000000000604482015290519081900360640190fd5b9392505050565b6000828211156118ba576040805162461bcd60e51b815260206004820152601e60248201527f536166654d6174683a207375627472616374696f6e206f766572666c6f770000604482015290519081900360640190fd5b5090039056fe43616c6c6572206d757374206265207462746353797374656d20636f6e747261637443616e2774206d696e74206d6f7265207468616e20746865206d617820737570706c792063617074425443204465706f73697420546f6b656e20646f6573206e6f74206578697374a265627a7a72315820ee34af99320b951aa1d78b569c866a17dc6242183bb598ce8a9decec9aacbb4264736f6c63430005110032",
  "source": "pragma solidity 0.5.17;\n\nimport {SafeMath} from \"openzeppelin-solidity/contracts/math/SafeMath.sol\";\nimport {TBTCDepositToken} from \"./TBTCDepositToken.sol\";\nimport {FeeRebateToken} from \"./FeeRebateToken.sol\";\nimport {TBTCToken} from \"./TBTCToken.sol\";\nimport {TBTCConstants} from \"./TBTCConstants.sol\";\nimport \"../deposit/Deposit.sol\";\nimport \"./TBTCSystemAuthority.sol\";\n\n/// @title  Vending Machine\n/// @notice The Vending Machine swaps TDTs (`TBTCDepositToken`)\n///         to TBTC (`TBTCToken`) and vice versa.\n/// @dev    The Vending Machine should have exclusive TBTC and FRT (`FeeRebateToken`) minting\n///         privileges.\ncontract VendingMachine is TBTCSystemAuthority{\n    using SafeMath for uint256;\n\n    TBTCToken tbtcToken;\n    TBTCDepositToken tbtcDepositToken;\n    FeeRebateToken feeRebateToken;\n\n    uint256 createdAt;\n\n    constructor(address _systemAddress)\n        TBTCSystemAuthority(_systemAddress)\n    public {\n        createdAt = block.timestamp;\n    }\n\n    /// @notice Set external contracts needed by the Vending Machine.\n    /// @dev    Addresses are used to update the local contract instance.\n    /// @param _tbtcToken        TBTCToken contract. More info in `TBTCToken`.\n    /// @param _tbtcDepositToken TBTCDepositToken (TDT) contract. More info in `TBTCDepositToken`.\n    /// @param _feeRebateToken   FeeRebateToken (FRT) contract. More info in `FeeRebateToken`.\n    function setExternalAddresses(\n        TBTCToken _tbtcToken,\n        TBTCDepositToken _tbtcDepositToken,\n        FeeRebateToken _feeRebateToken\n    ) external onlyTbtcSystem {\n        tbtcToken = _tbtcToken;\n        tbtcDepositToken = _tbtcDepositToken;\n        feeRebateToken = _feeRebateToken;\n    }\n\n    /// @notice Burns TBTC and transfers the tBTC Deposit Token to the caller\n    ///         as long as it is qualified.\n    /// @dev    We burn the lotSize of the Deposit in order to maintain\n    ///         the TBTC supply peg in the Vending Machine. VendingMachine must be approved\n    ///         by the caller to burn the required amount.\n    /// @param _tdtId ID of tBTC Deposit Token to buy.\n    function tbtcToTdt(uint256 _tdtId) external {\n        require(tbtcDepositToken.exists(_tdtId), \"tBTC Deposit Token does not exist\");\n        require(isQualified(address(_tdtId)), \"Deposit must be qualified\");\n\n        uint256 depositValue = Deposit(address(uint160(_tdtId))).lotSizeTbtc();\n        require(tbtcToken.balanceOf(msg.sender) >= depositValue, \"Not enough TBTC for TDT exchange\");\n        tbtcToken.burnFrom(msg.sender, depositValue);\n\n        // TODO do we need the owner check below? transferFrom can be approved for a user, which might be an interesting use case.\n        require(tbtcDepositToken.ownerOf(_tdtId) == address(this), \"Deposit is locked\");\n        tbtcDepositToken.transferFrom(address(this), msg.sender, _tdtId);\n    }\n\n    /// @notice Transfer the tBTC Deposit Token and mint TBTC.\n    /// @dev    Transfers TDT from caller to vending machine, and mints TBTC to caller.\n    ///         Vending Machine must be approved to transfer TDT by the caller.\n    /// @param _tdtId ID of tBTC Deposit Token to sell.\n    function tdtToTbtc(uint256 _tdtId) public {\n        require(tbtcDepositToken.exists(_tdtId), \"tBTC Deposit Token does not exist\");\n        require(isQualified(address(_tdtId)), \"Deposit must be qualified\");\n\n        tbtcDepositToken.transferFrom(msg.sender, address(this), _tdtId);\n\n        Deposit deposit = Deposit(address(uint160(_tdtId)));\n        uint256 signerFee = deposit.signerFeeTbtc();\n        uint256 depositValue = deposit.lotSizeTbtc();\n\n        require(canMint(depositValue), \"Can't mint more than the max supply cap\");\n\n        // If the backing Deposit does not have a signer fee in escrow, mint it.\n        if(tbtcToken.balanceOf(address(_tdtId)) < signerFee) {\n            tbtcToken.mint(msg.sender, depositValue.sub(signerFee));\n            tbtcToken.mint(address(_tdtId), signerFee);\n        }\n        else{\n            tbtcToken.mint(msg.sender, depositValue);\n        }\n\n        // owner of the TDT during first TBTC mint receives the FRT\n        if(!feeRebateToken.exists(_tdtId)){\n            feeRebateToken.mint(msg.sender, _tdtId);\n        }\n    }\n\n    /// @notice Return whether an amount of TBTC can be minted according to the supply cap\n    ///         schedule\n    /// @dev This function is also used by TBTCSystem to decide whether to allow a new deposit.\n    /// @return True if the amount can be minted without hitting the max supply, false otherwise.\n    function canMint(uint256 amount) public view returns (bool) {\n        return getMintedSupply().add(amount) < getMaxSupply();\n    }\n\n    /// @notice Determines whether a deposit is qualified for minting TBTC.\n    /// @param _depositAddress The address of the deposit\n    function isQualified(address payable _depositAddress) public view returns (bool) {\n        return Deposit(_depositAddress).inActive();\n    }\n\n    /// @notice Return the minted TBTC supply in weitoshis (BTC * 10 ** 18).\n    function getMintedSupply() public view returns (uint256) {\n        return tbtcToken.totalSupply();\n    }\n\n    /// @notice Get the maximum TBTC token supply based on the age of the\n    ///         contract deployment. The supply cap starts at 2 BTC for the two\n    ///         days, 100 for the first week, 250 for the next, then 500, 750,\n    ///         1000, 1500, 2000, 2500, and 3000... finally removing the minting\n    ///         restriction after 9 weeks and returning 21M BTC as a sanity\n    ///         check.\n    /// @return The max supply in weitoshis (BTC * 10 ** 18).\n    function getMaxSupply() public view returns (uint256) {\n        uint256 age = block.timestamp - createdAt;\n\n        if(age < 2 days) {\n            return 2 * 10 ** 18;\n        }\n\n        if (age < 7 days) {\n            return 100 * 10 ** 18;\n        }\n\n        if (age < 14 days) {\n            return 250 * 10 ** 18;\n        }\n\n        if (age < 21 days) {\n            return 500 * 10 ** 18;\n        }\n\n        if (age < 28 days) {\n            return 750 * 10 ** 18;\n        }\n\n        if (age < 35 days) {\n            return 1000 * 10 ** 18;\n        }\n\n        if (age < 42 days) {\n            return 1500 * 10 ** 18;\n        }\n\n        if (age < 49 days) {\n            return 2000 * 10 ** 18;\n        }\n\n        if (age < 56 days) {\n            return 2500 * 10 ** 18;\n        }\n\n        if (age < 63 days) {\n            return 3000 * 10 ** 18;\n        }\n\n        return 21e6 * 10 ** 18;\n    }\n\n    // WRAPPERS\n\n    /// @notice Qualifies a deposit and mints TBTC.\n    /// @dev User must allow VendingManchine to transfer TDT.\n    function unqualifiedDepositToTbtc(\n        address payable _depositAddress,\n        bytes4 _txVersion,\n        bytes memory _txInputVector,\n        bytes memory _txOutputVector,\n        bytes4 _txLocktime,\n        uint8 _fundingOutputIndex,\n        bytes memory _merkleProof,\n        uint256 _txIndexInBlock,\n        bytes memory _bitcoinHeaders\n    ) public { // not external to allow bytes memory parameters\n        Deposit _d = Deposit(_depositAddress);\n        _d.provideBTCFundingProof(\n            _txVersion,\n            _txInputVector,\n            _txOutputVector,\n            _txLocktime,\n            _fundingOutputIndex,\n            _merkleProof,\n            _txIndexInBlock,\n            _bitcoinHeaders\n        );\n\n        tdtToTbtc(uint256(_depositAddress));\n    }\n\n    /// @notice Redeems a Deposit by purchasing a TDT with TBTC for _finalRecipient,\n    ///         and using the TDT to redeem corresponding Deposit as _finalRecipient.\n    ///         This function will revert if the Deposit is not in ACTIVE state.\n    /// @dev Vending Machine transfers TBTC allowance to Deposit.\n    /// @param  _depositAddress     The address of the Deposit to redeem.\n    /// @param  _outputValueBytes   The 8-byte Bitcoin transaction output size in Little Endian.\n    /// @param  _redeemerOutputScript The redeemer's length-prefixed output script.\n    function tbtcToBtc(\n        address payable _depositAddress,\n        bytes8 _outputValueBytes,\n        bytes memory _redeemerOutputScript\n    ) public { // not external to allow bytes memory parameters\n        require(tbtcDepositToken.exists(uint256(_depositAddress)), \"tBTC Deposit Token does not exist\");\n        Deposit _d = Deposit(_depositAddress);\n\n        tbtcToken.burnFrom(msg.sender, _d.lotSizeTbtc());\n        tbtcDepositToken.approve(_depositAddress, uint256(_depositAddress));\n\n        uint256 tbtcOwed = _d.getOwnerRedemptionTbtcRequirement(msg.sender);\n\n        if(tbtcOwed != 0){\n            tbtcToken.transferFrom(msg.sender, address(this), tbtcOwed);\n            tbtcToken.approve(_depositAddress, tbtcOwed);\n        }\n\n        _d.transferAndRequestRedemption(_outputValueBytes, _redeemerOutputScript, msg.sender);\n    }\n}\n",
  "sourcePath": "/home/kowal/Projects/sovryn/tbtc/solidity/contracts/system/VendingMachine.sol",
  "compiler": {
    "name": "solc",
    "version": "0.5.17+commit.d19bba13.Emscripten.clang"
  },
  "schemaVersion": "3.0.23",
  "updatedAt": "2021-02-01T14:52:37.616Z",
  "networkType": "ethereum",
  "devdoc": {
    "details": "The Vending Machine should have exclusive TBTC and FRT (`FeeRebateToken`) minting         privileges.",
    "methods": {
      "canMint(uint256)": {
        "details": "This function is also used by TBTCSystem to decide whether to allow a new deposit.",
        "return": "True if the amount can be minted without hitting the max supply, false otherwise."
      },
      "getMaxSupply()": {
        "return": "The max supply in weitoshis (BTC * 10 ** 18)."
      },
      "isQualified(address)": {
        "params": {
          "_depositAddress": "The address of the deposit"
        }
      },
      "setExternalAddresses(address,address,address)": {
        "details": "Addresses are used to update the local contract instance.",
        "params": {
          "_feeRebateToken": "FeeRebateToken (FRT) contract. More info in `FeeRebateToken`.",
          "_tbtcDepositToken": "TBTCDepositToken (TDT) contract. More info in `TBTCDepositToken`.",
          "_tbtcToken": "TBTCToken contract. More info in `TBTCToken`."
        }
      },
      "tbtcToBtc(address,bytes8,bytes)": {
        "details": "Vending Machine transfers TBTC allowance to Deposit.",
        "params": {
          "_depositAddress": "The address of the Deposit to redeem.",
          "_outputValueBytes": "The 8-byte Bitcoin transaction output size in Little Endian.",
          "_redeemerOutputScript": "The redeemer's length-prefixed output script."
        }
      },
      "tbtcToTdt(uint256)": {
        "details": "We burn the lotSize of the Deposit in order to maintain         the TBTC supply peg in the Vending Machine. VendingMachine must be approved         by the caller to burn the required amount.",
        "params": {
          "_tdtId": "ID of tBTC Deposit Token to buy."
        }
      },
      "tdtToTbtc(uint256)": {
        "details": "Transfers TDT from caller to vending machine, and mints TBTC to caller.         Vending Machine must be approved to transfer TDT by the caller.",
        "params": {
          "_tdtId": "ID of tBTC Deposit Token to sell."
        }
      },
      "unqualifiedDepositToTbtc(address,bytes4,bytes,bytes,bytes4,uint8,bytes,uint256,bytes)": {
        "details": "User must allow VendingManchine to transfer TDT."
      }
    },
    "title": "Vending Machine"
  },
  "userdoc": {
    "methods": {
      "canMint(uint256)": {
        "notice": "Return whether an amount of TBTC can be minted according to the supply cap         schedule"
      },
      "getMaxSupply()": {
        "notice": "Get the maximum TBTC token supply based on the age of the         contract deployment. The supply cap starts at 2 BTC for the two         days, 100 for the first week, 250 for the next, then 500, 750,         1000, 1500, 2000, 2500, and 3000... finally removing the minting         restriction after 9 weeks and returning 21M BTC as a sanity         check."
      },
      "getMintedSupply()": {
        "notice": "Return the minted TBTC supply in weitoshis (BTC * 10 ** 18)."
      },
      "isQualified(address)": {
        "notice": "Determines whether a deposit is qualified for minting TBTC."
      },
      "setExternalAddresses(address,address,address)": {
        "notice": "Set external contracts needed by the Vending Machine."
      },
      "tbtcToBtc(address,bytes8,bytes)": {
        "notice": "Redeems a Deposit by purchasing a TDT with TBTC for _finalRecipient,         and using the TDT to redeem corresponding Deposit as _finalRecipient.         This function will revert if the Deposit is not in ACTIVE state."
      },
      "tbtcToTdt(uint256)": {
        "notice": "Burns TBTC and transfers the tBTC Deposit Token to the caller         as long as it is qualified."
      },
      "tdtToTbtc(uint256)": {
        "notice": "Transfer the tBTC Deposit Token and mint TBTC."
      },
      "unqualifiedDepositToTbtc(address,bytes4,bytes,bytes,bytes4,uint8,bytes,uint256,bytes)": {
        "notice": "Qualifies a deposit and mints TBTC."
      }
    },
    "notice": "The Vending Machine swaps TDTs (`TBTCDepositToken`)         to TBTC (`TBTCToken`) and vice versa."
  }
}